{
	"contracts/vaults/UniV3VaultGovernance.sol": {
		"UniV3VaultGovernance": {
			"abi": [
				{
					"inputs": [
						{
							"components": [
								{
									"internalType": "contract IProtocolGovernance",
									"name": "protocolGovernance",
									"type": "address"
								},
								{
									"internalType": "contract IVaultRegistry",
									"name": "registry",
									"type": "address"
								},
								{
									"internalType": "contract IVault",
									"name": "singleton",
									"type": "address"
								}
							],
							"internalType": "struct IVaultGovernance.InternalParams",
							"name": "internalParams_",
							"type": "tuple"
						},
						{
							"components": [
								{
									"internalType": "contract INonfungiblePositionManager",
									"name": "positionManager",
									"type": "address"
								},
								{
									"internalType": "contract IOracle",
									"name": "oracle",
									"type": "address"
								}
							],
							"internalType": "struct IUniV3VaultGovernance.DelayedProtocolParams",
							"name": "delayedProtocolParams_",
							"type": "tuple"
						}
					],
					"stateMutability": "nonpayable",
					"type": "constructor"
				},
				{
					"anonymous": false,
					"inputs": [
						{
							"indexed": true,
							"internalType": "address",
							"name": "origin",
							"type": "address"
						},
						{
							"indexed": true,
							"internalType": "address",
							"name": "sender",
							"type": "address"
						},
						{
							"components": [
								{
									"internalType": "contract INonfungiblePositionManager",
									"name": "positionManager",
									"type": "address"
								},
								{
									"internalType": "contract IOracle",
									"name": "oracle",
									"type": "address"
								}
							],
							"indexed": false,
							"internalType": "struct IUniV3VaultGovernance.DelayedProtocolParams",
							"name": "params",
							"type": "tuple"
						}
					],
					"name": "CommitDelayedProtocolParams",
					"type": "event"
				},
				{
					"anonymous": false,
					"inputs": [
						{
							"indexed": true,
							"internalType": "address",
							"name": "origin",
							"type": "address"
						},
						{
							"indexed": true,
							"internalType": "address",
							"name": "sender",
							"type": "address"
						},
						{
							"indexed": true,
							"internalType": "uint256",
							"name": "nft",
							"type": "uint256"
						},
						{
							"components": [
								{
									"internalType": "uint32",
									"name": "safetyIndicesSet",
									"type": "uint32"
								}
							],
							"indexed": false,
							"internalType": "struct IUniV3VaultGovernance.DelayedStrategyParams",
							"name": "params",
							"type": "tuple"
						}
					],
					"name": "CommitDelayedStrategyParams",
					"type": "event"
				},
				{
					"anonymous": false,
					"inputs": [
						{
							"indexed": true,
							"internalType": "address",
							"name": "origin",
							"type": "address"
						},
						{
							"indexed": true,
							"internalType": "address",
							"name": "sender",
							"type": "address"
						},
						{
							"components": [
								{
									"internalType": "contract IProtocolGovernance",
									"name": "protocolGovernance",
									"type": "address"
								},
								{
									"internalType": "contract IVaultRegistry",
									"name": "registry",
									"type": "address"
								},
								{
									"internalType": "contract IVault",
									"name": "singleton",
									"type": "address"
								}
							],
							"indexed": false,
							"internalType": "struct IVaultGovernance.InternalParams",
							"name": "params",
							"type": "tuple"
						}
					],
					"name": "CommitedInternalParams",
					"type": "event"
				},
				{
					"anonymous": false,
					"inputs": [
						{
							"indexed": true,
							"internalType": "address",
							"name": "origin",
							"type": "address"
						},
						{
							"indexed": true,
							"internalType": "address",
							"name": "sender",
							"type": "address"
						},
						{
							"indexed": false,
							"internalType": "address[]",
							"name": "vaultTokens",
							"type": "address[]"
						},
						{
							"indexed": false,
							"internalType": "bytes",
							"name": "options",
							"type": "bytes"
						},
						{
							"indexed": false,
							"internalType": "address",
							"name": "owner",
							"type": "address"
						},
						{
							"indexed": false,
							"internalType": "address",
							"name": "vaultAddress",
							"type": "address"
						},
						{
							"indexed": false,
							"internalType": "uint256",
							"name": "vaultNft",
							"type": "uint256"
						}
					],
					"name": "DeployedVault",
					"type": "event"
				},
				{
					"anonymous": false,
					"inputs": [
						{
							"indexed": true,
							"internalType": "address",
							"name": "origin",
							"type": "address"
						},
						{
							"indexed": true,
							"internalType": "address",
							"name": "sender",
							"type": "address"
						},
						{
							"components": [
								{
									"internalType": "contract INonfungiblePositionManager",
									"name": "positionManager",
									"type": "address"
								},
								{
									"internalType": "contract IOracle",
									"name": "oracle",
									"type": "address"
								}
							],
							"indexed": false,
							"internalType": "struct IUniV3VaultGovernance.DelayedProtocolParams",
							"name": "params",
							"type": "tuple"
						},
						{
							"indexed": false,
							"internalType": "uint256",
							"name": "when",
							"type": "uint256"
						}
					],
					"name": "StageDelayedProtocolParams",
					"type": "event"
				},
				{
					"anonymous": false,
					"inputs": [
						{
							"indexed": true,
							"internalType": "address",
							"name": "origin",
							"type": "address"
						},
						{
							"indexed": true,
							"internalType": "address",
							"name": "sender",
							"type": "address"
						},
						{
							"indexed": true,
							"internalType": "uint256",
							"name": "nft",
							"type": "uint256"
						},
						{
							"components": [
								{
									"internalType": "uint32",
									"name": "safetyIndicesSet",
									"type": "uint32"
								}
							],
							"indexed": false,
							"internalType": "struct IUniV3VaultGovernance.DelayedStrategyParams",
							"name": "params",
							"type": "tuple"
						},
						{
							"indexed": false,
							"internalType": "uint256",
							"name": "when",
							"type": "uint256"
						}
					],
					"name": "StageDelayedStrategyParams",
					"type": "event"
				},
				{
					"anonymous": false,
					"inputs": [
						{
							"indexed": true,
							"internalType": "address",
							"name": "origin",
							"type": "address"
						},
						{
							"indexed": true,
							"internalType": "address",
							"name": "sender",
							"type": "address"
						},
						{
							"components": [
								{
									"internalType": "contract IProtocolGovernance",
									"name": "protocolGovernance",
									"type": "address"
								},
								{
									"internalType": "contract IVaultRegistry",
									"name": "registry",
									"type": "address"
								},
								{
									"internalType": "contract IVault",
									"name": "singleton",
									"type": "address"
								}
							],
							"indexed": false,
							"internalType": "struct IVaultGovernance.InternalParams",
							"name": "params",
							"type": "tuple"
						},
						{
							"indexed": false,
							"internalType": "uint256",
							"name": "when",
							"type": "uint256"
						}
					],
					"name": "StagedInternalParams",
					"type": "event"
				},
				{
					"inputs": [],
					"name": "commitDelayedProtocolParams",
					"outputs": [],
					"stateMutability": "nonpayable",
					"type": "function"
				},
				{
					"inputs": [
						{
							"internalType": "uint256",
							"name": "nft",
							"type": "uint256"
						}
					],
					"name": "commitDelayedStrategyParams",
					"outputs": [],
					"stateMutability": "nonpayable",
					"type": "function"
				},
				{
					"inputs": [],
					"name": "commitInternalParams",
					"outputs": [],
					"stateMutability": "nonpayable",
					"type": "function"
				},
				{
					"inputs": [],
					"name": "contractName",
					"outputs": [
						{
							"internalType": "string",
							"name": "",
							"type": "string"
						}
					],
					"stateMutability": "pure",
					"type": "function"
				},
				{
					"inputs": [],
					"name": "contractNameBytes",
					"outputs": [
						{
							"internalType": "bytes32",
							"name": "",
							"type": "bytes32"
						}
					],
					"stateMutability": "pure",
					"type": "function"
				},
				{
					"inputs": [],
					"name": "contractVersion",
					"outputs": [
						{
							"internalType": "string",
							"name": "",
							"type": "string"
						}
					],
					"stateMutability": "pure",
					"type": "function"
				},
				{
					"inputs": [],
					"name": "contractVersionBytes",
					"outputs": [
						{
							"internalType": "bytes32",
							"name": "",
							"type": "bytes32"
						}
					],
					"stateMutability": "pure",
					"type": "function"
				},
				{
					"inputs": [
						{
							"internalType": "address[]",
							"name": "vaultTokens_",
							"type": "address[]"
						},
						{
							"internalType": "address",
							"name": "owner_",
							"type": "address"
						},
						{
							"internalType": "uint24",
							"name": "fee_",
							"type": "uint24"
						},
						{
							"internalType": "address",
							"name": "uniV3Helper_",
							"type": "address"
						}
					],
					"name": "createVault",
					"outputs": [
						{
							"internalType": "contract IUniV3Vault",
							"name": "vault",
							"type": "address"
						},
						{
							"internalType": "uint256",
							"name": "nft",
							"type": "uint256"
						}
					],
					"stateMutability": "nonpayable",
					"type": "function"
				},
				{
					"inputs": [],
					"name": "delayedProtocolParams",
					"outputs": [
						{
							"components": [
								{
									"internalType": "contract INonfungiblePositionManager",
									"name": "positionManager",
									"type": "address"
								},
								{
									"internalType": "contract IOracle",
									"name": "oracle",
									"type": "address"
								}
							],
							"internalType": "struct IUniV3VaultGovernance.DelayedProtocolParams",
							"name": "",
							"type": "tuple"
						}
					],
					"stateMutability": "view",
					"type": "function"
				},
				{
					"inputs": [],
					"name": "delayedProtocolParamsTimestamp",
					"outputs": [
						{
							"internalType": "uint256",
							"name": "",
							"type": "uint256"
						}
					],
					"stateMutability": "view",
					"type": "function"
				},
				{
					"inputs": [
						{
							"internalType": "uint256",
							"name": "nft",
							"type": "uint256"
						}
					],
					"name": "delayedProtocolPerVaultParamsTimestamp",
					"outputs": [
						{
							"internalType": "uint256",
							"name": "",
							"type": "uint256"
						}
					],
					"stateMutability": "view",
					"type": "function"
				},
				{
					"inputs": [
						{
							"internalType": "uint256",
							"name": "nft",
							"type": "uint256"
						}
					],
					"name": "delayedStrategyParams",
					"outputs": [
						{
							"components": [
								{
									"internalType": "uint32",
									"name": "safetyIndicesSet",
									"type": "uint32"
								}
							],
							"internalType": "struct IUniV3VaultGovernance.DelayedStrategyParams",
							"name": "",
							"type": "tuple"
						}
					],
					"stateMutability": "view",
					"type": "function"
				},
				{
					"inputs": [
						{
							"internalType": "uint256",
							"name": "nft",
							"type": "uint256"
						}
					],
					"name": "delayedStrategyParamsTimestamp",
					"outputs": [
						{
							"internalType": "uint256",
							"name": "",
							"type": "uint256"
						}
					],
					"stateMutability": "view",
					"type": "function"
				},
				{
					"inputs": [],
					"name": "internalParams",
					"outputs": [
						{
							"components": [
								{
									"internalType": "contract IProtocolGovernance",
									"name": "protocolGovernance",
									"type": "address"
								},
								{
									"internalType": "contract IVaultRegistry",
									"name": "registry",
									"type": "address"
								},
								{
									"internalType": "contract IVault",
									"name": "singleton",
									"type": "address"
								}
							],
							"internalType": "struct IVaultGovernance.InternalParams",
							"name": "",
							"type": "tuple"
						}
					],
					"stateMutability": "view",
					"type": "function"
				},
				{
					"inputs": [],
					"name": "internalParamsTimestamp",
					"outputs": [
						{
							"internalType": "uint256",
							"name": "",
							"type": "uint256"
						}
					],
					"stateMutability": "view",
					"type": "function"
				},
				{
					"inputs": [
						{
							"components": [
								{
									"internalType": "contract INonfungiblePositionManager",
									"name": "positionManager",
									"type": "address"
								},
								{
									"internalType": "contract IOracle",
									"name": "oracle",
									"type": "address"
								}
							],
							"internalType": "struct IUniV3VaultGovernance.DelayedProtocolParams",
							"name": "params",
							"type": "tuple"
						}
					],
					"name": "stageDelayedProtocolParams",
					"outputs": [],
					"stateMutability": "nonpayable",
					"type": "function"
				},
				{
					"inputs": [
						{
							"internalType": "uint256",
							"name": "nft",
							"type": "uint256"
						},
						{
							"components": [
								{
									"internalType": "uint32",
									"name": "safetyIndicesSet",
									"type": "uint32"
								}
							],
							"internalType": "struct IUniV3VaultGovernance.DelayedStrategyParams",
							"name": "params",
							"type": "tuple"
						}
					],
					"name": "stageDelayedStrategyParams",
					"outputs": [],
					"stateMutability": "nonpayable",
					"type": "function"
				},
				{
					"inputs": [
						{
							"components": [
								{
									"internalType": "contract IProtocolGovernance",
									"name": "protocolGovernance",
									"type": "address"
								},
								{
									"internalType": "contract IVaultRegistry",
									"name": "registry",
									"type": "address"
								},
								{
									"internalType": "contract IVault",
									"name": "singleton",
									"type": "address"
								}
							],
							"internalType": "struct IVaultGovernance.InternalParams",
							"name": "newParams",
							"type": "tuple"
						}
					],
					"name": "stageInternalParams",
					"outputs": [],
					"stateMutability": "nonpayable",
					"type": "function"
				},
				{
					"inputs": [],
					"name": "stagedDelayedProtocolParams",
					"outputs": [
						{
							"components": [
								{
									"internalType": "contract INonfungiblePositionManager",
									"name": "positionManager",
									"type": "address"
								},
								{
									"internalType": "contract IOracle",
									"name": "oracle",
									"type": "address"
								}
							],
							"internalType": "struct IUniV3VaultGovernance.DelayedProtocolParams",
							"name": "",
							"type": "tuple"
						}
					],
					"stateMutability": "view",
					"type": "function"
				},
				{
					"inputs": [
						{
							"internalType": "uint256",
							"name": "nft",
							"type": "uint256"
						}
					],
					"name": "stagedDelayedStrategyParams",
					"outputs": [
						{
							"components": [
								{
									"internalType": "uint32",
									"name": "safetyIndicesSet",
									"type": "uint32"
								}
							],
							"internalType": "struct IUniV3VaultGovernance.DelayedStrategyParams",
							"name": "",
							"type": "tuple"
						}
					],
					"stateMutability": "view",
					"type": "function"
				},
				{
					"inputs": [],
					"name": "stagedInternalParams",
					"outputs": [
						{
							"components": [
								{
									"internalType": "contract IProtocolGovernance",
									"name": "protocolGovernance",
									"type": "address"
								},
								{
									"internalType": "contract IVaultRegistry",
									"name": "registry",
									"type": "address"
								},
								{
									"internalType": "contract IVault",
									"name": "singleton",
									"type": "address"
								}
							],
							"internalType": "struct IVaultGovernance.InternalParams",
							"name": "",
							"type": "tuple"
						}
					],
					"stateMutability": "view",
					"type": "function"
				},
				{
					"inputs": [
						{
							"internalType": "bytes4",
							"name": "interfaceId",
							"type": "bytes4"
						}
					],
					"name": "supportsInterface",
					"outputs": [
						{
							"internalType": "bool",
							"name": "",
							"type": "bool"
						}
					],
					"stateMutability": "view",
					"type": "function"
				}
			],
			"devdoc": {
				"events": {
					"CommitDelayedProtocolParams(address,address,(address,address))": {
						"params": {
							"origin": "Origin of the transaction (tx.origin)",
							"params": "New params that are committed",
							"sender": "Sender of the call (msg.sender)"
						}
					},
					"CommitDelayedStrategyParams(address,address,uint256,(uint32))": {
						"params": {
							"nft": "VaultRegistry NFT of the vault",
							"origin": "Origin of the transaction (tx.origin)",
							"params": "New params that are committed",
							"sender": "Sender of the call (msg.sender)"
						}
					},
					"StageDelayedProtocolParams(address,address,(address,address),uint256)": {
						"params": {
							"origin": "Origin of the transaction (tx.origin)",
							"params": "New params that were staged for commit",
							"sender": "Sender of the call (msg.sender)",
							"when": "When the params could be committed"
						}
					},
					"StageDelayedStrategyParams(address,address,uint256,(uint32),uint256)": {
						"params": {
							"nft": "VaultRegistry NFT of the vault",
							"origin": "Origin of the transaction (tx.origin)",
							"params": "New params that were staged for commit",
							"sender": "Sender of the call (msg.sender)",
							"when": "When the params could be committed"
						}
					}
				},
				"kind": "dev",
				"methods": {
					"commitDelayedStrategyParams(uint256)": {
						"details": "Can only be called after delayedStrategyParamsTimestamp",
						"params": {
							"nft": "VaultRegistry NFT of the vault"
						}
					},
					"constructor": {
						"params": {
							"delayedProtocolParams_": "Initial Protocol Params",
							"internalParams_": "Initial Internal Params"
						}
					},
					"createVault(address[],address,uint24,address)": {
						"params": {
							"fee_": "Fee of the UniV3 pool",
							"owner_": "Owner of the vault NFT",
							"uniV3Helper_": "address of helper for UniV3 arithmetic with ticks",
							"vaultTokens_": "ERC20 tokens that will be managed by this Vault"
						}
					},
					"delayedProtocolPerVaultParamsTimestamp(uint256)": {
						"params": {
							"nft": "Nft of the vault"
						}
					},
					"delayedStrategyParams(uint256)": {
						"params": {
							"nft": "VaultRegistry NFT of the vault"
						}
					},
					"delayedStrategyParamsTimestamp(uint256)": {
						"params": {
							"nft": "Nft of the vault"
						}
					},
					"stageDelayedProtocolParams((address,address))": {
						"params": {
							"params": "New params"
						}
					},
					"stageDelayedStrategyParams(uint256,(uint32))": {
						"params": {
							"nft": "VaultRegistry NFT of the vault",
							"params": "New params"
						}
					},
					"stageInternalParams((address,address,address))": {
						"params": {
							"newParams": "New Internal Params"
						}
					},
					"stagedDelayedStrategyParams(uint256)": {
						"params": {
							"nft": "VaultRegistry NFT of the vault"
						}
					},
					"stagedInternalParams()": {
						"details": "The Internal Params could be committed after internalParamsTimestamp"
					},
					"supportsInterface(bytes4)": {
						"details": "Returns true if this contract implements the interface defined by `interfaceId`. See the corresponding https://eips.ethereum.org/EIPS/eip-165#how-interfaces-are-identified[EIP section] to learn more about how these ids are created. This function call must use less than 30 000 gas."
					}
				},
				"version": 1
			},
			"evm": {
				"assembly": "    /* \"contracts/vaults/UniV3VaultGovernance.sol\":391:7446  contract UniV3VaultGovernance is ContractMeta, IUniV3VaultGovernance, VaultGovernance {... */\n  mstore(0x40, 0x80)\n    /* \"contracts/vaults/UniV3VaultGovernance.sol\":644:1090  constructor(InternalParams memory internalParams_, DelayedProtocolParams memory delayedProtocolParams_)... */\n  callvalue\n  dup1\n  iszero\n  tag_1\n  jumpi\n  0x00\n  dup1\n  revert\ntag_1:\n  pop\n  mload(0x40)\n  sub(codesize, bytecodeSize)\n  dup1\n  bytecodeSize\n  dup4\n  codecopy\n  dup2\n  add\n  0x40\n  dup2\n  swap1\n  mstore\n  tag_2\n  swap2\n  tag_3\n  jump\t// in\ntag_2:\n    /* \"contracts/vaults/VaultGovernance.sol\":1799:1833  internalParams_.protocolGovernance */\n  dup2\n  mload\n    /* \"contracts/vaults/VaultGovernance.sol\":1850:1880  ExceptionsLibrary.ADDRESS_ZERO */\n  0x40\n  dup1\n  mload\n  dup1\n  dup3\n  add\n  swap1\n  swap2\n  mstore\n  0x02\n  dup2\n  mstore\n  shl(0xf1, 0x20ad)\n  0x20\n  dup3\n  add\n  mstore\n    /* \"contracts/vaults/UniV3VaultGovernance.sol\":773:788  internalParams_ */\n  dup4\n  swap2\n  sub(shl(0xa0, 0x01), 0x01)\n    /* \"contracts/vaults/VaultGovernance.sol\":1791:1848  address(internalParams_.protocolGovernance) != address(0) */\n  and\n    /* \"contracts/vaults/VaultGovernance.sol\":1783:1881  require(address(internalParams_.protocolGovernance) != address(0), ExceptionsLibrary.ADDRESS_ZERO) */\n  tag_7\n  jumpi\n  mload(0x40)\n  shl(0xe5, 0x461bcd)\n  dup2\n  mstore\n  0x04\n  add\n  tag_8\n  swap2\n  swap1\n  tag_9\n  jump\t// in\ntag_8:\n  mload(0x40)\n  dup1\n  swap2\n  sub\n  swap1\n  revert\ntag_7:\n  pop\n    /* \"contracts/vaults/VaultGovernance.sol\":1945:1946  0 */\n  0x00\n  sub(shl(0xa0, 0x01), 0x01)\n    /* \"contracts/vaults/VaultGovernance.sol\":1900:1947  address(internalParams_.registry) != address(0) */\n  and\n    /* \"contracts/vaults/VaultGovernance.sol\":1908:1923  internalParams_ */\n  dup2\n    /* \"contracts/vaults/VaultGovernance.sol\":1908:1932  internalParams_.registry */\n  0x20\n  add\n  mload\n  sub(shl(0xa0, 0x01), 0x01)\n    /* \"contracts/vaults/VaultGovernance.sol\":1900:1947  address(internalParams_.registry) != address(0) */\n  and\n  eq\n  iszero\n    /* \"contracts/vaults/VaultGovernance.sol\":1949:1979  ExceptionsLibrary.ADDRESS_ZERO */\n  mload(0x40)\n  dup1\n  0x40\n  add\n  0x40\n  mstore\n  dup1\n  0x02\n  dup2\n  mstore\n  0x20\n  add\n  shl(0xf1, 0x20ad)\n  dup2\n  mstore\n  pop\n    /* \"contracts/vaults/VaultGovernance.sol\":1892:1980  require(address(internalParams_.registry) != address(0), ExceptionsLibrary.ADDRESS_ZERO) */\n  swap1\n  tag_10\n  jumpi\n  mload(0x40)\n  shl(0xe5, 0x461bcd)\n  dup2\n  mstore\n  0x04\n  add\n  tag_8\n  swap2\n  swap1\n  tag_9\n  jump\t// in\ntag_10:\n  pop\n    /* \"contracts/vaults/VaultGovernance.sol\":2007:2032  internalParams_.singleton */\n  0x40\n  dup1\n  dup3\n  add\n  mload\n    /* \"contracts/vaults/VaultGovernance.sol\":2049:2079  ExceptionsLibrary.ADDRESS_ZERO */\n  dup2\n  mload\n  dup1\n  dup4\n  add\n  swap1\n  swap3\n  mstore\n  0x02\n  dup3\n  mstore\n  shl(0xf1, 0x20ad)\n  0x20\n  dup4\n  add\n  mstore\n  sub(shl(0xa0, 0x01), 0x01)\n    /* \"contracts/vaults/VaultGovernance.sol\":1999:2047  address(internalParams_.singleton) != address(0) */\n  and\n    /* \"contracts/vaults/VaultGovernance.sol\":1991:2080  require(address(internalParams_.singleton) != address(0), ExceptionsLibrary.ADDRESS_ZERO) */\n  tag_12\n  jumpi\n  mload(0x40)\n  shl(0xe5, 0x461bcd)\n  dup2\n  mstore\n  0x04\n  add\n  tag_8\n  swap2\n  swap1\n  tag_9\n  jump\t// in\ntag_12:\n  pop\n    /* \"contracts/vaults/VaultGovernance.sol\":2091:2124  _internalParams = internalParams_ */\n  dup1\n  mload\n    /* \"contracts/vaults/VaultGovernance.sol\":2091:2106  _internalParams */\n  0x00\n    /* \"contracts/vaults/VaultGovernance.sol\":2091:2124  _internalParams = internalParams_ */\n  dup1\n  sload\n  not(sub(shl(0xa0, 0x01), 0x01))\n  swap1\n  dup2\n  and\n  sub(shl(0xa0, 0x01), 0x01)\n  swap4\n  dup5\n  and\n  or\n  swap1\n  swap2\n  sstore\n  0x20\n  dup1\n  dup5\n  add\n  mload\n  0x01\n  dup1\n  sload\n  dup5\n  and\n  swap2\n  dup6\n  and\n  swap2\n  swap1\n  swap2\n  or\n  swap1\n  sstore\n  0x40\n  swap4\n  dup5\n  add\n  mload\n  0x02\n  dup1\n  sload\n  swap1\n  swap4\n  and\n  swap1\n  dup5\n  and\n  or\n  dup3\n  sstore\n    /* \"contracts/vaults/UniV3VaultGovernance.sol\":822:860  delayedProtocolParams_.positionManager */\n  dup5\n  mload\n    /* \"contracts/vaults/UniV3VaultGovernance.sol\":877:907  ExceptionsLibrary.ADDRESS_ZERO */\n  dup5\n  mload\n  dup1\n  dup7\n  add\n  swap1\n  swap6\n  mstore\n  swap2\n  dup5\n  mstore\n  shl(0xf1, 0x20ad)\n  swap1\n  dup5\n  add\n  mstore\n    /* \"contracts/vaults/UniV3VaultGovernance.sol\":814:875  address(delayedProtocolParams_.positionManager) != address(0) */\n  and\n    /* \"contracts/vaults/UniV3VaultGovernance.sol\":806:908  require(address(delayedProtocolParams_.positionManager) != address(0), ExceptionsLibrary.ADDRESS_ZERO) */\n  tag_15\n  jumpi\n  mload(0x40)\n  shl(0xe5, 0x461bcd)\n  dup2\n  mstore\n  0x04\n  add\n  tag_8\n  swap2\n  swap1\n  tag_9\n  jump\t// in\ntag_15:\n  pop\n    /* \"contracts/vaults/UniV3VaultGovernance.sol\":977:978  0 */\n  0x00\n  sub(shl(0xa0, 0x01), 0x01)\n    /* \"contracts/vaults/UniV3VaultGovernance.sol\":927:979  address(delayedProtocolParams_.oracle) != address(0) */\n  and\n    /* \"contracts/vaults/UniV3VaultGovernance.sol\":935:957  delayedProtocolParams_ */\n  dup2\n    /* \"contracts/vaults/UniV3VaultGovernance.sol\":935:964  delayedProtocolParams_.oracle */\n  0x20\n  add\n  mload\n  sub(shl(0xa0, 0x01), 0x01)\n    /* \"contracts/vaults/UniV3VaultGovernance.sol\":927:979  address(delayedProtocolParams_.oracle) != address(0) */\n  and\n  eq\n  iszero\n    /* \"contracts/vaults/UniV3VaultGovernance.sol\":981:1011  ExceptionsLibrary.ADDRESS_ZERO */\n  mload(0x40)\n  dup1\n  0x40\n  add\n  0x40\n  mstore\n  dup1\n  0x02\n  dup2\n  mstore\n  0x20\n  add\n  shl(0xf1, 0x20ad)\n  dup2\n  mstore\n  pop\n    /* \"contracts/vaults/UniV3VaultGovernance.sol\":919:1012  require(address(delayedProtocolParams_.oracle) != address(0), ExceptionsLibrary.ADDRESS_ZERO) */\n  swap1\n  tag_17\n  jumpi\n  mload(0x40)\n  shl(0xe5, 0x461bcd)\n  dup2\n  mstore\n  0x04\n  add\n  tag_8\n  swap2\n  swap1\n  tag_9\n  jump\t// in\ntag_17:\n  pop\n    /* \"contracts/vaults/UniV3VaultGovernance.sol\":1048:1082  abi.encode(delayedProtocolParams_) */\n  0x40\n  dup1\n  mload\n    /* \"#utility.yul\":2895:2908   */\n  dup3\n  mload\n  sub(shl(0xa0, 0x01), 0x01)\n    /* \"#utility.yul\":2891:2913   */\n  swap1\n  dup2\n  and\n    /* \"contracts/vaults/UniV3VaultGovernance.sol\":1048:1082  abi.encode(delayedProtocolParams_) */\n  0x20\n  dup1\n  dup5\n  add\n    /* \"#utility.yul\":2873:2914   */\n  swap2\n  swap1\n  swap2\n  mstore\n    /* \"#utility.yul\":2962:2979   */\n  dup1\n  dup6\n  add\n    /* \"#utility.yul\":2956:2980   */\n  mload\n    /* \"#utility.yul\":2952:2985   */\n  swap1\n  swap2\n  and\n    /* \"#utility.yul\":2930:2950   */\n  dup3\n  dup5\n  add\n    /* \"#utility.yul\":2923:2986   */\n  mstore\n    /* \"contracts/vaults/UniV3VaultGovernance.sol\":1048:1082  abi.encode(delayedProtocolParams_) */\n  dup3\n  mload\n  dup1\n  dup4\n  sub\n  dup5\n  add\n  dup2\n  mstore\n    /* \"#utility.yul\":2808:2826   */\n  0x60\n  swap1\n  swap3\n  add\n    /* \"contracts/vaults/UniV3VaultGovernance.sol\":1048:1082  abi.encode(delayedProtocolParams_) */\n  swap1\n  swap3\n  mstore\n    /* \"contracts/vaults/UniV3VaultGovernance.sol\":1023:1082  _delayedProtocolParams = abi.encode(delayedProtocolParams_) */\n  dup1\n  mload\n  tag_21\n  swap3\n    /* \"contracts/vaults/UniV3VaultGovernance.sol\":1023:1045  _delayedProtocolParams */\n  0x0d\n  swap3\n    /* \"contracts/vaults/UniV3VaultGovernance.sol\":1023:1082  _delayedProtocolParams = abi.encode(delayedProtocolParams_) */\n  add\n  swap1\n  tag_22\n  jump\t// in\ntag_21:\n  pop\n    /* \"contracts/vaults/UniV3VaultGovernance.sol\":644:1090  constructor(InternalParams memory internalParams_, DelayedProtocolParams memory delayedProtocolParams_)... */\n  pop\n  pop\n    /* \"contracts/vaults/UniV3VaultGovernance.sol\":391:7446  contract UniV3VaultGovernance is ContractMeta, IUniV3VaultGovernance, VaultGovernance {... */\n  jump(tag_37)\ntag_22:\n  dup3\n  dup1\n  sload\n  tag_24\n  swap1\n  tag_25\n  jump\t// in\ntag_24:\n  swap1\n  0x00\n  mstore\n  keccak256(0x00, 0x20)\n  swap1\n  0x1f\n  add\n  0x20\n  swap1\n  div\n  dup2\n  add\n  swap3\n  dup3\n  tag_27\n  jumpi\n  0x00\n  dup6\n  sstore\n  jump(tag_30)\ntag_27:\n  dup3\n  0x1f\n  lt\n  tag_28\n  jumpi\n  dup1\n  mload\n  not(0xff)\n  and\n  dup4\n  dup1\n  add\n  or\n  dup6\n  sstore\n  jump(tag_30)\ntag_28:\n  dup3\n  dup1\n  add\n  0x01\n  add\n  dup6\n  sstore\n  dup3\n  iszero\n  tag_30\n  jumpi\n  swap2\n  dup3\n  add\ntag_29:\n  dup3\n  dup2\n  gt\n  iszero\n  tag_30\n  jumpi\n  dup3\n  mload\n  dup3\n  sstore\n  swap2\n  0x20\n  add\n  swap2\n  swap1\n  0x01\n  add\n  swap1\n  jump(tag_29)\ntag_30:\n  pop\n  tag_31\n  swap3\n  swap2\n  pop\n  tag_32\n  jump\t// in\ntag_31:\n  pop\n  swap1\n  jump\t// out\ntag_32:\ntag_33:\n  dup1\n  dup3\n  gt\n  iszero\n  tag_31\n  jumpi\n  0x00\n  dup2\n  sstore\n  0x01\n  add\n  jump(tag_33)\n    /* \"#utility.yul\":14:357   */\ntag_35:\n    /* \"#utility.yul\":81:83   */\n  0x40\n    /* \"#utility.yul\":75:84   */\n  dup1\n  mload\n  swap1\n    /* \"#utility.yul\":111:126   */\n  dup2\n  add\n  sub(shl(0x40, 0x01), 0x01)\n    /* \"#utility.yul\":141:175   */\n  dup2\n  gt\n    /* \"#utility.yul\":177:199   */\n  dup3\n  dup3\n  lt\n    /* \"#utility.yul\":138:200   */\n  or\n    /* \"#utility.yul\":135:320   */\n  iszero\n  tag_39\n  jumpi\n    /* \"#utility.yul\":242:252   */\n  0x4e487b71\n    /* \"#utility.yul\":237:240   */\n  0xe0\n    /* \"#utility.yul\":233:253   */\n  shl\n    /* \"#utility.yul\":230:231   */\n  0x00\n    /* \"#utility.yul\":223:254   */\n  mstore\n    /* \"#utility.yul\":277:281   */\n  0x41\n    /* \"#utility.yul\":274:275   */\n  0x04\n    /* \"#utility.yul\":267:282   */\n  mstore\n    /* \"#utility.yul\":305:309   */\n  0x24\n    /* \"#utility.yul\":302:303   */\n  0x00\n    /* \"#utility.yul\":295:310   */\n  revert\n    /* \"#utility.yul\":135:320   */\ntag_39:\n    /* \"#utility.yul\":336:338   */\n  0x40\n    /* \"#utility.yul\":329:351   */\n  mstore\n    /* \"#utility.yul\":14:357   */\n  swap1\n  jump\t// out\n    /* \"#utility.yul\":362:514   */\ntag_36:\n  sub(shl(0xa0, 0x01), 0x01)\n    /* \"#utility.yul\":458:489   */\n  dup2\n  and\n    /* \"#utility.yul\":448:490   */\n  dup2\n  eq\n    /* \"#utility.yul\":438:508   */\n  tag_41\n  jumpi\n    /* \"#utility.yul\":504:505   */\n  0x00\n    /* \"#utility.yul\":501:502   */\n  dup1\n    /* \"#utility.yul\":494:506   */\n  revert\n    /* \"#utility.yul\":438:508   */\ntag_41:\n    /* \"#utility.yul\":362:514   */\n  pop\n  jump\t// out\n    /* \"#utility.yul\":519:2004   */\ntag_3:\n    /* \"#utility.yul\":669:675   */\n  0x00\n    /* \"#utility.yul\":677:683   */\n  dup1\n    /* \"#utility.yul\":721:730   */\n  dup3\n    /* \"#utility.yul\":712:719   */\n  dup5\n    /* \"#utility.yul\":708:731   */\n  sub\n    /* \"#utility.yul\":751:754   */\n  0xa0\n    /* \"#utility.yul\":747:749   */\n  dup2\n    /* \"#utility.yul\":743:755   */\n  slt\n    /* \"#utility.yul\":740:772   */\n  iszero\n  tag_43\n  jumpi\n    /* \"#utility.yul\":768:769   */\n  0x00\n    /* \"#utility.yul\":765:766   */\n  dup1\n    /* \"#utility.yul\":758:770   */\n  revert\n    /* \"#utility.yul\":740:772   */\ntag_43:\n    /* \"#utility.yul\":792:796   */\n  0x60\n    /* \"#utility.yul\":788:790   */\n  dup2\n    /* \"#utility.yul\":784:797   */\n  slt\n    /* \"#utility.yul\":781:814   */\n  iszero\n  tag_44\n  jumpi\n    /* \"#utility.yul\":810:811   */\n  0x00\n    /* \"#utility.yul\":807:808   */\n  dup1\n    /* \"#utility.yul\":800:812   */\n  revert\n    /* \"#utility.yul\":781:814   */\ntag_44:\n    /* \"#utility.yul\":843:845   */\n  0x40\n    /* \"#utility.yul\":837:846   */\n  mload\n    /* \"#utility.yul\":885:889   */\n  0x60\n    /* \"#utility.yul\":873:890   */\n  dup2\n  add\n  sub(shl(0x40, 0x01), 0x01)\n    /* \"#utility.yul\":905:939   */\n  dup2\n  gt\n    /* \"#utility.yul\":941:963   */\n  dup3\n  dup3\n  lt\n    /* \"#utility.yul\":902:964   */\n  or\n    /* \"#utility.yul\":899:1084   */\n  iszero\n  tag_45\n  jumpi\n    /* \"#utility.yul\":1006:1016   */\n  0x4e487b71\n    /* \"#utility.yul\":1001:1004   */\n  0xe0\n    /* \"#utility.yul\":997:1017   */\n  shl\n    /* \"#utility.yul\":994:995   */\n  0x00\n    /* \"#utility.yul\":987:1018   */\n  mstore\n    /* \"#utility.yul\":1041:1045   */\n  0x41\n    /* \"#utility.yul\":1038:1039   */\n  0x04\n    /* \"#utility.yul\":1031:1046   */\n  mstore\n    /* \"#utility.yul\":1069:1073   */\n  0x24\n    /* \"#utility.yul\":1066:1067   */\n  0x00\n    /* \"#utility.yul\":1059:1074   */\n  revert\n    /* \"#utility.yul\":899:1084   */\ntag_45:\n    /* \"#utility.yul\":1100:1102   */\n  0x40\n    /* \"#utility.yul\":1093:1115   */\n  mstore\n    /* \"#utility.yul\":1137:1153   */\n  dup5\n  mload\n    /* \"#utility.yul\":1162:1214   */\n  tag_46\n    /* \"#utility.yul\":1137:1153   */\n  dup2\n    /* \"#utility.yul\":1162:1214   */\n  tag_36\n  jump\t// in\ntag_46:\n    /* \"#utility.yul\":1223:1244   */\n  dup2\n  mstore\n    /* \"#utility.yul\":1289:1291   */\n  0x20\n    /* \"#utility.yul\":1274:1292   */\n  dup6\n  add\n    /* \"#utility.yul\":1268:1293   */\n  mload\n    /* \"#utility.yul\":1302:1356   */\n  tag_47\n    /* \"#utility.yul\":1268:1293   */\n  dup2\n    /* \"#utility.yul\":1302:1356   */\n  tag_36\n  jump\t// in\ntag_47:\n    /* \"#utility.yul\":1384:1386   */\n  0x20\n    /* \"#utility.yul\":1372:1387   */\n  dup3\n  add\n    /* \"#utility.yul\":1365:1397   */\n  mstore\n    /* \"#utility.yul\":1442:1444   */\n  0x40\n    /* \"#utility.yul\":1427:1445   */\n  dup6\n  add\n    /* \"#utility.yul\":1421:1446   */\n  mload\n    /* \"#utility.yul\":1455:1509   */\n  tag_48\n    /* \"#utility.yul\":1421:1446   */\n  dup2\n    /* \"#utility.yul\":1455:1509   */\n  tag_36\n  jump\t// in\ntag_48:\n    /* \"#utility.yul\":1537:1539   */\n  0x40\n    /* \"#utility.yul\":1525:1540   */\n  dup3\n  dup2\n  add\n    /* \"#utility.yul\":1518:1550   */\n  swap2\n  swap1\n  swap2\n  mstore\n    /* \"#utility.yul\":1529:1535   */\n  swap1\n  swap4\n  pop\n  not(0x5f)\n    /* \"#utility.yul\":1591:1607   */\n  dup3\n  add\n    /* \"#utility.yul\":1587:1612   */\n  slt\n    /* \"#utility.yul\":1584:1629   */\n  iszero\n  tag_49\n  jumpi\n    /* \"#utility.yul\":1625:1626   */\n  0x00\n    /* \"#utility.yul\":1622:1623   */\n  dup1\n    /* \"#utility.yul\":1615:1627   */\n  revert\n    /* \"#utility.yul\":1584:1629   */\ntag_49:\n  pop\n    /* \"#utility.yul\":1653:1670   */\n  tag_50\n  tag_35\n  jump\t// in\ntag_50:\n    /* \"#utility.yul\":1715:1719   */\n  0x60\n    /* \"#utility.yul\":1704:1713   */\n  dup5\n    /* \"#utility.yul\":1700:1720   */\n  add\n    /* \"#utility.yul\":1694:1721   */\n  mload\n    /* \"#utility.yul\":1730:1784   */\n  tag_51\n    /* \"#utility.yul\":1776:1783   */\n  dup2\n    /* \"#utility.yul\":1730:1784   */\n  tag_36\n  jump\t// in\ntag_51:\n    /* \"#utility.yul\":1793:1817   */\n  dup2\n  mstore\n    /* \"#utility.yul\":1862:1865   */\n  0x80\n    /* \"#utility.yul\":1847:1866   */\n  dup5\n  add\n    /* \"#utility.yul\":1841:1867   */\n  mload\n    /* \"#utility.yul\":1876:1930   */\n  tag_52\n    /* \"#utility.yul\":1841:1867   */\n  dup2\n    /* \"#utility.yul\":1876:1930   */\n  tag_36\n  jump\t// in\ntag_52:\n    /* \"#utility.yul\":1959:1961   */\n  0x20\n    /* \"#utility.yul\":1946:1962   */\n  dup3\n  add\n    /* \"#utility.yul\":1939:1972   */\n  mstore\n    /* \"#utility.yul\":519:2004   */\n  swap2\n  swap5\n    /* \"#utility.yul\":1950:1957   */\n  swap2\n  swap4\n  pop\n    /* \"#utility.yul\":519:2004   */\n  swap1\n  swap2\n  pop\n  pop\n  jump\t// out\n    /* \"#utility.yul\":2009:2606   */\ntag_9:\n    /* \"#utility.yul\":2121:2125   */\n  0x00\n    /* \"#utility.yul\":2150:2152   */\n  0x20\n    /* \"#utility.yul\":2179:2181   */\n  dup1\n    /* \"#utility.yul\":2168:2177   */\n  dup4\n    /* \"#utility.yul\":2161:2182   */\n  mstore\n    /* \"#utility.yul\":2211:2217   */\n  dup4\n    /* \"#utility.yul\":2205:2218   */\n  mload\n    /* \"#utility.yul\":2254:2260   */\n  dup1\n    /* \"#utility.yul\":2249:2251   */\n  dup3\n    /* \"#utility.yul\":2238:2247   */\n  dup6\n    /* \"#utility.yul\":2234:2252   */\n  add\n    /* \"#utility.yul\":2227:2261   */\n  mstore\n    /* \"#utility.yul\":2279:2280   */\n  0x00\n    /* \"#utility.yul\":2289:2429   */\ntag_54:\n    /* \"#utility.yul\":2303:2309   */\n  dup2\n    /* \"#utility.yul\":2300:2301   */\n  dup2\n    /* \"#utility.yul\":2297:2310   */\n  lt\n    /* \"#utility.yul\":2289:2429   */\n  iszero\n  tag_56\n  jumpi\n    /* \"#utility.yul\":2398:2412   */\n  dup6\n  dup2\n  add\n    /* \"#utility.yul\":2394:2417   */\n  dup4\n  add\n    /* \"#utility.yul\":2388:2418   */\n  mload\n    /* \"#utility.yul\":2364:2381   */\n  dup6\n  dup3\n  add\n    /* \"#utility.yul\":2383:2385   */\n  0x40\n    /* \"#utility.yul\":2360:2386   */\n  add\n    /* \"#utility.yul\":2353:2419   */\n  mstore\n    /* \"#utility.yul\":2318:2328   */\n  dup3\n  add\n    /* \"#utility.yul\":2289:2429   */\n  jump(tag_54)\ntag_56:\n    /* \"#utility.yul\":2447:2453   */\n  dup2\n    /* \"#utility.yul\":2444:2445   */\n  dup2\n    /* \"#utility.yul\":2441:2454   */\n  gt\n    /* \"#utility.yul\":2438:2529   */\n  iszero\n  tag_57\n  jumpi\n    /* \"#utility.yul\":2517:2518   */\n  0x00\n    /* \"#utility.yul\":2512:2514   */\n  0x40\n    /* \"#utility.yul\":2503:2509   */\n  dup4\n    /* \"#utility.yul\":2492:2501   */\n  dup8\n    /* \"#utility.yul\":2488:2510   */\n  add\n    /* \"#utility.yul\":2484:2515   */\n  add\n    /* \"#utility.yul\":2477:2519   */\n  mstore\n    /* \"#utility.yul\":2438:2529   */\ntag_57:\n  pop\n    /* \"#utility.yul\":2590:2592   */\n  0x1f\n    /* \"#utility.yul\":2569:2584   */\n  add\n  not(0x1f)\n    /* \"#utility.yul\":2565:2594   */\n  and\n    /* \"#utility.yul\":2550:2595   */\n  swap3\n  swap1\n  swap3\n  add\n    /* \"#utility.yul\":2597:2599   */\n  0x40\n    /* \"#utility.yul\":2546:2600   */\n  add\n  swap4\n    /* \"#utility.yul\":2009:2606   */\n  swap3\n  pop\n  pop\n  pop\n  jump\t// out\n    /* \"#utility.yul\":2997:3377   */\ntag_25:\n    /* \"#utility.yul\":3076:3077   */\n  0x01\n    /* \"#utility.yul\":3072:3084   */\n  dup2\n  dup2\n  shr\n  swap1\n    /* \"#utility.yul\":3119:3131   */\n  dup3\n  and\n  dup1\n    /* \"#utility.yul\":3140:3201   */\n  tag_60\n  jumpi\n    /* \"#utility.yul\":3194:3198   */\n  0x7f\n    /* \"#utility.yul\":3186:3192   */\n  dup3\n    /* \"#utility.yul\":3182:3199   */\n  and\n    /* \"#utility.yul\":3172:3199   */\n  swap2\n  pop\n    /* \"#utility.yul\":3140:3201   */\ntag_60:\n    /* \"#utility.yul\":3247:3249   */\n  0x20\n    /* \"#utility.yul\":3239:3245   */\n  dup3\n    /* \"#utility.yul\":3236:3250   */\n  lt\n    /* \"#utility.yul\":3216:3234   */\n  dup2\n    /* \"#utility.yul\":3213:3251   */\n  eq\n    /* \"#utility.yul\":3210:3371   */\n  iszero\n  tag_61\n  jumpi\n    /* \"#utility.yul\":3293:3303   */\n  0x4e487b71\n    /* \"#utility.yul\":3288:3291   */\n  0xe0\n    /* \"#utility.yul\":3284:3304   */\n  shl\n    /* \"#utility.yul\":3281:3282   */\n  0x00\n    /* \"#utility.yul\":3274:3305   */\n  mstore\n    /* \"#utility.yul\":3328:3332   */\n  0x22\n    /* \"#utility.yul\":3325:3326   */\n  0x04\n    /* \"#utility.yul\":3318:3333   */\n  mstore\n    /* \"#utility.yul\":3356:3360   */\n  0x24\n    /* \"#utility.yul\":3353:3354   */\n  0x00\n    /* \"#utility.yul\":3346:3361   */\n  revert\n    /* \"#utility.yul\":3210:3371   */\ntag_61:\n  pop\n    /* \"#utility.yul\":2997:3377   */\n  swap2\n  swap1\n  pop\n  jump\t// out\ntag_37:\n    /* \"contracts/vaults/UniV3VaultGovernance.sol\":391:7446  contract UniV3VaultGovernance is ContractMeta, IUniV3VaultGovernance, VaultGovernance {... */\n  dataSize(sub_0)\n  dup1\n  dataOffset(sub_0)\n  0x00\n  codecopy\n  0x00\n  return\nstop\n\nsub_0: assembly {\n        /* \"contracts/vaults/UniV3VaultGovernance.sol\":391:7446  contract UniV3VaultGovernance is ContractMeta, IUniV3VaultGovernance, VaultGovernance {... */\n      mstore(0x40, 0x80)\n      callvalue\n      dup1\n      iszero\n      tag_1\n      jumpi\n      0x00\n      dup1\n      revert\n    tag_1:\n      pop\n      jumpi(tag_2, lt(calldatasize, 0x04))\n      shr(0xe0, calldataload(0x00))\n      dup1\n      0x75d0c0dc\n      gt\n      tag_25\n      jumpi\n      dup1\n      0xa0a8e460\n      gt\n      tag_26\n      jumpi\n      dup1\n      0xa0a8e460\n      eq\n      tag_19\n      jumpi\n      dup1\n      0xb2fe31ad\n      eq\n      tag_20\n      jumpi\n      dup1\n      0xc2cbdc67\n      eq\n      tag_21\n      jumpi\n      dup1\n      0xd34cc380\n      eq\n      tag_22\n      jumpi\n      dup1\n      0xd4a07d34\n      eq\n      tag_23\n      jumpi\n      dup1\n      0xe4af6e79\n      eq\n      tag_24\n      jumpi\n      0x00\n      dup1\n      revert\n    tag_26:\n      dup1\n      0x75d0c0dc\n      eq\n      tag_14\n      jumpi\n      dup1\n      0x7ac46fbb\n      eq\n      tag_15\n      jumpi\n      dup1\n      0x86c6be3e\n      eq\n      tag_16\n      jumpi\n      dup1\n      0x8860d248\n      eq\n      tag_17\n      jumpi\n      dup1\n      0x98347a5d\n      eq\n      tag_18\n      jumpi\n      0x00\n      dup1\n      revert\n    tag_25:\n      dup1\n      0x1c7f4c73\n      gt\n      tag_27\n      jumpi\n      dup1\n      0x1c7f4c73\n      eq\n      tag_8\n      jumpi\n      dup1\n      0x25281714\n      eq\n      tag_9\n      jumpi\n      dup1\n      0x511ce798\n      eq\n      tag_10\n      jumpi\n      dup1\n      0x59f3dae7\n      eq\n      tag_11\n      jumpi\n      dup1\n      0x66c153e9\n      eq\n      tag_12\n      jumpi\n      dup1\n      0x6707acee\n      eq\n      tag_13\n      jumpi\n      0x00\n      dup1\n      revert\n    tag_27:\n      dup1\n      0x01ffc9a7\n      eq\n      tag_3\n      jumpi\n      dup1\n      0x06a46239\n      eq\n      tag_4\n      jumpi\n      dup1\n      0x09946538\n      eq\n      tag_5\n      jumpi\n      dup1\n      0x0bdedd56\n      eq\n      tag_6\n      jumpi\n      dup1\n      0x0e3e80ac\n      eq\n      tag_7\n      jumpi\n    tag_2:\n      0x00\n      dup1\n      revert\n        /* \"contracts/vaults/UniV3VaultGovernance.sol\":2755:2966  function supportsInterface(bytes4 interfaceId) public view virtual override returns (bool) {... */\n    tag_3:\n      tag_28\n      tag_29\n      calldatasize\n      0x04\n      tag_30\n      jump\t// in\n    tag_29:\n      tag_31\n      jump\t// in\n    tag_28:\n      mload(0x40)\n        /* \"#utility.yul\":470:484   */\n      swap1\n      iszero\n        /* \"#utility.yul\":463:485   */\n      iszero\n        /* \"#utility.yul\":445:486   */\n      dup2\n      mstore\n        /* \"#utility.yul\":433:435   */\n      0x20\n        /* \"#utility.yul\":418:436   */\n      add\n        /* \"contracts/vaults/UniV3VaultGovernance.sol\":2755:2966  function supportsInterface(bytes4 interfaceId) public view virtual override returns (bool) {... */\n    tag_32:\n      mload(0x40)\n      dup1\n      swap2\n      sub\n      swap1\n      return\n        /* \"contracts/utils/ContractMeta.sol\":611:719  function contractVersionBytes() external pure returns (bytes32) {... */\n    tag_4:\n      shl(0xdc, 0x0312e312e3)\n    tag_34:\n      mload(0x40)\n        /* \"#utility.yul\":643:668   */\n      swap1\n      dup2\n      mstore\n        /* \"#utility.yul\":631:633   */\n      0x20\n        /* \"#utility.yul\":616:634   */\n      add\n        /* \"contracts/utils/ContractMeta.sol\":611:719  function contractVersionBytes() external pure returns (bytes32) {... */\n      tag_32\n        /* \"#utility.yul\":497:674   */\n      jump\n        /* \"contracts/vaults/VaultGovernance.sol\":3610:4261  function stageInternalParams(InternalParams memory newParams) external {... */\n    tag_5:\n      tag_38\n      tag_39\n      calldatasize\n      0x04\n      tag_40\n      jump\t// in\n    tag_39:\n      tag_41\n      jump\t// in\n    tag_38:\n      stop\n        /* \"contracts/vaults/UniV3VaultGovernance.sol\":4322:4633  function commitDelayedStrategyParams(uint256 nft) external {... */\n    tag_6:\n      tag_38\n      tag_43\n      calldatasize\n      0x04\n      tag_44\n      jump\t// in\n    tag_43:\n      tag_45\n      jump\t// in\n        /* \"contracts/utils/ContractMeta.sol\":366:468  function contractNameBytes() external pure returns (bytes32) {... */\n    tag_7:\n      shl(0x60, 0x556e6956335661756c74476f7665726e616e6365)\n      tag_34\n        /* \"contracts/utils/ContractMeta.sol\":611:719  function contractVersionBytes() external pure returns (bytes32) {... */\n      jump\n        /* \"contracts/vaults/VaultGovernance.sol\":2824:2941  function internalParamsTimestamp() external view returns (uint256) {... */\n    tag_8:\n        /* \"contracts/vaults/VaultGovernance.sol\":2909:2933  _internalParamsTimestamp */\n      sload(0x06)\n        /* \"contracts/vaults/VaultGovernance.sol\":2824:2941  function internalParamsTimestamp() external view returns (uint256) {... */\n      jump(tag_34)\n        /* \"contracts/vaults/UniV3VaultGovernance.sol\":3905:4271  function stageDelayedStrategyParams(uint256 nft, DelayedStrategyParams calldata params) external {... */\n    tag_9:\n      tag_38\n      tag_54\n      calldatasize\n      0x04\n      tag_55\n      jump\t// in\n    tag_54:\n      tag_56\n      jump\t// in\n        /* \"contracts/vaults/VaultGovernance.sol\":2438:2601  function delayedProtocolPerVaultParamsTimestamp(uint256 nft) external view returns (uint256) {... */\n    tag_10:\n      tag_34\n      tag_58\n      calldatasize\n      0x04\n      tag_44\n      jump\t// in\n    tag_58:\n        /* \"contracts/vaults/VaultGovernance.sol\":2522:2529  uint256 */\n      0x00\n        /* \"contracts/vaults/VaultGovernance.sol\":2549:2593  _delayedProtocolPerVaultParamsTimestamp[nft] */\n      swap1\n      dup2\n      mstore\n        /* \"contracts/vaults/VaultGovernance.sol\":2549:2588  _delayedProtocolPerVaultParamsTimestamp */\n      0x0c\n        /* \"contracts/vaults/VaultGovernance.sol\":2549:2593  _delayedProtocolPerVaultParamsTimestamp[nft] */\n      0x20\n      mstore\n      0x40\n      swap1\n      keccak256\n      sload\n      swap1\n        /* \"contracts/vaults/VaultGovernance.sol\":2438:2601  function delayedProtocolPerVaultParamsTimestamp(uint256 nft) external view returns (uint256) {... */\n      jump\n        /* \"contracts/vaults/UniV3VaultGovernance.sol\":2006:2344  function stagedDelayedStrategyParams(uint256 nft) external view returns (DelayedStrategyParams memory) {... */\n    tag_11:\n      tag_61\n      tag_62\n      calldatasize\n      0x04\n      tag_44\n      jump\t// in\n    tag_62:\n      tag_63\n      jump\t// in\n    tag_61:\n      mload(0x40)\n        /* \"#utility.yul\":3074:3087   */\n      swap1\n      mload\n        /* \"#utility.yul\":3089:3099   */\n      0xffffffff\n        /* \"#utility.yul\":3070:3100   */\n      and\n        /* \"#utility.yul\":3052:3101   */\n      dup2\n      mstore\n        /* \"#utility.yul\":3040:3042   */\n      0x20\n        /* \"#utility.yul\":3025:3043   */\n      add\n        /* \"contracts/vaults/UniV3VaultGovernance.sol\":2006:2344  function stagedDelayedStrategyParams(uint256 nft) external view returns (DelayedStrategyParams memory) {... */\n      tag_32\n        /* \"#utility.yul\":2828:3107   */\n      jump\n        /* \"contracts/vaults/UniV3VaultGovernance.sol\":4684:5165  function createVault(... */\n    tag_12:\n      tag_66\n      tag_67\n      calldatasize\n      0x04\n      tag_68\n      jump\t// in\n    tag_67:\n      tag_69\n      jump\t// in\n    tag_66:\n      0x40\n      dup1\n      mload\n      sub(shl(0xa0, 0x01), 0x01)\n        /* \"#utility.yul\":4920:4952   */\n      swap1\n      swap4\n      and\n        /* \"#utility.yul\":4902:4953   */\n      dup4\n      mstore\n        /* \"#utility.yul\":4984:4986   */\n      0x20\n        /* \"#utility.yul\":4969:4987   */\n      dup4\n      add\n        /* \"#utility.yul\":4962:4996   */\n      swap2\n      swap1\n      swap2\n      mstore\n        /* \"#utility.yul\":4875:4893   */\n      add\n        /* \"contracts/vaults/UniV3VaultGovernance.sol\":4684:5165  function createVault(... */\n      tag_32\n        /* \"#utility.yul\":4708:5002   */\n      jump\n        /* \"contracts/vaults/VaultGovernance.sol\":2245:2392  function delayedStrategyParamsTimestamp(uint256 nft) external view returns (uint256) {... */\n    tag_13:\n      tag_34\n      tag_73\n      calldatasize\n      0x04\n      tag_44\n      jump\t// in\n    tag_73:\n        /* \"contracts/vaults/VaultGovernance.sol\":2321:2328  uint256 */\n      0x00\n        /* \"contracts/vaults/VaultGovernance.sol\":2348:2384  _delayedStrategyParamsTimestamp[nft] */\n      swap1\n      dup2\n      mstore\n        /* \"contracts/vaults/VaultGovernance.sol\":2348:2379  _delayedStrategyParamsTimestamp */\n      0x09\n        /* \"contracts/vaults/VaultGovernance.sol\":2348:2384  _delayedStrategyParamsTimestamp[nft] */\n      0x20\n      mstore\n      0x40\n      swap1\n      keccak256\n      sload\n      swap1\n        /* \"contracts/vaults/VaultGovernance.sol\":2245:2392  function delayedStrategyParamsTimestamp(uint256 nft) external view returns (uint256) {... */\n      jump\n        /* \"contracts/utils/ContractMeta.sol\":237:358  function contractName() external pure returns (string memory) {... */\n    tag_14:\n      tag_76\n      tag_77\n      jump\t// in\n    tag_76:\n      mload(0x40)\n      tag_32\n      swap2\n      swap1\n      tag_79\n      jump\t// in\n        /* \"contracts/vaults/VaultGovernance.sol\":2987:3100  function internalParams() external view returns (InternalParams memory) {... */\n    tag_15:\n      tag_80\n      0x40\n      dup1\n      mload\n      0x60\n      dup2\n      add\n      dup3\n      mstore\n      0x00\n      dup1\n      dup3\n      mstore\n      0x20\n      dup3\n      add\n      dup2\n      swap1\n      mstore\n      swap2\n      dup2\n      add\n      swap2\n      swap1\n      swap2\n      mstore\n      pop\n        /* \"contracts/vaults/VaultGovernance.sol\":3070:3092  return _internalParams */\n      0x40\n      dup1\n      mload\n      0x60\n      dup2\n      add\n      dup3\n      mstore\n        /* \"contracts/vaults/VaultGovernance.sol\":3077:3092  _internalParams */\n      0x00\n        /* \"contracts/vaults/VaultGovernance.sol\":3070:3092  return _internalParams */\n      sload\n      sub(shl(0xa0, 0x01), 0x01)\n      swap1\n      dup2\n      and\n      dup3\n      mstore\n      sload(0x01)\n      dup2\n      and\n      0x20\n      dup4\n      add\n      mstore\n      sload(0x02)\n      and\n      swap2\n      dup2\n      add\n      swap2\n      swap1\n      swap2\n      mstore\n      swap1\n        /* \"contracts/vaults/VaultGovernance.sol\":2987:3100  function internalParams() external view returns (InternalParams memory) {... */\n      jump\n    tag_80:\n      mload(0x40)\n      tag_32\n      swap2\n      swap1\n      tag_83\n      jump\t// in\n        /* \"contracts/vaults/VaultGovernance.sol\":3146:3271  function stagedInternalParams() external view returns (InternalParams memory) {... */\n    tag_16:\n      tag_80\n      0x40\n      dup1\n      mload\n      0x60\n      dup2\n      add\n      dup3\n      mstore\n      0x00\n      dup1\n      dup3\n      mstore\n      0x20\n      dup3\n      add\n      dup2\n      swap1\n      mstore\n      swap2\n      dup2\n      add\n      swap2\n      swap1\n      swap2\n      mstore\n      pop\n        /* \"contracts/vaults/VaultGovernance.sol\":3235:3263  return _stagedInternalParams */\n      0x40\n      dup1\n      mload\n      0x60\n      dup2\n      add\n      dup3\n      mstore\n        /* \"contracts/vaults/VaultGovernance.sol\":3242:3263  _stagedInternalParams */\n      0x03\n        /* \"contracts/vaults/VaultGovernance.sol\":3235:3263  return _stagedInternalParams */\n      sload\n      sub(shl(0xa0, 0x01), 0x01)\n      swap1\n      dup2\n      and\n      dup3\n      mstore\n      sload(0x04)\n      dup2\n      and\n      0x20\n      dup4\n      add\n      mstore\n      sload(0x05)\n      and\n      swap2\n      dup2\n      add\n      swap2\n      swap1\n      swap2\n      mstore\n      swap1\n        /* \"contracts/vaults/VaultGovernance.sol\":3146:3271  function stagedInternalParams() external view returns (InternalParams memory) {... */\n      jump\n        /* \"contracts/vaults/UniV3VaultGovernance.sol\":2395:2718  function delayedStrategyParams(uint256 nft) external view returns (DelayedStrategyParams memory) {... */\n    tag_17:\n      tag_61\n      tag_88\n      calldatasize\n      0x04\n      tag_44\n      jump\t// in\n    tag_88:\n      tag_89\n      jump\t// in\n        /* \"contracts/vaults/UniV3VaultGovernance.sol\":3580:3854  function commitDelayedProtocolParams() external {... */\n    tag_18:\n      tag_38\n      tag_92\n      jump\t// in\n        /* \"contracts/utils/ContractMeta.sol\":476:603  function contractVersion() external pure returns (string memory) {... */\n    tag_19:\n      tag_76\n      tag_94\n      jump\t// in\n        /* \"contracts/vaults/UniV3VaultGovernance.sol\":3088:3529  function stageDelayedProtocolParams(DelayedProtocolParams calldata params) external {... */\n    tag_20:\n      tag_38\n      tag_97\n      calldatasize\n      0x04\n      tag_98\n      jump\t// in\n    tag_97:\n      tag_99\n      jump\t// in\n        /* \"contracts/vaults/UniV3VaultGovernance.sol\":1494:1955  function stagedDelayedProtocolParams() external view returns (DelayedProtocolParams memory) {... */\n    tag_21:\n      tag_100\n      tag_101\n      jump\t// in\n    tag_100:\n      0x40\n      dup1\n      mload\n        /* \"#utility.yul\":6758:6771   */\n      dup3\n      mload\n      sub(shl(0xa0, 0x01), 0x01)\n        /* \"#utility.yul\":6754:6776   */\n      swap1\n      dup2\n      and\n        /* \"#utility.yul\":6736:6777   */\n      dup3\n      mstore\n        /* \"#utility.yul\":6837:6841   */\n      0x20\n        /* \"#utility.yul\":6825:6842   */\n      swap4\n      dup5\n      add\n        /* \"#utility.yul\":6819:6843   */\n      mload\n        /* \"#utility.yul\":6815:6848   */\n      and\n        /* \"#utility.yul\":6793:6813   */\n      swap3\n      dup2\n      add\n        /* \"#utility.yul\":6786:6849   */\n      swap3\n      swap1\n      swap3\n      mstore\n        /* \"#utility.yul\":6671:6689   */\n      add\n        /* \"contracts/vaults/UniV3VaultGovernance.sol\":1494:1955  function stagedDelayedProtocolParams() external view returns (DelayedProtocolParams memory) {... */\n      tag_32\n        /* \"#utility.yul\":6474:6855   */\n      jump\n        /* \"contracts/vaults/UniV3VaultGovernance.sol\":1208:1443  function delayedProtocolParams() public view returns (DelayedProtocolParams memory) {... */\n    tag_22:\n      tag_100\n      tag_105\n      jump\t// in\n        /* \"contracts/vaults/VaultGovernance.sol\":4307:4764  function commitInternalParams() external {... */\n    tag_23:\n      tag_38\n      tag_108\n      jump\t// in\n        /* \"contracts/vaults/VaultGovernance.sol\":2647:2778  function delayedProtocolParamsTimestamp() external view returns (uint256) {... */\n    tag_24:\n        /* \"contracts/vaults/VaultGovernance.sol\":2739:2770  _delayedProtocolParamsTimestamp */\n      sload(0x0f)\n        /* \"contracts/vaults/VaultGovernance.sol\":2647:2778  function delayedProtocolParamsTimestamp() external view returns (uint256) {... */\n      jump(tag_34)\n        /* \"contracts/vaults/UniV3VaultGovernance.sol\":2755:2966  function supportsInterface(bytes4 interfaceId) public view virtual override returns (bool) {... */\n    tag_31:\n        /* \"contracts/vaults/UniV3VaultGovernance.sol\":2840:2844  bool */\n      0x00\n        /* \"contracts/vaults/UniV3VaultGovernance.sol\":2864:2900  super.supportsInterface(interfaceId) */\n      tag_113\n        /* \"contracts/vaults/UniV3VaultGovernance.sol\":2888:2899  interfaceId */\n      dup3\n        /* \"contracts/vaults/UniV3VaultGovernance.sol\":2864:2887  super.supportsInterface */\n      tag_114\n        /* \"contracts/vaults/UniV3VaultGovernance.sol\":2864:2900  super.supportsInterface(interfaceId) */\n      jump\t// in\n    tag_113:\n        /* \"contracts/vaults/UniV3VaultGovernance.sol\":2864:2958  super.supportsInterface(interfaceId) || type(IUniV3VaultGovernance).interfaceId == interfaceId */\n      dup1\n      tag_115\n      jumpi\n      pop\n      shl(0xe0, 0xa2e9c513)\n      not(sub(shl(0xe0, 0x01), 0x01))\n        /* \"contracts/vaults/UniV3VaultGovernance.sol\":2904:2958  type(IUniV3VaultGovernance).interfaceId == interfaceId */\n      dup4\n      and\n      eq\n        /* \"contracts/vaults/UniV3VaultGovernance.sol\":2864:2958  super.supportsInterface(interfaceId) || type(IUniV3VaultGovernance).interfaceId == interfaceId */\n    tag_115:\n        /* \"contracts/vaults/UniV3VaultGovernance.sol\":2857:2958  return super.supportsInterface(interfaceId) || type(IUniV3VaultGovernance).interfaceId == interfaceId */\n      swap3\n        /* \"contracts/vaults/UniV3VaultGovernance.sol\":2755:2966  function supportsInterface(bytes4 interfaceId) public view virtual override returns (bool) {... */\n      swap2\n      pop\n      pop\n      jump\t// out\n        /* \"contracts/utils/ContractMeta.sol\":693:711  _contractVersion() */\n    tag_117:\n        /* \"contracts/utils/ContractMeta.sol\":686:711  return _contractVersion() */\n      swap1\n      pop\n        /* \"contracts/utils/ContractMeta.sol\":611:719  function contractVersionBytes() external pure returns (bytes32) {... */\n      swap1\n      jump\t// out\n        /* \"contracts/vaults/VaultGovernance.sol\":3610:4261  function stageInternalParams(InternalParams memory newParams) external {... */\n    tag_41:\n        /* \"contracts/vaults/VaultGovernance.sol\":3692:3715  _requireProtocolAdmin() */\n      tag_120\n        /* \"contracts/vaults/VaultGovernance.sol\":3692:3713  _requireProtocolAdmin */\n      tag_121\n        /* \"contracts/vaults/VaultGovernance.sol\":3692:3715  _requireProtocolAdmin() */\n      jump\t// in\n    tag_120:\n        /* \"contracts/vaults/VaultGovernance.sol\":3742:3770  newParams.protocolGovernance */\n      dup1\n      mload\n        /* \"contracts/vaults/VaultGovernance.sol\":3787:3817  ExceptionsLibrary.ADDRESS_ZERO */\n      0x40\n      dup1\n      mload\n      dup1\n      dup3\n      add\n      swap1\n      swap2\n      mstore\n      0x02\n      dup2\n      mstore\n      shl(0xf1, 0x20ad)\n      0x20\n      dup3\n      add\n      mstore\n      swap1\n      sub(shl(0xa0, 0x01), 0x01)\n        /* \"contracts/vaults/VaultGovernance.sol\":3734:3785  address(newParams.protocolGovernance) != address(0) */\n      and\n        /* \"contracts/vaults/VaultGovernance.sol\":3726:3818  require(address(newParams.protocolGovernance) != address(0), ExceptionsLibrary.ADDRESS_ZERO) */\n      tag_122\n      jumpi\n      mload(0x40)\n      shl(0xe5, 0x461bcd)\n      dup2\n      mstore\n      0x04\n      add\n      tag_123\n      swap2\n      swap1\n      tag_79\n      jump\t// in\n    tag_123:\n      mload(0x40)\n      dup1\n      swap2\n      sub\n      swap1\n      revert\n    tag_122:\n      pop\n        /* \"contracts/vaults/VaultGovernance.sol\":3876:3877  0 */\n      0x00\n      sub(shl(0xa0, 0x01), 0x01)\n        /* \"contracts/vaults/VaultGovernance.sol\":3837:3878  address(newParams.registry) != address(0) */\n      and\n        /* \"contracts/vaults/VaultGovernance.sol\":3845:3854  newParams */\n      dup2\n        /* \"contracts/vaults/VaultGovernance.sol\":3845:3863  newParams.registry */\n      0x20\n      add\n      mload\n      sub(shl(0xa0, 0x01), 0x01)\n        /* \"contracts/vaults/VaultGovernance.sol\":3837:3878  address(newParams.registry) != address(0) */\n      and\n      eq\n      iszero\n        /* \"contracts/vaults/VaultGovernance.sol\":3880:3910  ExceptionsLibrary.ADDRESS_ZERO */\n      mload(0x40)\n      dup1\n      0x40\n      add\n      0x40\n      mstore\n      dup1\n      0x02\n      dup2\n      mstore\n      0x20\n      add\n      shl(0xf1, 0x20ad)\n      dup2\n      mstore\n      pop\n        /* \"contracts/vaults/VaultGovernance.sol\":3829:3911  require(address(newParams.registry) != address(0), ExceptionsLibrary.ADDRESS_ZERO) */\n      swap1\n      tag_124\n      jumpi\n      mload(0x40)\n      shl(0xe5, 0x461bcd)\n      dup2\n      mstore\n      0x04\n      add\n      tag_123\n      swap2\n      swap1\n      tag_79\n      jump\t// in\n    tag_124:\n      pop\n        /* \"contracts/vaults/VaultGovernance.sol\":3938:3957  newParams.singleton */\n      0x40\n      dup1\n      dup3\n      add\n      mload\n        /* \"contracts/vaults/VaultGovernance.sol\":3974:4004  ExceptionsLibrary.ADDRESS_ZERO */\n      dup2\n      mload\n      dup1\n      dup4\n      add\n      swap1\n      swap3\n      mstore\n      0x02\n      dup3\n      mstore\n      shl(0xf1, 0x20ad)\n      0x20\n      dup4\n      add\n      mstore\n      sub(shl(0xa0, 0x01), 0x01)\n        /* \"contracts/vaults/VaultGovernance.sol\":3930:3972  address(newParams.singleton) != address(0) */\n      and\n        /* \"contracts/vaults/VaultGovernance.sol\":3922:4005  require(address(newParams.singleton) != address(0), ExceptionsLibrary.ADDRESS_ZERO) */\n      tag_126\n      jumpi\n      mload(0x40)\n      shl(0xe5, 0x461bcd)\n      dup2\n      mstore\n      0x04\n      add\n      tag_123\n      swap2\n      swap1\n      tag_79\n      jump\t// in\n    tag_126:\n      pop\n        /* \"contracts/vaults/VaultGovernance.sol\":4016:4049  _stagedInternalParams = newParams */\n      dup1\n      mload\n        /* \"contracts/vaults/VaultGovernance.sol\":4016:4037  _stagedInternalParams */\n      0x03\n        /* \"contracts/vaults/VaultGovernance.sol\":4016:4049  _stagedInternalParams = newParams */\n      dup1\n      sload\n      not(sub(shl(0xa0, 0x01), 0x01))\n      swap1\n      dup2\n      and\n      sub(shl(0xa0, 0x01), 0x01)\n      swap4\n      dup5\n      and\n      or\n      swap1\n      swap2\n      sstore\n      0x20\n      dup1\n      dup5\n      add\n      mload\n      0x04\n      dup1\n      sload\n      dup5\n      and\n      swap2\n      dup6\n      and\n      swap2\n      swap1\n      swap2\n      or\n      dup2\n      sstore\n      0x40\n      dup1\n      dup7\n      add\n      mload\n      0x05\n      dup1\n      sload\n      swap1\n      swap6\n      and\n      swap1\n      dup7\n      and\n      or\n      swap1\n      swap4\n      sstore\n      0x00\n        /* \"contracts/vaults/VaultGovernance.sol\":4105:4139  _internalParams.protocolGovernance */\n      sload\n        /* \"contracts/vaults/VaultGovernance.sol\":4105:4157  _internalParams.protocolGovernance.governanceDelay() */\n      dup4\n      mload\n      shl(0xe0, 0xbba32939)\n      dup2\n      mstore\n      swap4\n      mload\n        /* \"contracts/vaults/VaultGovernance.sol\":4105:4139  _internalParams.protocolGovernance */\n      swap5\n      and\n      swap4\n        /* \"contracts/vaults/VaultGovernance.sol\":4105:4155  _internalParams.protocolGovernance.governanceDelay */\n      0xbba32939\n      swap4\n        /* \"contracts/vaults/VaultGovernance.sol\":4105:4157  _internalParams.protocolGovernance.governanceDelay() */\n      dup1\n      dup4\n      add\n      swap4\n        /* \"contracts/vaults/VaultGovernance.sol\":4016:4049  _stagedInternalParams = newParams */\n      swap3\n        /* \"contracts/vaults/VaultGovernance.sol\":4105:4157  _internalParams.protocolGovernance.governanceDelay() */\n      swap1\n      dup3\n      swap1\n      sub\n      add\n      dup2\n        /* \"contracts/vaults/VaultGovernance.sol\":4105:4139  _internalParams.protocolGovernance */\n      dup7\n        /* \"contracts/vaults/VaultGovernance.sol\":4105:4157  _internalParams.protocolGovernance.governanceDelay() */\n      dup1\n      extcodesize\n      iszero\n      dup1\n      iszero\n      tag_128\n      jumpi\n      0x00\n      dup1\n      revert\n    tag_128:\n      pop\n      gas\n      staticcall\n      iszero\n      dup1\n      iszero\n      tag_130\n      jumpi\n      returndatasize\n      0x00\n      dup1\n      returndatacopy\n      revert(0x00, returndatasize)\n    tag_130:\n      pop\n      pop\n      pop\n      pop\n      mload(0x40)\n      returndatasize\n      not(0x1f)\n      0x1f\n      dup3\n      add\n      and\n      dup3\n      add\n      dup1\n      0x40\n      mstore\n      pop\n      dup2\n      add\n      swap1\n      tag_131\n      swap2\n      swap1\n      tag_132\n      jump\t// in\n    tag_131:\n        /* \"contracts/vaults/VaultGovernance.sol\":4087:4157  block.timestamp + _internalParams.protocolGovernance.governanceDelay() */\n      tag_133\n      swap1\n        /* \"contracts/vaults/VaultGovernance.sol\":4087:4102  block.timestamp */\n      timestamp\n        /* \"contracts/vaults/VaultGovernance.sol\":4087:4157  block.timestamp + _internalParams.protocolGovernance.governanceDelay() */\n      tag_134\n      jump\t// in\n    tag_133:\n        /* \"contracts/vaults/VaultGovernance.sol\":4060:4084  _internalParamsTimestamp */\n      0x06\n        /* \"contracts/vaults/VaultGovernance.sol\":4060:4157  _internalParamsTimestamp = block.timestamp + _internalParams.protocolGovernance.governanceDelay() */\n      dup2\n      swap1\n      sstore\n        /* \"contracts/vaults/VaultGovernance.sol\":4173:4253  StagedInternalParams(tx.origin, msg.sender, newParams, _internalParamsTimestamp) */\n      mload(0x40)\n        /* \"contracts/vaults/VaultGovernance.sol\":4205:4215  msg.sender */\n      caller\n      swap2\n        /* \"contracts/vaults/VaultGovernance.sol\":4194:4203  tx.origin */\n      origin\n      swap2\n        /* \"contracts/vaults/VaultGovernance.sol\":4173:4253  StagedInternalParams(tx.origin, msg.sender, newParams, _internalParamsTimestamp) */\n      0x0887cab3184f7c02b16978ab31f8acee05979f59fc3da6abe5bf71105ec3179d\n      swap2\n      tag_135\n      swap2\n        /* \"contracts/vaults/VaultGovernance.sol\":4217:4226  newParams */\n      dup7\n      swap2\n        /* \"contracts/vaults/VaultGovernance.sol\":4060:4157  _internalParamsTimestamp = block.timestamp + _internalParams.protocolGovernance.governanceDelay() */\n      swap1\n        /* \"contracts/vaults/VaultGovernance.sol\":4173:4253  StagedInternalParams(tx.origin, msg.sender, newParams, _internalParamsTimestamp) */\n      tag_136\n      jump\t// in\n    tag_135:\n      mload(0x40)\n      dup1\n      swap2\n      sub\n      swap1\n      log3\n        /* \"contracts/vaults/VaultGovernance.sol\":3610:4261  function stageInternalParams(InternalParams memory newParams) external {... */\n      pop\n      jump\t// out\n        /* \"contracts/vaults/UniV3VaultGovernance.sol\":4322:4633  function commitDelayedStrategyParams(uint256 nft) external {... */\n    tag_45:\n        /* \"contracts/vaults/UniV3VaultGovernance.sol\":4392:4425  _commitDelayedStrategyParams(nft) */\n      tag_138\n        /* \"contracts/vaults/UniV3VaultGovernance.sol\":4421:4424  nft */\n      dup2\n        /* \"contracts/vaults/UniV3VaultGovernance.sol\":4392:4420  _commitDelayedStrategyParams */\n      tag_139\n        /* \"contracts/vaults/UniV3VaultGovernance.sol\":4392:4425  _commitDelayedStrategyParams(nft) */\n      jump\t// in\n    tag_138:\n        /* \"contracts/vaults/UniV3VaultGovernance.sol\":4561:4588  _delayedStrategyParams[nft] */\n      0x00\n      dup2\n      dup2\n      mstore\n        /* \"contracts/vaults/UniV3VaultGovernance.sol\":4561:4583  _delayedStrategyParams */\n      0x07\n        /* \"contracts/vaults/UniV3VaultGovernance.sol\":4561:4588  _delayedStrategyParams[nft] */\n      0x20\n      mstore\n      0x40\n      swap1\n      keccak256\n        /* \"contracts/vaults/UniV3VaultGovernance.sol\":4550:4614  abi.decode(_delayedStrategyParams[nft], (DelayedStrategyParams)) */\n      dup1\n      sload\n        /* \"contracts/vaults/UniV3VaultGovernance.sol\":4532:4535  nft */\n      dup3\n      swap2\n        /* \"contracts/vaults/UniV3VaultGovernance.sol\":4507:4517  msg.sender */\n      caller\n      swap2\n        /* \"contracts/vaults/UniV3VaultGovernance.sol\":4483:4492  tx.origin */\n      origin\n      swap2\n        /* \"contracts/vaults/UniV3VaultGovernance.sol\":4441:4625  CommitDelayedStrategyParams(... */\n      0xa363920f84c4a3e8f1fbb02a2f8b5f0d7438886cb05a7d98882af9bd66d16426\n      swap2\n        /* \"contracts/vaults/UniV3VaultGovernance.sol\":4550:4614  abi.decode(_delayedStrategyParams[nft], (DelayedStrategyParams)) */\n      tag_140\n      swap1\n      tag_141\n      jump\t// in\n    tag_140:\n      dup1\n      0x1f\n      add\n      0x20\n      dup1\n      swap2\n      div\n      mul\n      0x20\n      add\n      mload(0x40)\n      swap1\n      dup2\n      add\n      0x40\n      mstore\n      dup1\n      swap3\n      swap2\n      swap1\n      dup2\n      dup2\n      mstore\n      0x20\n      add\n      dup3\n      dup1\n      sload\n      tag_142\n      swap1\n      tag_141\n      jump\t// in\n    tag_142:\n      dup1\n      iszero\n      tag_143\n      jumpi\n      dup1\n      0x1f\n      lt\n      tag_144\n      jumpi\n      0x0100\n      dup1\n      dup4\n      sload\n      div\n      mul\n      dup4\n      mstore\n      swap2\n      0x20\n      add\n      swap2\n      jump(tag_143)\n    tag_144:\n      dup3\n      add\n      swap2\n      swap1\n      0x00\n      mstore\n      keccak256(0x00, 0x20)\n      swap1\n    tag_145:\n      dup2\n      sload\n      dup2\n      mstore\n      swap1\n      0x01\n      add\n      swap1\n      0x20\n      add\n      dup1\n      dup4\n      gt\n      tag_145\n      jumpi\n      dup3\n      swap1\n      sub\n      0x1f\n      and\n      dup3\n      add\n      swap2\n    tag_143:\n      pop\n      pop\n      pop\n      pop\n      pop\n      dup1\n      0x20\n      add\n      swap1\n      mload\n      dup2\n      add\n      swap1\n      tag_146\n      swap2\n      swap1\n      tag_147\n      jump\t// in\n    tag_146:\n        /* \"contracts/vaults/UniV3VaultGovernance.sol\":4441:4625  CommitDelayedStrategyParams(... */\n      mload(0x40)\n        /* \"#utility.yul\":3074:3087   */\n      swap1\n      mload\n        /* \"#utility.yul\":3089:3099   */\n      0xffffffff\n        /* \"#utility.yul\":3070:3100   */\n      and\n        /* \"#utility.yul\":3052:3101   */\n      dup2\n      mstore\n        /* \"#utility.yul\":3040:3042   */\n      0x20\n        /* \"#utility.yul\":3025:3043   */\n      add\n        /* \"contracts/vaults/UniV3VaultGovernance.sol\":4441:4625  CommitDelayedStrategyParams(... */\n      mload(0x40)\n      dup1\n      swap2\n      sub\n      swap1\n      log4\n        /* \"contracts/vaults/UniV3VaultGovernance.sol\":4322:4633  function commitDelayedStrategyParams(uint256 nft) external {... */\n      pop\n      jump\t// out\n        /* \"contracts/vaults/UniV3VaultGovernance.sol\":3905:4271  function stageDelayedStrategyParams(uint256 nft, DelayedStrategyParams calldata params) external {... */\n    tag_56:\n        /* \"contracts/vaults/UniV3VaultGovernance.sol\":4047:4048  1 */\n      0x01\n        /* \"contracts/vaults/UniV3VaultGovernance.sol\":4021:4044  params.safetyIndicesSet */\n      tag_154\n      0x20\n      dup4\n      add\n        /* \"contracts/vaults/UniV3VaultGovernance.sol\":4021:4027  params */\n      dup4\n        /* \"contracts/vaults/UniV3VaultGovernance.sol\":4021:4044  params.safetyIndicesSet */\n      tag_155\n      jump\t// in\n    tag_154:\n        /* \"contracts/vaults/UniV3VaultGovernance.sol\":4021:4048  params.safetyIndicesSet > 1 */\n      0xffffffff\n      and\n      gt\n        /* \"contracts/vaults/UniV3VaultGovernance.sol\":4050:4083  ExceptionsLibrary.LIMIT_UNDERFLOW */\n      mload(0x40)\n      dup1\n      0x40\n      add\n      0x40\n      mstore\n      dup1\n      0x04\n      dup2\n      mstore\n      0x20\n      add\n      shl(0xe0, 0x4c494d55)\n      dup2\n      mstore\n      pop\n        /* \"contracts/vaults/UniV3VaultGovernance.sol\":4013:4084  require(params.safetyIndicesSet > 1, ExceptionsLibrary.LIMIT_UNDERFLOW) */\n      swap1\n      tag_156\n      jumpi\n      mload(0x40)\n      shl(0xe5, 0x461bcd)\n      dup2\n      mstore\n      0x04\n      add\n      tag_123\n      swap2\n      swap1\n      tag_79\n      jump\t// in\n    tag_156:\n      pop\n        /* \"contracts/vaults/UniV3VaultGovernance.sol\":4095:4147  _stageDelayedStrategyParams(nft, abi.encode(params)) */\n      tag_158\n        /* \"contracts/vaults/UniV3VaultGovernance.sol\":4123:4126  nft */\n      dup3\n        /* \"contracts/vaults/UniV3VaultGovernance.sol\":4139:4145  params */\n      dup3\n        /* \"contracts/vaults/UniV3VaultGovernance.sol\":4128:4146  abi.encode(params) */\n      add(0x20, mload(0x40))\n      tag_159\n      swap2\n      swap1\n      tag_160\n      jump\t// in\n    tag_159:\n      mload(0x40)\n      0x20\n      dup2\n      dup4\n      sub\n      sub\n      dup2\n      mstore\n      swap1\n      0x40\n      mstore\n        /* \"contracts/vaults/UniV3VaultGovernance.sol\":4095:4122  _stageDelayedStrategyParams */\n      tag_161\n        /* \"contracts/vaults/UniV3VaultGovernance.sol\":4095:4147  _stageDelayedStrategyParams(nft, abi.encode(params)) */\n      jump\t// in\n    tag_158:\n        /* \"contracts/vaults/UniV3VaultGovernance.sol\":4226:4262  _delayedStrategyParamsTimestamp[nft] */\n      0x00\n      dup3\n      dup2\n      mstore\n        /* \"contracts/vaults/UniV3VaultGovernance.sol\":4226:4257  _delayedStrategyParamsTimestamp */\n      0x09\n        /* \"contracts/vaults/UniV3VaultGovernance.sol\":4226:4262  _delayedStrategyParamsTimestamp[nft] */\n      0x20\n      mstore\n      0x40\n      swap1\n      dup2\n      swap1\n      keccak256\n      sload\n        /* \"contracts/vaults/UniV3VaultGovernance.sol\":4163:4263  StageDelayedStrategyParams(tx.origin, msg.sender, nft, params, _delayedStrategyParamsTimestamp[nft]) */\n      swap1\n      mload\n        /* \"contracts/vaults/UniV3VaultGovernance.sol\":4213:4216  nft */\n      dup4\n      swap2\n        /* \"contracts/vaults/UniV3VaultGovernance.sol\":4201:4211  msg.sender */\n      caller\n      swap2\n        /* \"contracts/vaults/UniV3VaultGovernance.sol\":4190:4199  tx.origin */\n      origin\n      swap2\n        /* \"contracts/vaults/UniV3VaultGovernance.sol\":4163:4263  StageDelayedStrategyParams(tx.origin, msg.sender, nft, params, _delayedStrategyParamsTimestamp[nft]) */\n      0x4cceb02b6b172e9c19155fccc4d799437a0d50ad922ea9f0f41b1cb3a17b12e8\n      swap2\n      tag_162\n      swap2\n        /* \"contracts/vaults/UniV3VaultGovernance.sol\":4218:4224  params */\n      dup8\n      swap2\n        /* \"contracts/vaults/UniV3VaultGovernance.sol\":4163:4263  StageDelayedStrategyParams(tx.origin, msg.sender, nft, params, _delayedStrategyParamsTimestamp[nft]) */\n      tag_163\n      jump\t// in\n    tag_162:\n      mload(0x40)\n      dup1\n      swap2\n      sub\n      swap1\n      log4\n        /* \"contracts/vaults/UniV3VaultGovernance.sol\":3905:4271  function stageDelayedStrategyParams(uint256 nft, DelayedStrategyParams calldata params) external {... */\n      pop\n      pop\n      jump\t// out\n        /* \"contracts/vaults/UniV3VaultGovernance.sol\":2006:2344  function stagedDelayedStrategyParams(uint256 nft) external view returns (DelayedStrategyParams memory) {... */\n    tag_63:\n      0x40\n      dup1\n      mload\n      0x20\n      dup2\n      add\n      swap1\n      swap2\n      mstore\n      0x00\n      dup2\n      mstore\n        /* \"contracts/vaults/UniV3VaultGovernance.sol\":2124:2157  _stagedDelayedStrategyParams[nft] */\n      0x00\n      dup3\n      dup2\n      mstore\n        /* \"contracts/vaults/UniV3VaultGovernance.sol\":2124:2152  _stagedDelayedStrategyParams */\n      0x08\n        /* \"contracts/vaults/UniV3VaultGovernance.sol\":2124:2157  _stagedDelayedStrategyParams[nft] */\n      0x20\n      mstore\n      0x40\n      swap1\n      keccak256\n        /* \"contracts/vaults/UniV3VaultGovernance.sol\":2124:2164  _stagedDelayedStrategyParams[nft].length */\n      dup1\n      sload\n      tag_168\n      swap1\n      tag_141\n      jump\t// in\n    tag_168:\n        /* \"contracts/vaults/UniV3VaultGovernance.sol\":2124:2169  _stagedDelayedStrategyParams[nft].length == 0 */\n      iszero\n        /* \"contracts/vaults/UniV3VaultGovernance.sol\":2120:2249  if (_stagedDelayedStrategyParams[nft].length == 0) {... */\n      iszero\n      swap1\n      pop\n      tag_169\n      jumpi\n      pop\n      pop\n        /* \"contracts/vaults/UniV3VaultGovernance.sol\":2193:2237  DelayedStrategyParams({safetyIndicesSet: 0}) */\n      0x40\n      dup1\n      mload\n      0x20\n      dup2\n      add\n      swap1\n      swap2\n      mstore\n      0x00\n      dup2\n      mstore\n      swap1\n        /* \"contracts/vaults/UniV3VaultGovernance.sol\":2006:2344  function stagedDelayedStrategyParams(uint256 nft) external view returns (DelayedStrategyParams memory) {... */\n      jump\t// out\n        /* \"contracts/vaults/UniV3VaultGovernance.sol\":2120:2249  if (_stagedDelayedStrategyParams[nft].length == 0) {... */\n    tag_169:\n        /* \"contracts/vaults/UniV3VaultGovernance.sol\":2277:2310  _stagedDelayedStrategyParams[nft] */\n      0x00\n      dup3\n      dup2\n      mstore\n        /* \"contracts/vaults/UniV3VaultGovernance.sol\":2277:2305  _stagedDelayedStrategyParams */\n      0x08\n        /* \"contracts/vaults/UniV3VaultGovernance.sol\":2277:2310  _stagedDelayedStrategyParams[nft] */\n      0x20\n      mstore\n      0x40\n      swap1\n      keccak256\n        /* \"contracts/vaults/UniV3VaultGovernance.sol\":2266:2336  abi.decode(_stagedDelayedStrategyParams[nft], (DelayedStrategyParams)) */\n      dup1\n      sload\n      tag_170\n      swap1\n      tag_141\n      jump\t// in\n    tag_170:\n      dup1\n      0x1f\n      add\n      0x20\n      dup1\n      swap2\n      div\n      mul\n      0x20\n      add\n      mload(0x40)\n      swap1\n      dup2\n      add\n      0x40\n      mstore\n      dup1\n      swap3\n      swap2\n      swap1\n      dup2\n      dup2\n      mstore\n      0x20\n      add\n      dup3\n      dup1\n      sload\n      tag_171\n      swap1\n      tag_141\n      jump\t// in\n    tag_171:\n      dup1\n      iszero\n      tag_172\n      jumpi\n      dup1\n      0x1f\n      lt\n      tag_173\n      jumpi\n      0x0100\n      dup1\n      dup4\n      sload\n      div\n      mul\n      dup4\n      mstore\n      swap2\n      0x20\n      add\n      swap2\n      jump(tag_172)\n    tag_173:\n      dup3\n      add\n      swap2\n      swap1\n      0x00\n      mstore\n      keccak256(0x00, 0x20)\n      swap1\n    tag_174:\n      dup2\n      sload\n      dup2\n      mstore\n      swap1\n      0x01\n      add\n      swap1\n      0x20\n      add\n      dup1\n      dup4\n      gt\n      tag_174\n      jumpi\n      dup3\n      swap1\n      sub\n      0x1f\n      and\n      dup3\n      add\n      swap2\n    tag_172:\n      pop\n      pop\n      pop\n      pop\n      pop\n      dup1\n      0x20\n      add\n      swap1\n      mload\n      dup2\n      add\n      swap1\n      tag_115\n      swap2\n      swap1\n      tag_147\n      jump\t// in\n        /* \"contracts/vaults/UniV3VaultGovernance.sol\":4684:5165  function createVault(... */\n    tag_69:\n        /* \"contracts/vaults/UniV3VaultGovernance.sol\":4848:4865  IUniV3Vault vault */\n      0x00\n        /* \"contracts/vaults/UniV3VaultGovernance.sol\":4867:4878  uint256 nft */\n      dup1\n        /* \"contracts/vaults/UniV3VaultGovernance.sol\":4891:4904  address vaddr */\n      0x00\n        /* \"contracts/vaults/UniV3VaultGovernance.sol\":4930:4950  _createVault(owner_) */\n      tag_177\n        /* \"contracts/vaults/UniV3VaultGovernance.sol\":4943:4949  owner_ */\n      dup7\n        /* \"contracts/vaults/UniV3VaultGovernance.sol\":4930:4942  _createVault */\n      tag_178\n        /* \"contracts/vaults/UniV3VaultGovernance.sol\":4930:4950  _createVault(owner_) */\n      jump\t// in\n    tag_177:\n        /* \"contracts/vaults/UniV3VaultGovernance.sol\":4998:5053  vault.initialize(nft, vaultTokens_, fee_, uniV3Helper_) */\n      mload(0x40)\n      shl(0xe0, 0x1912128b)\n      dup2\n      mstore\n        /* \"contracts/vaults/UniV3VaultGovernance.sol\":4915:4950  (vaddr, nft) = _createVault(owner_) */\n      swap2\n      swap5\n      pop\n      swap3\n      pop\n      dup4\n      swap2\n      pop\n      sub(shl(0xa0, 0x01), 0x01)\n        /* \"contracts/vaults/UniV3VaultGovernance.sol\":4998:5014  vault.initialize */\n      dup3\n      and\n      swap1\n      0x1912128b\n      swap1\n        /* \"contracts/vaults/UniV3VaultGovernance.sol\":4998:5053  vault.initialize(nft, vaultTokens_, fee_, uniV3Helper_) */\n      tag_179\n      swap1\n        /* \"contracts/vaults/UniV3VaultGovernance.sol\":4915:4950  (vaddr, nft) = _createVault(owner_) */\n      dup6\n      swap1\n        /* \"contracts/vaults/UniV3VaultGovernance.sol\":5020:5032  vaultTokens_ */\n      dup12\n      swap1\n        /* \"contracts/vaults/UniV3VaultGovernance.sol\":5034:5038  fee_ */\n      dup11\n      swap1\n        /* \"contracts/vaults/UniV3VaultGovernance.sol\":5040:5052  uniV3Helper_ */\n      dup11\n      swap1\n        /* \"contracts/vaults/UniV3VaultGovernance.sol\":4998:5053  vault.initialize(nft, vaultTokens_, fee_, uniV3Helper_) */\n      0x04\n      add\n      tag_180\n      jump\t// in\n    tag_179:\n      0x00\n      mload(0x40)\n      dup1\n      dup4\n      sub\n      dup2\n      0x00\n      dup8\n      dup1\n      extcodesize\n      iszero\n      dup1\n      iszero\n      tag_181\n      jumpi\n      0x00\n      dup1\n      revert\n    tag_181:\n      pop\n      gas\n      call\n      iszero\n      dup1\n      iszero\n      tag_183\n      jumpi\n      returndatasize\n      0x00\n      dup1\n      returndatacopy\n      revert(0x00, returndatasize)\n    tag_183:\n      pop\n      pop\n        /* \"contracts/vaults/UniV3VaultGovernance.sol\":5120:5136  abi.encode(fee_) */\n      0x40\n      dup1\n      mload\n        /* \"#utility.yul\":10895:10903   */\n      0xffffff\n        /* \"#utility.yul\":10883:10904   */\n      dup10\n      and\n        /* \"contracts/vaults/UniV3VaultGovernance.sol\":5120:5136  abi.encode(fee_) */\n      0x20\n      dup3\n      add\n        /* \"#utility.yul\":10865:10905   */\n      mstore\n        /* \"contracts/vaults/UniV3VaultGovernance.sol\":5094:5104  msg.sender */\n      caller\n      swap4\n      pop\n        /* \"contracts/vaults/UniV3VaultGovernance.sol\":5083:5092  tx.origin */\n      origin\n      swap3\n      pop\n        /* \"contracts/vaults/UniV3VaultGovernance.sol\":5069:5157  DeployedVault(tx.origin, msg.sender, vaultTokens_, abi.encode(fee_), owner_, vaddr, nft) */\n      0x8a4513c05d15df8ece912856923273e166e39f5c9c2b43d2b38594023494a0e0\n      swap2\n        /* \"contracts/vaults/UniV3VaultGovernance.sol\":5106:5118  vaultTokens_ */\n      dup12\n      swap2\n        /* \"#utility.yul\":10838:10856   */\n      add\n        /* \"contracts/vaults/UniV3VaultGovernance.sol\":5120:5136  abi.encode(fee_) */\n      0x40\n      dup1\n      mload\n      not(0x1f)\n      dup2\n      dup5\n      sub\n      add\n      dup2\n      mstore\n      swap1\n      dup3\n      swap1\n      mstore\n        /* \"contracts/vaults/UniV3VaultGovernance.sol\":5069:5157  DeployedVault(tx.origin, msg.sender, vaultTokens_, abi.encode(fee_), owner_, vaddr, nft) */\n      tag_186\n      swap3\n      swap2\n        /* \"contracts/vaults/UniV3VaultGovernance.sol\":5138:5144  owner_ */\n      dup13\n      swap1\n        /* \"contracts/vaults/UniV3VaultGovernance.sol\":5146:5151  vaddr */\n      dup9\n      swap1\n        /* \"contracts/vaults/UniV3VaultGovernance.sol\":5153:5156  nft */\n      dup11\n      swap1\n        /* \"contracts/vaults/UniV3VaultGovernance.sol\":5069:5157  DeployedVault(tx.origin, msg.sender, vaultTokens_, abi.encode(fee_), owner_, vaddr, nft) */\n      tag_187\n      jump\t// in\n    tag_186:\n      mload(0x40)\n      dup1\n      swap2\n      sub\n      swap1\n      log3\n        /* \"contracts/vaults/UniV3VaultGovernance.sol\":4880:5165  {... */\n      pop\n        /* \"contracts/vaults/UniV3VaultGovernance.sol\":4684:5165  function createVault(... */\n      swap5\n      pop\n      swap5\n      swap3\n      pop\n      pop\n      pop\n      jump\t// out\n        /* \"contracts/utils/ContractMeta.sol\":237:358  function contractName() external pure returns (string memory) {... */\n    tag_77:\n        /* \"contracts/utils/ContractMeta.sol\":284:297  string memory */\n      0x60\n        /* \"contracts/utils/ContractMeta.sol\":317:350  _bytes32ToString(_contractName()) */\n      tag_117\n      shl(0x60, 0x556e6956335661756c74476f7665726e616e6365)\n        /* \"contracts/utils/ContractMeta.sol\":317:333  _bytes32ToString */\n      tag_192\n        /* \"contracts/utils/ContractMeta.sol\":317:350  _bytes32ToString(_contractName()) */\n      jump\t// in\n        /* \"contracts/vaults/UniV3VaultGovernance.sol\":2395:2718  function delayedStrategyParams(uint256 nft) external view returns (DelayedStrategyParams memory) {... */\n    tag_89:\n      0x40\n      dup1\n      mload\n      0x20\n      dup2\n      add\n      swap1\n      swap2\n      mstore\n      0x00\n      dup2\n      mstore\n        /* \"contracts/vaults/UniV3VaultGovernance.sol\":2507:2534  _delayedStrategyParams[nft] */\n      0x00\n      dup3\n      dup2\n      mstore\n        /* \"contracts/vaults/UniV3VaultGovernance.sol\":2507:2529  _delayedStrategyParams */\n      0x07\n        /* \"contracts/vaults/UniV3VaultGovernance.sol\":2507:2534  _delayedStrategyParams[nft] */\n      0x20\n      mstore\n      0x40\n      swap1\n      keccak256\n        /* \"contracts/vaults/UniV3VaultGovernance.sol\":2507:2541  _delayedStrategyParams[nft].length */\n      dup1\n      sload\n      tag_200\n      swap1\n      tag_141\n      jump\t// in\n    tag_200:\n        /* \"contracts/vaults/UniV3VaultGovernance.sol\":2507:2546  _delayedStrategyParams[nft].length == 0 */\n      iszero\n        /* \"contracts/vaults/UniV3VaultGovernance.sol\":2503:2629  if (_delayedStrategyParams[nft].length == 0) {... */\n      iszero\n      swap1\n      pop\n      tag_201\n      jumpi\n      pop\n      pop\n        /* \"contracts/vaults/UniV3VaultGovernance.sol\":2570:2617  DelayedStrategyParams({safetyIndicesSet: 0x2A}) */\n      0x40\n      dup1\n      mload\n      0x20\n      dup2\n      add\n      swap1\n      swap2\n      mstore\n        /* \"contracts/vaults/UniV3VaultGovernance.sol\":2611:2615  0x2A */\n      0x2a\n        /* \"contracts/vaults/UniV3VaultGovernance.sol\":2570:2617  DelayedStrategyParams({safetyIndicesSet: 0x2A}) */\n      dup2\n      mstore\n      swap1\n        /* \"contracts/vaults/UniV3VaultGovernance.sol\":2395:2718  function delayedStrategyParams(uint256 nft) external view returns (DelayedStrategyParams memory) {... */\n      jump\t// out\n        /* \"contracts/vaults/UniV3VaultGovernance.sol\":2503:2629  if (_delayedStrategyParams[nft].length == 0) {... */\n    tag_201:\n        /* \"contracts/vaults/UniV3VaultGovernance.sol\":2657:2684  _delayedStrategyParams[nft] */\n      0x00\n      dup3\n      dup2\n      mstore\n        /* \"contracts/vaults/UniV3VaultGovernance.sol\":2657:2679  _delayedStrategyParams */\n      0x07\n        /* \"contracts/vaults/UniV3VaultGovernance.sol\":2657:2684  _delayedStrategyParams[nft] */\n      0x20\n      mstore\n      0x40\n      swap1\n      keccak256\n        /* \"contracts/vaults/UniV3VaultGovernance.sol\":2646:2710  abi.decode(_delayedStrategyParams[nft], (DelayedStrategyParams)) */\n      dup1\n      sload\n      tag_170\n      swap1\n      tag_141\n      jump\t// in\n        /* \"contracts/vaults/UniV3VaultGovernance.sol\":3580:3854  function commitDelayedProtocolParams() external {... */\n    tag_92:\n        /* \"contracts/vaults/UniV3VaultGovernance.sol\":3639:3669  _commitDelayedProtocolParams() */\n      tag_209\n        /* \"contracts/vaults/UniV3VaultGovernance.sol\":3639:3667  _commitDelayedProtocolParams */\n      tag_210\n        /* \"contracts/vaults/UniV3VaultGovernance.sol\":3639:3669  _commitDelayedProtocolParams() */\n      jump\t// in\n    tag_209:\n        /* \"contracts/vaults/UniV3VaultGovernance.sol\":3751:3761  msg.sender */\n      caller\n      sub(shl(0xa0, 0x01), 0x01)\n        /* \"contracts/vaults/UniV3VaultGovernance.sol\":3685:3846  CommitDelayedProtocolParams(... */\n      and\n        /* \"contracts/vaults/UniV3VaultGovernance.sol\":3727:3736  tx.origin */\n      origin\n      sub(shl(0xa0, 0x01), 0x01)\n        /* \"contracts/vaults/UniV3VaultGovernance.sol\":3685:3846  CommitDelayedProtocolParams(... */\n      and\n      0xb57a42e9f64dfc9c6b9e412ea001a45c0e4d3f26c8d160381a418ff92269d052\n        /* \"contracts/vaults/UniV3VaultGovernance.sol\":3787:3809  _delayedProtocolParams */\n      0x0d\n        /* \"contracts/vaults/UniV3VaultGovernance.sol\":3776:3835  abi.decode(_delayedProtocolParams, (DelayedProtocolParams)) */\n      dup1\n      sload\n      tag_211\n      swap1\n      tag_141\n      jump\t// in\n    tag_211:\n      dup1\n      0x1f\n      add\n      0x20\n      dup1\n      swap2\n      div\n      mul\n      0x20\n      add\n      mload(0x40)\n      swap1\n      dup2\n      add\n      0x40\n      mstore\n      dup1\n      swap3\n      swap2\n      swap1\n      dup2\n      dup2\n      mstore\n      0x20\n      add\n      dup3\n      dup1\n      sload\n      tag_212\n      swap1\n      tag_141\n      jump\t// in\n    tag_212:\n      dup1\n      iszero\n      tag_213\n      jumpi\n      dup1\n      0x1f\n      lt\n      tag_214\n      jumpi\n      0x0100\n      dup1\n      dup4\n      sload\n      div\n      mul\n      dup4\n      mstore\n      swap2\n      0x20\n      add\n      swap2\n      jump(tag_213)\n    tag_214:\n      dup3\n      add\n      swap2\n      swap1\n      0x00\n      mstore\n      keccak256(0x00, 0x20)\n      swap1\n    tag_215:\n      dup2\n      sload\n      dup2\n      mstore\n      swap1\n      0x01\n      add\n      swap1\n      0x20\n      add\n      dup1\n      dup4\n      gt\n      tag_215\n      jumpi\n      dup3\n      swap1\n      sub\n      0x1f\n      and\n      dup3\n      add\n      swap2\n    tag_213:\n      pop\n      pop\n      pop\n      pop\n      pop\n      dup1\n      0x20\n      add\n      swap1\n      mload\n      dup2\n      add\n      swap1\n      tag_216\n      swap2\n      swap1\n      tag_217\n      jump\t// in\n    tag_216:\n        /* \"contracts/vaults/UniV3VaultGovernance.sol\":3685:3846  CommitDelayedProtocolParams(... */\n      0x40\n      dup1\n      mload\n        /* \"#utility.yul\":6758:6771   */\n      dup3\n      mload\n      sub(shl(0xa0, 0x01), 0x01)\n        /* \"#utility.yul\":6754:6776   */\n      swap1\n      dup2\n      and\n        /* \"#utility.yul\":6736:6777   */\n      dup3\n      mstore\n        /* \"#utility.yul\":6837:6841   */\n      0x20\n        /* \"#utility.yul\":6825:6842   */\n      swap4\n      dup5\n      add\n        /* \"#utility.yul\":6819:6843   */\n      mload\n        /* \"#utility.yul\":6815:6848   */\n      and\n        /* \"#utility.yul\":6793:6813   */\n      swap3\n      dup2\n      add\n        /* \"#utility.yul\":6786:6849   */\n      swap3\n      swap1\n      swap3\n      mstore\n        /* \"#utility.yul\":6671:6689   */\n      add\n        /* \"contracts/vaults/UniV3VaultGovernance.sol\":3685:3846  CommitDelayedProtocolParams(... */\n    tag_218:\n      mload(0x40)\n      dup1\n      swap2\n      sub\n      swap1\n      log3\n        /* \"contracts/vaults/UniV3VaultGovernance.sol\":3580:3854  function commitDelayedProtocolParams() external {... */\n      jump\t// out\n        /* \"contracts/utils/ContractMeta.sol\":476:603  function contractVersion() external pure returns (string memory) {... */\n    tag_94:\n        /* \"contracts/utils/ContractMeta.sol\":526:539  string memory */\n      0x60\n        /* \"contracts/utils/ContractMeta.sol\":559:595  _bytes32ToString(_contractVersion()) */\n      tag_117\n      shl(0xdc, 0x0312e312e3)\n        /* \"contracts/utils/ContractMeta.sol\":317:333  _bytes32ToString */\n      tag_192\n        /* \"contracts/utils/ContractMeta.sol\":317:350  _bytes32ToString(_contractName()) */\n      jump\t// in\n        /* \"contracts/vaults/UniV3VaultGovernance.sol\":3088:3529  function stageDelayedProtocolParams(DelayedProtocolParams calldata params) external {... */\n    tag_99:\n        /* \"contracts/vaults/UniV3VaultGovernance.sol\":3234:3235  0 */\n      0x00\n        /* \"contracts/vaults/UniV3VaultGovernance.sol\":3199:3221  params.positionManager */\n      tag_223\n      0x20\n      dup4\n      add\n        /* \"contracts/vaults/UniV3VaultGovernance.sol\":3199:3205  params */\n      dup4\n        /* \"contracts/vaults/UniV3VaultGovernance.sol\":3199:3221  params.positionManager */\n      tag_224\n      jump\t// in\n    tag_223:\n      sub(shl(0xa0, 0x01), 0x01)\n        /* \"contracts/vaults/UniV3VaultGovernance.sol\":3191:3236  address(params.positionManager) != address(0) */\n      and\n      eq\n      iszero\n        /* \"contracts/vaults/UniV3VaultGovernance.sol\":3238:3268  ExceptionsLibrary.ADDRESS_ZERO */\n      mload(0x40)\n      dup1\n      0x40\n      add\n      0x40\n      mstore\n      dup1\n      0x02\n      dup2\n      mstore\n      0x20\n      add\n      shl(0xf1, 0x20ad)\n      dup2\n      mstore\n      pop\n        /* \"contracts/vaults/UniV3VaultGovernance.sol\":3183:3269  require(address(params.positionManager) != address(0), ExceptionsLibrary.ADDRESS_ZERO) */\n      swap1\n      tag_225\n      jumpi\n      mload(0x40)\n      shl(0xe5, 0x461bcd)\n      dup2\n      mstore\n      0x04\n      add\n      tag_123\n      swap2\n      swap1\n      tag_79\n      jump\t// in\n    tag_225:\n      pop\n        /* \"contracts/vaults/UniV3VaultGovernance.sol\":3322:3323  0 */\n      0x00\n        /* \"contracts/vaults/UniV3VaultGovernance.sol\":3296:3309  params.oracle */\n      tag_227\n      0x40\n      dup4\n      add\n      0x20\n      dup5\n      add\n      tag_224\n      jump\t// in\n    tag_227:\n      sub(shl(0xa0, 0x01), 0x01)\n        /* \"contracts/vaults/UniV3VaultGovernance.sol\":3288:3324  address(params.oracle) != address(0) */\n      and\n      eq\n      iszero\n        /* \"contracts/vaults/UniV3VaultGovernance.sol\":3326:3356  ExceptionsLibrary.ADDRESS_ZERO */\n      mload(0x40)\n      dup1\n      0x40\n      add\n      0x40\n      mstore\n      dup1\n      0x02\n      dup2\n      mstore\n      0x20\n      add\n      shl(0xf1, 0x20ad)\n      dup2\n      mstore\n      pop\n        /* \"contracts/vaults/UniV3VaultGovernance.sol\":3280:3357  require(address(params.oracle) != address(0), ExceptionsLibrary.ADDRESS_ZERO) */\n      swap1\n      tag_229\n      jumpi\n      mload(0x40)\n      shl(0xe5, 0x461bcd)\n      dup2\n      mstore\n      0x04\n      add\n      tag_123\n      swap2\n      swap1\n      tag_79\n      jump\t// in\n    tag_229:\n      pop\n        /* \"contracts/vaults/UniV3VaultGovernance.sol\":3368:3415  _stageDelayedProtocolParams(abi.encode(params)) */\n      tag_231\n        /* \"contracts/vaults/UniV3VaultGovernance.sol\":3407:3413  params */\n      dup2\n        /* \"contracts/vaults/UniV3VaultGovernance.sol\":3396:3414  abi.encode(params) */\n      add(0x20, mload(0x40))\n      tag_232\n      swap2\n      swap1\n      tag_233\n      jump\t// in\n    tag_232:\n      mload(0x40)\n      0x20\n      dup2\n      dup4\n      sub\n      sub\n      dup2\n      mstore\n      swap1\n      0x40\n      mstore\n        /* \"contracts/vaults/UniV3VaultGovernance.sol\":3368:3395  _stageDelayedProtocolParams */\n      tag_234\n        /* \"contracts/vaults/UniV3VaultGovernance.sol\":3368:3415  _stageDelayedProtocolParams(abi.encode(params)) */\n      jump\t// in\n    tag_231:\n        /* \"contracts/vaults/UniV3VaultGovernance.sol\":3489:3520  _delayedProtocolParamsTimestamp */\n      sload(0x0f)\n        /* \"contracts/vaults/UniV3VaultGovernance.sol\":3431:3521  StageDelayedProtocolParams(tx.origin, msg.sender, params, _delayedProtocolParamsTimestamp) */\n      mload(0x40)\n        /* \"contracts/vaults/UniV3VaultGovernance.sol\":3469:3479  msg.sender */\n      caller\n      swap2\n        /* \"contracts/vaults/UniV3VaultGovernance.sol\":3458:3467  tx.origin */\n      origin\n      swap2\n        /* \"contracts/vaults/UniV3VaultGovernance.sol\":3431:3521  StageDelayedProtocolParams(tx.origin, msg.sender, params, _delayedProtocolParamsTimestamp) */\n      0x88e619a5dce560314fdd4895b08c256978617047a99ffc847d45400df1f377a7\n      swap2\n      tag_135\n      swap2\n        /* \"contracts/vaults/UniV3VaultGovernance.sol\":3481:3487  params */\n      dup7\n      swap2\n        /* \"contracts/vaults/UniV3VaultGovernance.sol\":3489:3520  _delayedProtocolParamsTimestamp */\n      swap1\n        /* \"contracts/vaults/UniV3VaultGovernance.sol\":3431:3521  StageDelayedProtocolParams(tx.origin, msg.sender, params, _delayedProtocolParamsTimestamp) */\n      tag_236\n      jump\t// in\n        /* \"contracts/vaults/UniV3VaultGovernance.sol\":1494:1955  function stagedDelayedProtocolParams() external view returns (DelayedProtocolParams memory) {... */\n    tag_101:\n      0x40\n      dup1\n      mload\n      dup1\n      dup3\n      add\n      swap1\n      swap2\n      mstore\n      0x00\n      dup1\n      dup3\n      mstore\n      0x20\n      dup3\n      add\n      mstore\n        /* \"contracts/vaults/UniV3VaultGovernance.sol\":1601:1629  _stagedDelayedProtocolParams */\n      0x0e\n        /* \"contracts/vaults/UniV3VaultGovernance.sol\":1601:1636  _stagedDelayedProtocolParams.length */\n      dup1\n      sload\n      tag_240\n      swap1\n      tag_141\n      jump\t// in\n    tag_240:\n        /* \"contracts/vaults/UniV3VaultGovernance.sol\":1601:1641  _stagedDelayedProtocolParams.length == 0 */\n      iszero\n        /* \"contracts/vaults/UniV3VaultGovernance.sol\":1597:1865  if (_stagedDelayedProtocolParams.length == 0) {... */\n      iszero\n      swap1\n      pop\n      tag_241\n      jumpi\n      pop\n        /* \"contracts/vaults/UniV3VaultGovernance.sol\":1682:1853  DelayedProtocolParams({... */\n      0x40\n      dup1\n      mload\n      dup1\n      dup3\n      add\n      swap1\n      swap2\n      mstore\n      0x00\n      dup1\n      dup3\n      mstore\n      0x20\n      dup3\n      add\n      mstore\n      swap1\n        /* \"contracts/vaults/UniV3VaultGovernance.sol\":1494:1955  function stagedDelayedProtocolParams() external view returns (DelayedProtocolParams memory) {... */\n      jump\t// out\n        /* \"contracts/vaults/UniV3VaultGovernance.sol\":1597:1865  if (_stagedDelayedProtocolParams.length == 0) {... */\n    tag_241:\n        /* \"contracts/vaults/UniV3VaultGovernance.sol\":1893:1921  _stagedDelayedProtocolParams */\n      0x0e\n        /* \"contracts/vaults/UniV3VaultGovernance.sol\":1882:1947  abi.decode(_stagedDelayedProtocolParams, (DelayedProtocolParams)) */\n      dup1\n      sload\n      tag_242\n      swap1\n      tag_141\n      jump\t// in\n    tag_242:\n      dup1\n      0x1f\n      add\n      0x20\n      dup1\n      swap2\n      div\n      mul\n      0x20\n      add\n      mload(0x40)\n      swap1\n      dup2\n      add\n      0x40\n      mstore\n      dup1\n      swap3\n      swap2\n      swap1\n      dup2\n      dup2\n      mstore\n      0x20\n      add\n      dup3\n      dup1\n      sload\n      tag_243\n      swap1\n      tag_141\n      jump\t// in\n    tag_243:\n      dup1\n      iszero\n      tag_244\n      jumpi\n      dup1\n      0x1f\n      lt\n      tag_245\n      jumpi\n      0x0100\n      dup1\n      dup4\n      sload\n      div\n      mul\n      dup4\n      mstore\n      swap2\n      0x20\n      add\n      swap2\n      jump(tag_244)\n    tag_245:\n      dup3\n      add\n      swap2\n      swap1\n      0x00\n      mstore\n      keccak256(0x00, 0x20)\n      swap1\n    tag_246:\n      dup2\n      sload\n      dup2\n      mstore\n      swap1\n      0x01\n      add\n      swap1\n      0x20\n      add\n      dup1\n      dup4\n      gt\n      tag_246\n      jumpi\n      dup3\n      swap1\n      sub\n      0x1f\n      and\n      dup3\n      add\n      swap2\n    tag_244:\n      pop\n      pop\n      pop\n      pop\n      pop\n      dup1\n      0x20\n      add\n      swap1\n      mload\n      dup2\n      add\n      swap1\n      tag_117\n      swap2\n      swap1\n      tag_217\n      jump\t// in\n        /* \"contracts/vaults/UniV3VaultGovernance.sol\":1208:1443  function delayedProtocolParams() public view returns (DelayedProtocolParams memory) {... */\n    tag_105:\n      0x40\n      dup1\n      mload\n      dup1\n      dup3\n      add\n      swap1\n      swap2\n      mstore\n      0x00\n      dup1\n      dup3\n      mstore\n      0x20\n      dup3\n      add\n      mstore\n        /* \"contracts/vaults/UniV3VaultGovernance.sol\":1387:1409  _delayedProtocolParams */\n      0x0d\n        /* \"contracts/vaults/UniV3VaultGovernance.sol\":1376:1435  abi.decode(_delayedProtocolParams, (DelayedProtocolParams)) */\n      dup1\n      sload\n      tag_242\n      swap1\n      tag_141\n      jump\t// in\n        /* \"contracts/vaults/VaultGovernance.sol\":4307:4764  function commitInternalParams() external {... */\n    tag_108:\n        /* \"contracts/vaults/VaultGovernance.sol\":4359:4382  _requireProtocolAdmin() */\n      tag_257\n        /* \"contracts/vaults/VaultGovernance.sol\":4359:4380  _requireProtocolAdmin */\n      tag_121\n        /* \"contracts/vaults/VaultGovernance.sol\":4359:4382  _requireProtocolAdmin() */\n      jump\t// in\n    tag_257:\n        /* \"contracts/vaults/VaultGovernance.sol\":4401:4425  _internalParamsTimestamp */\n      sload(0x06)\n        /* \"contracts/vaults/VaultGovernance.sol\":4432:4454  ExceptionsLibrary.NULL */\n      0x40\n      dup1\n      mload\n      dup1\n      dup3\n      add\n      swap1\n      swap2\n      mstore\n      0x04\n      dup2\n      mstore\n      shl(0xe2, 0x13955313)\n      0x20\n      dup3\n      add\n      mstore\n      swap1\n        /* \"contracts/vaults/VaultGovernance.sol\":4393:4455  require(_internalParamsTimestamp != 0, ExceptionsLibrary.NULL) */\n      tag_258\n      jumpi\n      mload(0x40)\n      shl(0xe5, 0x461bcd)\n      dup2\n      mstore\n      0x04\n      add\n      tag_123\n      swap2\n      swap1\n      tag_79\n      jump\t// in\n    tag_258:\n      pop\n        /* \"contracts/vaults/VaultGovernance.sol\":4493:4517  _internalParamsTimestamp */\n      sload(0x06)\n        /* \"contracts/vaults/VaultGovernance.sol\":4474:4489  block.timestamp */\n      timestamp\n        /* \"contracts/vaults/VaultGovernance.sol\":4474:4517  block.timestamp >= _internalParamsTimestamp */\n      lt\n      iszero\n        /* \"contracts/vaults/VaultGovernance.sol\":4519:4546  ExceptionsLibrary.TIMESTAMP */\n      mload(0x40)\n      dup1\n      0x40\n      add\n      0x40\n      mstore\n      dup1\n      0x02\n      dup2\n      mstore\n      0x20\n      add\n      shl(0xf0, 0x5453)\n      dup2\n      mstore\n      pop\n        /* \"contracts/vaults/VaultGovernance.sol\":4466:4547  require(block.timestamp >= _internalParamsTimestamp, ExceptionsLibrary.TIMESTAMP) */\n      swap1\n      tag_260\n      jumpi\n      mload(0x40)\n      shl(0xe5, 0x461bcd)\n      dup2\n      mstore\n      0x04\n      add\n      tag_123\n      swap2\n      swap1\n      tag_79\n      jump\t// in\n    tag_260:\n      pop\n        /* \"contracts/vaults/VaultGovernance.sol\":4576:4597  _stagedInternalParams */\n      0x03\n        /* \"contracts/vaults/VaultGovernance.sol\":4558:4597  _internalParams = _stagedInternalParams */\n      dup1\n      sload\n        /* \"contracts/vaults/VaultGovernance.sol\":4558:4573  _internalParams */\n      0x00\n        /* \"contracts/vaults/VaultGovernance.sol\":4558:4597  _internalParams = _stagedInternalParams */\n      dup1\n      sload\n      sub(shl(0xa0, 0x01), 0x01)\n      dup1\n      dup5\n      and\n      not(sub(shl(0xa0, 0x01), 0x01))\n      swap3\n      dup4\n      and\n      dup2\n      or\n      dup5\n      sstore\n      0x04\n      dup1\n      sload\n      0x01\n      dup1\n      sload\n      dup3\n      dup7\n      and\n      swap1\n      dup8\n      and\n      dup2\n      or\n      swap1\n      swap2\n      sstore\n      0x05\n      dup1\n      sload\n      0x02\n      dup1\n      sload\n      swap8\n      dup3\n      and\n      swap8\n      dup10\n      and\n      dup9\n      or\n      swap1\n      sstore\n        /* \"contracts/vaults/VaultGovernance.sol\":4615:4639  _internalParamsTimestamp */\n      0x06\n        /* \"contracts/vaults/VaultGovernance.sol\":4608:4639  delete _internalParamsTimestamp */\n      swap9\n      swap1\n      swap9\n      sstore\n        /* \"contracts/vaults/VaultGovernance.sol\":4650:4678  delete _stagedInternalParams */\n      swap8\n      dup7\n      and\n      swap1\n      swap9\n      sstore\n      dup5\n      and\n      swap1\n      sstore\n      swap3\n      swap1\n      swap2\n      and\n      swap1\n      swap3\n      sstore\n        /* \"contracts/vaults/VaultGovernance.sol\":4694:4756  CommitedInternalParams(tx.origin, msg.sender, _internalParams) */\n      0x40\n      dup1\n      mload\n        /* \"#utility.yul\":14272:14313   */\n      swap2\n      dup3\n      mstore\n        /* \"#utility.yul\":14344:14348   */\n      0x20\n        /* \"#utility.yul\":14329:14349   */\n      dup3\n      add\n        /* \"#utility.yul\":14322:14385   */\n      swap4\n      swap1\n      swap4\n      mstore\n        /* \"#utility.yul\":14401:14421   */\n      swap2\n      dup3\n      add\n        /* \"#utility.yul\":14394:14457   */\n      mstore\n        /* \"contracts/vaults/VaultGovernance.sol\":4728:4738  msg.sender */\n      caller\n      swap1\n        /* \"contracts/vaults/VaultGovernance.sol\":4717:4726  tx.origin */\n      origin\n      swap1\n        /* \"contracts/vaults/VaultGovernance.sol\":4694:4756  CommitedInternalParams(tx.origin, msg.sender, _internalParams) */\n      0xef3e4bc9725fa684957d7de03c6dcd01078ee86cf78ceef25c5f8346df69cc99\n      swap1\n        /* \"#utility.yul\":14222:14224   */\n      0x60\n        /* \"#utility.yul\":14207:14225   */\n      add\n        /* \"contracts/vaults/VaultGovernance.sol\":4694:4756  CommitedInternalParams(tx.origin, msg.sender, _internalParams) */\n      tag_218\n        /* \"#utility.yul\":14027:14463   */\n      jump\n        /* \"contracts/vaults/VaultGovernance.sol\":3279:3493  function supportsInterface(bytes4 interfaceID) public view virtual override(ERC165) returns (bool) {... */\n    tag_114:\n        /* \"contracts/vaults/VaultGovernance.sol\":3372:3376  bool */\n      0x00\n      shl(0xe0, 0x01ffc9a7)\n      not(sub(shl(0xe0, 0x01), 0x01))\n        /* \"@openzeppelin/contracts/utils/introspection/ERC165.sol\":937:977  interfaceId == type(IERC165).interfaceId */\n      dup4\n      and\n      eq\n        /* \"contracts/vaults/VaultGovernance.sol\":3396:3485  super.supportsInterface(interfaceID) || interfaceID == type(IVaultGovernance).interfaceId */\n      dup1\n      tag_115\n      jumpi\n      pop\n      not(sub(shl(0xe0, 0x01), 0x01))\n        /* \"contracts/vaults/VaultGovernance.sol\":3436:3485  interfaceID == type(IVaultGovernance).interfaceId */\n      dup3\n      and\n      shl(0xe0, 0xeffda0f5)\n      eq\n        /* \"contracts/vaults/VaultGovernance.sol\":3389:3485  return super.supportsInterface(interfaceID) || interfaceID == type(IVaultGovernance).interfaceId */\n      swap3\n        /* \"contracts/vaults/VaultGovernance.sol\":3279:3493  function supportsInterface(bytes4 interfaceID) public view virtual override(ERC165) returns (bool) {... */\n      swap2\n      pop\n      pop\n      jump\t// out\n        /* \"contracts/vaults/VaultGovernance.sol\":5207:5365  function _requireProtocolAdmin() internal view {... */\n    tag_121:\n        /* \"contracts/vaults/VaultGovernance.sol\":5273:5288  _internalParams */\n      0x00\n        /* \"contracts/vaults/VaultGovernance.sol\":5273:5307  _internalParams.protocolGovernance */\n      sload\n        /* \"contracts/vaults/VaultGovernance.sol\":5273:5327  _internalParams.protocolGovernance.isAdmin(msg.sender) */\n      mload(0x40)\n      shl(0xe2, 0x0935e01b)\n      dup2\n      mstore\n        /* \"contracts/vaults/VaultGovernance.sol\":5316:5326  msg.sender */\n      caller\n        /* \"contracts/vaults/VaultGovernance.sol\":5273:5327  _internalParams.protocolGovernance.isAdmin(msg.sender) */\n      0x04\n      dup3\n      add\n        /* \"#utility.yul\":14614:14665   */\n      mstore\n      sub(shl(0xa0, 0x01), 0x01)\n        /* \"contracts/vaults/VaultGovernance.sol\":5273:5307  _internalParams.protocolGovernance */\n      swap1\n      swap2\n      and\n      swap1\n        /* \"contracts/vaults/VaultGovernance.sol\":5273:5315  _internalParams.protocolGovernance.isAdmin */\n      0x24d7806c\n      swap1\n        /* \"#utility.yul\":14587:14605   */\n      0x24\n      add\n        /* \"contracts/vaults/VaultGovernance.sol\":5273:5327  _internalParams.protocolGovernance.isAdmin(msg.sender) */\n      0x20\n      mload(0x40)\n      dup1\n      dup4\n      sub\n      dup2\n      dup7\n      dup1\n      extcodesize\n      iszero\n      dup1\n      iszero\n      tag_273\n      jumpi\n      0x00\n      dup1\n      revert\n    tag_273:\n      pop\n      gas\n      staticcall\n      iszero\n      dup1\n      iszero\n      tag_275\n      jumpi\n      returndatasize\n      0x00\n      dup1\n      returndatacopy\n      revert(0x00, returndatasize)\n    tag_275:\n      pop\n      pop\n      pop\n      pop\n      mload(0x40)\n      returndatasize\n      not(0x1f)\n      0x1f\n      dup3\n      add\n      and\n      dup3\n      add\n      dup1\n      0x40\n      mstore\n      pop\n      dup2\n      add\n      swap1\n      tag_276\n      swap2\n      swap1\n      tag_277\n      jump\t// in\n    tag_276:\n        /* \"contracts/vaults/VaultGovernance.sol\":5329:5356  ExceptionsLibrary.FORBIDDEN */\n      mload(0x40)\n      dup1\n      0x40\n      add\n      0x40\n      mstore\n      dup1\n      0x03\n      dup2\n      mstore\n      0x20\n      add\n      shl(0xe9, 0x232921)\n      dup2\n      mstore\n      pop\n        /* \"contracts/vaults/VaultGovernance.sol\":5265:5357  require(_internalParams.protocolGovernance.isAdmin(msg.sender), ExceptionsLibrary.FORBIDDEN) */\n      swap1\n      tag_278\n      jumpi\n      mload(0x40)\n      shl(0xe5, 0x461bcd)\n      dup2\n      mstore\n      0x04\n      add\n      tag_123\n      swap2\n      swap1\n      tag_79\n      jump\t// in\n    tag_278:\n      pop\n        /* \"contracts/vaults/VaultGovernance.sol\":5207:5365  function _requireProtocolAdmin() internal view {... */\n      jump\t// out\n        /* \"contracts/vaults/VaultGovernance.sol\":6948:7511  function _commitDelayedStrategyParams(uint256 nft) internal {... */\n    tag_139:\n        /* \"contracts/vaults/VaultGovernance.sol\":7019:7047  _requireAtLeastStrategy(nft) */\n      tag_281\n        /* \"contracts/vaults/VaultGovernance.sol\":7043:7046  nft */\n      dup2\n        /* \"contracts/vaults/VaultGovernance.sol\":7019:7042  _requireAtLeastStrategy */\n      tag_282\n        /* \"contracts/vaults/VaultGovernance.sol\":7019:7047  _requireAtLeastStrategy(nft) */\n      jump\t// in\n    tag_281:\n        /* \"contracts/vaults/VaultGovernance.sol\":7058:7100  uint256 thisDelayedStrategyParamsTimestamp */\n      0x00\n        /* \"contracts/vaults/VaultGovernance.sol\":7103:7139  _delayedStrategyParamsTimestamp[nft] */\n      dup2\n      dup2\n      mstore\n        /* \"contracts/vaults/VaultGovernance.sol\":7103:7134  _delayedStrategyParamsTimestamp */\n      0x09\n        /* \"contracts/vaults/VaultGovernance.sol\":7103:7139  _delayedStrategyParamsTimestamp[nft] */\n      0x20\n      swap1\n      dup2\n      mstore\n      0x40\n      swap2\n      dup3\n      swap1\n      keccak256\n      sload\n        /* \"contracts/vaults/VaultGovernance.sol\":7199:7221  ExceptionsLibrary.NULL */\n      dup3\n      mload\n      dup1\n      dup5\n      add\n      swap1\n      swap4\n      mstore\n      0x04\n      dup4\n      mstore\n      shl(0xe2, 0x13955313)\n      swap2\n      dup4\n      add\n      swap2\n      swap1\n      swap2\n      mstore\n        /* \"contracts/vaults/VaultGovernance.sol\":7103:7139  _delayedStrategyParamsTimestamp[nft] */\n      swap1\n        /* \"contracts/vaults/VaultGovernance.sol\":7158:7197  thisDelayedStrategyParamsTimestamp != 0 */\n      dup2\n        /* \"contracts/vaults/VaultGovernance.sol\":7150:7222  require(thisDelayedStrategyParamsTimestamp != 0, ExceptionsLibrary.NULL) */\n      tag_283\n      jumpi\n      mload(0x40)\n      shl(0xe5, 0x461bcd)\n      dup2\n      mstore\n      0x04\n      add\n      tag_123\n      swap2\n      swap1\n      tag_79\n      jump\t// in\n    tag_283:\n      pop\n        /* \"contracts/vaults/VaultGovernance.sol\":7260:7294  thisDelayedStrategyParamsTimestamp */\n      dup1\n        /* \"contracts/vaults/VaultGovernance.sol\":7241:7256  block.timestamp */\n      timestamp\n        /* \"contracts/vaults/VaultGovernance.sol\":7241:7294  block.timestamp >= thisDelayedStrategyParamsTimestamp */\n      lt\n      iszero\n        /* \"contracts/vaults/VaultGovernance.sol\":7296:7323  ExceptionsLibrary.TIMESTAMP */\n      mload(0x40)\n      dup1\n      0x40\n      add\n      0x40\n      mstore\n      dup1\n      0x02\n      dup2\n      mstore\n      0x20\n      add\n      shl(0xf0, 0x5453)\n      dup2\n      mstore\n      pop\n        /* \"contracts/vaults/VaultGovernance.sol\":7233:7324  require(block.timestamp >= thisDelayedStrategyParamsTimestamp, ExceptionsLibrary.TIMESTAMP) */\n      swap1\n      tag_285\n      jumpi\n      mload(0x40)\n      shl(0xe5, 0x461bcd)\n      dup2\n      mstore\n      0x04\n      add\n      tag_123\n      swap2\n      swap1\n      tag_79\n      jump\t// in\n    tag_285:\n      pop\n        /* \"contracts/vaults/VaultGovernance.sol\":7365:7398  _stagedDelayedStrategyParams[nft] */\n      0x00\n      dup3\n      dup2\n      mstore\n        /* \"contracts/vaults/VaultGovernance.sol\":7365:7393  _stagedDelayedStrategyParams */\n      0x08\n        /* \"contracts/vaults/VaultGovernance.sol\":7365:7398  _stagedDelayedStrategyParams[nft] */\n      0x20\n      swap1\n      dup2\n      mstore\n      0x40\n      dup1\n      dup4\n      keccak256\n        /* \"contracts/vaults/VaultGovernance.sol\":7335:7357  _delayedStrategyParams */\n      0x07\n        /* \"contracts/vaults/VaultGovernance.sol\":7335:7362  _delayedStrategyParams[nft] */\n      swap1\n      swap3\n      mstore\n      swap1\n      swap2\n      keccak256\n        /* \"contracts/vaults/VaultGovernance.sol\":7335:7398  _delayedStrategyParams[nft] = _stagedDelayedStrategyParams[nft] */\n      dup2\n      sload\n        /* \"contracts/vaults/VaultGovernance.sol\":7335:7362  _delayedStrategyParams[nft] */\n      swap1\n      swap2\n        /* \"contracts/vaults/VaultGovernance.sol\":7365:7398  _stagedDelayedStrategyParams[nft] */\n      swap1\n        /* \"contracts/vaults/VaultGovernance.sol\":7335:7398  _delayedStrategyParams[nft] = _stagedDelayedStrategyParams[nft] */\n      tag_287\n      swap1\n      tag_141\n      jump\t// in\n    tag_287:\n      tag_288\n      swap3\n      swap2\n      swap1\n      tag_289\n      jump\t// in\n    tag_288:\n      pop\n        /* \"contracts/vaults/VaultGovernance.sol\":7416:7449  _stagedDelayedStrategyParams[nft] */\n      0x00\n      dup3\n      dup2\n      mstore\n        /* \"contracts/vaults/VaultGovernance.sol\":7416:7444  _stagedDelayedStrategyParams */\n      0x08\n        /* \"contracts/vaults/VaultGovernance.sol\":7416:7449  _stagedDelayedStrategyParams[nft] */\n      0x20\n      mstore\n      0x40\n      dup2\n      keccak256\n        /* \"contracts/vaults/VaultGovernance.sol\":7409:7449  delete _stagedDelayedStrategyParams[nft] */\n      tag_290\n      swap2\n      tag_291\n      jump\t// in\n    tag_290:\n      pop\n        /* \"contracts/vaults/VaultGovernance.sol\":7467:7503  _delayedStrategyParamsTimestamp[nft] */\n      0x00\n      swap1\n      dup2\n      mstore\n        /* \"contracts/vaults/VaultGovernance.sol\":7467:7498  _delayedStrategyParamsTimestamp */\n      0x09\n        /* \"contracts/vaults/VaultGovernance.sol\":7467:7503  _delayedStrategyParamsTimestamp[nft] */\n      0x20\n      mstore\n      0x40\n      dup2\n      keccak256\n        /* \"contracts/vaults/VaultGovernance.sol\":7460:7503  delete _delayedStrategyParamsTimestamp[nft] */\n      sstore\n        /* \"contracts/vaults/VaultGovernance.sol\":6948:7511  function _commitDelayedStrategyParams(uint256 nft) internal {... */\n      jump\t// out\n        /* \"contracts/vaults/VaultGovernance.sol\":6459:6892  function _stageDelayedStrategyParams(uint256 nft, bytes memory params) internal {... */\n    tag_161:\n        /* \"contracts/vaults/VaultGovernance.sol\":6550:6578  _requireAtLeastStrategy(nft) */\n      tag_294\n        /* \"contracts/vaults/VaultGovernance.sol\":6574:6577  nft */\n      dup3\n        /* \"contracts/vaults/VaultGovernance.sol\":6550:6573  _requireAtLeastStrategy */\n      tag_282\n        /* \"contracts/vaults/VaultGovernance.sol\":6550:6578  _requireAtLeastStrategy(nft) */\n      jump\t// in\n    tag_294:\n        /* \"contracts/vaults/VaultGovernance.sol\":6589:6622  _stagedDelayedStrategyParams[nft] */\n      0x00\n      dup3\n      dup2\n      mstore\n        /* \"contracts/vaults/VaultGovernance.sol\":6589:6617  _stagedDelayedStrategyParams */\n      0x08\n        /* \"contracts/vaults/VaultGovernance.sol\":6589:6622  _stagedDelayedStrategyParams[nft] */\n      0x20\n      swap1\n      dup2\n      mstore\n      0x40\n      swap1\n      swap2\n      keccak256\n        /* \"contracts/vaults/VaultGovernance.sol\":6589:6631  _stagedDelayedStrategyParams[nft] = params */\n      dup3\n      mload\n      tag_295\n      swap3\n      dup5\n      add\n      swap1\n      tag_296\n      jump\t// in\n    tag_295:\n      pop\n        /* \"contracts/vaults/VaultGovernance.sol\":6642:6661  uint256 delayFactor */\n      0x00\n        /* \"contracts/vaults/VaultGovernance.sol\":6664:6691  _delayedStrategyParams[nft] */\n      dup3\n      dup2\n      mstore\n        /* \"contracts/vaults/VaultGovernance.sol\":6664:6686  _delayedStrategyParams */\n      0x07\n        /* \"contracts/vaults/VaultGovernance.sol\":6664:6691  _delayedStrategyParams[nft] */\n      0x20\n      mstore\n      0x40\n      dup2\n      keccak256\n        /* \"contracts/vaults/VaultGovernance.sol\":6664:6698  _delayedStrategyParams[nft].length */\n      dup1\n      sload\n      tag_297\n      swap1\n      tag_141\n      jump\t// in\n    tag_297:\n        /* \"contracts/vaults/VaultGovernance.sol\":6664:6703  _delayedStrategyParams[nft].length == 0 */\n      iszero\n      swap1\n      pop\n        /* \"contracts/vaults/VaultGovernance.sol\":6664:6711  _delayedStrategyParams[nft].length == 0 ? 0 : 1 */\n      tag_298\n      jumpi\n        /* \"contracts/vaults/VaultGovernance.sol\":6710:6711  1 */\n      0x01\n        /* \"contracts/vaults/VaultGovernance.sol\":6664:6711  _delayedStrategyParams[nft].length == 0 ? 0 : 1 */\n      jump(tag_299)\n    tag_298:\n        /* \"contracts/vaults/VaultGovernance.sol\":6706:6707  0 */\n      0x00\n        /* \"contracts/vaults/VaultGovernance.sol\":6664:6711  _delayedStrategyParams[nft].length == 0 ? 0 : 1 */\n    tag_299:\n        /* \"contracts/vaults/VaultGovernance.sol\":6642:6711  uint256 delayFactor = _delayedStrategyParams[nft].length == 0 ? 0 : 1 */\n      0xff\n      and\n      swap1\n      pop\n        /* \"contracts/vaults/VaultGovernance.sol\":6873:6884  delayFactor */\n      dup1\n        /* \"contracts/vaults/VaultGovernance.sol\":6805:6820  _internalParams */\n      0x00\n        /* \"contracts/vaults/VaultGovernance.sol\":6805:6839  _internalParams.protocolGovernance */\n      dup1\n      add\n      0x00\n      swap1\n      sload\n      swap1\n      0x0100\n      exp\n      swap1\n      div\n      sub(shl(0xa0, 0x01), 0x01)\n      and\n      sub(shl(0xa0, 0x01), 0x01)\n        /* \"contracts/vaults/VaultGovernance.sol\":6805:6855  _internalParams.protocolGovernance.governanceDelay */\n      and\n      0xbba32939\n        /* \"contracts/vaults/VaultGovernance.sol\":6805:6857  _internalParams.protocolGovernance.governanceDelay() */\n      mload(0x40)\n      dup2\n      0xffffffff\n      and\n      0xe0\n      shl\n      dup2\n      mstore\n      0x04\n      add\n      0x20\n      mload(0x40)\n      dup1\n      dup4\n      sub\n      dup2\n      dup7\n      dup1\n      extcodesize\n      iszero\n      dup1\n      iszero\n      tag_300\n      jumpi\n      0x00\n      dup1\n      revert\n    tag_300:\n      pop\n      gas\n      staticcall\n      iszero\n      dup1\n      iszero\n      tag_302\n      jumpi\n      returndatasize\n      0x00\n      dup1\n      returndatacopy\n      revert(0x00, returndatasize)\n    tag_302:\n      pop\n      pop\n      pop\n      pop\n      mload(0x40)\n      returndatasize\n      not(0x1f)\n      0x1f\n      dup3\n      add\n      and\n      dup3\n      add\n      dup1\n      0x40\n      mstore\n      pop\n      dup2\n      add\n      swap1\n      tag_303\n      swap2\n      swap1\n      tag_132\n      jump\t// in\n    tag_303:\n        /* \"contracts/vaults/VaultGovernance.sol\":6805:6884  _internalParams.protocolGovernance.governanceDelay() *... */\n      tag_304\n      swap2\n      swap1\n      tag_305\n      jump\t// in\n    tag_304:\n        /* \"contracts/vaults/VaultGovernance.sol\":6774:6884  block.timestamp +... */\n      tag_306\n      swap1\n        /* \"contracts/vaults/VaultGovernance.sol\":6774:6789  block.timestamp */\n      timestamp\n        /* \"contracts/vaults/VaultGovernance.sol\":6774:6884  block.timestamp +... */\n      tag_134\n      jump\t// in\n    tag_306:\n        /* \"contracts/vaults/VaultGovernance.sol\":6722:6758  _delayedStrategyParamsTimestamp[nft] */\n      0x00\n      swap4\n      dup5\n      mstore\n        /* \"contracts/vaults/VaultGovernance.sol\":6722:6753  _delayedStrategyParamsTimestamp */\n      0x09\n        /* \"contracts/vaults/VaultGovernance.sol\":6722:6758  _delayedStrategyParamsTimestamp[nft] */\n      0x20\n      mstore\n      0x40\n      swap1\n      swap4\n      keccak256\n        /* \"contracts/vaults/VaultGovernance.sol\":6722:6884  _delayedStrategyParamsTimestamp[nft] =... */\n      swap3\n      swap1\n      swap3\n      sstore\n      pop\n      pop\n        /* \"contracts/vaults/VaultGovernance.sol\":6459:6892  function _stageDelayedStrategyParams(uint256 nft, bytes memory params) internal {... */\n      jump\t// out\n        /* \"contracts/vaults/VaultGovernance.sol\":5703:6335  function _createVault(address owner) internal returns (address vault, uint256 nft) {... */\n    tag_178:\n        /* \"contracts/vaults/VaultGovernance.sol\":5758:5771  address vault */\n      0x00\n        /* \"contracts/vaults/VaultGovernance.sol\":5858:5892  _internalParams.protocolGovernance */\n      dup1\n      sload\n        /* \"contracts/vaults/VaultGovernance.sol\":5926:6005  protocolGovernance.hasPermission(msg.sender, PermissionIdsLibrary.CREATE_VAULT) */\n      mload(0x40)\n      shl(0xe0, 0x63e85d2d)\n      dup2\n      mstore\n        /* \"contracts/vaults/VaultGovernance.sol\":5959:5969  msg.sender */\n      caller\n        /* \"contracts/vaults/VaultGovernance.sol\":5926:6005  protocolGovernance.hasPermission(msg.sender, PermissionIdsLibrary.CREATE_VAULT) */\n      0x04\n      dup3\n      add\n        /* \"#utility.yul\":15301:15352   */\n      mstore\n        /* \"contracts/vaults/VaultGovernance.sol\":5858:5892  _internalParams.protocolGovernance */\n      0x01\n        /* \"#utility.yul\":15368:15386   */\n      0x24\n      dup3\n      add\n        /* \"#utility.yul\":15361:15406   */\n      mstore\n        /* \"contracts/vaults/VaultGovernance.sol\":5758:5771  address vault */\n      dup3\n      swap2\n      sub(shl(0xa0, 0x01), 0x01)\n        /* \"contracts/vaults/VaultGovernance.sol\":5858:5892  _internalParams.protocolGovernance */\n      and\n      swap1\n      dup2\n      swap1\n        /* \"contracts/vaults/VaultGovernance.sol\":5926:5958  protocolGovernance.hasPermission */\n      0x63e85d2d\n      swap1\n        /* \"#utility.yul\":15274:15292   */\n      0x44\n      add\n        /* \"contracts/vaults/VaultGovernance.sol\":5926:6005  protocolGovernance.hasPermission(msg.sender, PermissionIdsLibrary.CREATE_VAULT) */\n      0x20\n      mload(0x40)\n      dup1\n      dup4\n      sub\n      dup2\n      dup7\n      dup1\n      extcodesize\n      iszero\n      dup1\n      iszero\n      tag_310\n      jumpi\n      0x00\n      dup1\n      revert\n    tag_310:\n      pop\n      gas\n      staticcall\n      iszero\n      dup1\n      iszero\n      tag_312\n      jumpi\n      returndatasize\n      0x00\n      dup1\n      returndatacopy\n      revert(0x00, returndatasize)\n    tag_312:\n      pop\n      pop\n      pop\n      pop\n      mload(0x40)\n      returndatasize\n      not(0x1f)\n      0x1f\n      dup3\n      add\n      and\n      dup3\n      add\n      dup1\n      0x40\n      mstore\n      pop\n      dup2\n      add\n      swap1\n      tag_313\n      swap2\n      swap1\n      tag_277\n      jump\t// in\n    tag_313:\n        /* \"contracts/vaults/VaultGovernance.sol\":6020:6047  ExceptionsLibrary.FORBIDDEN */\n      mload(0x40)\n      dup1\n      0x40\n      add\n      0x40\n      mstore\n      dup1\n      0x03\n      dup2\n      mstore\n      0x20\n      add\n      shl(0xe9, 0x232921)\n      dup2\n      mstore\n      pop\n        /* \"contracts/vaults/VaultGovernance.sol\":5904:6058  require(... */\n      swap1\n      tag_314\n      jumpi\n      mload(0x40)\n      shl(0xe5, 0x461bcd)\n      dup2\n      mstore\n      0x04\n      add\n      tag_123\n      swap2\n      swap1\n      tag_79\n      jump\t// in\n    tag_314:\n      pop\n        /* \"contracts/vaults/VaultGovernance.sol\":6100:6124  _internalParams.registry */\n      sload(0x01)\n        /* \"contracts/vaults/VaultGovernance.sol\":6141:6168  vaultRegistry.vaultsCount() */\n      0x40\n      dup1\n      mload\n      shl(0xe3, 0x1112eee7)\n      dup2\n      mstore\n      swap1\n      mload\n      sub(shl(0xa0, 0x01), 0x01)\n        /* \"contracts/vaults/VaultGovernance.sol\":6100:6124  _internalParams.registry */\n      swap1\n      swap3\n      and\n      swap2\n      dup3\n      swap2\n        /* \"contracts/vaults/VaultGovernance.sol\":6141:6166  vaultRegistry.vaultsCount */\n      0x88977738\n      swap2\n        /* \"contracts/vaults/VaultGovernance.sol\":6141:6168  vaultRegistry.vaultsCount() */\n      0x04\n      dup1\n      dup4\n      add\n      swap3\n      0x20\n      swap3\n      swap2\n      swap1\n      dup3\n      swap1\n      sub\n      add\n      dup2\n        /* \"contracts/vaults/VaultGovernance.sol\":6100:6124  _internalParams.registry */\n      dup7\n        /* \"contracts/vaults/VaultGovernance.sol\":6141:6168  vaultRegistry.vaultsCount() */\n      dup1\n      extcodesize\n      iszero\n      dup1\n      iszero\n      tag_316\n      jumpi\n      0x00\n      dup1\n      revert\n    tag_316:\n      pop\n      gas\n      staticcall\n      iszero\n      dup1\n      iszero\n      tag_318\n      jumpi\n      returndatasize\n      0x00\n      dup1\n      returndatacopy\n      revert(0x00, returndatasize)\n    tag_318:\n      pop\n      pop\n      pop\n      pop\n      mload(0x40)\n      returndatasize\n      not(0x1f)\n      0x1f\n      dup3\n      add\n      and\n      dup3\n      add\n      dup1\n      0x40\n      mstore\n      pop\n      dup2\n      add\n      swap1\n      tag_319\n      swap2\n      swap1\n      tag_132\n      jump\t// in\n    tag_319:\n        /* \"contracts/vaults/VaultGovernance.sol\":6141:6172  vaultRegistry.vaultsCount() + 1 */\n      tag_320\n      swap1\n        /* \"contracts/vaults/VaultGovernance.sol\":6171:6172  1 */\n      0x01\n        /* \"contracts/vaults/VaultGovernance.sol\":6141:6172  vaultRegistry.vaultsCount() + 1 */\n      tag_134\n      jump\t// in\n    tag_320:\n        /* \"contracts/vaults/VaultGovernance.sol\":6225:6250  _internalParams.singleton */\n      sload(0x02)\n        /* \"contracts/vaults/VaultGovernance.sol\":6135:6172  nft = vaultRegistry.vaultsCount() + 1 */\n      swap1\n      swap4\n      pop\n        /* \"contracts/vaults/VaultGovernance.sol\":6191:6266  Clones.cloneDeterministic(address(_internalParams.singleton), bytes32(nft)) */\n      tag_321\n      swap1\n      sub(shl(0xa0, 0x01), 0x01)\n        /* \"contracts/vaults/VaultGovernance.sol\":6225:6250  _internalParams.singleton */\n      and\n        /* \"contracts/vaults/VaultGovernance.sol\":6135:6172  nft = vaultRegistry.vaultsCount() + 1 */\n      dup5\n        /* \"contracts/vaults/VaultGovernance.sol\":6191:6216  Clones.cloneDeterministic */\n      tag_322\n        /* \"contracts/vaults/VaultGovernance.sol\":6191:6266  Clones.cloneDeterministic(address(_internalParams.singleton), bytes32(nft)) */\n      jump\t// in\n    tag_321:\n        /* \"contracts/vaults/VaultGovernance.sol\":6277:6327  vaultRegistry.registerVault(address(vault), owner) */\n      mload(0x40)\n      shl(0xe0, 0x05c4fdf9)\n      dup2\n      mstore\n      sub(shl(0xa0, 0x01), 0x01)\n        /* \"#utility.yul\":15647:15662   */\n      dup1\n      dup4\n      and\n        /* \"contracts/vaults/VaultGovernance.sol\":6277:6327  vaultRegistry.registerVault(address(vault), owner) */\n      0x04\n      dup4\n      add\n        /* \"#utility.yul\":15629:15663   */\n      mstore\n        /* \"#utility.yul\":15699:15714   */\n      dup8\n      dup2\n      and\n        /* \"#utility.yul\":15679:15697   */\n      0x24\n      dup4\n      add\n        /* \"#utility.yul\":15672:15715   */\n      mstore\n        /* \"contracts/vaults/VaultGovernance.sol\":6183:6266  vault = Clones.cloneDeterministic(address(_internalParams.singleton), bytes32(nft)) */\n      swap2\n      swap6\n      pop\n        /* \"contracts/vaults/VaultGovernance.sol\":6277:6304  vaultRegistry.registerVault */\n      swap1\n      dup3\n      and\n      swap1\n      0x05c4fdf9\n      swap1\n        /* \"#utility.yul\":15564:15582   */\n      0x44\n      add\n        /* \"contracts/vaults/VaultGovernance.sol\":6277:6327  vaultRegistry.registerVault(address(vault), owner) */\n      0x20\n      mload(0x40)\n      dup1\n      dup4\n      sub\n      dup2\n      0x00\n      dup8\n      dup1\n      extcodesize\n      iszero\n      dup1\n      iszero\n      tag_325\n      jumpi\n      0x00\n      dup1\n      revert\n    tag_325:\n      pop\n      gas\n      call\n      iszero\n      dup1\n      iszero\n      tag_327\n      jumpi\n      returndatasize\n      0x00\n      dup1\n      returndatacopy\n      revert(0x00, returndatasize)\n    tag_327:\n      pop\n      pop\n      pop\n      pop\n      mload(0x40)\n      returndatasize\n      not(0x1f)\n      0x1f\n      dup3\n      add\n      and\n      dup3\n      add\n      dup1\n      0x40\n      mstore\n      pop\n      dup2\n      add\n      swap1\n      tag_328\n      swap2\n      swap1\n      tag_132\n      jump\t// in\n    tag_328:\n      pop\n        /* \"contracts/vaults/VaultGovernance.sol\":5786:6335  {... */\n      pop\n      pop\n        /* \"contracts/vaults/VaultGovernance.sol\":5703:6335  function _createVault(address owner) internal returns (address vault, uint256 nft) {... */\n      swap2\n      pop\n      swap2\n      jump\t// out\n        /* \"contracts/utils/ContractMeta.sol\":943:1337  function _bytes32ToString(bytes32 b) internal pure returns (string memory s) {... */\n    tag_192:\n        /* \"contracts/utils/ContractMeta.sol\":1035:1049  new string(32) */\n      0x40\n      dup1\n      mload\n        /* \"contracts/utils/ContractMeta.sol\":1046:1048  32 */\n      0x20\n        /* \"contracts/utils/ContractMeta.sol\":1035:1049  new string(32) */\n      dup1\n      dup3\n      mstore\n      dup2\n      dup4\n      add\n      swap1\n      swap3\n      mstore\n        /* \"contracts/utils/ContractMeta.sol\":1003:1018  string memory s */\n      0x60\n      swap2\n        /* \"contracts/utils/ContractMeta.sol\":1035:1049  new string(32) */\n      0x20\n      dup3\n      add\n      dup2\n      dup1\n      calldatasize\n      dup4\n      calldatacopy\n      add\n      swap1\n      pop\n      pop\n        /* \"contracts/utils/ContractMeta.sol\":1031:1049  s = new string(32) */\n      swap1\n      pop\n        /* \"contracts/utils/ContractMeta.sol\":1074:1076  32 */\n      0x20\n        /* \"contracts/utils/ContractMeta.sol\":1060:1071  uint256 len */\n      0x00\n        /* \"contracts/utils/ContractMeta.sol\":1087:1234  for (uint256 i = 0; i < 32; ++i) {... */\n    tag_334:\n        /* \"contracts/utils/ContractMeta.sol\":1111:1113  32 */\n      0x20\n        /* \"contracts/utils/ContractMeta.sol\":1107:1108  i */\n      dup2\n        /* \"contracts/utils/ContractMeta.sol\":1107:1113  i < 32 */\n      lt\n        /* \"contracts/utils/ContractMeta.sol\":1087:1234  for (uint256 i = 0; i < 32; ++i) {... */\n      iszero\n      tag_335\n      jumpi\n        /* \"contracts/utils/ContractMeta.sol\":1145:1146  b */\n      dup4\n        /* \"contracts/utils/ContractMeta.sol\":1147:1148  i */\n      dup2\n        /* \"contracts/utils/ContractMeta.sol\":1145:1149  b[i] */\n      0x20\n      dup2\n      lt\n      tag_338\n      jumpi\n      tag_338\n      tag_339\n      jump\t// in\n    tag_338:\n      byte\n        /* \"contracts/utils/ContractMeta.sol\":1135:1223  if (uint8(b[i]) == 0) {... */\n      tag_340\n      jumpi\n        /* \"contracts/utils/ContractMeta.sol\":1182:1183  i */\n      dup1\n        /* \"contracts/utils/ContractMeta.sol\":1176:1183  len = i */\n      swap2\n      pop\n        /* \"contracts/utils/ContractMeta.sol\":1202:1207  break */\n      jump(tag_335)\n        /* \"contracts/utils/ContractMeta.sol\":1135:1223  if (uint8(b[i]) == 0) {... */\n    tag_340:\n        /* \"contracts/utils/ContractMeta.sol\":1115:1118  ++i */\n      tag_341\n      dup2\n      tag_342\n      jump\t// in\n    tag_341:\n      swap1\n      pop\n        /* \"contracts/utils/ContractMeta.sol\":1087:1234  for (uint256 i = 0; i < 32; ++i) {... */\n      jump(tag_334)\n    tag_335:\n      pop\n        /* \"contracts/utils/ContractMeta.sol\":1268:1282  mstore(s, len) */\n      dup2\n      mstore\n        /* \"contracts/utils/ContractMeta.sol\":1310:1314  0x20 */\n      0x20\n        /* \"contracts/utils/ContractMeta.sol\":1303:1315  add(s, 0x20) */\n      dup2\n      add\n        /* \"contracts/utils/ContractMeta.sol\":1296:1319  mstore(add(s, 0x20), b) */\n      swap2\n      swap1\n      swap2\n      mstore\n        /* \"contracts/utils/ContractMeta.sol\":1275:1276  s */\n      swap1\n        /* \"contracts/utils/ContractMeta.sol\":943:1337  function _bytes32ToString(bytes32 b) internal pure returns (string memory s) {... */\n      jump\t// out\n        /* \"contracts/vaults/VaultGovernance.sol\":9344:9773  function _commitDelayedProtocolParams() internal {... */\n    tag_210:\n        /* \"contracts/vaults/VaultGovernance.sol\":9404:9427  _requireProtocolAdmin() */\n      tag_344\n        /* \"contracts/vaults/VaultGovernance.sol\":9404:9425  _requireProtocolAdmin */\n      tag_121\n        /* \"contracts/vaults/VaultGovernance.sol\":9404:9427  _requireProtocolAdmin() */\n      jump\t// in\n    tag_344:\n        /* \"contracts/vaults/VaultGovernance.sol\":9446:9477  _delayedProtocolParamsTimestamp */\n      sload(0x0f)\n        /* \"contracts/vaults/VaultGovernance.sol\":9484:9506  ExceptionsLibrary.NULL */\n      0x40\n      dup1\n      mload\n      dup1\n      dup3\n      add\n      swap1\n      swap2\n      mstore\n      0x04\n      dup2\n      mstore\n      shl(0xe2, 0x13955313)\n      0x20\n      dup3\n      add\n      mstore\n      swap1\n        /* \"contracts/vaults/VaultGovernance.sol\":9438:9507  require(_delayedProtocolParamsTimestamp != 0, ExceptionsLibrary.NULL) */\n      tag_345\n      jumpi\n      mload(0x40)\n      shl(0xe5, 0x461bcd)\n      dup2\n      mstore\n      0x04\n      add\n      tag_123\n      swap2\n      swap1\n      tag_79\n      jump\t// in\n    tag_345:\n      pop\n        /* \"contracts/vaults/VaultGovernance.sol\":9545:9576  _delayedProtocolParamsTimestamp */\n      sload(0x0f)\n        /* \"contracts/vaults/VaultGovernance.sol\":9526:9541  block.timestamp */\n      timestamp\n        /* \"contracts/vaults/VaultGovernance.sol\":9526:9576  block.timestamp >= _delayedProtocolParamsTimestamp */\n      lt\n      iszero\n        /* \"contracts/vaults/VaultGovernance.sol\":9578:9605  ExceptionsLibrary.TIMESTAMP */\n      mload(0x40)\n      dup1\n      0x40\n      add\n      0x40\n      mstore\n      dup1\n      0x02\n      dup2\n      mstore\n      0x20\n      add\n      shl(0xf0, 0x5453)\n      dup2\n      mstore\n      pop\n        /* \"contracts/vaults/VaultGovernance.sol\":9518:9606  require(block.timestamp >= _delayedProtocolParamsTimestamp, ExceptionsLibrary.TIMESTAMP) */\n      swap1\n      tag_347\n      jumpi\n      mload(0x40)\n      shl(0xe5, 0x461bcd)\n      dup2\n      mstore\n      0x04\n      add\n      tag_123\n      swap2\n      swap1\n      tag_79\n      jump\t// in\n    tag_347:\n      pop\n        /* \"contracts/vaults/VaultGovernance.sol\":9642:9670  _stagedDelayedProtocolParams */\n      0x0e\n        /* \"contracts/vaults/VaultGovernance.sol\":9617:9639  _delayedProtocolParams */\n      0x0d\n        /* \"contracts/vaults/VaultGovernance.sol\":9617:9670  _delayedProtocolParams = _stagedDelayedProtocolParams */\n      swap1\n      dup1\n      sload\n      tag_349\n      swap1\n      tag_141\n      jump\t// in\n    tag_349:\n      tag_350\n      swap3\n      swap2\n      swap1\n      tag_289\n      jump\t// in\n    tag_350:\n      pop\n        /* \"contracts/vaults/VaultGovernance.sol\":9681:9716  delete _stagedDelayedProtocolParams */\n      tag_351\n        /* \"contracts/vaults/VaultGovernance.sol\":9688:9716  _stagedDelayedProtocolParams */\n      0x0e\n      0x00\n        /* \"contracts/vaults/VaultGovernance.sol\":9681:9716  delete _stagedDelayedProtocolParams */\n      tag_291\n      jump\t// in\n    tag_351:\n        /* \"contracts/vaults/VaultGovernance.sol\":9727:9765  delete _delayedProtocolParamsTimestamp */\n      0x00\n        /* \"contracts/vaults/VaultGovernance.sol\":9734:9765  _delayedProtocolParamsTimestamp */\n      0x0f\n        /* \"contracts/vaults/VaultGovernance.sol\":9727:9765  delete _delayedProtocolParamsTimestamp */\n      sstore\n        /* \"contracts/vaults/VaultGovernance.sol\":9344:9773  function _commitDelayedProtocolParams() internal {... */\n      jump\t// out\n        /* \"contracts/vaults/VaultGovernance.sol\":8888:9288  function _stageDelayedProtocolParams(bytes memory params) internal {... */\n    tag_234:\n        /* \"contracts/vaults/VaultGovernance.sol\":8966:8989  _requireProtocolAdmin() */\n      tag_353\n        /* \"contracts/vaults/VaultGovernance.sol\":8966:8987  _requireProtocolAdmin */\n      tag_121\n        /* \"contracts/vaults/VaultGovernance.sol\":8966:8989  _requireProtocolAdmin() */\n      jump\t// in\n    tag_353:\n        /* \"contracts/vaults/VaultGovernance.sol\":9000:9019  uint256 delayFactor */\n      0x00\n        /* \"contracts/vaults/VaultGovernance.sol\":9022:9044  _delayedProtocolParams */\n      0x0d\n        /* \"contracts/vaults/VaultGovernance.sol\":9022:9051  _delayedProtocolParams.length */\n      dup1\n      sload\n      tag_354\n      swap1\n      tag_141\n      jump\t// in\n    tag_354:\n        /* \"contracts/vaults/VaultGovernance.sol\":9022:9056  _delayedProtocolParams.length == 0 */\n      iszero\n      swap1\n      pop\n        /* \"contracts/vaults/VaultGovernance.sol\":9022:9064  _delayedProtocolParams.length == 0 ? 0 : 1 */\n      tag_355\n      jumpi\n        /* \"contracts/vaults/VaultGovernance.sol\":9063:9064  1 */\n      0x01\n        /* \"contracts/vaults/VaultGovernance.sol\":9022:9064  _delayedProtocolParams.length == 0 ? 0 : 1 */\n      jump(tag_356)\n    tag_355:\n        /* \"contracts/vaults/VaultGovernance.sol\":9059:9060  0 */\n      0x00\n        /* \"contracts/vaults/VaultGovernance.sol\":9022:9064  _delayedProtocolParams.length == 0 ? 0 : 1 */\n    tag_356:\n        /* \"contracts/vaults/VaultGovernance.sol\":9000:9064  uint256 delayFactor = _delayedProtocolParams.length == 0 ? 0 : 1 */\n      0xff\n      and\n      swap1\n      pop\n        /* \"contracts/vaults/VaultGovernance.sol\":9106:9112  params */\n      dup2\n        /* \"contracts/vaults/VaultGovernance.sol\":9075:9103  _stagedDelayedProtocolParams */\n      0x0e\n        /* \"contracts/vaults/VaultGovernance.sol\":9075:9112  _stagedDelayedProtocolParams = params */\n      swap1\n      dup1\n      mload\n      swap1\n      0x20\n      add\n      swap1\n      tag_357\n      swap3\n      swap2\n      swap1\n      tag_296\n      jump\t// in\n    tag_357:\n      pop\n        /* \"contracts/vaults/VaultGovernance.sol\":9201:9216  _internalParams */\n      0x00\n        /* \"contracts/vaults/VaultGovernance.sol\":9201:9235  _internalParams.protocolGovernance */\n      sload\n        /* \"contracts/vaults/VaultGovernance.sol\":9201:9253  _internalParams.protocolGovernance.governanceDelay() */\n      0x40\n      dup1\n      mload\n      shl(0xe0, 0xbba32939)\n      dup2\n      mstore\n      swap1\n      mload\n        /* \"contracts/vaults/VaultGovernance.sol\":9269:9280  delayFactor */\n      dup4\n      swap3\n      sub(shl(0xa0, 0x01), 0x01)\n        /* \"contracts/vaults/VaultGovernance.sol\":9201:9235  _internalParams.protocolGovernance */\n      and\n      swap2\n        /* \"contracts/vaults/VaultGovernance.sol\":9201:9251  _internalParams.protocolGovernance.governanceDelay */\n      0xbba32939\n      swap2\n        /* \"contracts/vaults/VaultGovernance.sol\":9201:9253  _internalParams.protocolGovernance.governanceDelay() */\n      0x04\n      dup1\n      dup4\n      add\n      swap3\n      0x20\n      swap3\n      swap2\n      swap1\n      dup3\n      swap1\n      sub\n      add\n      dup2\n        /* \"contracts/vaults/VaultGovernance.sol\":9201:9235  _internalParams.protocolGovernance */\n      dup7\n        /* \"contracts/vaults/VaultGovernance.sol\":9201:9253  _internalParams.protocolGovernance.governanceDelay() */\n      dup1\n      extcodesize\n      iszero\n      dup1\n      iszero\n      tag_358\n      jumpi\n      0x00\n      dup1\n      revert\n    tag_358:\n      pop\n      gas\n      staticcall\n      iszero\n      dup1\n      iszero\n      tag_360\n      jumpi\n      returndatasize\n      0x00\n      dup1\n      returndatacopy\n      revert(0x00, returndatasize)\n    tag_360:\n      pop\n      pop\n      pop\n      pop\n      mload(0x40)\n      returndatasize\n      not(0x1f)\n      0x1f\n      dup3\n      add\n      and\n      dup3\n      add\n      dup1\n      0x40\n      mstore\n      pop\n      dup2\n      add\n      swap1\n      tag_361\n      swap2\n      swap1\n      tag_132\n      jump\t// in\n    tag_361:\n        /* \"contracts/vaults/VaultGovernance.sol\":9201:9280  _internalParams.protocolGovernance.governanceDelay() *... */\n      tag_362\n      swap2\n      swap1\n      tag_305\n      jump\t// in\n    tag_362:\n        /* \"contracts/vaults/VaultGovernance.sol\":9170:9280  block.timestamp +... */\n      tag_363\n      swap1\n        /* \"contracts/vaults/VaultGovernance.sol\":9170:9185  block.timestamp */\n      timestamp\n        /* \"contracts/vaults/VaultGovernance.sol\":9170:9280  block.timestamp +... */\n      tag_134\n      jump\t// in\n    tag_363:\n        /* \"contracts/vaults/VaultGovernance.sol\":9123:9154  _delayedProtocolParamsTimestamp */\n      0x0f\n        /* \"contracts/vaults/VaultGovernance.sol\":9123:9280  _delayedProtocolParamsTimestamp =... */\n      sstore\n      pop\n      pop\n        /* \"contracts/vaults/VaultGovernance.sol\":8888:9288  function _stageDelayedProtocolParams(bytes memory params) internal {... */\n      jump\t// out\n        /* \"contracts/vaults/VaultGovernance.sol\":4839:5199  function _requireAtLeastStrategy(uint256 nft) internal view {... */\n    tag_282:\n        /* \"contracts/vaults/VaultGovernance.sol\":4933:4948  _internalParams */\n      0x00\n        /* \"contracts/vaults/VaultGovernance.sol\":4933:4967  _internalParams.protocolGovernance */\n      sload\n        /* \"contracts/vaults/VaultGovernance.sol\":4933:4987  _internalParams.protocolGovernance.isAdmin(msg.sender) */\n      mload(0x40)\n      shl(0xe2, 0x0935e01b)\n      dup2\n      mstore\n        /* \"contracts/vaults/VaultGovernance.sol\":4976:4986  msg.sender */\n      caller\n        /* \"contracts/vaults/VaultGovernance.sol\":4933:4987  _internalParams.protocolGovernance.isAdmin(msg.sender) */\n      0x04\n      dup3\n      add\n        /* \"#utility.yul\":14614:14665   */\n      mstore\n      sub(shl(0xa0, 0x01), 0x01)\n        /* \"contracts/vaults/VaultGovernance.sol\":4933:4967  _internalParams.protocolGovernance */\n      swap1\n      swap2\n      and\n      swap1\n        /* \"contracts/vaults/VaultGovernance.sol\":4933:4975  _internalParams.protocolGovernance.isAdmin */\n      0x24d7806c\n      swap1\n        /* \"#utility.yul\":14587:14605   */\n      0x24\n      add\n        /* \"contracts/vaults/VaultGovernance.sol\":4933:4987  _internalParams.protocolGovernance.isAdmin(msg.sender) */\n      0x20\n      mload(0x40)\n      dup1\n      dup4\n      sub\n      dup2\n      dup7\n      dup1\n      extcodesize\n      iszero\n      dup1\n      iszero\n      tag_367\n      jumpi\n      0x00\n      dup1\n      revert\n    tag_367:\n      pop\n      gas\n      staticcall\n      iszero\n      dup1\n      iszero\n      tag_369\n      jumpi\n      returndatasize\n      0x00\n      dup1\n      returndatacopy\n      revert(0x00, returndatasize)\n    tag_369:\n      pop\n      pop\n      pop\n      pop\n      mload(0x40)\n      returndatasize\n      not(0x1f)\n      0x1f\n      dup3\n      add\n      and\n      dup3\n      add\n      dup1\n      0x40\n      mstore\n      pop\n      dup2\n      add\n      swap1\n      tag_370\n      swap2\n      swap1\n      tag_277\n      jump\t// in\n    tag_370:\n        /* \"contracts/vaults/VaultGovernance.sol\":4933:5063  _internalParams.protocolGovernance.isAdmin(msg.sender) ||... */\n      dup1\n      tag_371\n      jumpi\n      pop\n        /* \"contracts/vaults/VaultGovernance.sol\":5008:5032  _internalParams.registry */\n      sload(0x01)\n        /* \"contracts/vaults/VaultGovernance.sol\":5008:5049  _internalParams.registry.getApproved(nft) */\n      mload(0x40)\n      shl(0xe2, 0x020604bf)\n      dup2\n      mstore\n      0x04\n      dup2\n      add\n        /* \"#utility.yul\":643:668   */\n      dup4\n      swap1\n      mstore\n        /* \"contracts/vaults/VaultGovernance.sol\":5053:5063  msg.sender */\n      caller\n      swap2\n      sub(shl(0xa0, 0x01), 0x01)\n        /* \"contracts/vaults/VaultGovernance.sol\":5008:5032  _internalParams.registry */\n      and\n      swap1\n        /* \"contracts/vaults/VaultGovernance.sol\":5008:5044  _internalParams.registry.getApproved */\n      0x081812fc\n      swap1\n        /* \"#utility.yul\":616:634   */\n      0x24\n      add\n        /* \"contracts/vaults/VaultGovernance.sol\":5008:5049  _internalParams.registry.getApproved(nft) */\n      0x20\n      mload(0x40)\n      dup1\n      dup4\n      sub\n      dup2\n      dup7\n      dup1\n      extcodesize\n      iszero\n      dup1\n      iszero\n      tag_373\n      jumpi\n      0x00\n      dup1\n      revert\n    tag_373:\n      pop\n      gas\n      staticcall\n      iszero\n      dup1\n      iszero\n      tag_375\n      jumpi\n      returndatasize\n      0x00\n      dup1\n      returndatacopy\n      revert(0x00, returndatasize)\n    tag_375:\n      pop\n      pop\n      pop\n      pop\n      mload(0x40)\n      returndatasize\n      not(0x1f)\n      0x1f\n      dup3\n      add\n      and\n      dup3\n      add\n      dup1\n      0x40\n      mstore\n      pop\n      dup2\n      add\n      swap1\n      tag_376\n      swap2\n      swap1\n      tag_377\n      jump\t// in\n    tag_376:\n      sub(shl(0xa0, 0x01), 0x01)\n        /* \"contracts/vaults/VaultGovernance.sol\":5008:5063  _internalParams.registry.getApproved(nft) == msg.sender */\n      and\n      eq\n        /* \"contracts/vaults/VaultGovernance.sol\":4933:5063  _internalParams.protocolGovernance.isAdmin(msg.sender) ||... */\n    tag_371:\n        /* \"contracts/vaults/VaultGovernance.sol\":4933:5137  _internalParams.protocolGovernance.isAdmin(msg.sender) ||... */\n      dup1\n      tag_378\n      jumpi\n      pop\n        /* \"contracts/vaults/VaultGovernance.sol\":5085:5109  _internalParams.registry */\n      sload(0x01)\n        /* \"contracts/vaults/VaultGovernance.sol\":5085:5122  _internalParams.registry.ownerOf(nft) */\n      mload(0x40)\n      shl(0xe1, 0x31a9108f)\n      dup2\n      mstore\n      0x04\n      dup2\n      add\n        /* \"#utility.yul\":643:668   */\n      dup4\n      swap1\n      mstore\n        /* \"contracts/vaults/VaultGovernance.sol\":5126:5136  msg.sender */\n      caller\n      swap2\n      sub(shl(0xa0, 0x01), 0x01)\n        /* \"contracts/vaults/VaultGovernance.sol\":5085:5109  _internalParams.registry */\n      and\n      swap1\n        /* \"contracts/vaults/VaultGovernance.sol\":5085:5117  _internalParams.registry.ownerOf */\n      0x6352211e\n      swap1\n        /* \"#utility.yul\":616:634   */\n      0x24\n      add\n        /* \"contracts/vaults/VaultGovernance.sol\":5085:5122  _internalParams.registry.ownerOf(nft) */\n      0x20\n      mload(0x40)\n      dup1\n      dup4\n      sub\n      dup2\n      dup7\n      dup1\n      extcodesize\n      iszero\n      dup1\n      iszero\n      tag_380\n      jumpi\n      0x00\n      dup1\n      revert\n    tag_380:\n      pop\n      gas\n      staticcall\n      iszero\n      dup1\n      iszero\n      tag_382\n      jumpi\n      returndatasize\n      0x00\n      dup1\n      returndatacopy\n      revert(0x00, returndatasize)\n    tag_382:\n      pop\n      pop\n      pop\n      pop\n      mload(0x40)\n      returndatasize\n      not(0x1f)\n      0x1f\n      dup3\n      add\n      and\n      dup3\n      add\n      dup1\n      0x40\n      mstore\n      pop\n      dup2\n      add\n      swap1\n      tag_383\n      swap2\n      swap1\n      tag_377\n      jump\t// in\n    tag_383:\n      sub(shl(0xa0, 0x01), 0x01)\n        /* \"contracts/vaults/VaultGovernance.sol\":5085:5136  _internalParams.registry.ownerOf(nft) == msg.sender */\n      and\n      eq\n        /* \"contracts/vaults/VaultGovernance.sol\":4933:5137  _internalParams.protocolGovernance.isAdmin(msg.sender) ||... */\n    tag_378:\n        /* \"contracts/vaults/VaultGovernance.sol\":5153:5180  ExceptionsLibrary.FORBIDDEN */\n      mload(0x40)\n      dup1\n      0x40\n      add\n      0x40\n      mstore\n      dup1\n      0x03\n      dup2\n      mstore\n      0x20\n      add\n      shl(0xe9, 0x232921)\n      dup2\n      mstore\n      pop\n        /* \"contracts/vaults/VaultGovernance.sol\":4910:5191  require(... */\n      swap1\n      tag_384\n      jumpi\n      mload(0x40)\n      shl(0xe5, 0x461bcd)\n      dup2\n      mstore\n      0x04\n      add\n      tag_123\n      swap2\n      swap1\n      tag_79\n      jump\t// in\n    tag_384:\n      pop\n        /* \"contracts/vaults/VaultGovernance.sol\":4839:5199  function _requireAtLeastStrategy(uint256 nft) internal view {... */\n      pop\n      jump\t// out\n        /* \"@openzeppelin/contracts/proxy/Clones.sol\":1848:2398  function cloneDeterministic(address implementation, bytes32 salt) internal returns (address instance) {... */\n    tag_322:\n        /* \"@openzeppelin/contracts/proxy/Clones.sol\":1932:1948  address instance */\n      0x00\n        /* \"@openzeppelin/contracts/proxy/Clones.sol\":2000:2004  0x40 */\n      0x40\n        /* \"@openzeppelin/contracts/proxy/Clones.sol\":1994:2005  mload(0x40) */\n      mload\n      shl(0x60, 0x3d602d80600a3d3981f3363d3d373d3d3d363d73)\n        /* \"@openzeppelin/contracts/proxy/Clones.sol\":2025:2028  ptr */\n      dup2\n        /* \"@openzeppelin/contracts/proxy/Clones.sol\":2018:2097  mstore(ptr, 0x3d602d80600a3d3981f3363d3d373d3d3d363d73000000000000000000000000) */\n      mstore\n        /* \"@openzeppelin/contracts/proxy/Clones.sol\":2143:2157  implementation */\n      dup4\n        /* \"@openzeppelin/contracts/proxy/Clones.sol\":2137:2141  0x60 */\n      0x60\n        /* \"@openzeppelin/contracts/proxy/Clones.sol\":2133:2158  shl(0x60, implementation) */\n      shl\n        /* \"@openzeppelin/contracts/proxy/Clones.sol\":2126:2130  0x14 */\n      0x14\n        /* \"@openzeppelin/contracts/proxy/Clones.sol\":2121:2124  ptr */\n      dup3\n        /* \"@openzeppelin/contracts/proxy/Clones.sol\":2117:2131  add(ptr, 0x14) */\n      add\n        /* \"@openzeppelin/contracts/proxy/Clones.sol\":2110:2159  mstore(add(ptr, 0x14), shl(0x60, implementation)) */\n      mstore\n      shl(0x88, 0x5af43d82803e903d91602b57fd5bf3)\n        /* \"@openzeppelin/contracts/proxy/Clones.sol\":2188:2192  0x28 */\n      0x28\n        /* \"@openzeppelin/contracts/proxy/Clones.sol\":2183:2186  ptr */\n      dup3\n        /* \"@openzeppelin/contracts/proxy/Clones.sol\":2179:2193  add(ptr, 0x28) */\n      add\n        /* \"@openzeppelin/contracts/proxy/Clones.sol\":2172:2262  mstore(add(ptr, 0x28), 0x5af43d82803e903d91602b57fd5bf30000000000000000000000000000000000) */\n      mstore\n        /* \"@openzeppelin/contracts/proxy/Clones.sol\":2309:2313  salt */\n      dup3\n        /* \"@openzeppelin/contracts/proxy/Clones.sol\":2303:2307  0x37 */\n      0x37\n        /* \"@openzeppelin/contracts/proxy/Clones.sol\":2298:2301  ptr */\n      dup3\n        /* \"@openzeppelin/contracts/proxy/Clones.sol\":2295:2296  0 */\n      0x00\n        /* \"@openzeppelin/contracts/proxy/Clones.sol\":2287:2314  create2(0, ptr, 0x37, salt) */\n      create2\n        /* \"@openzeppelin/contracts/proxy/Clones.sol\":2275:2314  instance := create2(0, ptr, 0x37, salt) */\n      swap2\n      pop\n      pop\n      sub(shl(0xa0, 0x01), 0x01)\n        /* \"@openzeppelin/contracts/proxy/Clones.sol\":2341:2363  instance != address(0) */\n      dup2\n      and\n        /* \"@openzeppelin/contracts/proxy/Clones.sol\":2333:2391  require(instance != address(0), \"ERC1167: create2 failed\") */\n      tag_115\n      jumpi\n      mload(0x40)\n      shl(0xe5, 0x461bcd)\n      dup2\n      mstore\n        /* \"#utility.yul\":16477:16479   */\n      0x20\n        /* \"@openzeppelin/contracts/proxy/Clones.sol\":2333:2391  require(instance != address(0), \"ERC1167: create2 failed\") */\n      0x04\n      dup3\n      add\n        /* \"#utility.yul\":16459:16480   */\n      mstore\n        /* \"#utility.yul\":16516:16518   */\n      0x17\n        /* \"#utility.yul\":16496:16514   */\n      0x24\n      dup3\n      add\n        /* \"#utility.yul\":16489:16519   */\n      mstore\n        /* \"#utility.yul\":16555:16580   */\n      0x455243313136373a2063726561746532206661696c6564000000000000000000\n        /* \"#utility.yul\":16535:16553   */\n      0x44\n      dup3\n      add\n        /* \"#utility.yul\":16528:16581   */\n      mstore\n        /* \"#utility.yul\":16598:16616   */\n      0x64\n      add\n        /* \"@openzeppelin/contracts/proxy/Clones.sol\":2333:2391  require(instance != address(0), \"ERC1167: create2 failed\") */\n      tag_123\n        /* \"#utility.yul\":16275:16622   */\n      jump\n    tag_289:\n      dup3\n      dup1\n      sload\n      tag_390\n      swap1\n      tag_141\n      jump\t// in\n    tag_390:\n      swap1\n      0x00\n      mstore\n      keccak256(0x00, 0x20)\n      swap1\n      0x1f\n      add\n      0x20\n      swap1\n      div\n      dup2\n      add\n      swap3\n      dup3\n      tag_392\n      jumpi\n      0x00\n      dup6\n      sstore\n      jump(tag_395)\n    tag_392:\n      dup3\n      0x1f\n      lt\n      tag_393\n      jumpi\n      dup1\n      sload\n      dup6\n      sstore\n      jump(tag_395)\n    tag_393:\n      dup3\n      dup1\n      add\n      0x01\n      add\n      dup6\n      sstore\n      dup3\n      iszero\n      tag_395\n      jumpi\n      0x00\n      mstore\n      keccak256(0x00, 0x20)\n      swap2\n      0x1f\n      add\n      0x20\n      swap1\n      div\n      dup3\n      add\n    tag_394:\n      dup3\n      dup2\n      gt\n      iszero\n      tag_395\n      jumpi\n      dup3\n      sload\n      dup3\n      sstore\n      swap2\n      0x01\n      add\n      swap2\n      swap1\n      0x01\n      add\n      swap1\n      jump(tag_394)\n    tag_395:\n      pop\n      tag_396\n      swap3\n      swap2\n      pop\n      tag_397\n      jump\t// in\n    tag_396:\n      pop\n      swap1\n      jump\t// out\n    tag_291:\n      pop\n      dup1\n      sload\n      tag_398\n      swap1\n      tag_141\n      jump\t// in\n    tag_398:\n      0x00\n      dup3\n      sstore\n      dup1\n      0x1f\n      lt\n      tag_400\n      jumpi\n      pop\n      pop\n      jump\t// out\n    tag_400:\n      0x1f\n      add\n      0x20\n      swap1\n      div\n      swap1\n      0x00\n      mstore\n      keccak256(0x00, 0x20)\n      swap1\n      dup2\n      add\n      swap1\n      tag_278\n      swap2\n      swap1\n      tag_397\n      jump\t// in\n    tag_296:\n      dup3\n      dup1\n      sload\n      tag_402\n      swap1\n      tag_141\n      jump\t// in\n    tag_402:\n      swap1\n      0x00\n      mstore\n      keccak256(0x00, 0x20)\n      swap1\n      0x1f\n      add\n      0x20\n      swap1\n      div\n      dup2\n      add\n      swap3\n      dup3\n      tag_404\n      jumpi\n      0x00\n      dup6\n      sstore\n      jump(tag_395)\n    tag_404:\n      dup3\n      0x1f\n      lt\n      tag_405\n      jumpi\n      dup1\n      mload\n      not(0xff)\n      and\n      dup4\n      dup1\n      add\n      or\n      dup6\n      sstore\n      jump(tag_395)\n    tag_405:\n      dup3\n      dup1\n      add\n      0x01\n      add\n      dup6\n      sstore\n      dup3\n      iszero\n      tag_395\n      jumpi\n      swap2\n      dup3\n      add\n    tag_406:\n      dup3\n      dup2\n      gt\n      iszero\n      tag_395\n      jumpi\n      dup3\n      mload\n      dup3\n      sstore\n      swap2\n      0x20\n      add\n      swap2\n      swap1\n      0x01\n      add\n      swap1\n      jump(tag_406)\n    tag_397:\n    tag_409:\n      dup1\n      dup3\n      gt\n      iszero\n      tag_396\n      jumpi\n      0x00\n      dup2\n      sstore\n      0x01\n      add\n      jump(tag_409)\n        /* \"#utility.yul\":14:300   */\n    tag_30:\n        /* \"#utility.yul\":72:78   */\n      0x00\n        /* \"#utility.yul\":125:127   */\n      0x20\n        /* \"#utility.yul\":113:122   */\n      dup3\n        /* \"#utility.yul\":104:111   */\n      dup5\n        /* \"#utility.yul\":100:123   */\n      sub\n        /* \"#utility.yul\":96:128   */\n      slt\n        /* \"#utility.yul\":93:145   */\n      iszero\n      tag_423\n      jumpi\n        /* \"#utility.yul\":141:142   */\n      0x00\n        /* \"#utility.yul\":138:139   */\n      dup1\n        /* \"#utility.yul\":131:143   */\n      revert\n        /* \"#utility.yul\":93:145   */\n    tag_423:\n        /* \"#utility.yul\":167:190   */\n      dup2\n      calldataload\n      not(sub(shl(0xe0, 0x01), 0x01))\n        /* \"#utility.yul\":219:251   */\n      dup2\n      and\n        /* \"#utility.yul\":209:252   */\n      dup2\n      eq\n        /* \"#utility.yul\":199:270   */\n      tag_424\n      jumpi\n        /* \"#utility.yul\":266:267   */\n      0x00\n        /* \"#utility.yul\":263:264   */\n      dup1\n        /* \"#utility.yul\":256:268   */\n      revert\n        /* \"#utility.yul\":199:270   */\n    tag_424:\n        /* \"#utility.yul\":289:294   */\n      swap4\n        /* \"#utility.yul\":14:300   */\n      swap3\n      pop\n      pop\n      pop\n      jump\t// out\n        /* \"#utility.yul\":679:806   */\n    tag_332:\n        /* \"#utility.yul\":740:750   */\n      0x4e487b71\n        /* \"#utility.yul\":735:738   */\n      0xe0\n        /* \"#utility.yul\":731:751   */\n      shl\n        /* \"#utility.yul\":728:729   */\n      0x00\n        /* \"#utility.yul\":721:752   */\n      mstore\n        /* \"#utility.yul\":771:775   */\n      0x41\n        /* \"#utility.yul\":768:769   */\n      0x04\n        /* \"#utility.yul\":761:776   */\n      mstore\n        /* \"#utility.yul\":795:799   */\n      0x24\n        /* \"#utility.yul\":792:793   */\n      0x00\n        /* \"#utility.yul\":785:800   */\n      revert\n        /* \"#utility.yul\":811:1086   */\n    tag_411:\n        /* \"#utility.yul\":882:884   */\n      0x40\n        /* \"#utility.yul\":876:885   */\n      mload\n        /* \"#utility.yul\":947:949   */\n      0x1f\n        /* \"#utility.yul\":928:941   */\n      dup3\n      add\n      not(0x1f)\n        /* \"#utility.yul\":924:951   */\n      and\n        /* \"#utility.yul\":912:952   */\n      dup2\n      add\n        /* \"#utility.yul\":982:1000   */\n      0xffffffffffffffff\n        /* \"#utility.yul\":967:1001   */\n      dup2\n      gt\n        /* \"#utility.yul\":1003:1025   */\n      dup3\n      dup3\n      lt\n        /* \"#utility.yul\":964:1026   */\n      or\n        /* \"#utility.yul\":961:1049   */\n      iszero\n      tag_430\n      jumpi\n        /* \"#utility.yul\":1029:1047   */\n      tag_430\n      tag_332\n      jump\t// in\n    tag_430:\n        /* \"#utility.yul\":1065:1067   */\n      0x40\n        /* \"#utility.yul\":1058:1080   */\n      mstore\n        /* \"#utility.yul\":811:1086   */\n      swap2\n      swap1\n      pop\n      jump\t// out\n        /* \"#utility.yul\":1091:1243   */\n    tag_412:\n      sub(shl(0xa0, 0x01), 0x01)\n        /* \"#utility.yul\":1187:1218   */\n      dup2\n      and\n        /* \"#utility.yul\":1177:1219   */\n      dup2\n      eq\n        /* \"#utility.yul\":1167:1237   */\n      tag_278\n      jumpi\n        /* \"#utility.yul\":1233:1234   */\n      0x00\n        /* \"#utility.yul\":1230:1231   */\n      dup1\n        /* \"#utility.yul\":1223:1235   */\n      revert\n        /* \"#utility.yul\":1248:2101   */\n    tag_40:\n        /* \"#utility.yul\":1339:1345   */\n      0x00\n        /* \"#utility.yul\":1392:1394   */\n      0x60\n        /* \"#utility.yul\":1380:1389   */\n      dup3\n        /* \"#utility.yul\":1371:1378   */\n      dup5\n        /* \"#utility.yul\":1367:1390   */\n      sub\n        /* \"#utility.yul\":1363:1395   */\n      slt\n        /* \"#utility.yul\":1360:1412   */\n      iszero\n      tag_434\n      jumpi\n        /* \"#utility.yul\":1408:1409   */\n      0x00\n        /* \"#utility.yul\":1405:1406   */\n      dup1\n        /* \"#utility.yul\":1398:1410   */\n      revert\n        /* \"#utility.yul\":1360:1412   */\n    tag_434:\n        /* \"#utility.yul\":1441:1443   */\n      0x40\n        /* \"#utility.yul\":1435:1444   */\n      mload\n        /* \"#utility.yul\":1483:1485   */\n      0x60\n        /* \"#utility.yul\":1475:1481   */\n      dup2\n        /* \"#utility.yul\":1471:1486   */\n      add\n        /* \"#utility.yul\":1552:1558   */\n      dup2\n        /* \"#utility.yul\":1540:1550   */\n      dup2\n        /* \"#utility.yul\":1537:1559   */\n      lt\n        /* \"#utility.yul\":1516:1534   */\n      0xffffffffffffffff\n        /* \"#utility.yul\":1504:1514   */\n      dup3\n        /* \"#utility.yul\":1501:1535   */\n      gt\n        /* \"#utility.yul\":1498:1560   */\n      or\n        /* \"#utility.yul\":1495:1583   */\n      iszero\n      tag_436\n      jumpi\n        /* \"#utility.yul\":1563:1581   */\n      tag_436\n      tag_332\n      jump\t// in\n    tag_436:\n        /* \"#utility.yul\":1599:1601   */\n      0x40\n        /* \"#utility.yul\":1592:1614   */\n      mstore\n        /* \"#utility.yul\":1636:1659   */\n      dup3\n      calldataload\n        /* \"#utility.yul\":1668:1720   */\n      tag_437\n        /* \"#utility.yul\":1636:1659   */\n      dup2\n        /* \"#utility.yul\":1668:1720   */\n      tag_412\n      jump\t// in\n    tag_437:\n        /* \"#utility.yul\":1729:1750   */\n      dup2\n      mstore\n        /* \"#utility.yul\":1802:1804   */\n      0x20\n        /* \"#utility.yul\":1787:1805   */\n      dup4\n      add\n        /* \"#utility.yul\":1774:1806   */\n      calldataload\n        /* \"#utility.yul\":1815:1869   */\n      tag_438\n        /* \"#utility.yul\":1774:1806   */\n      dup2\n        /* \"#utility.yul\":1815:1869   */\n      tag_412\n      jump\t// in\n    tag_438:\n        /* \"#utility.yul\":1897:1899   */\n      0x20\n        /* \"#utility.yul\":1885:1900   */\n      dup3\n      add\n        /* \"#utility.yul\":1878:1910   */\n      mstore\n        /* \"#utility.yul\":1962:1964   */\n      0x40\n        /* \"#utility.yul\":1947:1965   */\n      dup4\n      add\n        /* \"#utility.yul\":1934:1966   */\n      calldataload\n        /* \"#utility.yul\":1975:2029   */\n      tag_439\n        /* \"#utility.yul\":1934:1966   */\n      dup2\n        /* \"#utility.yul\":1975:2029   */\n      tag_412\n      jump\t// in\n    tag_439:\n        /* \"#utility.yul\":2057:2059   */\n      0x40\n        /* \"#utility.yul\":2045:2060   */\n      dup3\n      add\n        /* \"#utility.yul\":2038:2070   */\n      mstore\n        /* \"#utility.yul\":2049:2055   */\n      swap4\n        /* \"#utility.yul\":1248:2101   */\n      swap3\n      pop\n      pop\n      pop\n      jump\t// out\n        /* \"#utility.yul\":2106:2286   */\n    tag_44:\n        /* \"#utility.yul\":2165:2171   */\n      0x00\n        /* \"#utility.yul\":2218:2220   */\n      0x20\n        /* \"#utility.yul\":2206:2215   */\n      dup3\n        /* \"#utility.yul\":2197:2204   */\n      dup5\n        /* \"#utility.yul\":2193:2216   */\n      sub\n        /* \"#utility.yul\":2189:2221   */\n      slt\n        /* \"#utility.yul\":2186:2238   */\n      iszero\n      tag_441\n      jumpi\n        /* \"#utility.yul\":2234:2235   */\n      0x00\n        /* \"#utility.yul\":2231:2232   */\n      dup1\n        /* \"#utility.yul\":2224:2236   */\n      revert\n        /* \"#utility.yul\":2186:2238   */\n    tag_441:\n      pop\n        /* \"#utility.yul\":2257:2280   */\n      calldataload\n      swap2\n        /* \"#utility.yul\":2106:2286   */\n      swap1\n      pop\n      jump\t// out\n        /* \"#utility.yul\":2473:2823   */\n    tag_55:\n        /* \"#utility.yul\":2582:2588   */\n      0x00\n        /* \"#utility.yul\":2590:2596   */\n      dup1\n        /* \"#utility.yul\":2634:2643   */\n      dup3\n        /* \"#utility.yul\":2625:2632   */\n      dup5\n        /* \"#utility.yul\":2621:2644   */\n      sub\n        /* \"#utility.yul\":2664:2666   */\n      0x40\n        /* \"#utility.yul\":2660:2662   */\n      dup2\n        /* \"#utility.yul\":2656:2667   */\n      slt\n        /* \"#utility.yul\":2653:2684   */\n      iszero\n      tag_444\n      jumpi\n        /* \"#utility.yul\":2680:2681   */\n      0x00\n        /* \"#utility.yul\":2677:2678   */\n      dup1\n        /* \"#utility.yul\":2670:2682   */\n      revert\n        /* \"#utility.yul\":2653:2684   */\n    tag_444:\n        /* \"#utility.yul\":2703:2726   */\n      dup4\n      calldataload\n      swap3\n      pop\n        /* \"#utility.yul\":2760:2762   */\n      0x20\n      not(0x1f)\n        /* \"#utility.yul\":2742:2758   */\n      dup3\n      add\n        /* \"#utility.yul\":2738:2763   */\n      slt\n        /* \"#utility.yul\":2735:2780   */\n      iszero\n      tag_445\n      jumpi\n        /* \"#utility.yul\":2776:2777   */\n      0x00\n        /* \"#utility.yul\":2773:2774   */\n      dup1\n        /* \"#utility.yul\":2766:2778   */\n      revert\n        /* \"#utility.yul\":2735:2780   */\n    tag_445:\n      pop\n        /* \"#utility.yul\":2814:2816   */\n      0x20\n        /* \"#utility.yul\":2803:2812   */\n      dup4\n        /* \"#utility.yul\":2799:2817   */\n      add\n        /* \"#utility.yul\":2789:2817   */\n      swap1\n      pop\n        /* \"#utility.yul\":2473:2823   */\n      swap3\n      pop\n      swap3\n      swap1\n      pop\n      jump\t// out\n        /* \"#utility.yul\":3112:3267   */\n    tag_413:\n        /* \"#utility.yul\":3180:3200   */\n      dup1\n      calldataload\n        /* \"#utility.yul\":3209:3261   */\n      tag_448\n        /* \"#utility.yul\":3180:3200   */\n      dup2\n        /* \"#utility.yul\":3209:3261   */\n      tag_412\n      jump\t// in\n    tag_448:\n        /* \"#utility.yul\":3112:3267   */\n      swap2\n      swap1\n      pop\n      jump\t// out\n        /* \"#utility.yul\":3272:3433   */\n    tag_414:\n        /* \"#utility.yul\":3339:3359   */\n      dup1\n      calldataload\n        /* \"#utility.yul\":3399:3407   */\n      0xffffff\n        /* \"#utility.yul\":3388:3408   */\n      dup2\n      and\n        /* \"#utility.yul\":3378:3409   */\n      dup2\n      eq\n        /* \"#utility.yul\":3368:3427   */\n      tag_448\n      jumpi\n        /* \"#utility.yul\":3423:3424   */\n      0x00\n        /* \"#utility.yul\":3420:3421   */\n      dup1\n        /* \"#utility.yul\":3413:3425   */\n      revert\n        /* \"#utility.yul\":3438:4703   */\n    tag_68:\n        /* \"#utility.yul\":3548:3554   */\n      0x00\n        /* \"#utility.yul\":3556:3562   */\n      dup1\n        /* \"#utility.yul\":3564:3570   */\n      0x00\n        /* \"#utility.yul\":3572:3578   */\n      dup1\n        /* \"#utility.yul\":3625:3628   */\n      0x80\n        /* \"#utility.yul\":3613:3622   */\n      dup6\n        /* \"#utility.yul\":3604:3611   */\n      dup8\n        /* \"#utility.yul\":3600:3623   */\n      sub\n        /* \"#utility.yul\":3596:3629   */\n      slt\n        /* \"#utility.yul\":3593:3646   */\n      iszero\n      tag_452\n      jumpi\n        /* \"#utility.yul\":3642:3643   */\n      0x00\n        /* \"#utility.yul\":3639:3640   */\n      dup1\n        /* \"#utility.yul\":3632:3644   */\n      revert\n        /* \"#utility.yul\":3593:3646   */\n    tag_452:\n        /* \"#utility.yul\":3682:3691   */\n      dup5\n        /* \"#utility.yul\":3669:3692   */\n      calldataload\n        /* \"#utility.yul\":3711:3729   */\n      0xffffffffffffffff\n        /* \"#utility.yul\":3752:3754   */\n      dup1\n        /* \"#utility.yul\":3744:3750   */\n      dup3\n        /* \"#utility.yul\":3741:3755   */\n      gt\n        /* \"#utility.yul\":3738:3772   */\n      iszero\n      tag_453\n      jumpi\n        /* \"#utility.yul\":3768:3769   */\n      0x00\n        /* \"#utility.yul\":3765:3766   */\n      dup1\n        /* \"#utility.yul\":3758:3770   */\n      revert\n        /* \"#utility.yul\":3738:3772   */\n    tag_453:\n        /* \"#utility.yul\":3806:3812   */\n      dup2\n        /* \"#utility.yul\":3795:3804   */\n      dup8\n        /* \"#utility.yul\":3791:3813   */\n      add\n        /* \"#utility.yul\":3781:3813   */\n      swap2\n      pop\n        /* \"#utility.yul\":3851:3858   */\n      dup8\n        /* \"#utility.yul\":3844:3848   */\n      0x1f\n        /* \"#utility.yul\":3840:3842   */\n      dup4\n        /* \"#utility.yul\":3836:3849   */\n      add\n        /* \"#utility.yul\":3832:3859   */\n      slt\n        /* \"#utility.yul\":3822:3877   */\n      tag_454\n      jumpi\n        /* \"#utility.yul\":3873:3874   */\n      0x00\n        /* \"#utility.yul\":3870:3871   */\n      dup1\n        /* \"#utility.yul\":3863:3875   */\n      revert\n        /* \"#utility.yul\":3822:3877   */\n    tag_454:\n        /* \"#utility.yul\":3909:3911   */\n      dup2\n        /* \"#utility.yul\":3896:3912   */\n      calldataload\n        /* \"#utility.yul\":3931:3935   */\n      0x20\n        /* \"#utility.yul\":3954:3956   */\n      dup3\n        /* \"#utility.yul\":3950:3952   */\n      dup3\n        /* \"#utility.yul\":3947:3957   */\n      gt\n        /* \"#utility.yul\":3944:3980   */\n      iszero\n      tag_456\n      jumpi\n        /* \"#utility.yul\":3960:3978   */\n      tag_456\n      tag_332\n      jump\t// in\n    tag_456:\n        /* \"#utility.yul\":4006:4008   */\n      dup2\n        /* \"#utility.yul\":4003:4004   */\n      0x05\n        /* \"#utility.yul\":3999:4009   */\n      shl\n        /* \"#utility.yul\":3989:4009   */\n      swap3\n      pop\n        /* \"#utility.yul\":4029:4057   */\n      tag_457\n        /* \"#utility.yul\":4053:4055   */\n      dup2\n        /* \"#utility.yul\":4049:4051   */\n      dup5\n        /* \"#utility.yul\":4045:4056   */\n      add\n        /* \"#utility.yul\":4029:4057   */\n      tag_411\n      jump\t// in\n    tag_457:\n        /* \"#utility.yul\":4091:4106   */\n      dup3\n      dup2\n      mstore\n        /* \"#utility.yul\":4161:4172   */\n      swap3\n      dup5\n      add\n        /* \"#utility.yul\":4157:4177   */\n      dup2\n      add\n      swap3\n        /* \"#utility.yul\":4122:4134   */\n      dup2\n      dup2\n      add\n      swap1\n        /* \"#utility.yul\":4189:4208   */\n      dup12\n      dup6\n      gt\n        /* \"#utility.yul\":4186:4225   */\n      iszero\n      tag_458\n      jumpi\n        /* \"#utility.yul\":4221:4222   */\n      0x00\n        /* \"#utility.yul\":4218:4219   */\n      dup1\n        /* \"#utility.yul\":4211:4223   */\n      revert\n        /* \"#utility.yul\":4186:4225   */\n    tag_458:\n        /* \"#utility.yul\":4245:4256   */\n      swap5\n      dup3\n      add\n      swap5\n        /* \"#utility.yul\":4265:4503   */\n    tag_459:\n        /* \"#utility.yul\":4281:4287   */\n      dup5\n        /* \"#utility.yul\":4276:4279   */\n      dup7\n        /* \"#utility.yul\":4273:4288   */\n      lt\n        /* \"#utility.yul\":4265:4503   */\n      iszero\n      tag_461\n      jumpi\n        /* \"#utility.yul\":4361:4364   */\n      dup6\n        /* \"#utility.yul\":4348:4365   */\n      calldataload\n        /* \"#utility.yul\":4335:4365   */\n      swap4\n      pop\n        /* \"#utility.yul\":4378:4430   */\n      tag_462\n        /* \"#utility.yul\":4424:4429   */\n      dup5\n        /* \"#utility.yul\":4378:4430   */\n      tag_412\n      jump\t// in\n    tag_462:\n        /* \"#utility.yul\":4443:4461   */\n      dup4\n      dup3\n      mstore\n        /* \"#utility.yul\":4298:4310   */\n      swap5\n      dup3\n      add\n      swap5\n        /* \"#utility.yul\":4481:4493   */\n      swap1\n      dup3\n      add\n      swap1\n        /* \"#utility.yul\":4265:4503   */\n      jump(tag_459)\n    tag_461:\n        /* \"#utility.yul\":4522:4527   */\n      swap9\n      pop\n        /* \"#utility.yul\":4546:4584   */\n      tag_463\n      swap1\n      pop\n        /* \"#utility.yul\":4565:4583   */\n      dup10\n      dup3\n      add\n        /* \"#utility.yul\":4546:4584   */\n      tag_413\n      jump\t// in\n    tag_463:\n        /* \"#utility.yul\":4536:4584   */\n      swap7\n      pop\n      pop\n      pop\n      pop\n      pop\n        /* \"#utility.yul\":4603:4640   */\n      tag_464\n        /* \"#utility.yul\":4636:4638   */\n      0x40\n        /* \"#utility.yul\":4625:4634   */\n      dup7\n        /* \"#utility.yul\":4621:4639   */\n      add\n        /* \"#utility.yul\":4603:4640   */\n      tag_414\n      jump\t// in\n    tag_464:\n        /* \"#utility.yul\":4593:4640   */\n      swap2\n      pop\n        /* \"#utility.yul\":4659:4697   */\n      tag_465\n        /* \"#utility.yul\":4693:4695   */\n      0x60\n        /* \"#utility.yul\":4682:4691   */\n      dup7\n        /* \"#utility.yul\":4678:4696   */\n      add\n        /* \"#utility.yul\":4659:4697   */\n      tag_413\n      jump\t// in\n    tag_465:\n        /* \"#utility.yul\":4649:4697   */\n      swap1\n      pop\n        /* \"#utility.yul\":3438:4703   */\n      swap3\n      swap6\n      swap2\n      swap5\n      pop\n      swap3\n      pop\n      jump\t// out\n        /* \"#utility.yul\":5007:5479   */\n    tag_415:\n        /* \"#utility.yul\":5049:5052   */\n      0x00\n        /* \"#utility.yul\":5087:5092   */\n      dup2\n        /* \"#utility.yul\":5081:5093   */\n      mload\n        /* \"#utility.yul\":5114:5120   */\n      dup1\n        /* \"#utility.yul\":5109:5112   */\n      dup5\n        /* \"#utility.yul\":5102:5121   */\n      mstore\n        /* \"#utility.yul\":5139:5140   */\n      0x00\n        /* \"#utility.yul\":5149:5311   */\n    tag_468:\n        /* \"#utility.yul\":5163:5169   */\n      dup2\n        /* \"#utility.yul\":5160:5161   */\n      dup2\n        /* \"#utility.yul\":5157:5170   */\n      lt\n        /* \"#utility.yul\":5149:5311   */\n      iszero\n      tag_470\n      jumpi\n        /* \"#utility.yul\":5225:5229   */\n      0x20\n        /* \"#utility.yul\":5281:5294   */\n      dup2\n      dup6\n      add\n        /* \"#utility.yul\":5277:5299   */\n      dup2\n      add\n        /* \"#utility.yul\":5271:5300   */\n      mload\n        /* \"#utility.yul\":5253:5264   */\n      dup7\n      dup4\n      add\n        /* \"#utility.yul\":5249:5269   */\n      dup3\n      add\n        /* \"#utility.yul\":5242:5301   */\n      mstore\n        /* \"#utility.yul\":5178:5190   */\n      add\n        /* \"#utility.yul\":5149:5311   */\n      jump(tag_468)\n    tag_470:\n        /* \"#utility.yul\":5329:5335   */\n      dup2\n        /* \"#utility.yul\":5326:5327   */\n      dup2\n        /* \"#utility.yul\":5323:5336   */\n      gt\n        /* \"#utility.yul\":5320:5407   */\n      iszero\n      tag_471\n      jumpi\n        /* \"#utility.yul\":5395:5396   */\n      0x00\n        /* \"#utility.yul\":5388:5392   */\n      0x20\n        /* \"#utility.yul\":5379:5385   */\n      dup4\n        /* \"#utility.yul\":5374:5377   */\n      dup8\n        /* \"#utility.yul\":5370:5386   */\n      add\n        /* \"#utility.yul\":5366:5393   */\n      add\n        /* \"#utility.yul\":5359:5397   */\n      mstore\n        /* \"#utility.yul\":5320:5407   */\n    tag_471:\n      pop\n        /* \"#utility.yul\":5461:5463   */\n      0x1f\n        /* \"#utility.yul\":5440:5455   */\n      add\n      not(0x1f)\n        /* \"#utility.yul\":5436:5465   */\n      and\n        /* \"#utility.yul\":5427:5466   */\n      swap3\n      swap1\n      swap3\n      add\n        /* \"#utility.yul\":5468:5472   */\n      0x20\n        /* \"#utility.yul\":5423:5473   */\n      add\n      swap3\n        /* \"#utility.yul\":5007:5479   */\n      swap2\n      pop\n      pop\n      jump\t// out\n        /* \"#utility.yul\":5484:5704   */\n    tag_79:\n        /* \"#utility.yul\":5633:5635   */\n      0x20\n        /* \"#utility.yul\":5622:5631   */\n      dup2\n        /* \"#utility.yul\":5615:5636   */\n      mstore\n        /* \"#utility.yul\":5596:5600   */\n      0x00\n        /* \"#utility.yul\":5653:5698   */\n      tag_424\n        /* \"#utility.yul\":5694:5696   */\n      0x20\n        /* \"#utility.yul\":5683:5692   */\n      dup4\n        /* \"#utility.yul\":5679:5697   */\n      add\n        /* \"#utility.yul\":5671:5677   */\n      dup5\n        /* \"#utility.yul\":5653:5698   */\n      tag_415\n      jump\t// in\n        /* \"#utility.yul\":5990:6257   */\n    tag_83:\n        /* \"#utility.yul\":6188:6190   */\n      0x60\n        /* \"#utility.yul\":6173:6191   */\n      dup2\n      add\n        /* \"#utility.yul\":6200:6251   */\n      tag_115\n        /* \"#utility.yul\":6177:6186   */\n      dup3\n        /* \"#utility.yul\":6233:6239   */\n      dup5\n        /* \"#utility.yul\":5831:5843   */\n      dup1\n      mload\n      sub(shl(0xa0, 0x01), 0x01)\n        /* \"#utility.yul\":5827:5848   */\n      swap1\n      dup2\n      and\n        /* \"#utility.yul\":5815:5849   */\n      dup4\n      mstore\n        /* \"#utility.yul\":5902:5906   */\n      0x20\n        /* \"#utility.yul\":5891:5907   */\n      dup1\n      dup4\n      add\n        /* \"#utility.yul\":5885:5908   */\n      mload\n        /* \"#utility.yul\":5881:5913   */\n      dup3\n      and\n        /* \"#utility.yul\":5865:5879   */\n      swap1\n      dup5\n      add\n        /* \"#utility.yul\":5858:5914   */\n      mstore\n        /* \"#utility.yul\":5967:5971   */\n      0x40\n        /* \"#utility.yul\":5956:5972   */\n      swap2\n      dup3\n      add\n        /* \"#utility.yul\":5950:5973   */\n      mload\n        /* \"#utility.yul\":5946:5978   */\n      and\n        /* \"#utility.yul\":5930:5944   */\n      swap2\n      add\n        /* \"#utility.yul\":5923:5979   */\n      mstore\n        /* \"#utility.yul\":5709:5985   */\n      jump\n        /* \"#utility.yul\":6262:6469   */\n    tag_98:\n        /* \"#utility.yul\":6362:6368   */\n      0x00\n        /* \"#utility.yul\":6415:6417   */\n      0x40\n        /* \"#utility.yul\":6403:6412   */\n      dup3\n        /* \"#utility.yul\":6394:6401   */\n      dup5\n        /* \"#utility.yul\":6390:6413   */\n      sub\n        /* \"#utility.yul\":6386:6418   */\n      slt\n        /* \"#utility.yul\":6383:6435   */\n      iszero\n      tag_478\n      jumpi\n        /* \"#utility.yul\":6431:6432   */\n      0x00\n        /* \"#utility.yul\":6428:6429   */\n      dup1\n        /* \"#utility.yul\":6421:6433   */\n      revert\n        /* \"#utility.yul\":6383:6435   */\n    tag_478:\n      pop\n        /* \"#utility.yul\":6454:6463   */\n      swap2\n        /* \"#utility.yul\":6262:6469   */\n      swap1\n      pop\n      jump\t// out\n        /* \"#utility.yul\":6860:7044   */\n    tag_132:\n        /* \"#utility.yul\":6930:6936   */\n      0x00\n        /* \"#utility.yul\":6983:6985   */\n      0x20\n        /* \"#utility.yul\":6971:6980   */\n      dup3\n        /* \"#utility.yul\":6962:6969   */\n      dup5\n        /* \"#utility.yul\":6958:6981   */\n      sub\n        /* \"#utility.yul\":6954:6986   */\n      slt\n        /* \"#utility.yul\":6951:7003   */\n      iszero\n      tag_481\n      jumpi\n        /* \"#utility.yul\":6999:7000   */\n      0x00\n        /* \"#utility.yul\":6996:6997   */\n      dup1\n        /* \"#utility.yul\":6989:7001   */\n      revert\n        /* \"#utility.yul\":6951:7003   */\n    tag_481:\n      pop\n        /* \"#utility.yul\":7022:7038   */\n      mload\n      swap2\n        /* \"#utility.yul\":6860:7044   */\n      swap1\n      pop\n      jump\t// out\n        /* \"#utility.yul\":7049:7176   */\n    tag_417:\n        /* \"#utility.yul\":7110:7120   */\n      0x4e487b71\n        /* \"#utility.yul\":7105:7108   */\n      0xe0\n        /* \"#utility.yul\":7101:7121   */\n      shl\n        /* \"#utility.yul\":7098:7099   */\n      0x00\n        /* \"#utility.yul\":7091:7122   */\n      mstore\n        /* \"#utility.yul\":7141:7145   */\n      0x11\n        /* \"#utility.yul\":7138:7139   */\n      0x04\n        /* \"#utility.yul\":7131:7146   */\n      mstore\n        /* \"#utility.yul\":7165:7169   */\n      0x24\n        /* \"#utility.yul\":7162:7163   */\n      0x00\n        /* \"#utility.yul\":7155:7170   */\n      revert\n        /* \"#utility.yul\":7181:7309   */\n    tag_134:\n        /* \"#utility.yul\":7221:7224   */\n      0x00\n        /* \"#utility.yul\":7252:7253   */\n      dup3\n        /* \"#utility.yul\":7248:7254   */\n      not\n        /* \"#utility.yul\":7245:7246   */\n      dup3\n        /* \"#utility.yul\":7242:7255   */\n      gt\n        /* \"#utility.yul\":7239:7278   */\n      iszero\n      tag_485\n      jumpi\n        /* \"#utility.yul\":7258:7276   */\n      tag_485\n      tag_417\n      jump\t// in\n    tag_485:\n      pop\n        /* \"#utility.yul\":7294:7303   */\n      add\n      swap1\n        /* \"#utility.yul\":7181:7309   */\n      jump\t// out\n        /* \"#utility.yul\":7314:7653   */\n    tag_136:\n        /* \"#utility.yul\":7540:7543   */\n      0x80\n        /* \"#utility.yul\":7525:7544   */\n      dup2\n      add\n        /* \"#utility.yul\":7553:7604   */\n      tag_487\n        /* \"#utility.yul\":7529:7538   */\n      dup3\n        /* \"#utility.yul\":7586:7592   */\n      dup6\n        /* \"#utility.yul\":5831:5843   */\n      dup1\n      mload\n      sub(shl(0xa0, 0x01), 0x01)\n        /* \"#utility.yul\":5827:5848   */\n      swap1\n      dup2\n      and\n        /* \"#utility.yul\":5815:5849   */\n      dup4\n      mstore\n        /* \"#utility.yul\":5902:5906   */\n      0x20\n        /* \"#utility.yul\":5891:5907   */\n      dup1\n      dup4\n      add\n        /* \"#utility.yul\":5885:5908   */\n      mload\n        /* \"#utility.yul\":5881:5913   */\n      dup3\n      and\n        /* \"#utility.yul\":5865:5879   */\n      swap1\n      dup5\n      add\n        /* \"#utility.yul\":5858:5914   */\n      mstore\n        /* \"#utility.yul\":5967:5971   */\n      0x40\n        /* \"#utility.yul\":5956:5972   */\n      swap2\n      dup3\n      add\n        /* \"#utility.yul\":5950:5973   */\n      mload\n        /* \"#utility.yul\":5946:5978   */\n      and\n        /* \"#utility.yul\":5930:5944   */\n      swap2\n      add\n        /* \"#utility.yul\":5923:5979   */\n      mstore\n        /* \"#utility.yul\":5709:5985   */\n      jump\n        /* \"#utility.yul\":7553:7604   */\n    tag_487:\n        /* \"#utility.yul\":7640:7646   */\n      dup3\n        /* \"#utility.yul\":7635:7637   */\n      0x60\n        /* \"#utility.yul\":7624:7633   */\n      dup4\n        /* \"#utility.yul\":7620:7638   */\n      add\n        /* \"#utility.yul\":7613:7647   */\n      mstore\n        /* \"#utility.yul\":7314:7653   */\n      swap4\n      swap3\n      pop\n      pop\n      pop\n      jump\t// out\n        /* \"#utility.yul\":7658:8038   */\n    tag_141:\n        /* \"#utility.yul\":7737:7738   */\n      0x01\n        /* \"#utility.yul\":7733:7745   */\n      dup2\n      dup2\n      shr\n      swap1\n        /* \"#utility.yul\":7780:7792   */\n      dup3\n      and\n      dup1\n        /* \"#utility.yul\":7801:7862   */\n      tag_489\n      jumpi\n        /* \"#utility.yul\":7855:7859   */\n      0x7f\n        /* \"#utility.yul\":7847:7853   */\n      dup3\n        /* \"#utility.yul\":7843:7860   */\n      and\n        /* \"#utility.yul\":7833:7860   */\n      swap2\n      pop\n        /* \"#utility.yul\":7801:7862   */\n    tag_489:\n        /* \"#utility.yul\":7908:7910   */\n      0x20\n        /* \"#utility.yul\":7900:7906   */\n      dup3\n        /* \"#utility.yul\":7897:7911   */\n      lt\n        /* \"#utility.yul\":7877:7895   */\n      dup2\n        /* \"#utility.yul\":7874:7912   */\n      eq\n        /* \"#utility.yul\":7871:8032   */\n      iszero\n      tag_478\n      jumpi\n        /* \"#utility.yul\":7954:7964   */\n      0x4e487b71\n        /* \"#utility.yul\":7949:7952   */\n      0xe0\n        /* \"#utility.yul\":7945:7965   */\n      shl\n        /* \"#utility.yul\":7942:7943   */\n      0x00\n        /* \"#utility.yul\":7935:7966   */\n      mstore\n        /* \"#utility.yul\":7989:7993   */\n      0x22\n        /* \"#utility.yul\":7986:7987   */\n      0x04\n        /* \"#utility.yul\":7979:7994   */\n      mstore\n        /* \"#utility.yul\":8017:8021   */\n      0x24\n        /* \"#utility.yul\":8014:8015   */\n      0x00\n        /* \"#utility.yul\":8007:8022   */\n      revert\n        /* \"#utility.yul\":8043:8164   */\n    tag_418:\n        /* \"#utility.yul\":8128:8138   */\n      0xffffffff\n        /* \"#utility.yul\":8121:8126   */\n      dup2\n        /* \"#utility.yul\":8117:8139   */\n      and\n        /* \"#utility.yul\":8110:8115   */\n      dup2\n        /* \"#utility.yul\":8107:8140   */\n      eq\n        /* \"#utility.yul\":8097:8158   */\n      tag_278\n      jumpi\n        /* \"#utility.yul\":8154:8155   */\n      0x00\n        /* \"#utility.yul\":8151:8152   */\n      dup1\n        /* \"#utility.yul\":8144:8156   */\n      revert\n        /* \"#utility.yul\":8169:8691   */\n    tag_147:\n        /* \"#utility.yul\":8278:8284   */\n      0x00\n        /* \"#utility.yul\":8331:8333   */\n      0x20\n        /* \"#utility.yul\":8319:8328   */\n      dup3\n        /* \"#utility.yul\":8310:8317   */\n      dup5\n        /* \"#utility.yul\":8306:8329   */\n      sub\n        /* \"#utility.yul\":8302:8334   */\n      slt\n        /* \"#utility.yul\":8299:8351   */\n      iszero\n      tag_494\n      jumpi\n        /* \"#utility.yul\":8347:8348   */\n      0x00\n        /* \"#utility.yul\":8344:8345   */\n      dup1\n        /* \"#utility.yul\":8337:8349   */\n      revert\n        /* \"#utility.yul\":8299:8351   */\n    tag_494:\n        /* \"#utility.yul\":8380:8382   */\n      0x40\n        /* \"#utility.yul\":8374:8383   */\n      mload\n        /* \"#utility.yul\":8422:8424   */\n      0x20\n        /* \"#utility.yul\":8414:8420   */\n      dup2\n        /* \"#utility.yul\":8410:8425   */\n      add\n        /* \"#utility.yul\":8491:8497   */\n      dup2\n        /* \"#utility.yul\":8479:8489   */\n      dup2\n        /* \"#utility.yul\":8476:8498   */\n      lt\n        /* \"#utility.yul\":8455:8473   */\n      0xffffffffffffffff\n        /* \"#utility.yul\":8443:8453   */\n      dup3\n        /* \"#utility.yul\":8440:8474   */\n      gt\n        /* \"#utility.yul\":8437:8499   */\n      or\n        /* \"#utility.yul\":8434:8522   */\n      iszero\n      tag_496\n      jumpi\n        /* \"#utility.yul\":8502:8520   */\n      tag_496\n      tag_332\n      jump\t// in\n    tag_496:\n        /* \"#utility.yul\":8538:8540   */\n      0x40\n        /* \"#utility.yul\":8531:8553   */\n      mstore\n        /* \"#utility.yul\":8575:8591   */\n      dup3\n      mload\n        /* \"#utility.yul\":8600:8630   */\n      tag_497\n        /* \"#utility.yul\":8575:8591   */\n      dup2\n        /* \"#utility.yul\":8600:8630   */\n      tag_418\n      jump\t// in\n    tag_497:\n        /* \"#utility.yul\":8639:8660   */\n      dup2\n      mstore\n        /* \"#utility.yul\":8646:8652   */\n      swap4\n        /* \"#utility.yul\":8169:8691   */\n      swap3\n      pop\n      pop\n      pop\n      jump\t// out\n        /* \"#utility.yul\":8696:8941   */\n    tag_155:\n        /* \"#utility.yul\":8754:8760   */\n      0x00\n        /* \"#utility.yul\":8807:8809   */\n      0x20\n        /* \"#utility.yul\":8795:8804   */\n      dup3\n        /* \"#utility.yul\":8786:8793   */\n      dup5\n        /* \"#utility.yul\":8782:8805   */\n      sub\n        /* \"#utility.yul\":8778:8810   */\n      slt\n        /* \"#utility.yul\":8775:8827   */\n      iszero\n      tag_499\n      jumpi\n        /* \"#utility.yul\":8823:8824   */\n      0x00\n        /* \"#utility.yul\":8820:8821   */\n      dup1\n        /* \"#utility.yul\":8813:8825   */\n      revert\n        /* \"#utility.yul\":8775:8827   */\n    tag_499:\n        /* \"#utility.yul\":8862:8871   */\n      dup2\n        /* \"#utility.yul\":8849:8872   */\n      calldataload\n        /* \"#utility.yul\":8881:8911   */\n      tag_424\n        /* \"#utility.yul\":8905:8910   */\n      dup2\n        /* \"#utility.yul\":8881:8911   */\n      tag_418\n      jump\t// in\n        /* \"#utility.yul\":8946:9300   */\n    tag_160:\n        /* \"#utility.yul\":9160:9162   */\n      0x20\n        /* \"#utility.yul\":9145:9163   */\n      dup2\n      add\n        /* \"#utility.yul\":9185:9205   */\n      dup3\n      calldataload\n        /* \"#utility.yul\":9214:9244   */\n      tag_502\n        /* \"#utility.yul\":9185:9205   */\n      dup2\n        /* \"#utility.yul\":9214:9244   */\n      tag_418\n      jump\t// in\n    tag_502:\n        /* \"#utility.yul\":9282:9292   */\n      0xffffffff\n        /* \"#utility.yul\":9271:9293   */\n      and\n        /* \"#utility.yul\":9253:9294   */\n      swap1\n      swap2\n      mstore\n        /* \"#utility.yul\":8946:9300   */\n      swap2\n      swap1\n      pop\n      jump\t// out\n        /* \"#utility.yul\":9305:9730   */\n    tag_163:\n        /* \"#utility.yul\":9547:9549   */\n      0x40\n        /* \"#utility.yul\":9532:9550   */\n      dup2\n      add\n        /* \"#utility.yul\":9572:9592   */\n      dup4\n      calldataload\n        /* \"#utility.yul\":9601:9631   */\n      tag_504\n        /* \"#utility.yul\":9572:9592   */\n      dup2\n        /* \"#utility.yul\":9601:9631   */\n      tag_418\n      jump\t// in\n    tag_504:\n        /* \"#utility.yul\":9669:9679   */\n      0xffffffff\n        /* \"#utility.yul\":9658:9680   */\n      and\n        /* \"#utility.yul\":9640:9681   */\n      dup3\n      mstore\n        /* \"#utility.yul\":9712:9714   */\n      0x20\n        /* \"#utility.yul\":9697:9715   */\n      swap1\n      swap2\n      add\n        /* \"#utility.yul\":9690:9724   */\n      swap2\n      swap1\n      swap2\n      mstore\n        /* \"#utility.yul\":9305:9730   */\n      swap2\n      swap1\n      pop\n      jump\t// out\n        /* \"#utility.yul\":9735:10196   */\n    tag_419:\n        /* \"#utility.yul\":9788:9791   */\n      0x00\n        /* \"#utility.yul\":9826:9831   */\n      dup2\n        /* \"#utility.yul\":9820:9832   */\n      mload\n        /* \"#utility.yul\":9853:9859   */\n      dup1\n        /* \"#utility.yul\":9848:9851   */\n      dup5\n        /* \"#utility.yul\":9841:9860   */\n      mstore\n        /* \"#utility.yul\":9879:9883   */\n      0x20\n        /* \"#utility.yul\":9908:9910   */\n      dup1\n        /* \"#utility.yul\":9903:9906   */\n      dup6\n        /* \"#utility.yul\":9899:9911   */\n      add\n        /* \"#utility.yul\":9892:9911   */\n      swap5\n      pop\n        /* \"#utility.yul\":9945:9947   */\n      dup1\n        /* \"#utility.yul\":9938:9943   */\n      dup5\n        /* \"#utility.yul\":9934:9948   */\n      add\n        /* \"#utility.yul\":9966:9967   */\n      0x00\n        /* \"#utility.yul\":9976:10171   */\n    tag_506:\n        /* \"#utility.yul\":9990:9996   */\n      dup4\n        /* \"#utility.yul\":9987:9988   */\n      dup2\n        /* \"#utility.yul\":9984:9997   */\n      lt\n        /* \"#utility.yul\":9976:10171   */\n      iszero\n      tag_508\n      jumpi\n        /* \"#utility.yul\":10055:10068   */\n      dup2\n      mload\n      sub(shl(0xa0, 0x01), 0x01)\n        /* \"#utility.yul\":10051:10090   */\n      and\n        /* \"#utility.yul\":10039:10091   */\n      dup8\n      mstore\n        /* \"#utility.yul\":10111:10123   */\n      swap6\n      dup3\n      add\n      swap6\n        /* \"#utility.yul\":10146:10161   */\n      swap1\n      dup3\n      add\n      swap1\n        /* \"#utility.yul\":10087:10088   */\n      0x01\n        /* \"#utility.yul\":10005:10014   */\n      add\n        /* \"#utility.yul\":9976:10171   */\n      jump(tag_506)\n    tag_508:\n      pop\n        /* \"#utility.yul\":10187:10190   */\n      swap5\n      swap6\n        /* \"#utility.yul\":9735:10196   */\n      swap5\n      pop\n      pop\n      pop\n      pop\n      pop\n      jump\t// out\n        /* \"#utility.yul\":10201:10716   */\n    tag_180:\n        /* \"#utility.yul\":10462:10468   */\n      dup5\n        /* \"#utility.yul\":10451:10460   */\n      dup2\n        /* \"#utility.yul\":10444:10469   */\n      mstore\n        /* \"#utility.yul\":10505:10508   */\n      0x80\n        /* \"#utility.yul\":10500:10502   */\n      0x20\n        /* \"#utility.yul\":10489:10498   */\n      dup3\n        /* \"#utility.yul\":10485:10503   */\n      add\n        /* \"#utility.yul\":10478:10509   */\n      mstore\n        /* \"#utility.yul\":10425:10429   */\n      0x00\n        /* \"#utility.yul\":10526:10583   */\n      tag_510\n        /* \"#utility.yul\":10578:10581   */\n      0x80\n        /* \"#utility.yul\":10567:10576   */\n      dup4\n        /* \"#utility.yul\":10563:10582   */\n      add\n        /* \"#utility.yul\":10555:10561   */\n      dup7\n        /* \"#utility.yul\":10526:10583   */\n      tag_419\n      jump\t// in\n    tag_510:\n        /* \"#utility.yul\":10631:10639   */\n      0xffffff\n        /* \"#utility.yul\":10619:10640   */\n      swap5\n      swap1\n      swap5\n      and\n        /* \"#utility.yul\":10614:10616   */\n      0x40\n        /* \"#utility.yul\":10599:10617   */\n      dup4\n      add\n        /* \"#utility.yul\":10592:10641   */\n      mstore\n      pop\n      sub(shl(0xa0, 0x01), 0x01)\n        /* \"#utility.yul\":10677:10709   */\n      swap2\n      swap1\n      swap2\n      and\n        /* \"#utility.yul\":10672:10674   */\n      0x60\n        /* \"#utility.yul\":10657:10675   */\n      swap1\n      swap2\n      add\n        /* \"#utility.yul\":10650:10710   */\n      mstore\n        /* \"#utility.yul\":10518:10583   */\n      swap3\n        /* \"#utility.yul\":10201:10716   */\n      swap2\n      pop\n      pop\n      jump\t// out\n        /* \"#utility.yul\":10916:11610   */\n    tag_187:\n        /* \"#utility.yul\":11225:11228   */\n      0xa0\n        /* \"#utility.yul\":11214:11223   */\n      dup2\n        /* \"#utility.yul\":11207:11229   */\n      mstore\n        /* \"#utility.yul\":11188:11192   */\n      0x00\n        /* \"#utility.yul\":11252:11309   */\n      tag_513\n        /* \"#utility.yul\":11304:11307   */\n      0xa0\n        /* \"#utility.yul\":11293:11302   */\n      dup4\n        /* \"#utility.yul\":11289:11308   */\n      add\n        /* \"#utility.yul\":11281:11287   */\n      dup9\n        /* \"#utility.yul\":11252:11309   */\n      tag_419\n      jump\t// in\n    tag_513:\n        /* \"#utility.yul\":11357:11366   */\n      dup3\n        /* \"#utility.yul\":11349:11355   */\n      dup2\n        /* \"#utility.yul\":11345:11367   */\n      sub\n        /* \"#utility.yul\":11340:11342   */\n      0x20\n        /* \"#utility.yul\":11329:11338   */\n      dup5\n        /* \"#utility.yul\":11325:11343   */\n      add\n        /* \"#utility.yul\":11318:11368   */\n      mstore\n        /* \"#utility.yul\":11385:11418   */\n      tag_514\n        /* \"#utility.yul\":11411:11417   */\n      dup2\n        /* \"#utility.yul\":11403:11409   */\n      dup9\n        /* \"#utility.yul\":11385:11418   */\n      tag_415\n      jump\t// in\n    tag_514:\n      sub(shl(0xa0, 0x01), 0x01)\n        /* \"#utility.yul\":11492:11507   */\n      swap7\n      dup8\n      and\n        /* \"#utility.yul\":11487:11489   */\n      0x40\n        /* \"#utility.yul\":11472:11490   */\n      dup6\n      add\n        /* \"#utility.yul\":11465:11508   */\n      mstore\n        /* \"#utility.yul\":11544:11559   */\n      swap5\n      swap1\n      swap6\n      and\n        /* \"#utility.yul\":11539:11541   */\n      0x60\n        /* \"#utility.yul\":11524:11542   */\n      dup4\n      add\n        /* \"#utility.yul\":11517:11560   */\n      mstore\n      pop\n        /* \"#utility.yul\":11591:11594   */\n      0x80\n        /* \"#utility.yul\":11576:11595   */\n      add\n        /* \"#utility.yul\":11569:11604   */\n      mstore\n        /* \"#utility.yul\":11377:11418   */\n      swap4\n        /* \"#utility.yul\":10916:11610   */\n      swap3\n      pop\n      pop\n      pop\n      jump\t// out\n        /* \"#utility.yul\":11615:12312   */\n    tag_217:\n        /* \"#utility.yul\":11724:11730   */\n      0x00\n        /* \"#utility.yul\":11777:11779   */\n      0x40\n        /* \"#utility.yul\":11765:11774   */\n      dup3\n        /* \"#utility.yul\":11756:11763   */\n      dup5\n        /* \"#utility.yul\":11752:11775   */\n      sub\n        /* \"#utility.yul\":11748:11780   */\n      slt\n        /* \"#utility.yul\":11745:11797   */\n      iszero\n      tag_516\n      jumpi\n        /* \"#utility.yul\":11793:11794   */\n      0x00\n        /* \"#utility.yul\":11790:11791   */\n      dup1\n        /* \"#utility.yul\":11783:11795   */\n      revert\n        /* \"#utility.yul\":11745:11797   */\n    tag_516:\n        /* \"#utility.yul\":11826:11828   */\n      0x40\n        /* \"#utility.yul\":11820:11829   */\n      mload\n        /* \"#utility.yul\":11868:11870   */\n      0x40\n        /* \"#utility.yul\":11860:11866   */\n      dup2\n        /* \"#utility.yul\":11856:11871   */\n      add\n        /* \"#utility.yul\":11937:11943   */\n      dup2\n        /* \"#utility.yul\":11925:11935   */\n      dup2\n        /* \"#utility.yul\":11922:11944   */\n      lt\n        /* \"#utility.yul\":11901:11919   */\n      0xffffffffffffffff\n        /* \"#utility.yul\":11889:11899   */\n      dup3\n        /* \"#utility.yul\":11886:11920   */\n      gt\n        /* \"#utility.yul\":11883:11945   */\n      or\n        /* \"#utility.yul\":11880:11968   */\n      iszero\n      tag_518\n      jumpi\n        /* \"#utility.yul\":11948:11966   */\n      tag_518\n      tag_332\n      jump\t// in\n    tag_518:\n        /* \"#utility.yul\":11984:11986   */\n      0x40\n        /* \"#utility.yul\":11977:11999   */\n      mstore\n        /* \"#utility.yul\":12021:12037   */\n      dup3\n      mload\n        /* \"#utility.yul\":12046:12098   */\n      tag_519\n        /* \"#utility.yul\":12021:12037   */\n      dup2\n        /* \"#utility.yul\":12046:12098   */\n      tag_412\n      jump\t// in\n    tag_519:\n        /* \"#utility.yul\":12107:12128   */\n      dup2\n      mstore\n        /* \"#utility.yul\":12173:12175   */\n      0x20\n        /* \"#utility.yul\":12158:12176   */\n      dup4\n      add\n        /* \"#utility.yul\":12152:12177   */\n      mload\n        /* \"#utility.yul\":12186:12240   */\n      tag_520\n        /* \"#utility.yul\":12152:12177   */\n      dup2\n        /* \"#utility.yul\":12186:12240   */\n      tag_412\n      jump\t// in\n    tag_520:\n        /* \"#utility.yul\":12268:12270   */\n      0x20\n        /* \"#utility.yul\":12256:12271   */\n      dup3\n      add\n        /* \"#utility.yul\":12249:12281   */\n      mstore\n        /* \"#utility.yul\":12260:12266   */\n      swap4\n        /* \"#utility.yul\":11615:12312   */\n      swap3\n      pop\n      pop\n      pop\n      jump\t// out\n        /* \"#utility.yul\":12317:12620   */\n    tag_224:\n        /* \"#utility.yul\":12411:12417   */\n      0x00\n        /* \"#utility.yul\":12464:12466   */\n      0x20\n        /* \"#utility.yul\":12452:12461   */\n      dup3\n        /* \"#utility.yul\":12443:12450   */\n      dup5\n        /* \"#utility.yul\":12439:12462   */\n      sub\n        /* \"#utility.yul\":12435:12467   */\n      slt\n        /* \"#utility.yul\":12432:12484   */\n      iszero\n      tag_522\n      jumpi\n        /* \"#utility.yul\":12480:12481   */\n      0x00\n        /* \"#utility.yul\":12477:12478   */\n      dup1\n        /* \"#utility.yul\":12470:12482   */\n      revert\n        /* \"#utility.yul\":12432:12484   */\n    tag_522:\n        /* \"#utility.yul\":12519:12528   */\n      dup2\n        /* \"#utility.yul\":12506:12529   */\n      calldataload\n        /* \"#utility.yul\":12538:12590   */\n      tag_424\n        /* \"#utility.yul\":12584:12589   */\n      dup2\n        /* \"#utility.yul\":12538:12590   */\n      tag_412\n      jump\t// in\n        /* \"#utility.yul\":12914:13343   */\n    tag_420:\n        /* \"#utility.yul\":13026:13031   */\n      dup1\n        /* \"#utility.yul\":13013:13032   */\n      calldataload\n        /* \"#utility.yul\":13041:13095   */\n      tag_528\n        /* \"#utility.yul\":13087:13094   */\n      dup2\n        /* \"#utility.yul\":13041:13095   */\n      tag_412\n      jump\t// in\n    tag_528:\n      sub(shl(0xa0, 0x01), 0x01)\n        /* \"#utility.yul\":13154:13170   */\n      swap1\n      dup2\n      and\n        /* \"#utility.yul\":13142:13171   */\n      dup4\n      mstore\n        /* \"#utility.yul\":13219:13223   */\n      0x20\n        /* \"#utility.yul\":13208:13224   */\n      dup3\n      add\n        /* \"#utility.yul\":13195:13225   */\n      calldataload\n      swap1\n        /* \"#utility.yul\":13234:13288   */\n      tag_529\n        /* \"#utility.yul\":13195:13225   */\n      dup3\n        /* \"#utility.yul\":13234:13288   */\n      tag_412\n      jump\t// in\n    tag_529:\n        /* \"#utility.yul\":13333:13335   */\n      dup1\n        /* \"#utility.yul\":13324:13331   */\n      dup3\n        /* \"#utility.yul\":13320:13336   */\n      and\n        /* \"#utility.yul\":13313:13317   */\n      0x20\n        /* \"#utility.yul\":13308:13311   */\n      dup6\n        /* \"#utility.yul\":13304:13318   */\n      add\n        /* \"#utility.yul\":13297:13337   */\n      mstore\n      pop\n      pop\n        /* \"#utility.yul\":12914:13343   */\n      pop\n      pop\n      jump\t// out\n        /* \"#utility.yul\":13348:13647   */\n    tag_233:\n        /* \"#utility.yul\":13562:13564   */\n      0x40\n        /* \"#utility.yul\":13547:13565   */\n      dup2\n      add\n        /* \"#utility.yul\":13574:13641   */\n      tag_115\n        /* \"#utility.yul\":13551:13560   */\n      dup3\n        /* \"#utility.yul\":13623:13629   */\n      dup5\n        /* \"#utility.yul\":13574:13641   */\n      tag_420\n      jump\t// in\n        /* \"#utility.yul\":13652:14022   */\n    tag_236:\n        /* \"#utility.yul\":13894:13896   */\n      0x60\n        /* \"#utility.yul\":13879:13897   */\n      dup2\n      add\n        /* \"#utility.yul\":13906:13973   */\n      tag_533\n        /* \"#utility.yul\":13883:13892   */\n      dup3\n        /* \"#utility.yul\":13955:13961   */\n      dup6\n        /* \"#utility.yul\":13906:13973   */\n      tag_420\n      jump\t// in\n    tag_533:\n        /* \"#utility.yul\":14009:14015   */\n      dup3\n        /* \"#utility.yul\":14004:14006   */\n      0x40\n        /* \"#utility.yul\":13993:14002   */\n      dup4\n        /* \"#utility.yul\":13989:14007   */\n      add\n        /* \"#utility.yul\":13982:14016   */\n      mstore\n        /* \"#utility.yul\":13652:14022   */\n      swap4\n      swap3\n      pop\n      pop\n      pop\n      jump\t// out\n        /* \"#utility.yul\":14676:14953   */\n    tag_277:\n        /* \"#utility.yul\":14743:14749   */\n      0x00\n        /* \"#utility.yul\":14796:14798   */\n      0x20\n        /* \"#utility.yul\":14784:14793   */\n      dup3\n        /* \"#utility.yul\":14775:14782   */\n      dup5\n        /* \"#utility.yul\":14771:14794   */\n      sub\n        /* \"#utility.yul\":14767:14799   */\n      slt\n        /* \"#utility.yul\":14764:14816   */\n      iszero\n      tag_537\n      jumpi\n        /* \"#utility.yul\":14812:14813   */\n      0x00\n        /* \"#utility.yul\":14809:14810   */\n      dup1\n        /* \"#utility.yul\":14802:14814   */\n      revert\n        /* \"#utility.yul\":14764:14816   */\n    tag_537:\n        /* \"#utility.yul\":14844:14853   */\n      dup2\n        /* \"#utility.yul\":14838:14854   */\n      mload\n        /* \"#utility.yul\":14897:14902   */\n      dup1\n        /* \"#utility.yul\":14890:14903   */\n      iszero\n        /* \"#utility.yul\":14883:14904   */\n      iszero\n        /* \"#utility.yul\":14876:14881   */\n      dup2\n        /* \"#utility.yul\":14873:14905   */\n      eq\n        /* \"#utility.yul\":14863:14923   */\n      tag_424\n      jumpi\n        /* \"#utility.yul\":14919:14920   */\n      0x00\n        /* \"#utility.yul\":14916:14917   */\n      dup1\n        /* \"#utility.yul\":14909:14921   */\n      revert\n        /* \"#utility.yul\":14958:15126   */\n    tag_305:\n        /* \"#utility.yul\":14998:15005   */\n      0x00\n        /* \"#utility.yul\":15064:15065   */\n      dup2\n        /* \"#utility.yul\":15060:15061   */\n      0x00\n        /* \"#utility.yul\":15056:15062   */\n      not\n        /* \"#utility.yul\":15052:15066   */\n      div\n        /* \"#utility.yul\":15049:15050   */\n      dup4\n        /* \"#utility.yul\":15046:15067   */\n      gt\n        /* \"#utility.yul\":15041:15042   */\n      dup3\n        /* \"#utility.yul\":15034:15043   */\n      iszero\n        /* \"#utility.yul\":15027:15044   */\n      iszero\n        /* \"#utility.yul\":15023:15068   */\n      and\n        /* \"#utility.yul\":15020:15091   */\n      iszero\n      tag_541\n      jumpi\n        /* \"#utility.yul\":15071:15089   */\n      tag_541\n      tag_417\n      jump\t// in\n    tag_541:\n      pop\n        /* \"#utility.yul\":15111:15120   */\n      mul\n      swap1\n        /* \"#utility.yul\":14958:15126   */\n      jump\t// out\n        /* \"#utility.yul\":15726:15853   */\n    tag_339:\n        /* \"#utility.yul\":15787:15797   */\n      0x4e487b71\n        /* \"#utility.yul\":15782:15785   */\n      0xe0\n        /* \"#utility.yul\":15778:15798   */\n      shl\n        /* \"#utility.yul\":15775:15776   */\n      0x00\n        /* \"#utility.yul\":15768:15799   */\n      mstore\n        /* \"#utility.yul\":15818:15822   */\n      0x32\n        /* \"#utility.yul\":15815:15816   */\n      0x04\n        /* \"#utility.yul\":15808:15823   */\n      mstore\n        /* \"#utility.yul\":15842:15846   */\n      0x24\n        /* \"#utility.yul\":15839:15840   */\n      0x00\n        /* \"#utility.yul\":15832:15847   */\n      revert\n        /* \"#utility.yul\":15858:15993   */\n    tag_342:\n        /* \"#utility.yul\":15897:15900   */\n      0x00\n      not(0x00)\n        /* \"#utility.yul\":15918:15935   */\n      dup3\n      eq\n        /* \"#utility.yul\":15915:15958   */\n      iszero\n      tag_547\n      jumpi\n        /* \"#utility.yul\":15938:15956   */\n      tag_547\n      tag_417\n      jump\t// in\n    tag_547:\n      pop\n        /* \"#utility.yul\":15985:15986   */\n      0x01\n        /* \"#utility.yul\":15974:15987   */\n      add\n      swap1\n        /* \"#utility.yul\":15858:15993   */\n      jump\t// out\n        /* \"#utility.yul\":15998:16270   */\n    tag_377:\n        /* \"#utility.yul\":16068:16074   */\n      0x00\n        /* \"#utility.yul\":16121:16123   */\n      0x20\n        /* \"#utility.yul\":16109:16118   */\n      dup3\n        /* \"#utility.yul\":16100:16107   */\n      dup5\n        /* \"#utility.yul\":16096:16119   */\n      sub\n        /* \"#utility.yul\":16092:16124   */\n      slt\n        /* \"#utility.yul\":16089:16141   */\n      iszero\n      tag_549\n      jumpi\n        /* \"#utility.yul\":16137:16138   */\n      0x00\n        /* \"#utility.yul\":16134:16135   */\n      dup1\n        /* \"#utility.yul\":16127:16139   */\n      revert\n        /* \"#utility.yul\":16089:16141   */\n    tag_549:\n        /* \"#utility.yul\":16169:16178   */\n      dup2\n        /* \"#utility.yul\":16163:16179   */\n      mload\n        /* \"#utility.yul\":16188:16240   */\n      tag_424\n        /* \"#utility.yul\":16234:16239   */\n      dup2\n        /* \"#utility.yul\":16188:16240   */\n      tag_412\n      jump\t// in\n\n    auxdata: 0xa2646970667358221220c401cdfdb6c7319ff085bf05c218c39e58637c949e8770dc1a817d7c936d100b64736f6c63430008090033\n}\n",
				"bytecode": {
					"linkReferences": {},
					"object": "60806040523480156200001157600080fd5b506040516200249238038062002492833981016040819052620000349162000344565b815160408051808201909152600281526120ad60f11b602082015283916001600160a01b0316620000835760405162461bcd60e51b81526004016200007a91906200042a565b60405180910390fd5b5060006001600160a01b031681602001516001600160a01b031614156040518060400160405280600281526020016120ad60f11b81525090620000db5760405162461bcd60e51b81526004016200007a91906200042a565b506040808201518151808301909252600282526120ad60f11b60208301526001600160a01b0316620001225760405162461bcd60e51b81526004016200007a91906200042a565b508051600080546001600160a01b03199081166001600160a01b039384161790915560208084015160018054841691851691909117905560409384015160028054909316908416178255845184518086019095529184526120ad60f11b9084015216620001a45760405162461bcd60e51b81526004016200007a91906200042a565b5060006001600160a01b031681602001516001600160a01b031614156040518060400160405280600281526020016120ad60f11b81525090620001fc5760405162461bcd60e51b81526004016200007a91906200042a565b506040805182516001600160a01b039081166020808401919091528085015190911682840152825180830384018152606090920190925280516200024592600d9201906200024e565b505050620004bf565b8280546200025c9062000482565b90600052602060002090601f016020900481019282620002805760008555620002cb565b82601f106200029b57805160ff1916838001178555620002cb565b82800160010185558215620002cb579182015b82811115620002cb578251825591602001919060010190620002ae565b50620002d9929150620002dd565b5090565b5b80821115620002d95760008155600101620002de565b604080519081016001600160401b03811182821017156200032557634e487b7160e01b600052604160045260246000fd5b60405290565b6001600160a01b03811681146200034157600080fd5b50565b60008082840360a08112156200035957600080fd5b60608112156200036857600080fd5b604051606081016001600160401b03811182821017156200039957634e487b7160e01b600052604160045260246000fd5b6040528451620003a9816200032b565b81526020850151620003bb816200032b565b60208201526040850151620003d0816200032b565b604082810191909152909350605f1982011215620003ed57600080fd5b50620003f8620002f4565b606084015162000408816200032b565b815260808401516200041a816200032b565b6020820152919491935090915050565b600060208083528351808285015260005b8181101562000459578581018301518582016040015282016200043b565b818111156200046c576000604083870101525b50601f01601f1916929092016040019392505050565b600181811c908216806200049757607f821691505b60208210811415620004b957634e487b7160e01b600052602260045260246000fd5b50919050565b611fc380620004cf6000396000f3fe608060405234801561001057600080fd5b50600436106101425760003560e01c806375d0c0dc116100b8578063a0a8e4601161007c578063a0a8e46014610364578063b2fe31ad1461036c578063c2cbdc671461037f578063d34cc380146103ae578063d4a07d34146103b6578063e4af6e79146103be57600080fd5b806375d0c0dc146102815780637ac46fbb1461029657806386c6be3e146102f65780638860d2481461034957806398347a5d1461035c57600080fd5b80631c7f4c731161010a5780631c7f4c73146101cc57806325281714146101d4578063511ce798146101e757806359f3dae71461020757806366c153e91461022f5780636707acee1461026157600080fd5b806301ffc9a71461014757806306a462391461016f57806309946538146101875780630bdedd561461019c5780630e3e80ac146101af575b600080fd5b61015a6101553660046118e1565b6103c6565b60405190151581526020015b60405180910390f35b640312e312e360dc1b5b604051908152602001610166565b61019a61019536600461196e565b6103f7565b005b61019a6101aa3660046119e0565b6105e9565b73556e6956335661756c74476f7665726e616e636560601b610179565b600654610179565b61019a6101e23660046119f9565b6106df565b6101796101f53660046119e0565b6000908152600c602052604090205490565b61021a6102153660046119e0565b6107ac565b604051905163ffffffff168152602001610166565b61024261023d366004611a54565b61089a565b604080516001600160a01b039093168352602083019190915201610166565b61017961026f3660046119e0565b60009081526009602052604090205490565b61028961097f565b6040516101669190611b86565b6102e9604080516060810182526000808252602082018190529181019190915250604080516060810182526000546001600160a01b03908116825260015481166020830152600254169181019190915290565b6040516101669190611b99565b6102e9604080516060810182526000808252602082018190529181019190915250604080516060810182526003546001600160a01b03908116825260045481166020830152600554169181019190915290565b61021a6103573660046119e0565b6109a1565b61019a6109fe565b610289610b06565b61019a61037a366004611bc9565b610b19565b610387610c24565b6040805182516001600160a01b039081168252602093840151169281019290925201610166565b610387610d03565b61019a610d24565b600f54610179565b60006103d182610e49565b806103ec575063a2e9c51360e01b6001600160e01b03198316145b92915050565b905090565b6103ff610e7f565b805160408051808201909152600281526120ad60f11b6020820152906001600160a01b031661044a5760405162461bcd60e51b81526004016104419190611b86565b60405180910390fd5b5060006001600160a01b031681602001516001600160a01b031614156040518060400160405280600281526020016120ad60f11b8152509061049f5760405162461bcd60e51b81526004016104419190611b86565b506040808201518151808301909252600282526120ad60f11b60208301526001600160a01b03166104e35760405162461bcd60e51b81526004016104419190611b86565b508051600380546001600160a01b03199081166001600160a01b03938416179091556020808401516004805484169185169190911781556040808601516005805490951690861617909355600054835163bba3293960e01b8152935194169363bba3293993808301939290829003018186803b15801561056257600080fd5b505afa158015610576573d6000803e3d6000fd5b505050506040513d601f19601f8201168201806040525081019061059a9190611be1565b6105a49042611c10565b6006819055604051339132917f0887cab3184f7c02b16978ab31f8acee05979f59fc3da6abe5bf71105ec3179d916105de91869190611c28565b60405180910390a350565b6105f281610f37565b600081815260076020526040902080548291339132917fa363920f84c4a3e8f1fbb02a2f8b5f0d7438886cb05a7d98882af9bd66d164269161063390611c65565b80601f016020809104026020016040519081016040528092919081815260200182805461065f90611c65565b80156106ac5780601f10610681576101008083540402835291602001916106ac565b820191906000526020600020905b81548152906001019060200180831161068f57829003601f168201915b50505050508060200190518101906106c49190611cac565b604051905163ffffffff16815260200160405180910390a450565b60016106ee6020830183611cf8565b63ffffffff1611604051806040016040528060048152602001634c494d5560e01b815250906107305760405162461bcd60e51b81526004016104419190611b86565b5061075a82826040516020016107469190611d15565b604051602081830303815290604052611028565b600082815260096020526040908190205490518391339132917f4cceb02b6b172e9c19155fccc4d799437a0d50ad922ea9f0f41b1cb3a17b12e8916107a0918791611d32565b60405180910390a45050565b604080516020810190915260008152600082815260086020526040902080546107d490611c65565b151590506107f057505060408051602081019091526000815290565b6000828152600860205260409020805461080990611c65565b80601f016020809104026020016040519081016040528092919081815260200182805461083590611c65565b80156108825780601f1061085757610100808354040283529160200191610882565b820191906000526020600020905b81548152906001019060200180831161086557829003601f168201915b50505050508060200190518101906103ec9190611cac565b60008060006108a886611134565b604051631912128b60e01b815291945092508391506001600160a01b03821690631912128b906108e29085908b908a908a90600401611d9b565b600060405180830381600087803b1580156108fc57600080fd5b505af1158015610910573d6000803e3d6000fd5b50506040805162ffffff891660208201523393503292507f8a4513c05d15df8ece912856923273e166e39f5c9c2b43d2b38594023494a0e0918b910160408051601f198184030181529082905261096d92918c9088908a90611dda565b60405180910390a35094509492505050565b60606103f273556e6956335661756c74476f7665726e616e636560601b611325565b604080516020810190915260008152600082815260076020526040902080546109c990611c65565b151590506109e55750506040805160208101909152602a815290565b6000828152600760205260409020805461080990611c65565b610a06611391565b336001600160a01b0316326001600160a01b03167fb57a42e9f64dfc9c6b9e412ea001a45c0e4d3f26c8d160381a418ff92269d052600d8054610a4890611c65565b80601f0160208091040260200160405190810160405280929190818152602001828054610a7490611c65565b8015610ac15780601f10610a9657610100808354040283529160200191610ac1565b820191906000526020600020905b815481529060010190602001808311610aa457829003601f168201915b5050505050806020019051810190610ad99190611e24565b6040805182516001600160a01b0390811682526020938401511692810192909252015b60405180910390a3565b60606103f2640312e312e360dc1b611325565b6000610b286020830183611e83565b6001600160a01b031614156040518060400160405280600281526020016120ad60f11b81525090610b6c5760405162461bcd60e51b81526004016104419190611b86565b506000610b7f6040830160208401611e83565b6001600160a01b031614156040518060400160405280600281526020016120ad60f11b81525090610bc35760405162461bcd60e51b81526004016104419190611b86565b50610bec81604051602001610bd89190611ed5565b604051602081830303815290604052611445565b600f54604051339132917f88e619a5dce560314fdd4895b08c256978617047a99ffc847d45400df1f377a7916105de91869190611ee3565b6040805180820190915260008082526020820152600e8054610c4590611c65565b15159050610c655750604080518082019091526000808252602082015290565b600e8054610c7290611c65565b80601f0160208091040260200160405190810160405280929190818152602001828054610c9e90611c65565b8015610ceb5780601f10610cc057610100808354040283529160200191610ceb565b820191906000526020600020905b815481529060010190602001808311610cce57829003601f168201915b50505050508060200190518101906103f29190611e24565b6040805180820190915260008082526020820152600d8054610c7290611c65565b610d2c610e7f565b6006546040805180820190915260048152631395531360e21b602082015290610d685760405162461bcd60e51b81526004016104419190611b86565b5060065442101560405180604001604052806002815260200161545360f01b81525090610da85760405162461bcd60e51b81526004016104419190611b86565b5060038054600080546001600160a01b038084166001600160a01b03199283168117845560048054600180548286169087168117909155600580546002805497821697891688179055600698909855978616909855841690559290911690925560408051918252602082019390935291820152339032907fef3e4bc9725fa684957d7de03c6dcd01078ee86cf78ceef25c5f8346df69cc9990606001610afc565b60006301ffc9a760e01b6001600160e01b0319831614806103ec57506001600160e01b0319821663effda0f560e01b1492915050565b600054604051630935e01b60e21b81523360048201526001600160a01b03909116906324d7806c9060240160206040518083038186803b158015610ec257600080fd5b505afa158015610ed6573d6000803e3d6000fd5b505050506040513d601f19601f82011682018060405250810190610efa9190611efe565b6040518060400160405280600381526020016223292160e91b81525090610f345760405162461bcd60e51b81526004016104419190611b86565b50565b610f4081611520565b60008181526009602090815260409182902054825180840190935260048352631395531360e21b918301919091529081610f8d5760405162461bcd60e51b81526004016104419190611b86565b508042101560405180604001604052806002815260200161545360f01b81525090610fcb5760405162461bcd60e51b81526004016104419190611b86565b50600082815260086020908152604080832060079092529091208154909190610ff390611c65565b610ffe929190611793565b5060008281526008602052604081206110169161181e565b50600090815260096020526040812055565b61103182611520565b6000828152600860209081526040909120825161105092840190611858565b506000828152600760205260408120805461106a90611c65565b15905061107857600161107b565b60005b60ff169050806000800160009054906101000a90046001600160a01b03166001600160a01b031663bba329396040518163ffffffff1660e01b815260040160206040518083038186803b1580156110d157600080fd5b505afa1580156110e5573d6000803e3d6000fd5b505050506040513d601f19601f820116820180604052508101906111099190611be1565b6111139190611f20565b61111d9042611c10565b600093845260096020526040909320929092555050565b600080546040516363e85d2d60e01b81523360048201526001602482015282916001600160a01b03169081906363e85d2d9060440160206040518083038186803b15801561118157600080fd5b505afa158015611195573d6000803e3d6000fd5b505050506040513d601f19601f820116820180604052508101906111b99190611efe565b6040518060400160405280600381526020016223292160e91b815250906111f35760405162461bcd60e51b81526004016104419190611b86565b5060015460408051631112eee760e31b815290516001600160a01b039092169182916388977738916004808301926020929190829003018186803b15801561123a57600080fd5b505afa15801561124e573d6000803e3d6000fd5b505050506040513d601f19601f820116820180604052508101906112729190611be1565b61127d906001611c10565b600254909350611296906001600160a01b0316846116f3565b6040516305c4fdf960e01b81526001600160a01b0380831660048301528781166024830152919550908216906305c4fdf990604401602060405180830381600087803b1580156112e557600080fd5b505af11580156112f9573d6000803e3d6000fd5b505050506040513d601f19601f8201168201806040525081019061131d9190611be1565b505050915091565b604080516020808252818301909252606091602082018180368337019050509050602060005b60208110156113835783816020811061136657611366611f3f565b1a61137357809150611383565b61137c81611f55565b905061134b565b508152602081019190915290565b611399610e7f565b600f546040805180820190915260048152631395531360e21b6020820152906113d55760405162461bcd60e51b81526004016104419190611b86565b50600f5442101560405180604001604052806002815260200161545360f01b815250906114155760405162461bcd60e51b81526004016104419190611b86565b50600e600d90805461142690611c65565b611431929190611793565b5061143e600e600061181e565b6000600f55565b61144d610e7f565b6000600d805461145c90611c65565b15905061146a57600161146d565b60005b60ff16905081600e9080519060200190611488929190611858565b506000546040805163bba3293960e01b8152905183926001600160a01b03169163bba32939916004808301926020929190829003018186803b1580156114cd57600080fd5b505afa1580156114e1573d6000803e3d6000fd5b505050506040513d601f19601f820116820180604052508101906115059190611be1565b61150f9190611f20565b6115199042611c10565b600f555050565b600054604051630935e01b60e21b81523360048201526001600160a01b03909116906324d7806c9060240160206040518083038186803b15801561156357600080fd5b505afa158015611577573d6000803e3d6000fd5b505050506040513d601f19601f8201168201806040525081019061159b9190611efe565b80611628575060015460405163020604bf60e21b81526004810183905233916001600160a01b03169063081812fc9060240160206040518083038186803b1580156115e557600080fd5b505afa1580156115f9573d6000803e3d6000fd5b505050506040513d601f19601f8201168201806040525081019061161d9190611f70565b6001600160a01b0316145b806116b557506001546040516331a9108f60e11b81526004810183905233916001600160a01b031690636352211e9060240160206040518083038186803b15801561167257600080fd5b505afa158015611686573d6000803e3d6000fd5b505050506040513d601f19601f820116820180604052508101906116aa9190611f70565b6001600160a01b0316145b6040518060400160405280600381526020016223292160e91b815250906116ef5760405162461bcd60e51b81526004016104419190611b86565b5050565b6000604051733d602d80600a3d3981f3363d3d373d3d3d363d7360601b81528360601b60148201526e5af43d82803e903d91602b57fd5bf360881b6028820152826037826000f59150506001600160a01b0381166103ec5760405162461bcd60e51b815260206004820152601760248201527f455243313136373a2063726561746532206661696c65640000000000000000006044820152606401610441565b82805461179f90611c65565b90600052602060002090601f0160209004810192826117c1576000855561180e565b82601f106117d2578054855561180e565b8280016001018555821561180e57600052602060002091601f016020900482015b8281111561180e5782548255916001019190600101906117f3565b5061181a9291506118cc565b5090565b50805461182a90611c65565b6000825580601f1061183a575050565b601f016020900490600052602060002090810190610f3491906118cc565b82805461186490611c65565b90600052602060002090601f016020900481019282611886576000855561180e565b82601f1061189f57805160ff191683800117855561180e565b8280016001018555821561180e579182015b8281111561180e5782518255916020019190600101906118b1565b5b8082111561181a57600081556001016118cd565b6000602082840312156118f357600080fd5b81356001600160e01b03198116811461190b57600080fd5b9392505050565b634e487b7160e01b600052604160045260246000fd5b604051601f8201601f1916810167ffffffffffffffff8111828210171561195157611951611912565b604052919050565b6001600160a01b0381168114610f3457600080fd5b60006060828403121561198057600080fd5b6040516060810181811067ffffffffffffffff821117156119a3576119a3611912565b60405282356119b181611959565b815260208301356119c181611959565b602082015260408301356119d481611959565b60408201529392505050565b6000602082840312156119f257600080fd5b5035919050565b6000808284036040811215611a0d57600080fd5b833592506020601f1982011215611a2357600080fd5b506020830190509250929050565b8035611a3c81611959565b919050565b803562ffffff81168114611a3c57600080fd5b60008060008060808587031215611a6a57600080fd5b843567ffffffffffffffff80821115611a8257600080fd5b818701915087601f830112611a9657600080fd5b8135602082821115611aaa57611aaa611912565b8160051b9250611abb818401611928565b828152928401810192818101908b851115611ad557600080fd5b948201945b84861015611aff5785359350611aef84611959565b8382529482019490820190611ada565b9850611b0e9050898201611a31565b965050505050611b2060408601611a41565b9150611b2e60608601611a31565b905092959194509250565b6000815180845260005b81811015611b5f57602081850181015186830182015201611b43565b81811115611b71576000602083870101525b50601f01601f19169290920160200192915050565b60208152600061190b6020830184611b39565b606081016103ec828480516001600160a01b03908116835260208083015182169084015260409182015116910152565b600060408284031215611bdb57600080fd5b50919050565b600060208284031215611bf357600080fd5b5051919050565b634e487b7160e01b600052601160045260246000fd5b60008219821115611c2357611c23611bfa565b500190565b60808101611c58828580516001600160a01b03908116835260208083015182169084015260409182015116910152565b8260608301529392505050565b600181811c90821680611c7957607f821691505b60208210811415611bdb57634e487b7160e01b600052602260045260246000fd5b63ffffffff81168114610f3457600080fd5b600060208284031215611cbe57600080fd5b6040516020810181811067ffffffffffffffff82111715611ce157611ce1611912565b6040528251611cef81611c9a565b81529392505050565b600060208284031215611d0a57600080fd5b813561190b81611c9a565b602081018235611d2481611c9a565b63ffffffff16909152919050565b604081018335611d4181611c9a565b63ffffffff168252602090910191909152919050565b600081518084526020808501945080840160005b83811015611d905781516001600160a01b031687529582019590820190600101611d6b565b509495945050505050565b848152608060208201526000611db46080830186611d57565b62ffffff949094166040830152506001600160a01b039190911660609091015292915050565b60a081526000611ded60a0830188611d57565b8281036020840152611dff8188611b39565b6001600160a01b03968716604085015294909516606083015250608001529392505050565b600060408284031215611e3657600080fd5b6040516040810181811067ffffffffffffffff82111715611e5957611e59611912565b6040528251611e6781611959565b81526020830151611e7781611959565b60208201529392505050565b600060208284031215611e9557600080fd5b813561190b81611959565b8035611eab81611959565b6001600160a01b039081168352602082013590611ec782611959565b808216602085015250505050565b604081016103ec8284611ea0565b60608101611ef18285611ea0565b8260408301529392505050565b600060208284031215611f1057600080fd5b8151801515811461190b57600080fd5b6000816000190483118215151615611f3a57611f3a611bfa565b500290565b634e487b7160e01b600052603260045260246000fd5b6000600019821415611f6957611f69611bfa565b5060010190565b600060208284031215611f8257600080fd5b815161190b8161195956fea2646970667358221220c401cdfdb6c7319ff085bf05c218c39e58637c949e8770dc1a817d7c936d100b64736f6c63430008090033",
					"opcodes": "PUSH1 0x80 PUSH1 0x40 MSTORE CALLVALUE DUP1 ISZERO PUSH3 0x11 JUMPI PUSH1 0x0 DUP1 REVERT JUMPDEST POP PUSH1 0x40 MLOAD PUSH3 0x2492 CODESIZE SUB DUP1 PUSH3 0x2492 DUP4 CODECOPY DUP2 ADD PUSH1 0x40 DUP2 SWAP1 MSTORE PUSH3 0x34 SWAP2 PUSH3 0x344 JUMP JUMPDEST DUP2 MLOAD PUSH1 0x40 DUP1 MLOAD DUP1 DUP3 ADD SWAP1 SWAP2 MSTORE PUSH1 0x2 DUP2 MSTORE PUSH2 0x20AD PUSH1 0xF1 SHL PUSH1 0x20 DUP3 ADD MSTORE DUP4 SWAP2 PUSH1 0x1 PUSH1 0x1 PUSH1 0xA0 SHL SUB AND PUSH3 0x83 JUMPI PUSH1 0x40 MLOAD PUSH3 0x461BCD PUSH1 0xE5 SHL DUP2 MSTORE PUSH1 0x4 ADD PUSH3 0x7A SWAP2 SWAP1 PUSH3 0x42A JUMP JUMPDEST PUSH1 0x40 MLOAD DUP1 SWAP2 SUB SWAP1 REVERT JUMPDEST POP PUSH1 0x0 PUSH1 0x1 PUSH1 0x1 PUSH1 0xA0 SHL SUB AND DUP2 PUSH1 0x20 ADD MLOAD PUSH1 0x1 PUSH1 0x1 PUSH1 0xA0 SHL SUB AND EQ ISZERO PUSH1 0x40 MLOAD DUP1 PUSH1 0x40 ADD PUSH1 0x40 MSTORE DUP1 PUSH1 0x2 DUP2 MSTORE PUSH1 0x20 ADD PUSH2 0x20AD PUSH1 0xF1 SHL DUP2 MSTORE POP SWAP1 PUSH3 0xDB JUMPI PUSH1 0x40 MLOAD PUSH3 0x461BCD PUSH1 0xE5 SHL DUP2 MSTORE PUSH1 0x4 ADD PUSH3 0x7A SWAP2 SWAP1 PUSH3 0x42A JUMP JUMPDEST POP PUSH1 0x40 DUP1 DUP3 ADD MLOAD DUP2 MLOAD DUP1 DUP4 ADD SWAP1 SWAP3 MSTORE PUSH1 0x2 DUP3 MSTORE PUSH2 0x20AD PUSH1 0xF1 SHL PUSH1 0x20 DUP4 ADD MSTORE PUSH1 0x1 PUSH1 0x1 PUSH1 0xA0 SHL SUB AND PUSH3 0x122 JUMPI PUSH1 0x40 MLOAD PUSH3 0x461BCD PUSH1 0xE5 SHL DUP2 MSTORE PUSH1 0x4 ADD PUSH3 0x7A SWAP2 SWAP1 PUSH3 0x42A JUMP JUMPDEST POP DUP1 MLOAD PUSH1 0x0 DUP1 SLOAD PUSH1 0x1 PUSH1 0x1 PUSH1 0xA0 SHL SUB NOT SWAP1 DUP2 AND PUSH1 0x1 PUSH1 0x1 PUSH1 0xA0 SHL SUB SWAP4 DUP5 AND OR SWAP1 SWAP2 SSTORE PUSH1 0x20 DUP1 DUP5 ADD MLOAD PUSH1 0x1 DUP1 SLOAD DUP5 AND SWAP2 DUP6 AND SWAP2 SWAP1 SWAP2 OR SWAP1 SSTORE PUSH1 0x40 SWAP4 DUP5 ADD MLOAD PUSH1 0x2 DUP1 SLOAD SWAP1 SWAP4 AND SWAP1 DUP5 AND OR DUP3 SSTORE DUP5 MLOAD DUP5 MLOAD DUP1 DUP7 ADD SWAP1 SWAP6 MSTORE SWAP2 DUP5 MSTORE PUSH2 0x20AD PUSH1 0xF1 SHL SWAP1 DUP5 ADD MSTORE AND PUSH3 0x1A4 JUMPI PUSH1 0x40 MLOAD PUSH3 0x461BCD PUSH1 0xE5 SHL DUP2 MSTORE PUSH1 0x4 ADD PUSH3 0x7A SWAP2 SWAP1 PUSH3 0x42A JUMP JUMPDEST POP PUSH1 0x0 PUSH1 0x1 PUSH1 0x1 PUSH1 0xA0 SHL SUB AND DUP2 PUSH1 0x20 ADD MLOAD PUSH1 0x1 PUSH1 0x1 PUSH1 0xA0 SHL SUB AND EQ ISZERO PUSH1 0x40 MLOAD DUP1 PUSH1 0x40 ADD PUSH1 0x40 MSTORE DUP1 PUSH1 0x2 DUP2 MSTORE PUSH1 0x20 ADD PUSH2 0x20AD PUSH1 0xF1 SHL DUP2 MSTORE POP SWAP1 PUSH3 0x1FC JUMPI PUSH1 0x40 MLOAD PUSH3 0x461BCD PUSH1 0xE5 SHL DUP2 MSTORE PUSH1 0x4 ADD PUSH3 0x7A SWAP2 SWAP1 PUSH3 0x42A JUMP JUMPDEST POP PUSH1 0x40 DUP1 MLOAD DUP3 MLOAD PUSH1 0x1 PUSH1 0x1 PUSH1 0xA0 SHL SUB SWAP1 DUP2 AND PUSH1 0x20 DUP1 DUP5 ADD SWAP2 SWAP1 SWAP2 MSTORE DUP1 DUP6 ADD MLOAD SWAP1 SWAP2 AND DUP3 DUP5 ADD MSTORE DUP3 MLOAD DUP1 DUP4 SUB DUP5 ADD DUP2 MSTORE PUSH1 0x60 SWAP1 SWAP3 ADD SWAP1 SWAP3 MSTORE DUP1 MLOAD PUSH3 0x245 SWAP3 PUSH1 0xD SWAP3 ADD SWAP1 PUSH3 0x24E JUMP JUMPDEST POP POP POP PUSH3 0x4BF JUMP JUMPDEST DUP3 DUP1 SLOAD PUSH3 0x25C SWAP1 PUSH3 0x482 JUMP JUMPDEST SWAP1 PUSH1 0x0 MSTORE PUSH1 0x20 PUSH1 0x0 KECCAK256 SWAP1 PUSH1 0x1F ADD PUSH1 0x20 SWAP1 DIV DUP2 ADD SWAP3 DUP3 PUSH3 0x280 JUMPI PUSH1 0x0 DUP6 SSTORE PUSH3 0x2CB JUMP JUMPDEST DUP3 PUSH1 0x1F LT PUSH3 0x29B JUMPI DUP1 MLOAD PUSH1 0xFF NOT AND DUP4 DUP1 ADD OR DUP6 SSTORE PUSH3 0x2CB JUMP JUMPDEST DUP3 DUP1 ADD PUSH1 0x1 ADD DUP6 SSTORE DUP3 ISZERO PUSH3 0x2CB JUMPI SWAP2 DUP3 ADD JUMPDEST DUP3 DUP2 GT ISZERO PUSH3 0x2CB JUMPI DUP3 MLOAD DUP3 SSTORE SWAP2 PUSH1 0x20 ADD SWAP2 SWAP1 PUSH1 0x1 ADD SWAP1 PUSH3 0x2AE JUMP JUMPDEST POP PUSH3 0x2D9 SWAP3 SWAP2 POP PUSH3 0x2DD JUMP JUMPDEST POP SWAP1 JUMP JUMPDEST JUMPDEST DUP1 DUP3 GT ISZERO PUSH3 0x2D9 JUMPI PUSH1 0x0 DUP2 SSTORE PUSH1 0x1 ADD PUSH3 0x2DE JUMP JUMPDEST PUSH1 0x40 DUP1 MLOAD SWAP1 DUP2 ADD PUSH1 0x1 PUSH1 0x1 PUSH1 0x40 SHL SUB DUP2 GT DUP3 DUP3 LT OR ISZERO PUSH3 0x325 JUMPI PUSH4 0x4E487B71 PUSH1 0xE0 SHL PUSH1 0x0 MSTORE PUSH1 0x41 PUSH1 0x4 MSTORE PUSH1 0x24 PUSH1 0x0 REVERT JUMPDEST PUSH1 0x40 MSTORE SWAP1 JUMP JUMPDEST PUSH1 0x1 PUSH1 0x1 PUSH1 0xA0 SHL SUB DUP2 AND DUP2 EQ PUSH3 0x341 JUMPI PUSH1 0x0 DUP1 REVERT JUMPDEST POP JUMP JUMPDEST PUSH1 0x0 DUP1 DUP3 DUP5 SUB PUSH1 0xA0 DUP2 SLT ISZERO PUSH3 0x359 JUMPI PUSH1 0x0 DUP1 REVERT JUMPDEST PUSH1 0x60 DUP2 SLT ISZERO PUSH3 0x368 JUMPI PUSH1 0x0 DUP1 REVERT JUMPDEST PUSH1 0x40 MLOAD PUSH1 0x60 DUP2 ADD PUSH1 0x1 PUSH1 0x1 PUSH1 0x40 SHL SUB DUP2 GT DUP3 DUP3 LT OR ISZERO PUSH3 0x399 JUMPI PUSH4 0x4E487B71 PUSH1 0xE0 SHL PUSH1 0x0 MSTORE PUSH1 0x41 PUSH1 0x4 MSTORE PUSH1 0x24 PUSH1 0x0 REVERT JUMPDEST PUSH1 0x40 MSTORE DUP5 MLOAD PUSH3 0x3A9 DUP2 PUSH3 0x32B JUMP JUMPDEST DUP2 MSTORE PUSH1 0x20 DUP6 ADD MLOAD PUSH3 0x3BB DUP2 PUSH3 0x32B JUMP JUMPDEST PUSH1 0x20 DUP3 ADD MSTORE PUSH1 0x40 DUP6 ADD MLOAD PUSH3 0x3D0 DUP2 PUSH3 0x32B JUMP JUMPDEST PUSH1 0x40 DUP3 DUP2 ADD SWAP2 SWAP1 SWAP2 MSTORE SWAP1 SWAP4 POP PUSH1 0x5F NOT DUP3 ADD SLT ISZERO PUSH3 0x3ED JUMPI PUSH1 0x0 DUP1 REVERT JUMPDEST POP PUSH3 0x3F8 PUSH3 0x2F4 JUMP JUMPDEST PUSH1 0x60 DUP5 ADD MLOAD PUSH3 0x408 DUP2 PUSH3 0x32B JUMP JUMPDEST DUP2 MSTORE PUSH1 0x80 DUP5 ADD MLOAD PUSH3 0x41A DUP2 PUSH3 0x32B JUMP JUMPDEST PUSH1 0x20 DUP3 ADD MSTORE SWAP2 SWAP5 SWAP2 SWAP4 POP SWAP1 SWAP2 POP POP JUMP JUMPDEST PUSH1 0x0 PUSH1 0x20 DUP1 DUP4 MSTORE DUP4 MLOAD DUP1 DUP3 DUP6 ADD MSTORE PUSH1 0x0 JUMPDEST DUP2 DUP2 LT ISZERO PUSH3 0x459 JUMPI DUP6 DUP2 ADD DUP4 ADD MLOAD DUP6 DUP3 ADD PUSH1 0x40 ADD MSTORE DUP3 ADD PUSH3 0x43B JUMP JUMPDEST DUP2 DUP2 GT ISZERO PUSH3 0x46C JUMPI PUSH1 0x0 PUSH1 0x40 DUP4 DUP8 ADD ADD MSTORE JUMPDEST POP PUSH1 0x1F ADD PUSH1 0x1F NOT AND SWAP3 SWAP1 SWAP3 ADD PUSH1 0x40 ADD SWAP4 SWAP3 POP POP POP JUMP JUMPDEST PUSH1 0x1 DUP2 DUP2 SHR SWAP1 DUP3 AND DUP1 PUSH3 0x497 JUMPI PUSH1 0x7F DUP3 AND SWAP2 POP JUMPDEST PUSH1 0x20 DUP3 LT DUP2 EQ ISZERO PUSH3 0x4B9 JUMPI PUSH4 0x4E487B71 PUSH1 0xE0 SHL PUSH1 0x0 MSTORE PUSH1 0x22 PUSH1 0x4 MSTORE PUSH1 0x24 PUSH1 0x0 REVERT JUMPDEST POP SWAP2 SWAP1 POP JUMP JUMPDEST PUSH2 0x1FC3 DUP1 PUSH3 0x4CF PUSH1 0x0 CODECOPY PUSH1 0x0 RETURN INVALID PUSH1 0x80 PUSH1 0x40 MSTORE CALLVALUE DUP1 ISZERO PUSH2 0x10 JUMPI PUSH1 0x0 DUP1 REVERT JUMPDEST POP PUSH1 0x4 CALLDATASIZE LT PUSH2 0x142 JUMPI PUSH1 0x0 CALLDATALOAD PUSH1 0xE0 SHR DUP1 PUSH4 0x75D0C0DC GT PUSH2 0xB8 JUMPI DUP1 PUSH4 0xA0A8E460 GT PUSH2 0x7C JUMPI DUP1 PUSH4 0xA0A8E460 EQ PUSH2 0x364 JUMPI DUP1 PUSH4 0xB2FE31AD EQ PUSH2 0x36C JUMPI DUP1 PUSH4 0xC2CBDC67 EQ PUSH2 0x37F JUMPI DUP1 PUSH4 0xD34CC380 EQ PUSH2 0x3AE JUMPI DUP1 PUSH4 0xD4A07D34 EQ PUSH2 0x3B6 JUMPI DUP1 PUSH4 0xE4AF6E79 EQ PUSH2 0x3BE JUMPI PUSH1 0x0 DUP1 REVERT JUMPDEST DUP1 PUSH4 0x75D0C0DC EQ PUSH2 0x281 JUMPI DUP1 PUSH4 0x7AC46FBB EQ PUSH2 0x296 JUMPI DUP1 PUSH4 0x86C6BE3E EQ PUSH2 0x2F6 JUMPI DUP1 PUSH4 0x8860D248 EQ PUSH2 0x349 JUMPI DUP1 PUSH4 0x98347A5D EQ PUSH2 0x35C JUMPI PUSH1 0x0 DUP1 REVERT JUMPDEST DUP1 PUSH4 0x1C7F4C73 GT PUSH2 0x10A JUMPI DUP1 PUSH4 0x1C7F4C73 EQ PUSH2 0x1CC JUMPI DUP1 PUSH4 0x25281714 EQ PUSH2 0x1D4 JUMPI DUP1 PUSH4 0x511CE798 EQ PUSH2 0x1E7 JUMPI DUP1 PUSH4 0x59F3DAE7 EQ PUSH2 0x207 JUMPI DUP1 PUSH4 0x66C153E9 EQ PUSH2 0x22F JUMPI DUP1 PUSH4 0x6707ACEE EQ PUSH2 0x261 JUMPI PUSH1 0x0 DUP1 REVERT JUMPDEST DUP1 PUSH4 0x1FFC9A7 EQ PUSH2 0x147 JUMPI DUP1 PUSH4 0x6A46239 EQ PUSH2 0x16F JUMPI DUP1 PUSH4 0x9946538 EQ PUSH2 0x187 JUMPI DUP1 PUSH4 0xBDEDD56 EQ PUSH2 0x19C JUMPI DUP1 PUSH4 0xE3E80AC EQ PUSH2 0x1AF JUMPI JUMPDEST PUSH1 0x0 DUP1 REVERT JUMPDEST PUSH2 0x15A PUSH2 0x155 CALLDATASIZE PUSH1 0x4 PUSH2 0x18E1 JUMP JUMPDEST PUSH2 0x3C6 JUMP JUMPDEST PUSH1 0x40 MLOAD SWAP1 ISZERO ISZERO DUP2 MSTORE PUSH1 0x20 ADD JUMPDEST PUSH1 0x40 MLOAD DUP1 SWAP2 SUB SWAP1 RETURN JUMPDEST PUSH5 0x312E312E3 PUSH1 0xDC SHL JUMPDEST PUSH1 0x40 MLOAD SWAP1 DUP2 MSTORE PUSH1 0x20 ADD PUSH2 0x166 JUMP JUMPDEST PUSH2 0x19A PUSH2 0x195 CALLDATASIZE PUSH1 0x4 PUSH2 0x196E JUMP JUMPDEST PUSH2 0x3F7 JUMP JUMPDEST STOP JUMPDEST PUSH2 0x19A PUSH2 0x1AA CALLDATASIZE PUSH1 0x4 PUSH2 0x19E0 JUMP JUMPDEST PUSH2 0x5E9 JUMP JUMPDEST PUSH20 0x556E6956335661756C74476F7665726E616E6365 PUSH1 0x60 SHL PUSH2 0x179 JUMP JUMPDEST PUSH1 0x6 SLOAD PUSH2 0x179 JUMP JUMPDEST PUSH2 0x19A PUSH2 0x1E2 CALLDATASIZE PUSH1 0x4 PUSH2 0x19F9 JUMP JUMPDEST PUSH2 0x6DF JUMP JUMPDEST PUSH2 0x179 PUSH2 0x1F5 CALLDATASIZE PUSH1 0x4 PUSH2 0x19E0 JUMP JUMPDEST PUSH1 0x0 SWAP1 DUP2 MSTORE PUSH1 0xC PUSH1 0x20 MSTORE PUSH1 0x40 SWAP1 KECCAK256 SLOAD SWAP1 JUMP JUMPDEST PUSH2 0x21A PUSH2 0x215 CALLDATASIZE PUSH1 0x4 PUSH2 0x19E0 JUMP JUMPDEST PUSH2 0x7AC JUMP JUMPDEST PUSH1 0x40 MLOAD SWAP1 MLOAD PUSH4 0xFFFFFFFF AND DUP2 MSTORE PUSH1 0x20 ADD PUSH2 0x166 JUMP JUMPDEST PUSH2 0x242 PUSH2 0x23D CALLDATASIZE PUSH1 0x4 PUSH2 0x1A54 JUMP JUMPDEST PUSH2 0x89A JUMP JUMPDEST PUSH1 0x40 DUP1 MLOAD PUSH1 0x1 PUSH1 0x1 PUSH1 0xA0 SHL SUB SWAP1 SWAP4 AND DUP4 MSTORE PUSH1 0x20 DUP4 ADD SWAP2 SWAP1 SWAP2 MSTORE ADD PUSH2 0x166 JUMP JUMPDEST PUSH2 0x179 PUSH2 0x26F CALLDATASIZE PUSH1 0x4 PUSH2 0x19E0 JUMP JUMPDEST PUSH1 0x0 SWAP1 DUP2 MSTORE PUSH1 0x9 PUSH1 0x20 MSTORE PUSH1 0x40 SWAP1 KECCAK256 SLOAD SWAP1 JUMP JUMPDEST PUSH2 0x289 PUSH2 0x97F JUMP JUMPDEST PUSH1 0x40 MLOAD PUSH2 0x166 SWAP2 SWAP1 PUSH2 0x1B86 JUMP JUMPDEST PUSH2 0x2E9 PUSH1 0x40 DUP1 MLOAD PUSH1 0x60 DUP2 ADD DUP3 MSTORE PUSH1 0x0 DUP1 DUP3 MSTORE PUSH1 0x20 DUP3 ADD DUP2 SWAP1 MSTORE SWAP2 DUP2 ADD SWAP2 SWAP1 SWAP2 MSTORE POP PUSH1 0x40 DUP1 MLOAD PUSH1 0x60 DUP2 ADD DUP3 MSTORE PUSH1 0x0 SLOAD PUSH1 0x1 PUSH1 0x1 PUSH1 0xA0 SHL SUB SWAP1 DUP2 AND DUP3 MSTORE PUSH1 0x1 SLOAD DUP2 AND PUSH1 0x20 DUP4 ADD MSTORE PUSH1 0x2 SLOAD AND SWAP2 DUP2 ADD SWAP2 SWAP1 SWAP2 MSTORE SWAP1 JUMP JUMPDEST PUSH1 0x40 MLOAD PUSH2 0x166 SWAP2 SWAP1 PUSH2 0x1B99 JUMP JUMPDEST PUSH2 0x2E9 PUSH1 0x40 DUP1 MLOAD PUSH1 0x60 DUP2 ADD DUP3 MSTORE PUSH1 0x0 DUP1 DUP3 MSTORE PUSH1 0x20 DUP3 ADD DUP2 SWAP1 MSTORE SWAP2 DUP2 ADD SWAP2 SWAP1 SWAP2 MSTORE POP PUSH1 0x40 DUP1 MLOAD PUSH1 0x60 DUP2 ADD DUP3 MSTORE PUSH1 0x3 SLOAD PUSH1 0x1 PUSH1 0x1 PUSH1 0xA0 SHL SUB SWAP1 DUP2 AND DUP3 MSTORE PUSH1 0x4 SLOAD DUP2 AND PUSH1 0x20 DUP4 ADD MSTORE PUSH1 0x5 SLOAD AND SWAP2 DUP2 ADD SWAP2 SWAP1 SWAP2 MSTORE SWAP1 JUMP JUMPDEST PUSH2 0x21A PUSH2 0x357 CALLDATASIZE PUSH1 0x4 PUSH2 0x19E0 JUMP JUMPDEST PUSH2 0x9A1 JUMP JUMPDEST PUSH2 0x19A PUSH2 0x9FE JUMP JUMPDEST PUSH2 0x289 PUSH2 0xB06 JUMP JUMPDEST PUSH2 0x19A PUSH2 0x37A CALLDATASIZE PUSH1 0x4 PUSH2 0x1BC9 JUMP JUMPDEST PUSH2 0xB19 JUMP JUMPDEST PUSH2 0x387 PUSH2 0xC24 JUMP JUMPDEST PUSH1 0x40 DUP1 MLOAD DUP3 MLOAD PUSH1 0x1 PUSH1 0x1 PUSH1 0xA0 SHL SUB SWAP1 DUP2 AND DUP3 MSTORE PUSH1 0x20 SWAP4 DUP5 ADD MLOAD AND SWAP3 DUP2 ADD SWAP3 SWAP1 SWAP3 MSTORE ADD PUSH2 0x166 JUMP JUMPDEST PUSH2 0x387 PUSH2 0xD03 JUMP JUMPDEST PUSH2 0x19A PUSH2 0xD24 JUMP JUMPDEST PUSH1 0xF SLOAD PUSH2 0x179 JUMP JUMPDEST PUSH1 0x0 PUSH2 0x3D1 DUP3 PUSH2 0xE49 JUMP JUMPDEST DUP1 PUSH2 0x3EC JUMPI POP PUSH4 0xA2E9C513 PUSH1 0xE0 SHL PUSH1 0x1 PUSH1 0x1 PUSH1 0xE0 SHL SUB NOT DUP4 AND EQ JUMPDEST SWAP3 SWAP2 POP POP JUMP JUMPDEST SWAP1 POP SWAP1 JUMP JUMPDEST PUSH2 0x3FF PUSH2 0xE7F JUMP JUMPDEST DUP1 MLOAD PUSH1 0x40 DUP1 MLOAD DUP1 DUP3 ADD SWAP1 SWAP2 MSTORE PUSH1 0x2 DUP2 MSTORE PUSH2 0x20AD PUSH1 0xF1 SHL PUSH1 0x20 DUP3 ADD MSTORE SWAP1 PUSH1 0x1 PUSH1 0x1 PUSH1 0xA0 SHL SUB AND PUSH2 0x44A JUMPI PUSH1 0x40 MLOAD PUSH3 0x461BCD PUSH1 0xE5 SHL DUP2 MSTORE PUSH1 0x4 ADD PUSH2 0x441 SWAP2 SWAP1 PUSH2 0x1B86 JUMP JUMPDEST PUSH1 0x40 MLOAD DUP1 SWAP2 SUB SWAP1 REVERT JUMPDEST POP PUSH1 0x0 PUSH1 0x1 PUSH1 0x1 PUSH1 0xA0 SHL SUB AND DUP2 PUSH1 0x20 ADD MLOAD PUSH1 0x1 PUSH1 0x1 PUSH1 0xA0 SHL SUB AND EQ ISZERO PUSH1 0x40 MLOAD DUP1 PUSH1 0x40 ADD PUSH1 0x40 MSTORE DUP1 PUSH1 0x2 DUP2 MSTORE PUSH1 0x20 ADD PUSH2 0x20AD PUSH1 0xF1 SHL DUP2 MSTORE POP SWAP1 PUSH2 0x49F JUMPI PUSH1 0x40 MLOAD PUSH3 0x461BCD PUSH1 0xE5 SHL DUP2 MSTORE PUSH1 0x4 ADD PUSH2 0x441 SWAP2 SWAP1 PUSH2 0x1B86 JUMP JUMPDEST POP PUSH1 0x40 DUP1 DUP3 ADD MLOAD DUP2 MLOAD DUP1 DUP4 ADD SWAP1 SWAP3 MSTORE PUSH1 0x2 DUP3 MSTORE PUSH2 0x20AD PUSH1 0xF1 SHL PUSH1 0x20 DUP4 ADD MSTORE PUSH1 0x1 PUSH1 0x1 PUSH1 0xA0 SHL SUB AND PUSH2 0x4E3 JUMPI PUSH1 0x40 MLOAD PUSH3 0x461BCD PUSH1 0xE5 SHL DUP2 MSTORE PUSH1 0x4 ADD PUSH2 0x441 SWAP2 SWAP1 PUSH2 0x1B86 JUMP JUMPDEST POP DUP1 MLOAD PUSH1 0x3 DUP1 SLOAD PUSH1 0x1 PUSH1 0x1 PUSH1 0xA0 SHL SUB NOT SWAP1 DUP2 AND PUSH1 0x1 PUSH1 0x1 PUSH1 0xA0 SHL SUB SWAP4 DUP5 AND OR SWAP1 SWAP2 SSTORE PUSH1 0x20 DUP1 DUP5 ADD MLOAD PUSH1 0x4 DUP1 SLOAD DUP5 AND SWAP2 DUP6 AND SWAP2 SWAP1 SWAP2 OR DUP2 SSTORE PUSH1 0x40 DUP1 DUP7 ADD MLOAD PUSH1 0x5 DUP1 SLOAD SWAP1 SWAP6 AND SWAP1 DUP7 AND OR SWAP1 SWAP4 SSTORE PUSH1 0x0 SLOAD DUP4 MLOAD PUSH4 0xBBA32939 PUSH1 0xE0 SHL DUP2 MSTORE SWAP4 MLOAD SWAP5 AND SWAP4 PUSH4 0xBBA32939 SWAP4 DUP1 DUP4 ADD SWAP4 SWAP3 SWAP1 DUP3 SWAP1 SUB ADD DUP2 DUP7 DUP1 EXTCODESIZE ISZERO DUP1 ISZERO PUSH2 0x562 JUMPI PUSH1 0x0 DUP1 REVERT JUMPDEST POP GAS STATICCALL ISZERO DUP1 ISZERO PUSH2 0x576 JUMPI RETURNDATASIZE PUSH1 0x0 DUP1 RETURNDATACOPY RETURNDATASIZE PUSH1 0x0 REVERT JUMPDEST POP POP POP POP PUSH1 0x40 MLOAD RETURNDATASIZE PUSH1 0x1F NOT PUSH1 0x1F DUP3 ADD AND DUP3 ADD DUP1 PUSH1 0x40 MSTORE POP DUP2 ADD SWAP1 PUSH2 0x59A SWAP2 SWAP1 PUSH2 0x1BE1 JUMP JUMPDEST PUSH2 0x5A4 SWAP1 TIMESTAMP PUSH2 0x1C10 JUMP JUMPDEST PUSH1 0x6 DUP2 SWAP1 SSTORE PUSH1 0x40 MLOAD CALLER SWAP2 ORIGIN SWAP2 PUSH32 0x887CAB3184F7C02B16978AB31F8ACEE05979F59FC3DA6ABE5BF71105EC3179D SWAP2 PUSH2 0x5DE SWAP2 DUP7 SWAP2 SWAP1 PUSH2 0x1C28 JUMP JUMPDEST PUSH1 0x40 MLOAD DUP1 SWAP2 SUB SWAP1 LOG3 POP JUMP JUMPDEST PUSH2 0x5F2 DUP2 PUSH2 0xF37 JUMP JUMPDEST PUSH1 0x0 DUP2 DUP2 MSTORE PUSH1 0x7 PUSH1 0x20 MSTORE PUSH1 0x40 SWAP1 KECCAK256 DUP1 SLOAD DUP3 SWAP2 CALLER SWAP2 ORIGIN SWAP2 PUSH32 0xA363920F84C4A3E8F1FBB02A2F8B5F0D7438886CB05A7D98882AF9BD66D16426 SWAP2 PUSH2 0x633 SWAP1 PUSH2 0x1C65 JUMP JUMPDEST DUP1 PUSH1 0x1F ADD PUSH1 0x20 DUP1 SWAP2 DIV MUL PUSH1 0x20 ADD PUSH1 0x40 MLOAD SWAP1 DUP2 ADD PUSH1 0x40 MSTORE DUP1 SWAP3 SWAP2 SWAP1 DUP2 DUP2 MSTORE PUSH1 0x20 ADD DUP3 DUP1 SLOAD PUSH2 0x65F SWAP1 PUSH2 0x1C65 JUMP JUMPDEST DUP1 ISZERO PUSH2 0x6AC JUMPI DUP1 PUSH1 0x1F LT PUSH2 0x681 JUMPI PUSH2 0x100 DUP1 DUP4 SLOAD DIV MUL DUP4 MSTORE SWAP2 PUSH1 0x20 ADD SWAP2 PUSH2 0x6AC JUMP JUMPDEST DUP3 ADD SWAP2 SWAP1 PUSH1 0x0 MSTORE PUSH1 0x20 PUSH1 0x0 KECCAK256 SWAP1 JUMPDEST DUP2 SLOAD DUP2 MSTORE SWAP1 PUSH1 0x1 ADD SWAP1 PUSH1 0x20 ADD DUP1 DUP4 GT PUSH2 0x68F JUMPI DUP3 SWAP1 SUB PUSH1 0x1F AND DUP3 ADD SWAP2 JUMPDEST POP POP POP POP POP DUP1 PUSH1 0x20 ADD SWAP1 MLOAD DUP2 ADD SWAP1 PUSH2 0x6C4 SWAP2 SWAP1 PUSH2 0x1CAC JUMP JUMPDEST PUSH1 0x40 MLOAD SWAP1 MLOAD PUSH4 0xFFFFFFFF AND DUP2 MSTORE PUSH1 0x20 ADD PUSH1 0x40 MLOAD DUP1 SWAP2 SUB SWAP1 LOG4 POP JUMP JUMPDEST PUSH1 0x1 PUSH2 0x6EE PUSH1 0x20 DUP4 ADD DUP4 PUSH2 0x1CF8 JUMP JUMPDEST PUSH4 0xFFFFFFFF AND GT PUSH1 0x40 MLOAD DUP1 PUSH1 0x40 ADD PUSH1 0x40 MSTORE DUP1 PUSH1 0x4 DUP2 MSTORE PUSH1 0x20 ADD PUSH4 0x4C494D55 PUSH1 0xE0 SHL DUP2 MSTORE POP SWAP1 PUSH2 0x730 JUMPI PUSH1 0x40 MLOAD PUSH3 0x461BCD PUSH1 0xE5 SHL DUP2 MSTORE PUSH1 0x4 ADD PUSH2 0x441 SWAP2 SWAP1 PUSH2 0x1B86 JUMP JUMPDEST POP PUSH2 0x75A DUP3 DUP3 PUSH1 0x40 MLOAD PUSH1 0x20 ADD PUSH2 0x746 SWAP2 SWAP1 PUSH2 0x1D15 JUMP JUMPDEST PUSH1 0x40 MLOAD PUSH1 0x20 DUP2 DUP4 SUB SUB DUP2 MSTORE SWAP1 PUSH1 0x40 MSTORE PUSH2 0x1028 JUMP JUMPDEST PUSH1 0x0 DUP3 DUP2 MSTORE PUSH1 0x9 PUSH1 0x20 MSTORE PUSH1 0x40 SWAP1 DUP2 SWAP1 KECCAK256 SLOAD SWAP1 MLOAD DUP4 SWAP2 CALLER SWAP2 ORIGIN SWAP2 PUSH32 0x4CCEB02B6B172E9C19155FCCC4D799437A0D50AD922EA9F0F41B1CB3A17B12E8 SWAP2 PUSH2 0x7A0 SWAP2 DUP8 SWAP2 PUSH2 0x1D32 JUMP JUMPDEST PUSH1 0x40 MLOAD DUP1 SWAP2 SUB SWAP1 LOG4 POP POP JUMP JUMPDEST PUSH1 0x40 DUP1 MLOAD PUSH1 0x20 DUP2 ADD SWAP1 SWAP2 MSTORE PUSH1 0x0 DUP2 MSTORE PUSH1 0x0 DUP3 DUP2 MSTORE PUSH1 0x8 PUSH1 0x20 MSTORE PUSH1 0x40 SWAP1 KECCAK256 DUP1 SLOAD PUSH2 0x7D4 SWAP1 PUSH2 0x1C65 JUMP JUMPDEST ISZERO ISZERO SWAP1 POP PUSH2 0x7F0 JUMPI POP POP PUSH1 0x40 DUP1 MLOAD PUSH1 0x20 DUP2 ADD SWAP1 SWAP2 MSTORE PUSH1 0x0 DUP2 MSTORE SWAP1 JUMP JUMPDEST PUSH1 0x0 DUP3 DUP2 MSTORE PUSH1 0x8 PUSH1 0x20 MSTORE PUSH1 0x40 SWAP1 KECCAK256 DUP1 SLOAD PUSH2 0x809 SWAP1 PUSH2 0x1C65 JUMP JUMPDEST DUP1 PUSH1 0x1F ADD PUSH1 0x20 DUP1 SWAP2 DIV MUL PUSH1 0x20 ADD PUSH1 0x40 MLOAD SWAP1 DUP2 ADD PUSH1 0x40 MSTORE DUP1 SWAP3 SWAP2 SWAP1 DUP2 DUP2 MSTORE PUSH1 0x20 ADD DUP3 DUP1 SLOAD PUSH2 0x835 SWAP1 PUSH2 0x1C65 JUMP JUMPDEST DUP1 ISZERO PUSH2 0x882 JUMPI DUP1 PUSH1 0x1F LT PUSH2 0x857 JUMPI PUSH2 0x100 DUP1 DUP4 SLOAD DIV MUL DUP4 MSTORE SWAP2 PUSH1 0x20 ADD SWAP2 PUSH2 0x882 JUMP JUMPDEST DUP3 ADD SWAP2 SWAP1 PUSH1 0x0 MSTORE PUSH1 0x20 PUSH1 0x0 KECCAK256 SWAP1 JUMPDEST DUP2 SLOAD DUP2 MSTORE SWAP1 PUSH1 0x1 ADD SWAP1 PUSH1 0x20 ADD DUP1 DUP4 GT PUSH2 0x865 JUMPI DUP3 SWAP1 SUB PUSH1 0x1F AND DUP3 ADD SWAP2 JUMPDEST POP POP POP POP POP DUP1 PUSH1 0x20 ADD SWAP1 MLOAD DUP2 ADD SWAP1 PUSH2 0x3EC SWAP2 SWAP1 PUSH2 0x1CAC JUMP JUMPDEST PUSH1 0x0 DUP1 PUSH1 0x0 PUSH2 0x8A8 DUP7 PUSH2 0x1134 JUMP JUMPDEST PUSH1 0x40 MLOAD PUSH4 0x1912128B PUSH1 0xE0 SHL DUP2 MSTORE SWAP2 SWAP5 POP SWAP3 POP DUP4 SWAP2 POP PUSH1 0x1 PUSH1 0x1 PUSH1 0xA0 SHL SUB DUP3 AND SWAP1 PUSH4 0x1912128B SWAP1 PUSH2 0x8E2 SWAP1 DUP6 SWAP1 DUP12 SWAP1 DUP11 SWAP1 DUP11 SWAP1 PUSH1 0x4 ADD PUSH2 0x1D9B JUMP JUMPDEST PUSH1 0x0 PUSH1 0x40 MLOAD DUP1 DUP4 SUB DUP2 PUSH1 0x0 DUP8 DUP1 EXTCODESIZE ISZERO DUP1 ISZERO PUSH2 0x8FC JUMPI PUSH1 0x0 DUP1 REVERT JUMPDEST POP GAS CALL ISZERO DUP1 ISZERO PUSH2 0x910 JUMPI RETURNDATASIZE PUSH1 0x0 DUP1 RETURNDATACOPY RETURNDATASIZE PUSH1 0x0 REVERT JUMPDEST POP POP PUSH1 0x40 DUP1 MLOAD PUSH3 0xFFFFFF DUP10 AND PUSH1 0x20 DUP3 ADD MSTORE CALLER SWAP4 POP ORIGIN SWAP3 POP PUSH32 0x8A4513C05D15DF8ECE912856923273E166E39F5C9C2B43D2B38594023494A0E0 SWAP2 DUP12 SWAP2 ADD PUSH1 0x40 DUP1 MLOAD PUSH1 0x1F NOT DUP2 DUP5 SUB ADD DUP2 MSTORE SWAP1 DUP3 SWAP1 MSTORE PUSH2 0x96D SWAP3 SWAP2 DUP13 SWAP1 DUP9 SWAP1 DUP11 SWAP1 PUSH2 0x1DDA JUMP JUMPDEST PUSH1 0x40 MLOAD DUP1 SWAP2 SUB SWAP1 LOG3 POP SWAP5 POP SWAP5 SWAP3 POP POP POP JUMP JUMPDEST PUSH1 0x60 PUSH2 0x3F2 PUSH20 0x556E6956335661756C74476F7665726E616E6365 PUSH1 0x60 SHL PUSH2 0x1325 JUMP JUMPDEST PUSH1 0x40 DUP1 MLOAD PUSH1 0x20 DUP2 ADD SWAP1 SWAP2 MSTORE PUSH1 0x0 DUP2 MSTORE PUSH1 0x0 DUP3 DUP2 MSTORE PUSH1 0x7 PUSH1 0x20 MSTORE PUSH1 0x40 SWAP1 KECCAK256 DUP1 SLOAD PUSH2 0x9C9 SWAP1 PUSH2 0x1C65 JUMP JUMPDEST ISZERO ISZERO SWAP1 POP PUSH2 0x9E5 JUMPI POP POP PUSH1 0x40 DUP1 MLOAD PUSH1 0x20 DUP2 ADD SWAP1 SWAP2 MSTORE PUSH1 0x2A DUP2 MSTORE SWAP1 JUMP JUMPDEST PUSH1 0x0 DUP3 DUP2 MSTORE PUSH1 0x7 PUSH1 0x20 MSTORE PUSH1 0x40 SWAP1 KECCAK256 DUP1 SLOAD PUSH2 0x809 SWAP1 PUSH2 0x1C65 JUMP JUMPDEST PUSH2 0xA06 PUSH2 0x1391 JUMP JUMPDEST CALLER PUSH1 0x1 PUSH1 0x1 PUSH1 0xA0 SHL SUB AND ORIGIN PUSH1 0x1 PUSH1 0x1 PUSH1 0xA0 SHL SUB AND PUSH32 0xB57A42E9F64DFC9C6B9E412EA001A45C0E4D3F26C8D160381A418FF92269D052 PUSH1 0xD DUP1 SLOAD PUSH2 0xA48 SWAP1 PUSH2 0x1C65 JUMP JUMPDEST DUP1 PUSH1 0x1F ADD PUSH1 0x20 DUP1 SWAP2 DIV MUL PUSH1 0x20 ADD PUSH1 0x40 MLOAD SWAP1 DUP2 ADD PUSH1 0x40 MSTORE DUP1 SWAP3 SWAP2 SWAP1 DUP2 DUP2 MSTORE PUSH1 0x20 ADD DUP3 DUP1 SLOAD PUSH2 0xA74 SWAP1 PUSH2 0x1C65 JUMP JUMPDEST DUP1 ISZERO PUSH2 0xAC1 JUMPI DUP1 PUSH1 0x1F LT PUSH2 0xA96 JUMPI PUSH2 0x100 DUP1 DUP4 SLOAD DIV MUL DUP4 MSTORE SWAP2 PUSH1 0x20 ADD SWAP2 PUSH2 0xAC1 JUMP JUMPDEST DUP3 ADD SWAP2 SWAP1 PUSH1 0x0 MSTORE PUSH1 0x20 PUSH1 0x0 KECCAK256 SWAP1 JUMPDEST DUP2 SLOAD DUP2 MSTORE SWAP1 PUSH1 0x1 ADD SWAP1 PUSH1 0x20 ADD DUP1 DUP4 GT PUSH2 0xAA4 JUMPI DUP3 SWAP1 SUB PUSH1 0x1F AND DUP3 ADD SWAP2 JUMPDEST POP POP POP POP POP DUP1 PUSH1 0x20 ADD SWAP1 MLOAD DUP2 ADD SWAP1 PUSH2 0xAD9 SWAP2 SWAP1 PUSH2 0x1E24 JUMP JUMPDEST PUSH1 0x40 DUP1 MLOAD DUP3 MLOAD PUSH1 0x1 PUSH1 0x1 PUSH1 0xA0 SHL SUB SWAP1 DUP2 AND DUP3 MSTORE PUSH1 0x20 SWAP4 DUP5 ADD MLOAD AND SWAP3 DUP2 ADD SWAP3 SWAP1 SWAP3 MSTORE ADD JUMPDEST PUSH1 0x40 MLOAD DUP1 SWAP2 SUB SWAP1 LOG3 JUMP JUMPDEST PUSH1 0x60 PUSH2 0x3F2 PUSH5 0x312E312E3 PUSH1 0xDC SHL PUSH2 0x1325 JUMP JUMPDEST PUSH1 0x0 PUSH2 0xB28 PUSH1 0x20 DUP4 ADD DUP4 PUSH2 0x1E83 JUMP JUMPDEST PUSH1 0x1 PUSH1 0x1 PUSH1 0xA0 SHL SUB AND EQ ISZERO PUSH1 0x40 MLOAD DUP1 PUSH1 0x40 ADD PUSH1 0x40 MSTORE DUP1 PUSH1 0x2 DUP2 MSTORE PUSH1 0x20 ADD PUSH2 0x20AD PUSH1 0xF1 SHL DUP2 MSTORE POP SWAP1 PUSH2 0xB6C JUMPI PUSH1 0x40 MLOAD PUSH3 0x461BCD PUSH1 0xE5 SHL DUP2 MSTORE PUSH1 0x4 ADD PUSH2 0x441 SWAP2 SWAP1 PUSH2 0x1B86 JUMP JUMPDEST POP PUSH1 0x0 PUSH2 0xB7F PUSH1 0x40 DUP4 ADD PUSH1 0x20 DUP5 ADD PUSH2 0x1E83 JUMP JUMPDEST PUSH1 0x1 PUSH1 0x1 PUSH1 0xA0 SHL SUB AND EQ ISZERO PUSH1 0x40 MLOAD DUP1 PUSH1 0x40 ADD PUSH1 0x40 MSTORE DUP1 PUSH1 0x2 DUP2 MSTORE PUSH1 0x20 ADD PUSH2 0x20AD PUSH1 0xF1 SHL DUP2 MSTORE POP SWAP1 PUSH2 0xBC3 JUMPI PUSH1 0x40 MLOAD PUSH3 0x461BCD PUSH1 0xE5 SHL DUP2 MSTORE PUSH1 0x4 ADD PUSH2 0x441 SWAP2 SWAP1 PUSH2 0x1B86 JUMP JUMPDEST POP PUSH2 0xBEC DUP2 PUSH1 0x40 MLOAD PUSH1 0x20 ADD PUSH2 0xBD8 SWAP2 SWAP1 PUSH2 0x1ED5 JUMP JUMPDEST PUSH1 0x40 MLOAD PUSH1 0x20 DUP2 DUP4 SUB SUB DUP2 MSTORE SWAP1 PUSH1 0x40 MSTORE PUSH2 0x1445 JUMP JUMPDEST PUSH1 0xF SLOAD PUSH1 0x40 MLOAD CALLER SWAP2 ORIGIN SWAP2 PUSH32 0x88E619A5DCE560314FDD4895B08C256978617047A99FFC847D45400DF1F377A7 SWAP2 PUSH2 0x5DE SWAP2 DUP7 SWAP2 SWAP1 PUSH2 0x1EE3 JUMP JUMPDEST PUSH1 0x40 DUP1 MLOAD DUP1 DUP3 ADD SWAP1 SWAP2 MSTORE PUSH1 0x0 DUP1 DUP3 MSTORE PUSH1 0x20 DUP3 ADD MSTORE PUSH1 0xE DUP1 SLOAD PUSH2 0xC45 SWAP1 PUSH2 0x1C65 JUMP JUMPDEST ISZERO ISZERO SWAP1 POP PUSH2 0xC65 JUMPI POP PUSH1 0x40 DUP1 MLOAD DUP1 DUP3 ADD SWAP1 SWAP2 MSTORE PUSH1 0x0 DUP1 DUP3 MSTORE PUSH1 0x20 DUP3 ADD MSTORE SWAP1 JUMP JUMPDEST PUSH1 0xE DUP1 SLOAD PUSH2 0xC72 SWAP1 PUSH2 0x1C65 JUMP JUMPDEST DUP1 PUSH1 0x1F ADD PUSH1 0x20 DUP1 SWAP2 DIV MUL PUSH1 0x20 ADD PUSH1 0x40 MLOAD SWAP1 DUP2 ADD PUSH1 0x40 MSTORE DUP1 SWAP3 SWAP2 SWAP1 DUP2 DUP2 MSTORE PUSH1 0x20 ADD DUP3 DUP1 SLOAD PUSH2 0xC9E SWAP1 PUSH2 0x1C65 JUMP JUMPDEST DUP1 ISZERO PUSH2 0xCEB JUMPI DUP1 PUSH1 0x1F LT PUSH2 0xCC0 JUMPI PUSH2 0x100 DUP1 DUP4 SLOAD DIV MUL DUP4 MSTORE SWAP2 PUSH1 0x20 ADD SWAP2 PUSH2 0xCEB JUMP JUMPDEST DUP3 ADD SWAP2 SWAP1 PUSH1 0x0 MSTORE PUSH1 0x20 PUSH1 0x0 KECCAK256 SWAP1 JUMPDEST DUP2 SLOAD DUP2 MSTORE SWAP1 PUSH1 0x1 ADD SWAP1 PUSH1 0x20 ADD DUP1 DUP4 GT PUSH2 0xCCE JUMPI DUP3 SWAP1 SUB PUSH1 0x1F AND DUP3 ADD SWAP2 JUMPDEST POP POP POP POP POP DUP1 PUSH1 0x20 ADD SWAP1 MLOAD DUP2 ADD SWAP1 PUSH2 0x3F2 SWAP2 SWAP1 PUSH2 0x1E24 JUMP JUMPDEST PUSH1 0x40 DUP1 MLOAD DUP1 DUP3 ADD SWAP1 SWAP2 MSTORE PUSH1 0x0 DUP1 DUP3 MSTORE PUSH1 0x20 DUP3 ADD MSTORE PUSH1 0xD DUP1 SLOAD PUSH2 0xC72 SWAP1 PUSH2 0x1C65 JUMP JUMPDEST PUSH2 0xD2C PUSH2 0xE7F JUMP JUMPDEST PUSH1 0x6 SLOAD PUSH1 0x40 DUP1 MLOAD DUP1 DUP3 ADD SWAP1 SWAP2 MSTORE PUSH1 0x4 DUP2 MSTORE PUSH4 0x13955313 PUSH1 0xE2 SHL PUSH1 0x20 DUP3 ADD MSTORE SWAP1 PUSH2 0xD68 JUMPI PUSH1 0x40 MLOAD PUSH3 0x461BCD PUSH1 0xE5 SHL DUP2 MSTORE PUSH1 0x4 ADD PUSH2 0x441 SWAP2 SWAP1 PUSH2 0x1B86 JUMP JUMPDEST POP PUSH1 0x6 SLOAD TIMESTAMP LT ISZERO PUSH1 0x40 MLOAD DUP1 PUSH1 0x40 ADD PUSH1 0x40 MSTORE DUP1 PUSH1 0x2 DUP2 MSTORE PUSH1 0x20 ADD PUSH2 0x5453 PUSH1 0xF0 SHL DUP2 MSTORE POP SWAP1 PUSH2 0xDA8 JUMPI PUSH1 0x40 MLOAD PUSH3 0x461BCD PUSH1 0xE5 SHL DUP2 MSTORE PUSH1 0x4 ADD PUSH2 0x441 SWAP2 SWAP1 PUSH2 0x1B86 JUMP JUMPDEST POP PUSH1 0x3 DUP1 SLOAD PUSH1 0x0 DUP1 SLOAD PUSH1 0x1 PUSH1 0x1 PUSH1 0xA0 SHL SUB DUP1 DUP5 AND PUSH1 0x1 PUSH1 0x1 PUSH1 0xA0 SHL SUB NOT SWAP3 DUP4 AND DUP2 OR DUP5 SSTORE PUSH1 0x4 DUP1 SLOAD PUSH1 0x1 DUP1 SLOAD DUP3 DUP7 AND SWAP1 DUP8 AND DUP2 OR SWAP1 SWAP2 SSTORE PUSH1 0x5 DUP1 SLOAD PUSH1 0x2 DUP1 SLOAD SWAP8 DUP3 AND SWAP8 DUP10 AND DUP9 OR SWAP1 SSTORE PUSH1 0x6 SWAP9 SWAP1 SWAP9 SSTORE SWAP8 DUP7 AND SWAP1 SWAP9 SSTORE DUP5 AND SWAP1 SSTORE SWAP3 SWAP1 SWAP2 AND SWAP1 SWAP3 SSTORE PUSH1 0x40 DUP1 MLOAD SWAP2 DUP3 MSTORE PUSH1 0x20 DUP3 ADD SWAP4 SWAP1 SWAP4 MSTORE SWAP2 DUP3 ADD MSTORE CALLER SWAP1 ORIGIN SWAP1 PUSH32 0xEF3E4BC9725FA684957D7DE03C6DCD01078EE86CF78CEEF25C5F8346DF69CC99 SWAP1 PUSH1 0x60 ADD PUSH2 0xAFC JUMP JUMPDEST PUSH1 0x0 PUSH4 0x1FFC9A7 PUSH1 0xE0 SHL PUSH1 0x1 PUSH1 0x1 PUSH1 0xE0 SHL SUB NOT DUP4 AND EQ DUP1 PUSH2 0x3EC JUMPI POP PUSH1 0x1 PUSH1 0x1 PUSH1 0xE0 SHL SUB NOT DUP3 AND PUSH4 0xEFFDA0F5 PUSH1 0xE0 SHL EQ SWAP3 SWAP2 POP POP JUMP JUMPDEST PUSH1 0x0 SLOAD PUSH1 0x40 MLOAD PUSH4 0x935E01B PUSH1 0xE2 SHL DUP2 MSTORE CALLER PUSH1 0x4 DUP3 ADD MSTORE PUSH1 0x1 PUSH1 0x1 PUSH1 0xA0 SHL SUB SWAP1 SWAP2 AND SWAP1 PUSH4 0x24D7806C SWAP1 PUSH1 0x24 ADD PUSH1 0x20 PUSH1 0x40 MLOAD DUP1 DUP4 SUB DUP2 DUP7 DUP1 EXTCODESIZE ISZERO DUP1 ISZERO PUSH2 0xEC2 JUMPI PUSH1 0x0 DUP1 REVERT JUMPDEST POP GAS STATICCALL ISZERO DUP1 ISZERO PUSH2 0xED6 JUMPI RETURNDATASIZE PUSH1 0x0 DUP1 RETURNDATACOPY RETURNDATASIZE PUSH1 0x0 REVERT JUMPDEST POP POP POP POP PUSH1 0x40 MLOAD RETURNDATASIZE PUSH1 0x1F NOT PUSH1 0x1F DUP3 ADD AND DUP3 ADD DUP1 PUSH1 0x40 MSTORE POP DUP2 ADD SWAP1 PUSH2 0xEFA SWAP2 SWAP1 PUSH2 0x1EFE JUMP JUMPDEST PUSH1 0x40 MLOAD DUP1 PUSH1 0x40 ADD PUSH1 0x40 MSTORE DUP1 PUSH1 0x3 DUP2 MSTORE PUSH1 0x20 ADD PUSH3 0x232921 PUSH1 0xE9 SHL DUP2 MSTORE POP SWAP1 PUSH2 0xF34 JUMPI PUSH1 0x40 MLOAD PUSH3 0x461BCD PUSH1 0xE5 SHL DUP2 MSTORE PUSH1 0x4 ADD PUSH2 0x441 SWAP2 SWAP1 PUSH2 0x1B86 JUMP JUMPDEST POP JUMP JUMPDEST PUSH2 0xF40 DUP2 PUSH2 0x1520 JUMP JUMPDEST PUSH1 0x0 DUP2 DUP2 MSTORE PUSH1 0x9 PUSH1 0x20 SWAP1 DUP2 MSTORE PUSH1 0x40 SWAP2 DUP3 SWAP1 KECCAK256 SLOAD DUP3 MLOAD DUP1 DUP5 ADD SWAP1 SWAP4 MSTORE PUSH1 0x4 DUP4 MSTORE PUSH4 0x13955313 PUSH1 0xE2 SHL SWAP2 DUP4 ADD SWAP2 SWAP1 SWAP2 MSTORE SWAP1 DUP2 PUSH2 0xF8D JUMPI PUSH1 0x40 MLOAD PUSH3 0x461BCD PUSH1 0xE5 SHL DUP2 MSTORE PUSH1 0x4 ADD PUSH2 0x441 SWAP2 SWAP1 PUSH2 0x1B86 JUMP JUMPDEST POP DUP1 TIMESTAMP LT ISZERO PUSH1 0x40 MLOAD DUP1 PUSH1 0x40 ADD PUSH1 0x40 MSTORE DUP1 PUSH1 0x2 DUP2 MSTORE PUSH1 0x20 ADD PUSH2 0x5453 PUSH1 0xF0 SHL DUP2 MSTORE POP SWAP1 PUSH2 0xFCB JUMPI PUSH1 0x40 MLOAD PUSH3 0x461BCD PUSH1 0xE5 SHL DUP2 MSTORE PUSH1 0x4 ADD PUSH2 0x441 SWAP2 SWAP1 PUSH2 0x1B86 JUMP JUMPDEST POP PUSH1 0x0 DUP3 DUP2 MSTORE PUSH1 0x8 PUSH1 0x20 SWAP1 DUP2 MSTORE PUSH1 0x40 DUP1 DUP4 KECCAK256 PUSH1 0x7 SWAP1 SWAP3 MSTORE SWAP1 SWAP2 KECCAK256 DUP2 SLOAD SWAP1 SWAP2 SWAP1 PUSH2 0xFF3 SWAP1 PUSH2 0x1C65 JUMP JUMPDEST PUSH2 0xFFE SWAP3 SWAP2 SWAP1 PUSH2 0x1793 JUMP JUMPDEST POP PUSH1 0x0 DUP3 DUP2 MSTORE PUSH1 0x8 PUSH1 0x20 MSTORE PUSH1 0x40 DUP2 KECCAK256 PUSH2 0x1016 SWAP2 PUSH2 0x181E JUMP JUMPDEST POP PUSH1 0x0 SWAP1 DUP2 MSTORE PUSH1 0x9 PUSH1 0x20 MSTORE PUSH1 0x40 DUP2 KECCAK256 SSTORE JUMP JUMPDEST PUSH2 0x1031 DUP3 PUSH2 0x1520 JUMP JUMPDEST PUSH1 0x0 DUP3 DUP2 MSTORE PUSH1 0x8 PUSH1 0x20 SWAP1 DUP2 MSTORE PUSH1 0x40 SWAP1 SWAP2 KECCAK256 DUP3 MLOAD PUSH2 0x1050 SWAP3 DUP5 ADD SWAP1 PUSH2 0x1858 JUMP JUMPDEST POP PUSH1 0x0 DUP3 DUP2 MSTORE PUSH1 0x7 PUSH1 0x20 MSTORE PUSH1 0x40 DUP2 KECCAK256 DUP1 SLOAD PUSH2 0x106A SWAP1 PUSH2 0x1C65 JUMP JUMPDEST ISZERO SWAP1 POP PUSH2 0x1078 JUMPI PUSH1 0x1 PUSH2 0x107B JUMP JUMPDEST PUSH1 0x0 JUMPDEST PUSH1 0xFF AND SWAP1 POP DUP1 PUSH1 0x0 DUP1 ADD PUSH1 0x0 SWAP1 SLOAD SWAP1 PUSH2 0x100 EXP SWAP1 DIV PUSH1 0x1 PUSH1 0x1 PUSH1 0xA0 SHL SUB AND PUSH1 0x1 PUSH1 0x1 PUSH1 0xA0 SHL SUB AND PUSH4 0xBBA32939 PUSH1 0x40 MLOAD DUP2 PUSH4 0xFFFFFFFF AND PUSH1 0xE0 SHL DUP2 MSTORE PUSH1 0x4 ADD PUSH1 0x20 PUSH1 0x40 MLOAD DUP1 DUP4 SUB DUP2 DUP7 DUP1 EXTCODESIZE ISZERO DUP1 ISZERO PUSH2 0x10D1 JUMPI PUSH1 0x0 DUP1 REVERT JUMPDEST POP GAS STATICCALL ISZERO DUP1 ISZERO PUSH2 0x10E5 JUMPI RETURNDATASIZE PUSH1 0x0 DUP1 RETURNDATACOPY RETURNDATASIZE PUSH1 0x0 REVERT JUMPDEST POP POP POP POP PUSH1 0x40 MLOAD RETURNDATASIZE PUSH1 0x1F NOT PUSH1 0x1F DUP3 ADD AND DUP3 ADD DUP1 PUSH1 0x40 MSTORE POP DUP2 ADD SWAP1 PUSH2 0x1109 SWAP2 SWAP1 PUSH2 0x1BE1 JUMP JUMPDEST PUSH2 0x1113 SWAP2 SWAP1 PUSH2 0x1F20 JUMP JUMPDEST PUSH2 0x111D SWAP1 TIMESTAMP PUSH2 0x1C10 JUMP JUMPDEST PUSH1 0x0 SWAP4 DUP5 MSTORE PUSH1 0x9 PUSH1 0x20 MSTORE PUSH1 0x40 SWAP1 SWAP4 KECCAK256 SWAP3 SWAP1 SWAP3 SSTORE POP POP JUMP JUMPDEST PUSH1 0x0 DUP1 SLOAD PUSH1 0x40 MLOAD PUSH4 0x63E85D2D PUSH1 0xE0 SHL DUP2 MSTORE CALLER PUSH1 0x4 DUP3 ADD MSTORE PUSH1 0x1 PUSH1 0x24 DUP3 ADD MSTORE DUP3 SWAP2 PUSH1 0x1 PUSH1 0x1 PUSH1 0xA0 SHL SUB AND SWAP1 DUP2 SWAP1 PUSH4 0x63E85D2D SWAP1 PUSH1 0x44 ADD PUSH1 0x20 PUSH1 0x40 MLOAD DUP1 DUP4 SUB DUP2 DUP7 DUP1 EXTCODESIZE ISZERO DUP1 ISZERO PUSH2 0x1181 JUMPI PUSH1 0x0 DUP1 REVERT JUMPDEST POP GAS STATICCALL ISZERO DUP1 ISZERO PUSH2 0x1195 JUMPI RETURNDATASIZE PUSH1 0x0 DUP1 RETURNDATACOPY RETURNDATASIZE PUSH1 0x0 REVERT JUMPDEST POP POP POP POP PUSH1 0x40 MLOAD RETURNDATASIZE PUSH1 0x1F NOT PUSH1 0x1F DUP3 ADD AND DUP3 ADD DUP1 PUSH1 0x40 MSTORE POP DUP2 ADD SWAP1 PUSH2 0x11B9 SWAP2 SWAP1 PUSH2 0x1EFE JUMP JUMPDEST PUSH1 0x40 MLOAD DUP1 PUSH1 0x40 ADD PUSH1 0x40 MSTORE DUP1 PUSH1 0x3 DUP2 MSTORE PUSH1 0x20 ADD PUSH3 0x232921 PUSH1 0xE9 SHL DUP2 MSTORE POP SWAP1 PUSH2 0x11F3 JUMPI PUSH1 0x40 MLOAD PUSH3 0x461BCD PUSH1 0xE5 SHL DUP2 MSTORE PUSH1 0x4 ADD PUSH2 0x441 SWAP2 SWAP1 PUSH2 0x1B86 JUMP JUMPDEST POP PUSH1 0x1 SLOAD PUSH1 0x40 DUP1 MLOAD PUSH4 0x1112EEE7 PUSH1 0xE3 SHL DUP2 MSTORE SWAP1 MLOAD PUSH1 0x1 PUSH1 0x1 PUSH1 0xA0 SHL SUB SWAP1 SWAP3 AND SWAP2 DUP3 SWAP2 PUSH4 0x88977738 SWAP2 PUSH1 0x4 DUP1 DUP4 ADD SWAP3 PUSH1 0x20 SWAP3 SWAP2 SWAP1 DUP3 SWAP1 SUB ADD DUP2 DUP7 DUP1 EXTCODESIZE ISZERO DUP1 ISZERO PUSH2 0x123A JUMPI PUSH1 0x0 DUP1 REVERT JUMPDEST POP GAS STATICCALL ISZERO DUP1 ISZERO PUSH2 0x124E JUMPI RETURNDATASIZE PUSH1 0x0 DUP1 RETURNDATACOPY RETURNDATASIZE PUSH1 0x0 REVERT JUMPDEST POP POP POP POP PUSH1 0x40 MLOAD RETURNDATASIZE PUSH1 0x1F NOT PUSH1 0x1F DUP3 ADD AND DUP3 ADD DUP1 PUSH1 0x40 MSTORE POP DUP2 ADD SWAP1 PUSH2 0x1272 SWAP2 SWAP1 PUSH2 0x1BE1 JUMP JUMPDEST PUSH2 0x127D SWAP1 PUSH1 0x1 PUSH2 0x1C10 JUMP JUMPDEST PUSH1 0x2 SLOAD SWAP1 SWAP4 POP PUSH2 0x1296 SWAP1 PUSH1 0x1 PUSH1 0x1 PUSH1 0xA0 SHL SUB AND DUP5 PUSH2 0x16F3 JUMP JUMPDEST PUSH1 0x40 MLOAD PUSH4 0x5C4FDF9 PUSH1 0xE0 SHL DUP2 MSTORE PUSH1 0x1 PUSH1 0x1 PUSH1 0xA0 SHL SUB DUP1 DUP4 AND PUSH1 0x4 DUP4 ADD MSTORE DUP8 DUP2 AND PUSH1 0x24 DUP4 ADD MSTORE SWAP2 SWAP6 POP SWAP1 DUP3 AND SWAP1 PUSH4 0x5C4FDF9 SWAP1 PUSH1 0x44 ADD PUSH1 0x20 PUSH1 0x40 MLOAD DUP1 DUP4 SUB DUP2 PUSH1 0x0 DUP8 DUP1 EXTCODESIZE ISZERO DUP1 ISZERO PUSH2 0x12E5 JUMPI PUSH1 0x0 DUP1 REVERT JUMPDEST POP GAS CALL ISZERO DUP1 ISZERO PUSH2 0x12F9 JUMPI RETURNDATASIZE PUSH1 0x0 DUP1 RETURNDATACOPY RETURNDATASIZE PUSH1 0x0 REVERT JUMPDEST POP POP POP POP PUSH1 0x40 MLOAD RETURNDATASIZE PUSH1 0x1F NOT PUSH1 0x1F DUP3 ADD AND DUP3 ADD DUP1 PUSH1 0x40 MSTORE POP DUP2 ADD SWAP1 PUSH2 0x131D SWAP2 SWAP1 PUSH2 0x1BE1 JUMP JUMPDEST POP POP POP SWAP2 POP SWAP2 JUMP JUMPDEST PUSH1 0x40 DUP1 MLOAD PUSH1 0x20 DUP1 DUP3 MSTORE DUP2 DUP4 ADD SWAP1 SWAP3 MSTORE PUSH1 0x60 SWAP2 PUSH1 0x20 DUP3 ADD DUP2 DUP1 CALLDATASIZE DUP4 CALLDATACOPY ADD SWAP1 POP POP SWAP1 POP PUSH1 0x20 PUSH1 0x0 JUMPDEST PUSH1 0x20 DUP2 LT ISZERO PUSH2 0x1383 JUMPI DUP4 DUP2 PUSH1 0x20 DUP2 LT PUSH2 0x1366 JUMPI PUSH2 0x1366 PUSH2 0x1F3F JUMP JUMPDEST BYTE PUSH2 0x1373 JUMPI DUP1 SWAP2 POP PUSH2 0x1383 JUMP JUMPDEST PUSH2 0x137C DUP2 PUSH2 0x1F55 JUMP JUMPDEST SWAP1 POP PUSH2 0x134B JUMP JUMPDEST POP DUP2 MSTORE PUSH1 0x20 DUP2 ADD SWAP2 SWAP1 SWAP2 MSTORE SWAP1 JUMP JUMPDEST PUSH2 0x1399 PUSH2 0xE7F JUMP JUMPDEST PUSH1 0xF SLOAD PUSH1 0x40 DUP1 MLOAD DUP1 DUP3 ADD SWAP1 SWAP2 MSTORE PUSH1 0x4 DUP2 MSTORE PUSH4 0x13955313 PUSH1 0xE2 SHL PUSH1 0x20 DUP3 ADD MSTORE SWAP1 PUSH2 0x13D5 JUMPI PUSH1 0x40 MLOAD PUSH3 0x461BCD PUSH1 0xE5 SHL DUP2 MSTORE PUSH1 0x4 ADD PUSH2 0x441 SWAP2 SWAP1 PUSH2 0x1B86 JUMP JUMPDEST POP PUSH1 0xF SLOAD TIMESTAMP LT ISZERO PUSH1 0x40 MLOAD DUP1 PUSH1 0x40 ADD PUSH1 0x40 MSTORE DUP1 PUSH1 0x2 DUP2 MSTORE PUSH1 0x20 ADD PUSH2 0x5453 PUSH1 0xF0 SHL DUP2 MSTORE POP SWAP1 PUSH2 0x1415 JUMPI PUSH1 0x40 MLOAD PUSH3 0x461BCD PUSH1 0xE5 SHL DUP2 MSTORE PUSH1 0x4 ADD PUSH2 0x441 SWAP2 SWAP1 PUSH2 0x1B86 JUMP JUMPDEST POP PUSH1 0xE PUSH1 0xD SWAP1 DUP1 SLOAD PUSH2 0x1426 SWAP1 PUSH2 0x1C65 JUMP JUMPDEST PUSH2 0x1431 SWAP3 SWAP2 SWAP1 PUSH2 0x1793 JUMP JUMPDEST POP PUSH2 0x143E PUSH1 0xE PUSH1 0x0 PUSH2 0x181E JUMP JUMPDEST PUSH1 0x0 PUSH1 0xF SSTORE JUMP JUMPDEST PUSH2 0x144D PUSH2 0xE7F JUMP JUMPDEST PUSH1 0x0 PUSH1 0xD DUP1 SLOAD PUSH2 0x145C SWAP1 PUSH2 0x1C65 JUMP JUMPDEST ISZERO SWAP1 POP PUSH2 0x146A JUMPI PUSH1 0x1 PUSH2 0x146D JUMP JUMPDEST PUSH1 0x0 JUMPDEST PUSH1 0xFF AND SWAP1 POP DUP2 PUSH1 0xE SWAP1 DUP1 MLOAD SWAP1 PUSH1 0x20 ADD SWAP1 PUSH2 0x1488 SWAP3 SWAP2 SWAP1 PUSH2 0x1858 JUMP JUMPDEST POP PUSH1 0x0 SLOAD PUSH1 0x40 DUP1 MLOAD PUSH4 0xBBA32939 PUSH1 0xE0 SHL DUP2 MSTORE SWAP1 MLOAD DUP4 SWAP3 PUSH1 0x1 PUSH1 0x1 PUSH1 0xA0 SHL SUB AND SWAP2 PUSH4 0xBBA32939 SWAP2 PUSH1 0x4 DUP1 DUP4 ADD SWAP3 PUSH1 0x20 SWAP3 SWAP2 SWAP1 DUP3 SWAP1 SUB ADD DUP2 DUP7 DUP1 EXTCODESIZE ISZERO DUP1 ISZERO PUSH2 0x14CD JUMPI PUSH1 0x0 DUP1 REVERT JUMPDEST POP GAS STATICCALL ISZERO DUP1 ISZERO PUSH2 0x14E1 JUMPI RETURNDATASIZE PUSH1 0x0 DUP1 RETURNDATACOPY RETURNDATASIZE PUSH1 0x0 REVERT JUMPDEST POP POP POP POP PUSH1 0x40 MLOAD RETURNDATASIZE PUSH1 0x1F NOT PUSH1 0x1F DUP3 ADD AND DUP3 ADD DUP1 PUSH1 0x40 MSTORE POP DUP2 ADD SWAP1 PUSH2 0x1505 SWAP2 SWAP1 PUSH2 0x1BE1 JUMP JUMPDEST PUSH2 0x150F SWAP2 SWAP1 PUSH2 0x1F20 JUMP JUMPDEST PUSH2 0x1519 SWAP1 TIMESTAMP PUSH2 0x1C10 JUMP JUMPDEST PUSH1 0xF SSTORE POP POP JUMP JUMPDEST PUSH1 0x0 SLOAD PUSH1 0x40 MLOAD PUSH4 0x935E01B PUSH1 0xE2 SHL DUP2 MSTORE CALLER PUSH1 0x4 DUP3 ADD MSTORE PUSH1 0x1 PUSH1 0x1 PUSH1 0xA0 SHL SUB SWAP1 SWAP2 AND SWAP1 PUSH4 0x24D7806C SWAP1 PUSH1 0x24 ADD PUSH1 0x20 PUSH1 0x40 MLOAD DUP1 DUP4 SUB DUP2 DUP7 DUP1 EXTCODESIZE ISZERO DUP1 ISZERO PUSH2 0x1563 JUMPI PUSH1 0x0 DUP1 REVERT JUMPDEST POP GAS STATICCALL ISZERO DUP1 ISZERO PUSH2 0x1577 JUMPI RETURNDATASIZE PUSH1 0x0 DUP1 RETURNDATACOPY RETURNDATASIZE PUSH1 0x0 REVERT JUMPDEST POP POP POP POP PUSH1 0x40 MLOAD RETURNDATASIZE PUSH1 0x1F NOT PUSH1 0x1F DUP3 ADD AND DUP3 ADD DUP1 PUSH1 0x40 MSTORE POP DUP2 ADD SWAP1 PUSH2 0x159B SWAP2 SWAP1 PUSH2 0x1EFE JUMP JUMPDEST DUP1 PUSH2 0x1628 JUMPI POP PUSH1 0x1 SLOAD PUSH1 0x40 MLOAD PUSH4 0x20604BF PUSH1 0xE2 SHL DUP2 MSTORE PUSH1 0x4 DUP2 ADD DUP4 SWAP1 MSTORE CALLER SWAP2 PUSH1 0x1 PUSH1 0x1 PUSH1 0xA0 SHL SUB AND SWAP1 PUSH4 0x81812FC SWAP1 PUSH1 0x24 ADD PUSH1 0x20 PUSH1 0x40 MLOAD DUP1 DUP4 SUB DUP2 DUP7 DUP1 EXTCODESIZE ISZERO DUP1 ISZERO PUSH2 0x15E5 JUMPI PUSH1 0x0 DUP1 REVERT JUMPDEST POP GAS STATICCALL ISZERO DUP1 ISZERO PUSH2 0x15F9 JUMPI RETURNDATASIZE PUSH1 0x0 DUP1 RETURNDATACOPY RETURNDATASIZE PUSH1 0x0 REVERT JUMPDEST POP POP POP POP PUSH1 0x40 MLOAD RETURNDATASIZE PUSH1 0x1F NOT PUSH1 0x1F DUP3 ADD AND DUP3 ADD DUP1 PUSH1 0x40 MSTORE POP DUP2 ADD SWAP1 PUSH2 0x161D SWAP2 SWAP1 PUSH2 0x1F70 JUMP JUMPDEST PUSH1 0x1 PUSH1 0x1 PUSH1 0xA0 SHL SUB AND EQ JUMPDEST DUP1 PUSH2 0x16B5 JUMPI POP PUSH1 0x1 SLOAD PUSH1 0x40 MLOAD PUSH4 0x31A9108F PUSH1 0xE1 SHL DUP2 MSTORE PUSH1 0x4 DUP2 ADD DUP4 SWAP1 MSTORE CALLER SWAP2 PUSH1 0x1 PUSH1 0x1 PUSH1 0xA0 SHL SUB AND SWAP1 PUSH4 0x6352211E SWAP1 PUSH1 0x24 ADD PUSH1 0x20 PUSH1 0x40 MLOAD DUP1 DUP4 SUB DUP2 DUP7 DUP1 EXTCODESIZE ISZERO DUP1 ISZERO PUSH2 0x1672 JUMPI PUSH1 0x0 DUP1 REVERT JUMPDEST POP GAS STATICCALL ISZERO DUP1 ISZERO PUSH2 0x1686 JUMPI RETURNDATASIZE PUSH1 0x0 DUP1 RETURNDATACOPY RETURNDATASIZE PUSH1 0x0 REVERT JUMPDEST POP POP POP POP PUSH1 0x40 MLOAD RETURNDATASIZE PUSH1 0x1F NOT PUSH1 0x1F DUP3 ADD AND DUP3 ADD DUP1 PUSH1 0x40 MSTORE POP DUP2 ADD SWAP1 PUSH2 0x16AA SWAP2 SWAP1 PUSH2 0x1F70 JUMP JUMPDEST PUSH1 0x1 PUSH1 0x1 PUSH1 0xA0 SHL SUB AND EQ JUMPDEST PUSH1 0x40 MLOAD DUP1 PUSH1 0x40 ADD PUSH1 0x40 MSTORE DUP1 PUSH1 0x3 DUP2 MSTORE PUSH1 0x20 ADD PUSH3 0x232921 PUSH1 0xE9 SHL DUP2 MSTORE POP SWAP1 PUSH2 0x16EF JUMPI PUSH1 0x40 MLOAD PUSH3 0x461BCD PUSH1 0xE5 SHL DUP2 MSTORE PUSH1 0x4 ADD PUSH2 0x441 SWAP2 SWAP1 PUSH2 0x1B86 JUMP JUMPDEST POP POP JUMP JUMPDEST PUSH1 0x0 PUSH1 0x40 MLOAD PUSH20 0x3D602D80600A3D3981F3363D3D373D3D3D363D73 PUSH1 0x60 SHL DUP2 MSTORE DUP4 PUSH1 0x60 SHL PUSH1 0x14 DUP3 ADD MSTORE PUSH15 0x5AF43D82803E903D91602B57FD5BF3 PUSH1 0x88 SHL PUSH1 0x28 DUP3 ADD MSTORE DUP3 PUSH1 0x37 DUP3 PUSH1 0x0 CREATE2 SWAP2 POP POP PUSH1 0x1 PUSH1 0x1 PUSH1 0xA0 SHL SUB DUP2 AND PUSH2 0x3EC JUMPI PUSH1 0x40 MLOAD PUSH3 0x461BCD PUSH1 0xE5 SHL DUP2 MSTORE PUSH1 0x20 PUSH1 0x4 DUP3 ADD MSTORE PUSH1 0x17 PUSH1 0x24 DUP3 ADD MSTORE PUSH32 0x455243313136373A2063726561746532206661696C6564000000000000000000 PUSH1 0x44 DUP3 ADD MSTORE PUSH1 0x64 ADD PUSH2 0x441 JUMP JUMPDEST DUP3 DUP1 SLOAD PUSH2 0x179F SWAP1 PUSH2 0x1C65 JUMP JUMPDEST SWAP1 PUSH1 0x0 MSTORE PUSH1 0x20 PUSH1 0x0 KECCAK256 SWAP1 PUSH1 0x1F ADD PUSH1 0x20 SWAP1 DIV DUP2 ADD SWAP3 DUP3 PUSH2 0x17C1 JUMPI PUSH1 0x0 DUP6 SSTORE PUSH2 0x180E JUMP JUMPDEST DUP3 PUSH1 0x1F LT PUSH2 0x17D2 JUMPI DUP1 SLOAD DUP6 SSTORE PUSH2 0x180E JUMP JUMPDEST DUP3 DUP1 ADD PUSH1 0x1 ADD DUP6 SSTORE DUP3 ISZERO PUSH2 0x180E JUMPI PUSH1 0x0 MSTORE PUSH1 0x20 PUSH1 0x0 KECCAK256 SWAP2 PUSH1 0x1F ADD PUSH1 0x20 SWAP1 DIV DUP3 ADD JUMPDEST DUP3 DUP2 GT ISZERO PUSH2 0x180E JUMPI DUP3 SLOAD DUP3 SSTORE SWAP2 PUSH1 0x1 ADD SWAP2 SWAP1 PUSH1 0x1 ADD SWAP1 PUSH2 0x17F3 JUMP JUMPDEST POP PUSH2 0x181A SWAP3 SWAP2 POP PUSH2 0x18CC JUMP JUMPDEST POP SWAP1 JUMP JUMPDEST POP DUP1 SLOAD PUSH2 0x182A SWAP1 PUSH2 0x1C65 JUMP JUMPDEST PUSH1 0x0 DUP3 SSTORE DUP1 PUSH1 0x1F LT PUSH2 0x183A JUMPI POP POP JUMP JUMPDEST PUSH1 0x1F ADD PUSH1 0x20 SWAP1 DIV SWAP1 PUSH1 0x0 MSTORE PUSH1 0x20 PUSH1 0x0 KECCAK256 SWAP1 DUP2 ADD SWAP1 PUSH2 0xF34 SWAP2 SWAP1 PUSH2 0x18CC JUMP JUMPDEST DUP3 DUP1 SLOAD PUSH2 0x1864 SWAP1 PUSH2 0x1C65 JUMP JUMPDEST SWAP1 PUSH1 0x0 MSTORE PUSH1 0x20 PUSH1 0x0 KECCAK256 SWAP1 PUSH1 0x1F ADD PUSH1 0x20 SWAP1 DIV DUP2 ADD SWAP3 DUP3 PUSH2 0x1886 JUMPI PUSH1 0x0 DUP6 SSTORE PUSH2 0x180E JUMP JUMPDEST DUP3 PUSH1 0x1F LT PUSH2 0x189F JUMPI DUP1 MLOAD PUSH1 0xFF NOT AND DUP4 DUP1 ADD OR DUP6 SSTORE PUSH2 0x180E JUMP JUMPDEST DUP3 DUP1 ADD PUSH1 0x1 ADD DUP6 SSTORE DUP3 ISZERO PUSH2 0x180E JUMPI SWAP2 DUP3 ADD JUMPDEST DUP3 DUP2 GT ISZERO PUSH2 0x180E JUMPI DUP3 MLOAD DUP3 SSTORE SWAP2 PUSH1 0x20 ADD SWAP2 SWAP1 PUSH1 0x1 ADD SWAP1 PUSH2 0x18B1 JUMP JUMPDEST JUMPDEST DUP1 DUP3 GT ISZERO PUSH2 0x181A JUMPI PUSH1 0x0 DUP2 SSTORE PUSH1 0x1 ADD PUSH2 0x18CD JUMP JUMPDEST PUSH1 0x0 PUSH1 0x20 DUP3 DUP5 SUB SLT ISZERO PUSH2 0x18F3 JUMPI PUSH1 0x0 DUP1 REVERT JUMPDEST DUP2 CALLDATALOAD PUSH1 0x1 PUSH1 0x1 PUSH1 0xE0 SHL SUB NOT DUP2 AND DUP2 EQ PUSH2 0x190B JUMPI PUSH1 0x0 DUP1 REVERT JUMPDEST SWAP4 SWAP3 POP POP POP JUMP JUMPDEST PUSH4 0x4E487B71 PUSH1 0xE0 SHL PUSH1 0x0 MSTORE PUSH1 0x41 PUSH1 0x4 MSTORE PUSH1 0x24 PUSH1 0x0 REVERT JUMPDEST PUSH1 0x40 MLOAD PUSH1 0x1F DUP3 ADD PUSH1 0x1F NOT AND DUP2 ADD PUSH8 0xFFFFFFFFFFFFFFFF DUP2 GT DUP3 DUP3 LT OR ISZERO PUSH2 0x1951 JUMPI PUSH2 0x1951 PUSH2 0x1912 JUMP JUMPDEST PUSH1 0x40 MSTORE SWAP2 SWAP1 POP JUMP JUMPDEST PUSH1 0x1 PUSH1 0x1 PUSH1 0xA0 SHL SUB DUP2 AND DUP2 EQ PUSH2 0xF34 JUMPI PUSH1 0x0 DUP1 REVERT JUMPDEST PUSH1 0x0 PUSH1 0x60 DUP3 DUP5 SUB SLT ISZERO PUSH2 0x1980 JUMPI PUSH1 0x0 DUP1 REVERT JUMPDEST PUSH1 0x40 MLOAD PUSH1 0x60 DUP2 ADD DUP2 DUP2 LT PUSH8 0xFFFFFFFFFFFFFFFF DUP3 GT OR ISZERO PUSH2 0x19A3 JUMPI PUSH2 0x19A3 PUSH2 0x1912 JUMP JUMPDEST PUSH1 0x40 MSTORE DUP3 CALLDATALOAD PUSH2 0x19B1 DUP2 PUSH2 0x1959 JUMP JUMPDEST DUP2 MSTORE PUSH1 0x20 DUP4 ADD CALLDATALOAD PUSH2 0x19C1 DUP2 PUSH2 0x1959 JUMP JUMPDEST PUSH1 0x20 DUP3 ADD MSTORE PUSH1 0x40 DUP4 ADD CALLDATALOAD PUSH2 0x19D4 DUP2 PUSH2 0x1959 JUMP JUMPDEST PUSH1 0x40 DUP3 ADD MSTORE SWAP4 SWAP3 POP POP POP JUMP JUMPDEST PUSH1 0x0 PUSH1 0x20 DUP3 DUP5 SUB SLT ISZERO PUSH2 0x19F2 JUMPI PUSH1 0x0 DUP1 REVERT JUMPDEST POP CALLDATALOAD SWAP2 SWAP1 POP JUMP JUMPDEST PUSH1 0x0 DUP1 DUP3 DUP5 SUB PUSH1 0x40 DUP2 SLT ISZERO PUSH2 0x1A0D JUMPI PUSH1 0x0 DUP1 REVERT JUMPDEST DUP4 CALLDATALOAD SWAP3 POP PUSH1 0x20 PUSH1 0x1F NOT DUP3 ADD SLT ISZERO PUSH2 0x1A23 JUMPI PUSH1 0x0 DUP1 REVERT JUMPDEST POP PUSH1 0x20 DUP4 ADD SWAP1 POP SWAP3 POP SWAP3 SWAP1 POP JUMP JUMPDEST DUP1 CALLDATALOAD PUSH2 0x1A3C DUP2 PUSH2 0x1959 JUMP JUMPDEST SWAP2 SWAP1 POP JUMP JUMPDEST DUP1 CALLDATALOAD PUSH3 0xFFFFFF DUP2 AND DUP2 EQ PUSH2 0x1A3C JUMPI PUSH1 0x0 DUP1 REVERT JUMPDEST PUSH1 0x0 DUP1 PUSH1 0x0 DUP1 PUSH1 0x80 DUP6 DUP8 SUB SLT ISZERO PUSH2 0x1A6A JUMPI PUSH1 0x0 DUP1 REVERT JUMPDEST DUP5 CALLDATALOAD PUSH8 0xFFFFFFFFFFFFFFFF DUP1 DUP3 GT ISZERO PUSH2 0x1A82 JUMPI PUSH1 0x0 DUP1 REVERT JUMPDEST DUP2 DUP8 ADD SWAP2 POP DUP8 PUSH1 0x1F DUP4 ADD SLT PUSH2 0x1A96 JUMPI PUSH1 0x0 DUP1 REVERT JUMPDEST DUP2 CALLDATALOAD PUSH1 0x20 DUP3 DUP3 GT ISZERO PUSH2 0x1AAA JUMPI PUSH2 0x1AAA PUSH2 0x1912 JUMP JUMPDEST DUP2 PUSH1 0x5 SHL SWAP3 POP PUSH2 0x1ABB DUP2 DUP5 ADD PUSH2 0x1928 JUMP JUMPDEST DUP3 DUP2 MSTORE SWAP3 DUP5 ADD DUP2 ADD SWAP3 DUP2 DUP2 ADD SWAP1 DUP12 DUP6 GT ISZERO PUSH2 0x1AD5 JUMPI PUSH1 0x0 DUP1 REVERT JUMPDEST SWAP5 DUP3 ADD SWAP5 JUMPDEST DUP5 DUP7 LT ISZERO PUSH2 0x1AFF JUMPI DUP6 CALLDATALOAD SWAP4 POP PUSH2 0x1AEF DUP5 PUSH2 0x1959 JUMP JUMPDEST DUP4 DUP3 MSTORE SWAP5 DUP3 ADD SWAP5 SWAP1 DUP3 ADD SWAP1 PUSH2 0x1ADA JUMP JUMPDEST SWAP9 POP PUSH2 0x1B0E SWAP1 POP DUP10 DUP3 ADD PUSH2 0x1A31 JUMP JUMPDEST SWAP7 POP POP POP POP POP PUSH2 0x1B20 PUSH1 0x40 DUP7 ADD PUSH2 0x1A41 JUMP JUMPDEST SWAP2 POP PUSH2 0x1B2E PUSH1 0x60 DUP7 ADD PUSH2 0x1A31 JUMP JUMPDEST SWAP1 POP SWAP3 SWAP6 SWAP2 SWAP5 POP SWAP3 POP JUMP JUMPDEST PUSH1 0x0 DUP2 MLOAD DUP1 DUP5 MSTORE PUSH1 0x0 JUMPDEST DUP2 DUP2 LT ISZERO PUSH2 0x1B5F JUMPI PUSH1 0x20 DUP2 DUP6 ADD DUP2 ADD MLOAD DUP7 DUP4 ADD DUP3 ADD MSTORE ADD PUSH2 0x1B43 JUMP JUMPDEST DUP2 DUP2 GT ISZERO PUSH2 0x1B71 JUMPI PUSH1 0x0 PUSH1 0x20 DUP4 DUP8 ADD ADD MSTORE JUMPDEST POP PUSH1 0x1F ADD PUSH1 0x1F NOT AND SWAP3 SWAP1 SWAP3 ADD PUSH1 0x20 ADD SWAP3 SWAP2 POP POP JUMP JUMPDEST PUSH1 0x20 DUP2 MSTORE PUSH1 0x0 PUSH2 0x190B PUSH1 0x20 DUP4 ADD DUP5 PUSH2 0x1B39 JUMP JUMPDEST PUSH1 0x60 DUP2 ADD PUSH2 0x3EC DUP3 DUP5 DUP1 MLOAD PUSH1 0x1 PUSH1 0x1 PUSH1 0xA0 SHL SUB SWAP1 DUP2 AND DUP4 MSTORE PUSH1 0x20 DUP1 DUP4 ADD MLOAD DUP3 AND SWAP1 DUP5 ADD MSTORE PUSH1 0x40 SWAP2 DUP3 ADD MLOAD AND SWAP2 ADD MSTORE JUMP JUMPDEST PUSH1 0x0 PUSH1 0x40 DUP3 DUP5 SUB SLT ISZERO PUSH2 0x1BDB JUMPI PUSH1 0x0 DUP1 REVERT JUMPDEST POP SWAP2 SWAP1 POP JUMP JUMPDEST PUSH1 0x0 PUSH1 0x20 DUP3 DUP5 SUB SLT ISZERO PUSH2 0x1BF3 JUMPI PUSH1 0x0 DUP1 REVERT JUMPDEST POP MLOAD SWAP2 SWAP1 POP JUMP JUMPDEST PUSH4 0x4E487B71 PUSH1 0xE0 SHL PUSH1 0x0 MSTORE PUSH1 0x11 PUSH1 0x4 MSTORE PUSH1 0x24 PUSH1 0x0 REVERT JUMPDEST PUSH1 0x0 DUP3 NOT DUP3 GT ISZERO PUSH2 0x1C23 JUMPI PUSH2 0x1C23 PUSH2 0x1BFA JUMP JUMPDEST POP ADD SWAP1 JUMP JUMPDEST PUSH1 0x80 DUP2 ADD PUSH2 0x1C58 DUP3 DUP6 DUP1 MLOAD PUSH1 0x1 PUSH1 0x1 PUSH1 0xA0 SHL SUB SWAP1 DUP2 AND DUP4 MSTORE PUSH1 0x20 DUP1 DUP4 ADD MLOAD DUP3 AND SWAP1 DUP5 ADD MSTORE PUSH1 0x40 SWAP2 DUP3 ADD MLOAD AND SWAP2 ADD MSTORE JUMP JUMPDEST DUP3 PUSH1 0x60 DUP4 ADD MSTORE SWAP4 SWAP3 POP POP POP JUMP JUMPDEST PUSH1 0x1 DUP2 DUP2 SHR SWAP1 DUP3 AND DUP1 PUSH2 0x1C79 JUMPI PUSH1 0x7F DUP3 AND SWAP2 POP JUMPDEST PUSH1 0x20 DUP3 LT DUP2 EQ ISZERO PUSH2 0x1BDB JUMPI PUSH4 0x4E487B71 PUSH1 0xE0 SHL PUSH1 0x0 MSTORE PUSH1 0x22 PUSH1 0x4 MSTORE PUSH1 0x24 PUSH1 0x0 REVERT JUMPDEST PUSH4 0xFFFFFFFF DUP2 AND DUP2 EQ PUSH2 0xF34 JUMPI PUSH1 0x0 DUP1 REVERT JUMPDEST PUSH1 0x0 PUSH1 0x20 DUP3 DUP5 SUB SLT ISZERO PUSH2 0x1CBE JUMPI PUSH1 0x0 DUP1 REVERT JUMPDEST PUSH1 0x40 MLOAD PUSH1 0x20 DUP2 ADD DUP2 DUP2 LT PUSH8 0xFFFFFFFFFFFFFFFF DUP3 GT OR ISZERO PUSH2 0x1CE1 JUMPI PUSH2 0x1CE1 PUSH2 0x1912 JUMP JUMPDEST PUSH1 0x40 MSTORE DUP3 MLOAD PUSH2 0x1CEF DUP2 PUSH2 0x1C9A JUMP JUMPDEST DUP2 MSTORE SWAP4 SWAP3 POP POP POP JUMP JUMPDEST PUSH1 0x0 PUSH1 0x20 DUP3 DUP5 SUB SLT ISZERO PUSH2 0x1D0A JUMPI PUSH1 0x0 DUP1 REVERT JUMPDEST DUP2 CALLDATALOAD PUSH2 0x190B DUP2 PUSH2 0x1C9A JUMP JUMPDEST PUSH1 0x20 DUP2 ADD DUP3 CALLDATALOAD PUSH2 0x1D24 DUP2 PUSH2 0x1C9A JUMP JUMPDEST PUSH4 0xFFFFFFFF AND SWAP1 SWAP2 MSTORE SWAP2 SWAP1 POP JUMP JUMPDEST PUSH1 0x40 DUP2 ADD DUP4 CALLDATALOAD PUSH2 0x1D41 DUP2 PUSH2 0x1C9A JUMP JUMPDEST PUSH4 0xFFFFFFFF AND DUP3 MSTORE PUSH1 0x20 SWAP1 SWAP2 ADD SWAP2 SWAP1 SWAP2 MSTORE SWAP2 SWAP1 POP JUMP JUMPDEST PUSH1 0x0 DUP2 MLOAD DUP1 DUP5 MSTORE PUSH1 0x20 DUP1 DUP6 ADD SWAP5 POP DUP1 DUP5 ADD PUSH1 0x0 JUMPDEST DUP4 DUP2 LT ISZERO PUSH2 0x1D90 JUMPI DUP2 MLOAD PUSH1 0x1 PUSH1 0x1 PUSH1 0xA0 SHL SUB AND DUP8 MSTORE SWAP6 DUP3 ADD SWAP6 SWAP1 DUP3 ADD SWAP1 PUSH1 0x1 ADD PUSH2 0x1D6B JUMP JUMPDEST POP SWAP5 SWAP6 SWAP5 POP POP POP POP POP JUMP JUMPDEST DUP5 DUP2 MSTORE PUSH1 0x80 PUSH1 0x20 DUP3 ADD MSTORE PUSH1 0x0 PUSH2 0x1DB4 PUSH1 0x80 DUP4 ADD DUP7 PUSH2 0x1D57 JUMP JUMPDEST PUSH3 0xFFFFFF SWAP5 SWAP1 SWAP5 AND PUSH1 0x40 DUP4 ADD MSTORE POP PUSH1 0x1 PUSH1 0x1 PUSH1 0xA0 SHL SUB SWAP2 SWAP1 SWAP2 AND PUSH1 0x60 SWAP1 SWAP2 ADD MSTORE SWAP3 SWAP2 POP POP JUMP JUMPDEST PUSH1 0xA0 DUP2 MSTORE PUSH1 0x0 PUSH2 0x1DED PUSH1 0xA0 DUP4 ADD DUP9 PUSH2 0x1D57 JUMP JUMPDEST DUP3 DUP2 SUB PUSH1 0x20 DUP5 ADD MSTORE PUSH2 0x1DFF DUP2 DUP9 PUSH2 0x1B39 JUMP JUMPDEST PUSH1 0x1 PUSH1 0x1 PUSH1 0xA0 SHL SUB SWAP7 DUP8 AND PUSH1 0x40 DUP6 ADD MSTORE SWAP5 SWAP1 SWAP6 AND PUSH1 0x60 DUP4 ADD MSTORE POP PUSH1 0x80 ADD MSTORE SWAP4 SWAP3 POP POP POP JUMP JUMPDEST PUSH1 0x0 PUSH1 0x40 DUP3 DUP5 SUB SLT ISZERO PUSH2 0x1E36 JUMPI PUSH1 0x0 DUP1 REVERT JUMPDEST PUSH1 0x40 MLOAD PUSH1 0x40 DUP2 ADD DUP2 DUP2 LT PUSH8 0xFFFFFFFFFFFFFFFF DUP3 GT OR ISZERO PUSH2 0x1E59 JUMPI PUSH2 0x1E59 PUSH2 0x1912 JUMP JUMPDEST PUSH1 0x40 MSTORE DUP3 MLOAD PUSH2 0x1E67 DUP2 PUSH2 0x1959 JUMP JUMPDEST DUP2 MSTORE PUSH1 0x20 DUP4 ADD MLOAD PUSH2 0x1E77 DUP2 PUSH2 0x1959 JUMP JUMPDEST PUSH1 0x20 DUP3 ADD MSTORE SWAP4 SWAP3 POP POP POP JUMP JUMPDEST PUSH1 0x0 PUSH1 0x20 DUP3 DUP5 SUB SLT ISZERO PUSH2 0x1E95 JUMPI PUSH1 0x0 DUP1 REVERT JUMPDEST DUP2 CALLDATALOAD PUSH2 0x190B DUP2 PUSH2 0x1959 JUMP JUMPDEST DUP1 CALLDATALOAD PUSH2 0x1EAB DUP2 PUSH2 0x1959 JUMP JUMPDEST PUSH1 0x1 PUSH1 0x1 PUSH1 0xA0 SHL SUB SWAP1 DUP2 AND DUP4 MSTORE PUSH1 0x20 DUP3 ADD CALLDATALOAD SWAP1 PUSH2 0x1EC7 DUP3 PUSH2 0x1959 JUMP JUMPDEST DUP1 DUP3 AND PUSH1 0x20 DUP6 ADD MSTORE POP POP POP POP JUMP JUMPDEST PUSH1 0x40 DUP2 ADD PUSH2 0x3EC DUP3 DUP5 PUSH2 0x1EA0 JUMP JUMPDEST PUSH1 0x60 DUP2 ADD PUSH2 0x1EF1 DUP3 DUP6 PUSH2 0x1EA0 JUMP JUMPDEST DUP3 PUSH1 0x40 DUP4 ADD MSTORE SWAP4 SWAP3 POP POP POP JUMP JUMPDEST PUSH1 0x0 PUSH1 0x20 DUP3 DUP5 SUB SLT ISZERO PUSH2 0x1F10 JUMPI PUSH1 0x0 DUP1 REVERT JUMPDEST DUP2 MLOAD DUP1 ISZERO ISZERO DUP2 EQ PUSH2 0x190B JUMPI PUSH1 0x0 DUP1 REVERT JUMPDEST PUSH1 0x0 DUP2 PUSH1 0x0 NOT DIV DUP4 GT DUP3 ISZERO ISZERO AND ISZERO PUSH2 0x1F3A JUMPI PUSH2 0x1F3A PUSH2 0x1BFA JUMP JUMPDEST POP MUL SWAP1 JUMP JUMPDEST PUSH4 0x4E487B71 PUSH1 0xE0 SHL PUSH1 0x0 MSTORE PUSH1 0x32 PUSH1 0x4 MSTORE PUSH1 0x24 PUSH1 0x0 REVERT JUMPDEST PUSH1 0x0 PUSH1 0x0 NOT DUP3 EQ ISZERO PUSH2 0x1F69 JUMPI PUSH2 0x1F69 PUSH2 0x1BFA JUMP JUMPDEST POP PUSH1 0x1 ADD SWAP1 JUMP JUMPDEST PUSH1 0x0 PUSH1 0x20 DUP3 DUP5 SUB SLT ISZERO PUSH2 0x1F82 JUMPI PUSH1 0x0 DUP1 REVERT JUMPDEST DUP2 MLOAD PUSH2 0x190B DUP2 PUSH2 0x1959 JUMP INVALID LOG2 PUSH5 0x6970667358 0x22 SLT KECCAK256 0xC4 ADD 0xCD REVERT 0xB6 0xC7 BALANCE SWAP16 CREATE DUP6 0xBF SDIV 0xC2 XOR 0xC3 SWAP15 PC PUSH4 0x7C949E87 PUSH17 0xDC1A817D7C936D100B64736F6C63430008 MULMOD STOP CALLER "
				},
				"gasEstimates": {
					"creation": {
						"codeDepositCost": "1626200",
						"executionCost": "infinite",
						"totalCost": "infinite"
					},
					"external": {
						"commitDelayedProtocolParams()": "infinite",
						"commitDelayedStrategyParams(uint256)": "infinite",
						"commitInternalParams()": "infinite",
						"contractName()": "infinite",
						"contractNameBytes()": "310",
						"contractVersion()": "infinite",
						"contractVersionBytes()": "233",
						"createVault(address[],address,uint24,address)": "infinite",
						"delayedProtocolParams()": "infinite",
						"delayedProtocolParamsTimestamp()": "2424",
						"delayedProtocolPerVaultParamsTimestamp(uint256)": "2505",
						"delayedStrategyParams(uint256)": "infinite",
						"delayedStrategyParamsTimestamp(uint256)": "2571",
						"internalParams()": "6879",
						"internalParamsTimestamp()": "2315",
						"stageDelayedProtocolParams((address,address))": "infinite",
						"stageDelayedStrategyParams(uint256,(uint32))": "infinite",
						"stageInternalParams((address,address,address))": "infinite",
						"stagedDelayedProtocolParams()": "infinite",
						"stagedDelayedStrategyParams(uint256)": "infinite",
						"stagedInternalParams()": "6901",
						"supportsInterface(bytes4)": "544"
					},
					"internal": {
						"_contractName()": "infinite",
						"_contractVersion()": "infinite"
					}
				},
				"methodIdentifiers": {
					"commitDelayedProtocolParams()": "98347a5d",
					"commitDelayedStrategyParams(uint256)": "0bdedd56",
					"commitInternalParams()": "d4a07d34",
					"contractName()": "75d0c0dc",
					"contractNameBytes()": "0e3e80ac",
					"contractVersion()": "a0a8e460",
					"contractVersionBytes()": "06a46239",
					"createVault(address[],address,uint24,address)": "66c153e9",
					"delayedProtocolParams()": "d34cc380",
					"delayedProtocolParamsTimestamp()": "e4af6e79",
					"delayedProtocolPerVaultParamsTimestamp(uint256)": "511ce798",
					"delayedStrategyParams(uint256)": "8860d248",
					"delayedStrategyParamsTimestamp(uint256)": "6707acee",
					"internalParams()": "7ac46fbb",
					"internalParamsTimestamp()": "1c7f4c73",
					"stageDelayedProtocolParams((address,address))": "b2fe31ad",
					"stageDelayedStrategyParams(uint256,(uint32))": "25281714",
					"stageInternalParams((address,address,address))": "09946538",
					"stagedDelayedProtocolParams()": "c2cbdc67",
					"stagedDelayedStrategyParams(uint256)": "59f3dae7",
					"stagedInternalParams()": "86c6be3e",
					"supportsInterface(bytes4)": "01ffc9a7"
				}
			},
			"storageLayout": {
				"storage": [
					{
						"astId": 2375,
						"contract": "contracts/vaults/UniV3VaultGovernance.sol:UniV3VaultGovernance",
						"label": "_internalParams",
						"offset": 0,
						"slot": "0",
						"type": "t_struct(InternalParams)1633_storage"
					},
					{
						"astId": 2378,
						"contract": "contracts/vaults/UniV3VaultGovernance.sol:UniV3VaultGovernance",
						"label": "_stagedInternalParams",
						"offset": 0,
						"slot": "3",
						"type": "t_struct(InternalParams)1633_storage"
					},
					{
						"astId": 2380,
						"contract": "contracts/vaults/UniV3VaultGovernance.sol:UniV3VaultGovernance",
						"label": "_internalParamsTimestamp",
						"offset": 0,
						"slot": "6",
						"type": "t_uint256"
					},
					{
						"astId": 2384,
						"contract": "contracts/vaults/UniV3VaultGovernance.sol:UniV3VaultGovernance",
						"label": "_delayedStrategyParams",
						"offset": 0,
						"slot": "7",
						"type": "t_mapping(t_uint256,t_bytes_storage)"
					},
					{
						"astId": 2388,
						"contract": "contracts/vaults/UniV3VaultGovernance.sol:UniV3VaultGovernance",
						"label": "_stagedDelayedStrategyParams",
						"offset": 0,
						"slot": "8",
						"type": "t_mapping(t_uint256,t_bytes_storage)"
					},
					{
						"astId": 2392,
						"contract": "contracts/vaults/UniV3VaultGovernance.sol:UniV3VaultGovernance",
						"label": "_delayedStrategyParamsTimestamp",
						"offset": 0,
						"slot": "9",
						"type": "t_mapping(t_uint256,t_uint256)"
					},
					{
						"astId": 2396,
						"contract": "contracts/vaults/UniV3VaultGovernance.sol:UniV3VaultGovernance",
						"label": "_delayedProtocolPerVaultParams",
						"offset": 0,
						"slot": "10",
						"type": "t_mapping(t_uint256,t_bytes_storage)"
					},
					{
						"astId": 2400,
						"contract": "contracts/vaults/UniV3VaultGovernance.sol:UniV3VaultGovernance",
						"label": "_stagedDelayedProtocolPerVaultParams",
						"offset": 0,
						"slot": "11",
						"type": "t_mapping(t_uint256,t_bytes_storage)"
					},
					{
						"astId": 2404,
						"contract": "contracts/vaults/UniV3VaultGovernance.sol:UniV3VaultGovernance",
						"label": "_delayedProtocolPerVaultParamsTimestamp",
						"offset": 0,
						"slot": "12",
						"type": "t_mapping(t_uint256,t_uint256)"
					},
					{
						"astId": 2406,
						"contract": "contracts/vaults/UniV3VaultGovernance.sol:UniV3VaultGovernance",
						"label": "_delayedProtocolParams",
						"offset": 0,
						"slot": "13",
						"type": "t_bytes_storage"
					},
					{
						"astId": 2408,
						"contract": "contracts/vaults/UniV3VaultGovernance.sol:UniV3VaultGovernance",
						"label": "_stagedDelayedProtocolParams",
						"offset": 0,
						"slot": "14",
						"type": "t_bytes_storage"
					},
					{
						"astId": 2410,
						"contract": "contracts/vaults/UniV3VaultGovernance.sol:UniV3VaultGovernance",
						"label": "_delayedProtocolParamsTimestamp",
						"offset": 0,
						"slot": "15",
						"type": "t_uint256"
					},
					{
						"astId": 2414,
						"contract": "contracts/vaults/UniV3VaultGovernance.sol:UniV3VaultGovernance",
						"label": "_strategyParams",
						"offset": 0,
						"slot": "16",
						"type": "t_mapping(t_uint256,t_bytes_storage)"
					},
					{
						"astId": 2416,
						"contract": "contracts/vaults/UniV3VaultGovernance.sol:UniV3VaultGovernance",
						"label": "_protocolParams",
						"offset": 0,
						"slot": "17",
						"type": "t_bytes_storage"
					},
					{
						"astId": 2418,
						"contract": "contracts/vaults/UniV3VaultGovernance.sol:UniV3VaultGovernance",
						"label": "_operatorParams",
						"offset": 0,
						"slot": "18",
						"type": "t_bytes_storage"
					}
				],
				"types": {
					"t_bytes_storage": {
						"encoding": "bytes",
						"label": "bytes",
						"numberOfBytes": "32"
					},
					"t_contract(IProtocolGovernance)610": {
						"encoding": "inplace",
						"label": "contract IProtocolGovernance",
						"numberOfBytes": "20"
					},
					"t_contract(IVault)1618": {
						"encoding": "inplace",
						"label": "contract IVault",
						"numberOfBytes": "20"
					},
					"t_contract(IVaultRegistry)754": {
						"encoding": "inplace",
						"label": "contract IVaultRegistry",
						"numberOfBytes": "20"
					},
					"t_mapping(t_uint256,t_bytes_storage)": {
						"encoding": "mapping",
						"key": "t_uint256",
						"label": "mapping(uint256 => bytes)",
						"numberOfBytes": "32",
						"value": "t_bytes_storage"
					},
					"t_mapping(t_uint256,t_uint256)": {
						"encoding": "mapping",
						"key": "t_uint256",
						"label": "mapping(uint256 => uint256)",
						"numberOfBytes": "32",
						"value": "t_uint256"
					},
					"t_struct(InternalParams)1633_storage": {
						"encoding": "inplace",
						"label": "struct IVaultGovernance.InternalParams",
						"members": [
							{
								"astId": 1626,
								"contract": "contracts/vaults/UniV3VaultGovernance.sol:UniV3VaultGovernance",
								"label": "protocolGovernance",
								"offset": 0,
								"slot": "0",
								"type": "t_contract(IProtocolGovernance)610"
							},
							{
								"astId": 1629,
								"contract": "contracts/vaults/UniV3VaultGovernance.sol:UniV3VaultGovernance",
								"label": "registry",
								"offset": 0,
								"slot": "1",
								"type": "t_contract(IVaultRegistry)754"
							},
							{
								"astId": 1632,
								"contract": "contracts/vaults/UniV3VaultGovernance.sol:UniV3VaultGovernance",
								"label": "singleton",
								"offset": 0,
								"slot": "2",
								"type": "t_contract(IVault)1618"
							}
						],
						"numberOfBytes": "96"
					},
					"t_uint256": {
						"encoding": "inplace",
						"label": "uint256",
						"numberOfBytes": "32"
					}
				}
			},
			"userdoc": {
				"events": {
					"CommitDelayedProtocolParams(address,address,(address,address))": {
						"notice": "Emitted when new DelayedProtocolParams are committed"
					},
					"CommitDelayedStrategyParams(address,address,uint256,(uint32))": {
						"notice": "Emitted when new DelayedStrategyParams are committed"
					},
					"CommitedInternalParams(address,address,(address,address,address))": {
						"notice": "Emitted when InternalParams are staged for commit"
					},
					"DeployedVault(address,address,address[],bytes,address,address,uint256)": {
						"notice": "Emitted when New Vault is deployed"
					},
					"StageDelayedProtocolParams(address,address,(address,address),uint256)": {
						"notice": "Emitted when new DelayedProtocolParams are staged for commit"
					},
					"StageDelayedStrategyParams(address,address,uint256,(uint32),uint256)": {
						"notice": "Emitted when new DelayedStrategyParams are staged for commit"
					},
					"StagedInternalParams(address,address,(address,address,address),uint256)": {
						"notice": "Emitted when InternalParams are staged for commit"
					}
				},
				"kind": "user",
				"methods": {
					"commitDelayedProtocolParams()": {
						"notice": "Commit Delayed Protocol Params, i.e. Params that could be changed by Protocol Governance with Protocol Governance delay."
					},
					"commitDelayedStrategyParams(uint256)": {
						"notice": "Commit Delayed Strategy Params, i.e. Params that could be changed by Strategy or Protocol Governance with Protocol Governance delay."
					},
					"commitInternalParams()": {
						"notice": "Commit staged Internal Params."
					},
					"constructor": {
						"notice": "Creates a new contract."
					},
					"createVault(address[],address,uint24,address)": {
						"notice": "Deploys a new vault."
					},
					"delayedProtocolParams()": {
						"notice": "Delayed Protocol Params, i.e. Params that could be changed by Protocol Governance with Protocol Governance delay."
					},
					"delayedProtocolParamsTimestamp()": {
						"notice": "Timestamp in unix time seconds after which staged Delayed Protocol Params could be committed."
					},
					"delayedProtocolPerVaultParamsTimestamp(uint256)": {
						"notice": "Timestamp in unix time seconds after which staged Delayed Protocol Params Per Vault could be committed."
					},
					"delayedStrategyParams(uint256)": {
						"notice": "Delayed Strategy Params"
					},
					"delayedStrategyParamsTimestamp(uint256)": {
						"notice": "Timestamp in unix time seconds after which staged Delayed Strategy Params could be committed."
					},
					"internalParams()": {
						"notice": "Internal Params of the contract."
					},
					"internalParamsTimestamp()": {
						"notice": "Timestamp in unix time seconds after which staged Internal Params could be committed."
					},
					"stageDelayedProtocolParams((address,address))": {
						"notice": "Stage Delayed Protocol Params, i.e. Params that could be changed by Protocol Governance with Protocol Governance delay."
					},
					"stageDelayedStrategyParams(uint256,(uint32))": {
						"notice": "Stage Delayed Strategy Params, i.e. Params that could be changed by Strategy or Protocol Governance with Protocol Governance delay."
					},
					"stageInternalParams((address,address,address))": {
						"notice": "Stage new Internal Params."
					},
					"stagedDelayedProtocolParams()": {
						"notice": "Delayed Protocol Params staged for commit after delay."
					},
					"stagedDelayedStrategyParams(uint256)": {
						"notice": "Delayed Strategy Params staged for commit after delay."
					},
					"stagedInternalParams()": {
						"notice": "Staged new Internal Params."
					}
				},
				"notice": "Governance that manages all UniV3 Vaults params and can deploy a new UniV3 Vault.",
				"version": 1
			}
		}
	}
}