{
	"data": {
		"bytecode": {
			"linkReferences": {},
			"object": "60a06040523480156200001157600080fd5b506040516200382238038062003822833981016040819052620000349162000379565b825160408051808201909152600281526120ad60f11b602082015284916001600160a01b0316620000835760405162461bcd60e51b81526004016200007a91906200043a565b60405180910390fd5b5060006001600160a01b031681602001516001600160a01b031614156040518060400160405280600281526020016120ad60f11b81525090620000db5760405162461bcd60e51b81526004016200007a91906200043a565b506040808201518151808301909252600282526120ad60f11b60208301526001600160a01b0316620001225760405162461bcd60e51b81526004016200007a91906200043a565b508051600080546001600160a01b03199081166001600160a01b0393841617909155602080840151600180548416918516919091179055604093840151600280549093169084161782558581015184518086019095529184526120ad60f11b9084015216620001a65760405162461bcd60e51b81526004016200007a91906200043a565b5060408051808201909152600281526120ad60f11b60208201526001600160a01b038216620001ea5760405162461bcd60e51b81526004016200007a91906200043a565b506001600160a01b038181166080526040805184516020808301919091528086015190931681830152815180820383018152606090910190915280516200023692600d92019062000240565b50505050620004cf565b8280546200024e9062000492565b90600052602060002090601f016020900481019282620002725760008555620002bd565b82601f106200028d57805160ff1916838001178555620002bd565b82800160010185558215620002bd579182015b82811115620002bd578251825591602001919060010190620002a0565b50620002cb929150620002cf565b5090565b5b80821115620002cb5760008155600101620002d0565b604051606081016001600160401b03811182821017156200031757634e487b7160e01b600052604160045260246000fd5b60405290565b604080519081016001600160401b03811182821017156200031757634e487b7160e01b600052604160045260246000fd5b6001600160a01b03811681146200036457600080fd5b50565b805162000374816200034e565b919050565b600080600083850360c08112156200039057600080fd5b60608112156200039f57600080fd5b620003a9620002e6565b8551620003b6816200034e565b81526020860151620003c8816200034e565b60208201526040860151620003dd816200034e565b604082810191909152909450605f1982011215620003fa57600080fd5b50620004056200031d565b6060850151815260808501516200041c816200034e565b602082015291506200043160a0850162000367565b90509250925092565b600060208083528351808285015260005b8181101562000469578581018301518582016040015282016200044b565b818111156200047c576000604083870101525b50601f01601f1916929092016040019392505050565b600181811c90821680620004a757607f821691505b60208210811415620004c957634e487b7160e01b600052602260045260246000fd5b50919050565b608051613330620004f2600039600081816103480152611abe01526133306000f3fe608060405234801561001057600080fd5b50600436106102065760003560e01c80638860d2481161011a578063c2cbdc67116100ad578063db2030aa1161007c578063db2030aa14610532578063dbb1c35f1461054b578063e4af6e791461055e578063ee2d59f414610566578063f699a6071461057957600080fd5b8063c2cbdc67146104e3578063c8e8a7661461050f578063d34cc38014610522578063d4a07d341461052a57600080fd5b8063a0a8e460116100e9578063a0a8e460146104b2578063afd2c7e9146104ba578063b8ca3b83146104cd578063bdca9165146104d857600080fd5b80638860d2481461046a5780638e207dda1461047d57806398347a5d1461049f5780639908840c146104a757600080fd5b80633d8c08b91161019d57806363b0e66a1161016c57806363b0e66a146103435780636707acee1461038257806375d0c0dc146103a25780637ac46fbb146103b757806386c6be3e1461041757600080fd5b80633d8c08b9146102dd578063511ce798146102f057806359331d781461031057806359f3dae71461032357600080fd5b80630e3e80ac116101d95780630e3e80ac1461027357806312466b68146102945780631c7f4c73146102c2578063221cc263146102ca57600080fd5b806301ffc9a71461020b57806306a4623914610233578063099465381461024b5780630bdedd5614610260575b600080fd5b61021e6102193660046128f8565b6105ab565b60405190151581526020015b60405180910390f35b640312e302e360dc1b5b60405190815260200161022a565b61025e6102593660046129d1565b6105dc565b005b61025e61026e366004612a43565b6107ce565b774552433230526f6f745661756c74476f7665726e616e636560401b61023d565b6102a76102a2366004612a43565b6108c1565b6040805182518152602092830151928101929092520161022a565b60065461023d565b61025e6102d8366004612a5c565b6109b9565b61025e6102eb366004612aad565b610abe565b61023d6102fe366004612a43565b6000908152600c602052604090205490565b61025e61031e366004612adb565b610b75565b610336610331366004612a43565b610c2e565b60405161022a9190612b08565b61036a7f000000000000000000000000000000000000000000000000000000000000000081565b6040516001600160a01b03909116815260200161022a565b61023d610390366004612a43565b60009081526009602052604090205490565b6103aa610d70565b60405161022a9190612b63565b61040a604080516060810182526000808252602082018190529181019190915250604080516060810182526000546001600160a01b03908116825260015481166020830152600254169181019190915290565b60405161022a9190612bb8565b61040a604080516060810182526000808252602082018190529181019190915250604080516060810182526003546001600160a01b03908116825260045481166020830152600554169181019190915290565b610336610478366004612a43565b610d96565b61049061048b366004612a43565b610e47565b6040519051815260200161022a565b61025e610f35565b61023d6305f5e10081565b6103aa61103a565b61025e6104c8366004612be8565b61104d565b61023d6302faf08081565b61023d631dcd650081565b6104eb6110c8565b60408051825181526020928301516001600160a01b0316928101929092520161022a565b61025e61051d366004612c0c565b6111a7565b6104eb611203565b61025e611224565b61053a611349565b60405190511515815260200161022a565b610490610559366004612a43565b61141e565b600f5461023d565b61025e610574366004612a43565b61147b565b61058c610587366004612cc7565b611565565b604080516001600160a01b03909316835260208301919091520161022a565b60006105b682611b23565b806105d157506306a2c33360e41b6001600160e01b03198316145b92915050565b905090565b6105e4611b59565b805160408051808201909152600281526120ad60f11b6020820152906001600160a01b031661062f5760405162461bcd60e51b81526004016106269190612b63565b60405180910390fd5b5060006001600160a01b031681602001516001600160a01b031614156040518060400160405280600281526020016120ad60f11b815250906106845760405162461bcd60e51b81526004016106269190612b63565b506040808201518151808301909252600282526120ad60f11b60208301526001600160a01b03166106c85760405162461bcd60e51b81526004016106269190612b63565b508051600380546001600160a01b03199081166001600160a01b03938416179091556020808401516004805484169185169190911781556040808601516005805490951690861617909355600054835163bba3293960e01b8152935194169363bba3293993808301939290829003018186803b15801561074757600080fd5b505afa15801561075b573d6000803e3d6000fd5b505050506040513d601f19601f8201168201806040525081019061077f9190612dad565b6107899042612ddc565b6006819055604051339132917f0887cab3184f7c02b16978ab31f8acee05979f59fc3da6abe5bf71105ec3179d916107c391869190612df4565b60405180910390a350565b6107d781611c11565b600081815260076020526040902080548291339132917fece5c2f5548f6b356ee66c404a736c4a1393d2d7f339f1b11325ccf9ed7da3bb9161081890612e31565b80601f016020809104026020016040519081016040528092919081815260200182805461084490612e31565b80156108915780601f1061086657610100808354040283529160200191610891565b820191906000526020600020905b81548152906001019060200180831161087457829003601f168201915b50505050508060200190518101906108a99190612e7f565b6040516108b69190612b08565b60405180910390a450565b6040805180820190915260008082526020820152600082815260106020526040902080546108ee90612e31565b1515905061090f575050604080518082019091526000808252602082015290565b6000828152601060205260409020805461092890612e31565b80601f016020809104026020016040519081016040528092919081815260200182805461095490612e31565b80156109a15780601f10610976576101008083540402835291602001916109a1565b820191906000526020600020905b81548152906001019060200180831161098457829003601f168201915b50505050508060200190518101906105d19190612f2b565b6040805180820190915260048152634c494d4f60e01b60208201526305f5e100606083013511156109fd5760405162461bcd60e51b81526004016106269190612b63565b506040805180820190915260048152634c494d4f60e01b6020820152631dcd650060808301351115610a425760405162461bcd60e51b81526004016106269190612b63565b50610a6c8282604051602001610a589190612fec565b604051602081830303815290604052611d02565b600082815260096020526040908190205490518391339132917f92bc1d5a0a50d53c2c8b67ee363258770588cb71b912dc79c9193e57a3559cef91610ab2918791612ffa565b60405180910390a45050565b6000610ad06040830160208401613016565b6001600160a01b031614156040518060400160405280600281526020016120ad60f11b81525090610b145760405162461bcd60e51b81526004016106269190612b63565b50610b3d81604051602001610b29919061305b565b604051602081830303815290604052611e0e565b600f54604051339132917f5893284b3bc8dc03f4a5b1fc07b4ffa5a43c8db93e0d265da78879b701c9352c916107c391869190613069565b6040805180820190915260048152634c494d4f60e01b60208201526302faf08082351115610bb65760405162461bcd60e51b81526004016106269190612b63565b50610be38282604051602001610bcf9135815260200190565b604051602081830303815290604052611ee9565b60008281526009602090815260409182902054825184358152918201528391339132917fcd7599c34365da52fcd641b487f51044152e43bf05893c1ef6d2a2259de7252a9101610ab2565b6040805160e081018252600080825260208201819052918101829052606081018290526080810182905260a0810182905260c081019190915260008281526008602052604090208054610c8090612e31565b15159050610cc65750506040805160e081018252600080825260208201819052918101829052606081018290526080810182905260a0810182905260c081019190915290565b60008281526008602052604090208054610cdf90612e31565b80601f0160208091040260200160405190810160405280929190818152602001828054610d0b90612e31565b8015610d585780601f10610d2d57610100808354040283529160200191610d58565b820191906000526020600020905b815481529060010190602001808311610d3b57829003601f168201915b50505050508060200190518101906105d19190612e7f565b60606105d7774552433230526f6f745661756c74476f7665726e616e636560401b611ff4565b6040805160e081018252600080825260208201819052918101829052606081018290526080810182905260a0810182905260c081019190915260008281526007602052604090208054610de890612e31565b15159050610e2e5750506040805160e081018252600080825260208201819052918101829052606081018290526080810182905260a0810182905260c081019190915290565b60008281526007602052604090208054610cdf90612e31565b6040805160208101909152600081526000828152600b602052604090208054610e6f90612e31565b15159050610e8b57505060408051602081019091526000815290565b6000828152600b602052604090208054610ea490612e31565b80601f0160208091040260200160405190810160405280929190818152602001828054610ed090612e31565b8015610f1d5780601f10610ef257610100808354040283529160200191610f1d565b820191906000526020600020905b815481529060010190602001808311610f0057829003601f168201915b50505050508060200190518101906105d19190613084565b610f3d612060565b336001600160a01b0316326001600160a01b03167f862320404e037e2174ac01f6e43fc8b06acda312b671b182dcbe75b50ebd8552600d8054610f7f90612e31565b80601f0160208091040260200160405190810160405280929190818152602001828054610fab90612e31565b8015610ff85780601f10610fcd57610100808354040283529160200191610ff8565b820191906000526020600020905b815481529060010190602001808311610fdb57829003601f168201915b505050505080602001905181019061101091906130a8565b60408051825181526020928301516001600160a01b031692810192909252015b60405180910390a3565b60606105d7640312e302e360dc1b611ff4565b61108882826040516020016110749190813581526020918201359181019190915260400190565b604051602081830303815290604052612114565b6040805182358152602080840135908201528391339132917f0b53196f4acc3a02d05123ed8bfe722836dbafff5ca4ce33e7e974117cfb72509101610ab2565b6040805180820190915260008082526020820152600e80546110e990612e31565b151590506111095750604080518082019091526000808252602082015290565b600e805461111690612e31565b80601f016020809104026020016040519081016040528092919081815260200182805461114290612e31565b801561118f5780601f106111645761010080835404028352916020019161118f565b820191906000526020600020905b81548152906001019060200180831161117257829003601f168201915b50505050508060200190518101906105d791906130a8565b6111cf816040516020016111bb91906130e0565b604051602081830303815290604052612141565b604051339032907f87b5b7afdaff1296d279be13a11697acc1b85af123290db06b274bd3823e3c8b906107c39085906130e0565b6040805180820190915260008082526020820152600d805461111690612e31565b61122c611b59565b6006546040805180820190915260048152631395531360e21b6020820152906112685760405162461bcd60e51b81526004016106269190612b63565b5060065442101560405180604001604052806002815260200161545360f01b815250906112a85760405162461bcd60e51b81526004016106269190612b63565b5060038054600080546001600160a01b038084166001600160a01b03199283168117845560048054600180548286169087168117909155600580546002805497821697891688179055600698909855978616909855841690559290911690925560408051918252602082019390935291820152339032907fef3e4bc9725fa684957d7de03c6dcd01078ee86cf78ceef25c5f8346df69cc9990606001611030565b6040805160208101909152600081526012805461136590612e31565b15159050611380575060408051602081019091526000815290565b6012805461138d90612e31565b80601f01602080910402602001604051908101604052809291908181526020018280546113b990612e31565b80156114065780601f106113db57610100808354040283529160200191611406565b820191906000526020600020905b8154815290600101906020018083116113e957829003601f168201915b50505050508060200190518101906105d791906130f9565b6040805160208101909152600081526000828152600a60205260409020805461144690612e31565b1515905061146257505060408051602081019091526000815290565b6000828152600a602052604090208054610ea490612e31565b61148481612160565b6000818152600a6020526040902080548291339132917f813fb1cc9255f5a8d21316ecd3e0cc533da05634409ca6b43f4db5ee1cc4cdf8916114c590612e31565b80601f01602080910402602001604051908101604052809291908181526020018280546114f190612e31565b801561153e5780601f106115135761010080835404028352916020019161153e565b820191906000526020600020905b81548152906001019060200180831161152157829003601f168201915b50505050508060200190518101906115569190613084565b604051905181526020016108b6565b600154600090819081906001600160a01b031661158185612250565b87516040805180820190915260048152631153541360e21b60208201529296509094508593506115c45760405162461bcd60e51b81526004016106269190612b63565b5060005b8651811015611a915760008782815181106115e5576115e5613127565b6020026020010151905060008111604051806040016040528060028152602001612b2d60f11b8152509061162c5760405162461bcd60e51b81526004016106269190612b63565b50604051639c94d85360e01b8152600481018290526000906001600160a01b03851690639c94d8539060240160206040518083038186803b15801561167057600080fd5b505afa158015611684573d6000803e3d6000fd5b505050506040513d601f19601f820116820180604052508101906116a8919061313d565b60408051808201909152600281526120ad60f11b60208201529091506001600160a01b0382166116eb5760405162461bcd60e51b81526004016106269190612b63565b506040516301ffc9a760e01b8152633d31d51d60e11b60048201526001600160a01b038216906301ffc9a79060240160206040518083038186803b15801561173257600080fd5b505afa158015611746573d6000803e3d6000fd5b505050506040513d601f19601f8201168201806040525081019061176a919061315a565b60405180604001604052806004815260200163494e564960e01b815250906117a55760405162461bcd60e51b81526004016106269190612b63565b506000816001600160a01b031663697222336040518163ffffffff1660e01b815260040160006040518083038186803b1580156117e157600080fd5b505afa1580156117f5573d6000803e3d6000fd5b505050506040513d6000823e601f3d908101601f1916820160405261181d9190810190613177565b9050836119205780518c5114604051806040016040528060048152602001631253959360e21b815250906118645760405162461bcd60e51b81526004016106269190612b63565b506040516301ffc9a760e01b8152632a482de360e21b60048201526001600160a01b038316906301ffc9a79060240160206040518083038186803b1580156118ab57600080fd5b505afa1580156118bf573d6000803e3d6000fd5b505050506040513d601f19601f820116820180604052508101906118e3919061315a565b60405180604001604052806004815260200163494e564960e01b8152509061191e5760405162461bcd60e51b81526004016106269190612b63565b505b6000805b8d51811080156119345750825182105b156119a3578d818151811061194b5761194b613127565b60200260200101516001600160a01b031683838151811061196e5761196e613127565b60200260200101516001600160a01b03161415611993578161198f81613211565b9250505b61199c81613211565b9050611924565b508151811460405180604001604052806005815260200164494e56544f60d81b815250906119e45760405162461bcd60e51b81526004016106269190612b63565b50856001600160a01b03166323b872dd33898e8981518110611a0857611a08613127565b60209081029190910101516040516001600160e01b031960e086901b1681526001600160a01b0393841660048201529290911660248301526044820152606401600060405180830381600087803b158015611a6257600080fd5b505af1158015611a76573d6000803e3d6000fd5b50505050505050508080611a8990613211565b9150506115c8565b50604051631a9caa0160e21b81526001600160a01b03851690636a72a80490611ae69086908c908c908c907f00000000000000000000000000000000000000000000000000000000000000009060040161322c565b600060405180830381600087803b158015611b0057600080fd5b505af1158015611b14573d6000803e3d6000fd5b50505050505094509492505050565b60006301ffc9a760e01b6001600160e01b0319831614806105d157506001600160e01b0319821663effda0f560e01b1492915050565b600054604051630935e01b60e21b81523360048201526001600160a01b03909116906324d7806c9060240160206040518083038186803b158015611b9c57600080fd5b505afa158015611bb0573d6000803e3d6000fd5b505050506040513d601f19601f82011682018060405250810190611bd4919061315a565b6040518060400160405280600381526020016223292160e91b81525090611c0e5760405162461bcd60e51b81526004016106269190612b63565b50565b611c1a81612441565b60008181526009602090815260409182902054825180840190935260048352631395531360e21b918301919091529081611c675760405162461bcd60e51b81526004016106269190612b63565b508042101560405180604001604052806002815260200161545360f01b81525090611ca55760405162461bcd60e51b81526004016106269190612b63565b50600082815260086020908152604080832060079092529091208154909190611ccd90612e31565b611cd89291906127aa565b506000828152600860205260408120611cf091612835565b50600090815260096020526040812055565b611d0b82612441565b60008281526008602090815260409091208251611d2a9284019061286f565b5060008281526007602052604081208054611d4490612e31565b159050611d52576001611d55565b60005b60ff169050806000800160009054906101000a90046001600160a01b03166001600160a01b031663bba329396040518163ffffffff1660e01b815260040160206040518083038186803b158015611dab57600080fd5b505afa158015611dbf573d6000803e3d6000fd5b505050506040513d601f19601f82011682018060405250810190611de39190612dad565b611ded91906132db565b611df79042612ddc565b600093845260096020526040909320929092555050565b611e16611b59565b6000600d8054611e2590612e31565b159050611e33576001611e36565b60005b60ff16905081600e9080519060200190611e5192919061286f565b506000546040805163bba3293960e01b8152905183926001600160a01b03169163bba32939916004808301926020929190829003018186803b158015611e9657600080fd5b505afa158015611eaa573d6000803e3d6000fd5b505050506040513d601f19601f82011682018060405250810190611ece9190612dad565b611ed891906132db565b611ee29042612ddc565b600f555050565b611ef1611b59565b6000828152600b602090815260409091208251611f109284019061286f565b506000828152600a602052604081208054611f2a90612e31565b159050611f38576001611f3b565b60005b60ff169050806000800160009054906101000a90046001600160a01b03166001600160a01b031663bba329396040518163ffffffff1660e01b815260040160206040518083038186803b158015611f9157600080fd5b505afa158015611fa5573d6000803e3d6000fd5b505050506040513d601f19601f82011682018060405250810190611fc99190612dad565b611fd391906132db565b611fdd9042612ddc565b6000938452600c6020526040909320929092555050565b604080516020808252818301909252606091602082018180368337019050509050602060005b60208110156120525783816020811061203557612035613127565b1a61204257809150612052565b61204b81613211565b905061201a565b508152602081019190915290565b612068611b59565b600f546040805180820190915260048152631395531360e21b6020820152906120a45760405162461bcd60e51b81526004016106269190612b63565b50600f5442101560405180604001604052806002815260200161545360f01b815250906120e45760405162461bcd60e51b81526004016106269190612b63565b50600e600d9080546120f590612e31565b6121009291906127aa565b5061210d600e6000612835565b6000600f55565b61211d82612441565b6000828152601060209081526040909120825161213c9284019061286f565b505050565b612149612610565b805161215c90601290602084019061286f565b5050565b612168611b59565b6000818152600c602090815260409182902054825180840190935260048352631395531360e21b9183019190915290816121b55760405162461bcd60e51b81526004016106269190612b63565b508042101560405180604001604052806002815260200161545360f01b815250906121f35760405162461bcd60e51b81526004016106269190612b63565b506000828152600b60209081526040808320600a909252909120815490919061221b90612e31565b6122269291906127aa565b506000828152600b6020526040812061223e91612835565b506000908152600c6020526040812055565b600080546040516363e85d2d60e01b81523360048201526001602482015282916001600160a01b03169081906363e85d2d9060440160206040518083038186803b15801561229d57600080fd5b505afa1580156122b1573d6000803e3d6000fd5b505050506040513d601f19601f820116820180604052508101906122d5919061315a565b6040518060400160405280600381526020016223292160e91b8152509061230f5760405162461bcd60e51b81526004016106269190612b63565b5060015460408051631112eee760e31b815290516001600160a01b039092169182916388977738916004808301926020929190829003018186803b15801561235657600080fd5b505afa15801561236a573d6000803e3d6000fd5b505050506040513d601f19601f8201168201806040525081019061238e9190612dad565b612399906001612ddc565b6002549093506123b2906001600160a01b03168461270a565b6040516305c4fdf960e01b81526001600160a01b0380831660048301528781166024830152919550908216906305c4fdf990604401602060405180830381600087803b15801561240157600080fd5b505af1158015612415573d6000803e3d6000fd5b505050506040513d601f19601f820116820180604052508101906124399190612dad565b505050915091565b600054604051630935e01b60e21b81523360048201526001600160a01b03909116906324d7806c9060240160206040518083038186803b15801561248457600080fd5b505afa158015612498573d6000803e3d6000fd5b505050506040513d601f19601f820116820180604052508101906124bc919061315a565b80612549575060015460405163020604bf60e21b81526004810183905233916001600160a01b03169063081812fc9060240160206040518083038186803b15801561250657600080fd5b505afa15801561251a573d6000803e3d6000fd5b505050506040513d601f19601f8201168201806040525081019061253e919061313d565b6001600160a01b0316145b806125d657506001546040516331a9108f60e11b81526004810183905233916001600160a01b031690636352211e9060240160206040518083038186803b15801561259357600080fd5b505afa1580156125a7573d6000803e3d6000fd5b505050506040513d601f19601f820116820180604052508101906125cb919061313d565b6001600160a01b0316145b6040518060400160405280600381526020016223292160e91b8152509061215c5760405162461bcd60e51b81526004016106269190612b63565b600054604051630935e01b60e21b81523360048201526001600160a01b039091169081906324d7806c9060240160206040518083038186803b15801561265557600080fd5b505afa158015612669573d6000803e3d6000fd5b505050506040513d601f19601f8201168201806040525081019061268d919061315a565b806125d657506040516336b87bd760e11b81523360048201526001600160a01b03821690636d70f7ae9060240160206040518083038186803b1580156126d257600080fd5b505afa1580156126e6573d6000803e3d6000fd5b505050506040513d601f19601f820116820180604052508101906125d6919061315a565b6000604051733d602d80600a3d3981f3363d3d373d3d3d363d7360601b81528360601b60148201526e5af43d82803e903d91602b57fd5bf360881b6028820152826037826000f59150506001600160a01b0381166105d15760405162461bcd60e51b815260206004820152601760248201527f455243313136373a2063726561746532206661696c65640000000000000000006044820152606401610626565b8280546127b690612e31565b90600052602060002090601f0160209004810192826127d85760008555612825565b82601f106127e95780548555612825565b8280016001018555821561282557600052602060002091601f016020900482015b8281111561282557825482559160010191906001019061280a565b506128319291506128e3565b5090565b50805461284190612e31565b6000825580601f10612851575050565b601f016020900490600052602060002090810190611c0e91906128e3565b82805461287b90612e31565b90600052602060002090601f01602090048101928261289d5760008555612825565b82601f106128b657805160ff1916838001178555612825565b82800160010185558215612825579182015b828111156128255782518255916020019190600101906128c8565b5b8082111561283157600081556001016128e4565b60006020828403121561290a57600080fd5b81356001600160e01b03198116811461292257600080fd5b9392505050565b634e487b7160e01b600052604160045260246000fd5b6040805190810167ffffffffffffffff8111828210171561296257612962612929565b60405290565b6040516020810167ffffffffffffffff8111828210171561296257612962612929565b604051601f8201601f1916810167ffffffffffffffff811182821017156129b4576129b4612929565b604052919050565b6001600160a01b0381168114611c0e57600080fd5b6000606082840312156129e357600080fd5b6040516060810181811067ffffffffffffffff82111715612a0657612a06612929565b6040528235612a14816129bc565b81526020830135612a24816129bc565b60208201526040830135612a37816129bc565b60408201529392505050565b600060208284031215612a5557600080fd5b5035919050565b600080828403610100811215612a7157600080fd5b8335925060e0601f1982011215612a8757600080fd5b506020830190509250929050565b600060408284031215612aa757600080fd5b50919050565b600060408284031215612abf57600080fd5b6129228383612a95565b600060208284031215612aa757600080fd5b60008060408385031215612aee57600080fd5b82359150612aff8460208501612ac9565b90509250929050565b81516001600160a01b039081168252602080840151821690830152604080840151151590830152606080840151908301526080808401519083015260a08381015182169083015260c092830151169181019190915260e00190565b600060208083528351808285015260005b81811015612b9057858101830151858201604001528201612b74565b81811115612ba2576000604083870101525b50601f01601f1916929092016040019392505050565b606081016105d1828480516001600160a01b03908116835260208083015182169084015260409182015116910152565b60008060608385031215612bfb57600080fd5b82359150612aff8460208501612a95565b600060208284031215612c1e57600080fd5b6129228383612ac9565b600067ffffffffffffffff821115612c4257612c42612929565b5060051b60200190565b8035612c57816129bc565b919050565b600082601f830112612c6d57600080fd5b81356020612c82612c7d83612c28565b61298b565b82815260059290921b84018101918181019086841115612ca157600080fd5b8286015b84811015612cbc5780358352918301918301612ca5565b509695505050505050565b60008060008060808587031215612cdd57600080fd5b843567ffffffffffffffff80821115612cf557600080fd5b818701915087601f830112612d0957600080fd5b81356020612d19612c7d83612c28565b82815260059290921b8401810191818101908b841115612d3857600080fd5b948201945b83861015612d5f578535612d50816129bc565b82529482019490820190612d3d565b9850612d6e9050898201612c4c565b965050506040870135915080821115612d8657600080fd5b50612d9387828801612c5c565b925050612da260608601612c4c565b905092959194509250565b600060208284031215612dbf57600080fd5b5051919050565b634e487b7160e01b600052601160045260246000fd5b60008219821115612def57612def612dc6565b500190565b60808101612e24828580516001600160a01b03908116835260208083015182169084015260409182015116910152565b8260608301529392505050565b600181811c90821680612e4557607f821691505b60208210811415612aa757634e487b7160e01b600052602260045260246000fd5b8051612c57816129bc565b8015158114611c0e57600080fd5b600060e08284031215612e9157600080fd5b60405160e0810181811067ffffffffffffffff82111715612eb457612eb4612929565b6040528251612ec2816129bc565b81526020830151612ed2816129bc565b60208201526040830151612ee581612e71565b80604083015250606083015160608201526080830151608082015260a0830151612f0e816129bc565b60a0820152612f1f60c08401612e66565b60c08201529392505050565b600060408284031215612f3d57600080fd5b612f4561293f565b82518152602083015160208201528091505092915050565b8035612f68816129bc565b6001600160a01b039081168352602082013590612f84826129bc565b9081166020840152604082013590612f9b82612e71565b8115156040850152606083013560608501526080830135608085015260a08301359150612fc7826129bc565b90811660a084015260c082013590612fde826129bc565b80821660c085015250505050565b60e081016105d18284612f5d565b61010081016130098285612f5d565b8260e08301529392505050565b60006020828403121561302857600080fd5b8135612922816129bc565b803582526020810135613045816129bc565b6001600160a01b03166020929092019190915250565b604081016105d18284613033565b606081016130778285613033565b8260408301529392505050565b60006020828403121561309657600080fd5b61309e612968565b9151825250919050565b6000604082840312156130ba57600080fd5b6130c261293f565b8251815260208301516130d4816129bc565b60208201529392505050565b6020810182356130ef81612e71565b1515909152919050565b60006020828403121561310b57600080fd5b613113612968565b825161311e81612e71565b81529392505050565b634e487b7160e01b600052603260045260246000fd5b60006020828403121561314f57600080fd5b8151612922816129bc565b60006020828403121561316c57600080fd5b815161292281612e71565b6000602080838503121561318a57600080fd5b825167ffffffffffffffff8111156131a157600080fd5b8301601f810185136131b257600080fd5b80516131c0612c7d82612c28565b81815260059190911b820183019083810190878311156131df57600080fd5b928401925b828410156132065783516131f7816129bc565b825292840192908401906131e4565b979650505050505050565b600060001982141561322557613225612dc6565b5060010190565b600060a08201878352602060a08185015281885180845260c086019150828a01935060005b818110156132765784516001600160a01b031683529383019391830191600101613251565b50506001600160a01b03881660408601528481036060860152865180825290820192508187019060005b818110156132bc578251855293830193918301916001016132a0565b5050506001600160a01b03851660808501525090509695505050505050565b60008160001904831182151516156132f5576132f5612dc6565b50029056fea2646970667358221220b2294e9076a79eb7f2c98c5e8159b5a6cc9f80736680afbd2b791e5cd5c5df6964736f6c63430008090033",
			"opcodes": "PUSH1 0xA0 PUSH1 0x40 MSTORE CALLVALUE DUP1 ISZERO PUSH3 0x11 JUMPI PUSH1 0x0 DUP1 REVERT JUMPDEST POP PUSH1 0x40 MLOAD PUSH3 0x3822 CODESIZE SUB DUP1 PUSH3 0x3822 DUP4 CODECOPY DUP2 ADD PUSH1 0x40 DUP2 SWAP1 MSTORE PUSH3 0x34 SWAP2 PUSH3 0x379 JUMP JUMPDEST DUP3 MLOAD PUSH1 0x40 DUP1 MLOAD DUP1 DUP3 ADD SWAP1 SWAP2 MSTORE PUSH1 0x2 DUP2 MSTORE PUSH2 0x20AD PUSH1 0xF1 SHL PUSH1 0x20 DUP3 ADD MSTORE DUP5 SWAP2 PUSH1 0x1 PUSH1 0x1 PUSH1 0xA0 SHL SUB AND PUSH3 0x83 JUMPI PUSH1 0x40 MLOAD PUSH3 0x461BCD PUSH1 0xE5 SHL DUP2 MSTORE PUSH1 0x4 ADD PUSH3 0x7A SWAP2 SWAP1 PUSH3 0x43A JUMP JUMPDEST PUSH1 0x40 MLOAD DUP1 SWAP2 SUB SWAP1 REVERT JUMPDEST POP PUSH1 0x0 PUSH1 0x1 PUSH1 0x1 PUSH1 0xA0 SHL SUB AND DUP2 PUSH1 0x20 ADD MLOAD PUSH1 0x1 PUSH1 0x1 PUSH1 0xA0 SHL SUB AND EQ ISZERO PUSH1 0x40 MLOAD DUP1 PUSH1 0x40 ADD PUSH1 0x40 MSTORE DUP1 PUSH1 0x2 DUP2 MSTORE PUSH1 0x20 ADD PUSH2 0x20AD PUSH1 0xF1 SHL DUP2 MSTORE POP SWAP1 PUSH3 0xDB JUMPI PUSH1 0x40 MLOAD PUSH3 0x461BCD PUSH1 0xE5 SHL DUP2 MSTORE PUSH1 0x4 ADD PUSH3 0x7A SWAP2 SWAP1 PUSH3 0x43A JUMP JUMPDEST POP PUSH1 0x40 DUP1 DUP3 ADD MLOAD DUP2 MLOAD DUP1 DUP4 ADD SWAP1 SWAP3 MSTORE PUSH1 0x2 DUP3 MSTORE PUSH2 0x20AD PUSH1 0xF1 SHL PUSH1 0x20 DUP4 ADD MSTORE PUSH1 0x1 PUSH1 0x1 PUSH1 0xA0 SHL SUB AND PUSH3 0x122 JUMPI PUSH1 0x40 MLOAD PUSH3 0x461BCD PUSH1 0xE5 SHL DUP2 MSTORE PUSH1 0x4 ADD PUSH3 0x7A SWAP2 SWAP1 PUSH3 0x43A JUMP JUMPDEST POP DUP1 MLOAD PUSH1 0x0 DUP1 SLOAD PUSH1 0x1 PUSH1 0x1 PUSH1 0xA0 SHL SUB NOT SWAP1 DUP2 AND PUSH1 0x1 PUSH1 0x1 PUSH1 0xA0 SHL SUB SWAP4 DUP5 AND OR SWAP1 SWAP2 SSTORE PUSH1 0x20 DUP1 DUP5 ADD MLOAD PUSH1 0x1 DUP1 SLOAD DUP5 AND SWAP2 DUP6 AND SWAP2 SWAP1 SWAP2 OR SWAP1 SSTORE PUSH1 0x40 SWAP4 DUP5 ADD MLOAD PUSH1 0x2 DUP1 SLOAD SWAP1 SWAP4 AND SWAP1 DUP5 AND OR DUP3 SSTORE DUP6 DUP2 ADD MLOAD DUP5 MLOAD DUP1 DUP7 ADD SWAP1 SWAP6 MSTORE SWAP2 DUP5 MSTORE PUSH2 0x20AD PUSH1 0xF1 SHL SWAP1 DUP5 ADD MSTORE AND PUSH3 0x1A6 JUMPI PUSH1 0x40 MLOAD PUSH3 0x461BCD PUSH1 0xE5 SHL DUP2 MSTORE PUSH1 0x4 ADD PUSH3 0x7A SWAP2 SWAP1 PUSH3 0x43A JUMP JUMPDEST POP PUSH1 0x40 DUP1 MLOAD DUP1 DUP3 ADD SWAP1 SWAP2 MSTORE PUSH1 0x2 DUP2 MSTORE PUSH2 0x20AD PUSH1 0xF1 SHL PUSH1 0x20 DUP3 ADD MSTORE PUSH1 0x1 PUSH1 0x1 PUSH1 0xA0 SHL SUB DUP3 AND PUSH3 0x1EA JUMPI PUSH1 0x40 MLOAD PUSH3 0x461BCD PUSH1 0xE5 SHL DUP2 MSTORE PUSH1 0x4 ADD PUSH3 0x7A SWAP2 SWAP1 PUSH3 0x43A JUMP JUMPDEST POP PUSH1 0x1 PUSH1 0x1 PUSH1 0xA0 SHL SUB DUP2 DUP2 AND PUSH1 0x80 MSTORE PUSH1 0x40 DUP1 MLOAD DUP5 MLOAD PUSH1 0x20 DUP1 DUP4 ADD SWAP2 SWAP1 SWAP2 MSTORE DUP1 DUP7 ADD MLOAD SWAP1 SWAP4 AND DUP2 DUP4 ADD MSTORE DUP2 MLOAD DUP1 DUP3 SUB DUP4 ADD DUP2 MSTORE PUSH1 0x60 SWAP1 SWAP2 ADD SWAP1 SWAP2 MSTORE DUP1 MLOAD PUSH3 0x236 SWAP3 PUSH1 0xD SWAP3 ADD SWAP1 PUSH3 0x240 JUMP JUMPDEST POP POP POP POP PUSH3 0x4CF JUMP JUMPDEST DUP3 DUP1 SLOAD PUSH3 0x24E SWAP1 PUSH3 0x492 JUMP JUMPDEST SWAP1 PUSH1 0x0 MSTORE PUSH1 0x20 PUSH1 0x0 KECCAK256 SWAP1 PUSH1 0x1F ADD PUSH1 0x20 SWAP1 DIV DUP2 ADD SWAP3 DUP3 PUSH3 0x272 JUMPI PUSH1 0x0 DUP6 SSTORE PUSH3 0x2BD JUMP JUMPDEST DUP3 PUSH1 0x1F LT PUSH3 0x28D JUMPI DUP1 MLOAD PUSH1 0xFF NOT AND DUP4 DUP1 ADD OR DUP6 SSTORE PUSH3 0x2BD JUMP JUMPDEST DUP3 DUP1 ADD PUSH1 0x1 ADD DUP6 SSTORE DUP3 ISZERO PUSH3 0x2BD JUMPI SWAP2 DUP3 ADD JUMPDEST DUP3 DUP2 GT ISZERO PUSH3 0x2BD JUMPI DUP3 MLOAD DUP3 SSTORE SWAP2 PUSH1 0x20 ADD SWAP2 SWAP1 PUSH1 0x1 ADD SWAP1 PUSH3 0x2A0 JUMP JUMPDEST POP PUSH3 0x2CB SWAP3 SWAP2 POP PUSH3 0x2CF JUMP JUMPDEST POP SWAP1 JUMP JUMPDEST JUMPDEST DUP1 DUP3 GT ISZERO PUSH3 0x2CB JUMPI PUSH1 0x0 DUP2 SSTORE PUSH1 0x1 ADD PUSH3 0x2D0 JUMP JUMPDEST PUSH1 0x40 MLOAD PUSH1 0x60 DUP2 ADD PUSH1 0x1 PUSH1 0x1 PUSH1 0x40 SHL SUB DUP2 GT DUP3 DUP3 LT OR ISZERO PUSH3 0x317 JUMPI PUSH4 0x4E487B71 PUSH1 0xE0 SHL PUSH1 0x0 MSTORE PUSH1 0x41 PUSH1 0x4 MSTORE PUSH1 0x24 PUSH1 0x0 REVERT JUMPDEST PUSH1 0x40 MSTORE SWAP1 JUMP JUMPDEST PUSH1 0x40 DUP1 MLOAD SWAP1 DUP2 ADD PUSH1 0x1 PUSH1 0x1 PUSH1 0x40 SHL SUB DUP2 GT DUP3 DUP3 LT OR ISZERO PUSH3 0x317 JUMPI PUSH4 0x4E487B71 PUSH1 0xE0 SHL PUSH1 0x0 MSTORE PUSH1 0x41 PUSH1 0x4 MSTORE PUSH1 0x24 PUSH1 0x0 REVERT JUMPDEST PUSH1 0x1 PUSH1 0x1 PUSH1 0xA0 SHL SUB DUP2 AND DUP2 EQ PUSH3 0x364 JUMPI PUSH1 0x0 DUP1 REVERT JUMPDEST POP JUMP JUMPDEST DUP1 MLOAD PUSH3 0x374 DUP2 PUSH3 0x34E JUMP JUMPDEST SWAP2 SWAP1 POP JUMP JUMPDEST PUSH1 0x0 DUP1 PUSH1 0x0 DUP4 DUP6 SUB PUSH1 0xC0 DUP2 SLT ISZERO PUSH3 0x390 JUMPI PUSH1 0x0 DUP1 REVERT JUMPDEST PUSH1 0x60 DUP2 SLT ISZERO PUSH3 0x39F JUMPI PUSH1 0x0 DUP1 REVERT JUMPDEST PUSH3 0x3A9 PUSH3 0x2E6 JUMP JUMPDEST DUP6 MLOAD PUSH3 0x3B6 DUP2 PUSH3 0x34E JUMP JUMPDEST DUP2 MSTORE PUSH1 0x20 DUP7 ADD MLOAD PUSH3 0x3C8 DUP2 PUSH3 0x34E JUMP JUMPDEST PUSH1 0x20 DUP3 ADD MSTORE PUSH1 0x40 DUP7 ADD MLOAD PUSH3 0x3DD DUP2 PUSH3 0x34E JUMP JUMPDEST PUSH1 0x40 DUP3 DUP2 ADD SWAP2 SWAP1 SWAP2 MSTORE SWAP1 SWAP5 POP PUSH1 0x5F NOT DUP3 ADD SLT ISZERO PUSH3 0x3FA JUMPI PUSH1 0x0 DUP1 REVERT JUMPDEST POP PUSH3 0x405 PUSH3 0x31D JUMP JUMPDEST PUSH1 0x60 DUP6 ADD MLOAD DUP2 MSTORE PUSH1 0x80 DUP6 ADD MLOAD PUSH3 0x41C DUP2 PUSH3 0x34E JUMP JUMPDEST PUSH1 0x20 DUP3 ADD MSTORE SWAP2 POP PUSH3 0x431 PUSH1 0xA0 DUP6 ADD PUSH3 0x367 JUMP JUMPDEST SWAP1 POP SWAP3 POP SWAP3 POP SWAP3 JUMP JUMPDEST PUSH1 0x0 PUSH1 0x20 DUP1 DUP4 MSTORE DUP4 MLOAD DUP1 DUP3 DUP6 ADD MSTORE PUSH1 0x0 JUMPDEST DUP2 DUP2 LT ISZERO PUSH3 0x469 JUMPI DUP6 DUP2 ADD DUP4 ADD MLOAD DUP6 DUP3 ADD PUSH1 0x40 ADD MSTORE DUP3 ADD PUSH3 0x44B JUMP JUMPDEST DUP2 DUP2 GT ISZERO PUSH3 0x47C JUMPI PUSH1 0x0 PUSH1 0x40 DUP4 DUP8 ADD ADD MSTORE JUMPDEST POP PUSH1 0x1F ADD PUSH1 0x1F NOT AND SWAP3 SWAP1 SWAP3 ADD PUSH1 0x40 ADD SWAP4 SWAP3 POP POP POP JUMP JUMPDEST PUSH1 0x1 DUP2 DUP2 SHR SWAP1 DUP3 AND DUP1 PUSH3 0x4A7 JUMPI PUSH1 0x7F DUP3 AND SWAP2 POP JUMPDEST PUSH1 0x20 DUP3 LT DUP2 EQ ISZERO PUSH3 0x4C9 JUMPI PUSH4 0x4E487B71 PUSH1 0xE0 SHL PUSH1 0x0 MSTORE PUSH1 0x22 PUSH1 0x4 MSTORE PUSH1 0x24 PUSH1 0x0 REVERT JUMPDEST POP SWAP2 SWAP1 POP JUMP JUMPDEST PUSH1 0x80 MLOAD PUSH2 0x3330 PUSH3 0x4F2 PUSH1 0x0 CODECOPY PUSH1 0x0 DUP2 DUP2 PUSH2 0x348 ADD MSTORE PUSH2 0x1ABE ADD MSTORE PUSH2 0x3330 PUSH1 0x0 RETURN INVALID PUSH1 0x80 PUSH1 0x40 MSTORE CALLVALUE DUP1 ISZERO PUSH2 0x10 JUMPI PUSH1 0x0 DUP1 REVERT JUMPDEST POP PUSH1 0x4 CALLDATASIZE LT PUSH2 0x206 JUMPI PUSH1 0x0 CALLDATALOAD PUSH1 0xE0 SHR DUP1 PUSH4 0x8860D248 GT PUSH2 0x11A JUMPI DUP1 PUSH4 0xC2CBDC67 GT PUSH2 0xAD JUMPI DUP1 PUSH4 0xDB2030AA GT PUSH2 0x7C JUMPI DUP1 PUSH4 0xDB2030AA EQ PUSH2 0x532 JUMPI DUP1 PUSH4 0xDBB1C35F EQ PUSH2 0x54B JUMPI DUP1 PUSH4 0xE4AF6E79 EQ PUSH2 0x55E JUMPI DUP1 PUSH4 0xEE2D59F4 EQ PUSH2 0x566 JUMPI DUP1 PUSH4 0xF699A607 EQ PUSH2 0x579 JUMPI PUSH1 0x0 DUP1 REVERT JUMPDEST DUP1 PUSH4 0xC2CBDC67 EQ PUSH2 0x4E3 JUMPI DUP1 PUSH4 0xC8E8A766 EQ PUSH2 0x50F JUMPI DUP1 PUSH4 0xD34CC380 EQ PUSH2 0x522 JUMPI DUP1 PUSH4 0xD4A07D34 EQ PUSH2 0x52A JUMPI PUSH1 0x0 DUP1 REVERT JUMPDEST DUP1 PUSH4 0xA0A8E460 GT PUSH2 0xE9 JUMPI DUP1 PUSH4 0xA0A8E460 EQ PUSH2 0x4B2 JUMPI DUP1 PUSH4 0xAFD2C7E9 EQ PUSH2 0x4BA JUMPI DUP1 PUSH4 0xB8CA3B83 EQ PUSH2 0x4CD JUMPI DUP1 PUSH4 0xBDCA9165 EQ PUSH2 0x4D8 JUMPI PUSH1 0x0 DUP1 REVERT JUMPDEST DUP1 PUSH4 0x8860D248 EQ PUSH2 0x46A JUMPI DUP1 PUSH4 0x8E207DDA EQ PUSH2 0x47D JUMPI DUP1 PUSH4 0x98347A5D EQ PUSH2 0x49F JUMPI DUP1 PUSH4 0x9908840C EQ PUSH2 0x4A7 JUMPI PUSH1 0x0 DUP1 REVERT JUMPDEST DUP1 PUSH4 0x3D8C08B9 GT PUSH2 0x19D JUMPI DUP1 PUSH4 0x63B0E66A GT PUSH2 0x16C JUMPI DUP1 PUSH4 0x63B0E66A EQ PUSH2 0x343 JUMPI DUP1 PUSH4 0x6707ACEE EQ PUSH2 0x382 JUMPI DUP1 PUSH4 0x75D0C0DC EQ PUSH2 0x3A2 JUMPI DUP1 PUSH4 0x7AC46FBB EQ PUSH2 0x3B7 JUMPI DUP1 PUSH4 0x86C6BE3E EQ PUSH2 0x417 JUMPI PUSH1 0x0 DUP1 REVERT JUMPDEST DUP1 PUSH4 0x3D8C08B9 EQ PUSH2 0x2DD JUMPI DUP1 PUSH4 0x511CE798 EQ PUSH2 0x2F0 JUMPI DUP1 PUSH4 0x59331D78 EQ PUSH2 0x310 JUMPI DUP1 PUSH4 0x59F3DAE7 EQ PUSH2 0x323 JUMPI PUSH1 0x0 DUP1 REVERT JUMPDEST DUP1 PUSH4 0xE3E80AC GT PUSH2 0x1D9 JUMPI DUP1 PUSH4 0xE3E80AC EQ PUSH2 0x273 JUMPI DUP1 PUSH4 0x12466B68 EQ PUSH2 0x294 JUMPI DUP1 PUSH4 0x1C7F4C73 EQ PUSH2 0x2C2 JUMPI DUP1 PUSH4 0x221CC263 EQ PUSH2 0x2CA JUMPI PUSH1 0x0 DUP1 REVERT JUMPDEST DUP1 PUSH4 0x1FFC9A7 EQ PUSH2 0x20B JUMPI DUP1 PUSH4 0x6A46239 EQ PUSH2 0x233 JUMPI DUP1 PUSH4 0x9946538 EQ PUSH2 0x24B JUMPI DUP1 PUSH4 0xBDEDD56 EQ PUSH2 0x260 JUMPI JUMPDEST PUSH1 0x0 DUP1 REVERT JUMPDEST PUSH2 0x21E PUSH2 0x219 CALLDATASIZE PUSH1 0x4 PUSH2 0x28F8 JUMP JUMPDEST PUSH2 0x5AB JUMP JUMPDEST PUSH1 0x40 MLOAD SWAP1 ISZERO ISZERO DUP2 MSTORE PUSH1 0x20 ADD JUMPDEST PUSH1 0x40 MLOAD DUP1 SWAP2 SUB SWAP1 RETURN JUMPDEST PUSH5 0x312E302E3 PUSH1 0xDC SHL JUMPDEST PUSH1 0x40 MLOAD SWAP1 DUP2 MSTORE PUSH1 0x20 ADD PUSH2 0x22A JUMP JUMPDEST PUSH2 0x25E PUSH2 0x259 CALLDATASIZE PUSH1 0x4 PUSH2 0x29D1 JUMP JUMPDEST PUSH2 0x5DC JUMP JUMPDEST STOP JUMPDEST PUSH2 0x25E PUSH2 0x26E CALLDATASIZE PUSH1 0x4 PUSH2 0x2A43 JUMP JUMPDEST PUSH2 0x7CE JUMP JUMPDEST PUSH24 0x4552433230526F6F745661756C74476F7665726E616E6365 PUSH1 0x40 SHL PUSH2 0x23D JUMP JUMPDEST PUSH2 0x2A7 PUSH2 0x2A2 CALLDATASIZE PUSH1 0x4 PUSH2 0x2A43 JUMP JUMPDEST PUSH2 0x8C1 JUMP JUMPDEST PUSH1 0x40 DUP1 MLOAD DUP3 MLOAD DUP2 MSTORE PUSH1 0x20 SWAP3 DUP4 ADD MLOAD SWAP3 DUP2 ADD SWAP3 SWAP1 SWAP3 MSTORE ADD PUSH2 0x22A JUMP JUMPDEST PUSH1 0x6 SLOAD PUSH2 0x23D JUMP JUMPDEST PUSH2 0x25E PUSH2 0x2D8 CALLDATASIZE PUSH1 0x4 PUSH2 0x2A5C JUMP JUMPDEST PUSH2 0x9B9 JUMP JUMPDEST PUSH2 0x25E PUSH2 0x2EB CALLDATASIZE PUSH1 0x4 PUSH2 0x2AAD JUMP JUMPDEST PUSH2 0xABE JUMP JUMPDEST PUSH2 0x23D PUSH2 0x2FE CALLDATASIZE PUSH1 0x4 PUSH2 0x2A43 JUMP JUMPDEST PUSH1 0x0 SWAP1 DUP2 MSTORE PUSH1 0xC PUSH1 0x20 MSTORE PUSH1 0x40 SWAP1 KECCAK256 SLOAD SWAP1 JUMP JUMPDEST PUSH2 0x25E PUSH2 0x31E CALLDATASIZE PUSH1 0x4 PUSH2 0x2ADB JUMP JUMPDEST PUSH2 0xB75 JUMP JUMPDEST PUSH2 0x336 PUSH2 0x331 CALLDATASIZE PUSH1 0x4 PUSH2 0x2A43 JUMP JUMPDEST PUSH2 0xC2E JUMP JUMPDEST PUSH1 0x40 MLOAD PUSH2 0x22A SWAP2 SWAP1 PUSH2 0x2B08 JUMP JUMPDEST PUSH2 0x36A PUSH32 0x0 DUP2 JUMP JUMPDEST PUSH1 0x40 MLOAD PUSH1 0x1 PUSH1 0x1 PUSH1 0xA0 SHL SUB SWAP1 SWAP2 AND DUP2 MSTORE PUSH1 0x20 ADD PUSH2 0x22A JUMP JUMPDEST PUSH2 0x23D PUSH2 0x390 CALLDATASIZE PUSH1 0x4 PUSH2 0x2A43 JUMP JUMPDEST PUSH1 0x0 SWAP1 DUP2 MSTORE PUSH1 0x9 PUSH1 0x20 MSTORE PUSH1 0x40 SWAP1 KECCAK256 SLOAD SWAP1 JUMP JUMPDEST PUSH2 0x3AA PUSH2 0xD70 JUMP JUMPDEST PUSH1 0x40 MLOAD PUSH2 0x22A SWAP2 SWAP1 PUSH2 0x2B63 JUMP JUMPDEST PUSH2 0x40A PUSH1 0x40 DUP1 MLOAD PUSH1 0x60 DUP2 ADD DUP3 MSTORE PUSH1 0x0 DUP1 DUP3 MSTORE PUSH1 0x20 DUP3 ADD DUP2 SWAP1 MSTORE SWAP2 DUP2 ADD SWAP2 SWAP1 SWAP2 MSTORE POP PUSH1 0x40 DUP1 MLOAD PUSH1 0x60 DUP2 ADD DUP3 MSTORE PUSH1 0x0 SLOAD PUSH1 0x1 PUSH1 0x1 PUSH1 0xA0 SHL SUB SWAP1 DUP2 AND DUP3 MSTORE PUSH1 0x1 SLOAD DUP2 AND PUSH1 0x20 DUP4 ADD MSTORE PUSH1 0x2 SLOAD AND SWAP2 DUP2 ADD SWAP2 SWAP1 SWAP2 MSTORE SWAP1 JUMP JUMPDEST PUSH1 0x40 MLOAD PUSH2 0x22A SWAP2 SWAP1 PUSH2 0x2BB8 JUMP JUMPDEST PUSH2 0x40A PUSH1 0x40 DUP1 MLOAD PUSH1 0x60 DUP2 ADD DUP3 MSTORE PUSH1 0x0 DUP1 DUP3 MSTORE PUSH1 0x20 DUP3 ADD DUP2 SWAP1 MSTORE SWAP2 DUP2 ADD SWAP2 SWAP1 SWAP2 MSTORE POP PUSH1 0x40 DUP1 MLOAD PUSH1 0x60 DUP2 ADD DUP3 MSTORE PUSH1 0x3 SLOAD PUSH1 0x1 PUSH1 0x1 PUSH1 0xA0 SHL SUB SWAP1 DUP2 AND DUP3 MSTORE PUSH1 0x4 SLOAD DUP2 AND PUSH1 0x20 DUP4 ADD MSTORE PUSH1 0x5 SLOAD AND SWAP2 DUP2 ADD SWAP2 SWAP1 SWAP2 MSTORE SWAP1 JUMP JUMPDEST PUSH2 0x336 PUSH2 0x478 CALLDATASIZE PUSH1 0x4 PUSH2 0x2A43 JUMP JUMPDEST PUSH2 0xD96 JUMP JUMPDEST PUSH2 0x490 PUSH2 0x48B CALLDATASIZE PUSH1 0x4 PUSH2 0x2A43 JUMP JUMPDEST PUSH2 0xE47 JUMP JUMPDEST PUSH1 0x40 MLOAD SWAP1 MLOAD DUP2 MSTORE PUSH1 0x20 ADD PUSH2 0x22A JUMP JUMPDEST PUSH2 0x25E PUSH2 0xF35 JUMP JUMPDEST PUSH2 0x23D PUSH4 0x5F5E100 DUP2 JUMP JUMPDEST PUSH2 0x3AA PUSH2 0x103A JUMP JUMPDEST PUSH2 0x25E PUSH2 0x4C8 CALLDATASIZE PUSH1 0x4 PUSH2 0x2BE8 JUMP JUMPDEST PUSH2 0x104D JUMP JUMPDEST PUSH2 0x23D PUSH4 0x2FAF080 DUP2 JUMP JUMPDEST PUSH2 0x23D PUSH4 0x1DCD6500 DUP2 JUMP JUMPDEST PUSH2 0x4EB PUSH2 0x10C8 JUMP JUMPDEST PUSH1 0x40 DUP1 MLOAD DUP3 MLOAD DUP2 MSTORE PUSH1 0x20 SWAP3 DUP4 ADD MLOAD PUSH1 0x1 PUSH1 0x1 PUSH1 0xA0 SHL SUB AND SWAP3 DUP2 ADD SWAP3 SWAP1 SWAP3 MSTORE ADD PUSH2 0x22A JUMP JUMPDEST PUSH2 0x25E PUSH2 0x51D CALLDATASIZE PUSH1 0x4 PUSH2 0x2C0C JUMP JUMPDEST PUSH2 0x11A7 JUMP JUMPDEST PUSH2 0x4EB PUSH2 0x1203 JUMP JUMPDEST PUSH2 0x25E PUSH2 0x1224 JUMP JUMPDEST PUSH2 0x53A PUSH2 0x1349 JUMP JUMPDEST PUSH1 0x40 MLOAD SWAP1 MLOAD ISZERO ISZERO DUP2 MSTORE PUSH1 0x20 ADD PUSH2 0x22A JUMP JUMPDEST PUSH2 0x490 PUSH2 0x559 CALLDATASIZE PUSH1 0x4 PUSH2 0x2A43 JUMP JUMPDEST PUSH2 0x141E JUMP JUMPDEST PUSH1 0xF SLOAD PUSH2 0x23D JUMP JUMPDEST PUSH2 0x25E PUSH2 0x574 CALLDATASIZE PUSH1 0x4 PUSH2 0x2A43 JUMP JUMPDEST PUSH2 0x147B JUMP JUMPDEST PUSH2 0x58C PUSH2 0x587 CALLDATASIZE PUSH1 0x4 PUSH2 0x2CC7 JUMP JUMPDEST PUSH2 0x1565 JUMP JUMPDEST PUSH1 0x40 DUP1 MLOAD PUSH1 0x1 PUSH1 0x1 PUSH1 0xA0 SHL SUB SWAP1 SWAP4 AND DUP4 MSTORE PUSH1 0x20 DUP4 ADD SWAP2 SWAP1 SWAP2 MSTORE ADD PUSH2 0x22A JUMP JUMPDEST PUSH1 0x0 PUSH2 0x5B6 DUP3 PUSH2 0x1B23 JUMP JUMPDEST DUP1 PUSH2 0x5D1 JUMPI POP PUSH4 0x6A2C333 PUSH1 0xE4 SHL PUSH1 0x1 PUSH1 0x1 PUSH1 0xE0 SHL SUB NOT DUP4 AND EQ JUMPDEST SWAP3 SWAP2 POP POP JUMP JUMPDEST SWAP1 POP SWAP1 JUMP JUMPDEST PUSH2 0x5E4 PUSH2 0x1B59 JUMP JUMPDEST DUP1 MLOAD PUSH1 0x40 DUP1 MLOAD DUP1 DUP3 ADD SWAP1 SWAP2 MSTORE PUSH1 0x2 DUP2 MSTORE PUSH2 0x20AD PUSH1 0xF1 SHL PUSH1 0x20 DUP3 ADD MSTORE SWAP1 PUSH1 0x1 PUSH1 0x1 PUSH1 0xA0 SHL SUB AND PUSH2 0x62F JUMPI PUSH1 0x40 MLOAD PUSH3 0x461BCD PUSH1 0xE5 SHL DUP2 MSTORE PUSH1 0x4 ADD PUSH2 0x626 SWAP2 SWAP1 PUSH2 0x2B63 JUMP JUMPDEST PUSH1 0x40 MLOAD DUP1 SWAP2 SUB SWAP1 REVERT JUMPDEST POP PUSH1 0x0 PUSH1 0x1 PUSH1 0x1 PUSH1 0xA0 SHL SUB AND DUP2 PUSH1 0x20 ADD MLOAD PUSH1 0x1 PUSH1 0x1 PUSH1 0xA0 SHL SUB AND EQ ISZERO PUSH1 0x40 MLOAD DUP1 PUSH1 0x40 ADD PUSH1 0x40 MSTORE DUP1 PUSH1 0x2 DUP2 MSTORE PUSH1 0x20 ADD PUSH2 0x20AD PUSH1 0xF1 SHL DUP2 MSTORE POP SWAP1 PUSH2 0x684 JUMPI PUSH1 0x40 MLOAD PUSH3 0x461BCD PUSH1 0xE5 SHL DUP2 MSTORE PUSH1 0x4 ADD PUSH2 0x626 SWAP2 SWAP1 PUSH2 0x2B63 JUMP JUMPDEST POP PUSH1 0x40 DUP1 DUP3 ADD MLOAD DUP2 MLOAD DUP1 DUP4 ADD SWAP1 SWAP3 MSTORE PUSH1 0x2 DUP3 MSTORE PUSH2 0x20AD PUSH1 0xF1 SHL PUSH1 0x20 DUP4 ADD MSTORE PUSH1 0x1 PUSH1 0x1 PUSH1 0xA0 SHL SUB AND PUSH2 0x6C8 JUMPI PUSH1 0x40 MLOAD PUSH3 0x461BCD PUSH1 0xE5 SHL DUP2 MSTORE PUSH1 0x4 ADD PUSH2 0x626 SWAP2 SWAP1 PUSH2 0x2B63 JUMP JUMPDEST POP DUP1 MLOAD PUSH1 0x3 DUP1 SLOAD PUSH1 0x1 PUSH1 0x1 PUSH1 0xA0 SHL SUB NOT SWAP1 DUP2 AND PUSH1 0x1 PUSH1 0x1 PUSH1 0xA0 SHL SUB SWAP4 DUP5 AND OR SWAP1 SWAP2 SSTORE PUSH1 0x20 DUP1 DUP5 ADD MLOAD PUSH1 0x4 DUP1 SLOAD DUP5 AND SWAP2 DUP6 AND SWAP2 SWAP1 SWAP2 OR DUP2 SSTORE PUSH1 0x40 DUP1 DUP7 ADD MLOAD PUSH1 0x5 DUP1 SLOAD SWAP1 SWAP6 AND SWAP1 DUP7 AND OR SWAP1 SWAP4 SSTORE PUSH1 0x0 SLOAD DUP4 MLOAD PUSH4 0xBBA32939 PUSH1 0xE0 SHL DUP2 MSTORE SWAP4 MLOAD SWAP5 AND SWAP4 PUSH4 0xBBA32939 SWAP4 DUP1 DUP4 ADD SWAP4 SWAP3 SWAP1 DUP3 SWAP1 SUB ADD DUP2 DUP7 DUP1 EXTCODESIZE ISZERO DUP1 ISZERO PUSH2 0x747 JUMPI PUSH1 0x0 DUP1 REVERT JUMPDEST POP GAS STATICCALL ISZERO DUP1 ISZERO PUSH2 0x75B JUMPI RETURNDATASIZE PUSH1 0x0 DUP1 RETURNDATACOPY RETURNDATASIZE PUSH1 0x0 REVERT JUMPDEST POP POP POP POP PUSH1 0x40 MLOAD RETURNDATASIZE PUSH1 0x1F NOT PUSH1 0x1F DUP3 ADD AND DUP3 ADD DUP1 PUSH1 0x40 MSTORE POP DUP2 ADD SWAP1 PUSH2 0x77F SWAP2 SWAP1 PUSH2 0x2DAD JUMP JUMPDEST PUSH2 0x789 SWAP1 TIMESTAMP PUSH2 0x2DDC JUMP JUMPDEST PUSH1 0x6 DUP2 SWAP1 SSTORE PUSH1 0x40 MLOAD CALLER SWAP2 ORIGIN SWAP2 PUSH32 0x887CAB3184F7C02B16978AB31F8ACEE05979F59FC3DA6ABE5BF71105EC3179D SWAP2 PUSH2 0x7C3 SWAP2 DUP7 SWAP2 SWAP1 PUSH2 0x2DF4 JUMP JUMPDEST PUSH1 0x40 MLOAD DUP1 SWAP2 SUB SWAP1 LOG3 POP JUMP JUMPDEST PUSH2 0x7D7 DUP2 PUSH2 0x1C11 JUMP JUMPDEST PUSH1 0x0 DUP2 DUP2 MSTORE PUSH1 0x7 PUSH1 0x20 MSTORE PUSH1 0x40 SWAP1 KECCAK256 DUP1 SLOAD DUP3 SWAP2 CALLER SWAP2 ORIGIN SWAP2 PUSH32 0xECE5C2F5548F6B356EE66C404A736C4A1393D2D7F339F1B11325CCF9ED7DA3BB SWAP2 PUSH2 0x818 SWAP1 PUSH2 0x2E31 JUMP JUMPDEST DUP1 PUSH1 0x1F ADD PUSH1 0x20 DUP1 SWAP2 DIV MUL PUSH1 0x20 ADD PUSH1 0x40 MLOAD SWAP1 DUP2 ADD PUSH1 0x40 MSTORE DUP1 SWAP3 SWAP2 SWAP1 DUP2 DUP2 MSTORE PUSH1 0x20 ADD DUP3 DUP1 SLOAD PUSH2 0x844 SWAP1 PUSH2 0x2E31 JUMP JUMPDEST DUP1 ISZERO PUSH2 0x891 JUMPI DUP1 PUSH1 0x1F LT PUSH2 0x866 JUMPI PUSH2 0x100 DUP1 DUP4 SLOAD DIV MUL DUP4 MSTORE SWAP2 PUSH1 0x20 ADD SWAP2 PUSH2 0x891 JUMP JUMPDEST DUP3 ADD SWAP2 SWAP1 PUSH1 0x0 MSTORE PUSH1 0x20 PUSH1 0x0 KECCAK256 SWAP1 JUMPDEST DUP2 SLOAD DUP2 MSTORE SWAP1 PUSH1 0x1 ADD SWAP1 PUSH1 0x20 ADD DUP1 DUP4 GT PUSH2 0x874 JUMPI DUP3 SWAP1 SUB PUSH1 0x1F AND DUP3 ADD SWAP2 JUMPDEST POP POP POP POP POP DUP1 PUSH1 0x20 ADD SWAP1 MLOAD DUP2 ADD SWAP1 PUSH2 0x8A9 SWAP2 SWAP1 PUSH2 0x2E7F JUMP JUMPDEST PUSH1 0x40 MLOAD PUSH2 0x8B6 SWAP2 SWAP1 PUSH2 0x2B08 JUMP JUMPDEST PUSH1 0x40 MLOAD DUP1 SWAP2 SUB SWAP1 LOG4 POP JUMP JUMPDEST PUSH1 0x40 DUP1 MLOAD DUP1 DUP3 ADD SWAP1 SWAP2 MSTORE PUSH1 0x0 DUP1 DUP3 MSTORE PUSH1 0x20 DUP3 ADD MSTORE PUSH1 0x0 DUP3 DUP2 MSTORE PUSH1 0x10 PUSH1 0x20 MSTORE PUSH1 0x40 SWAP1 KECCAK256 DUP1 SLOAD PUSH2 0x8EE SWAP1 PUSH2 0x2E31 JUMP JUMPDEST ISZERO ISZERO SWAP1 POP PUSH2 0x90F JUMPI POP POP PUSH1 0x40 DUP1 MLOAD DUP1 DUP3 ADD SWAP1 SWAP2 MSTORE PUSH1 0x0 DUP1 DUP3 MSTORE PUSH1 0x20 DUP3 ADD MSTORE SWAP1 JUMP JUMPDEST PUSH1 0x0 DUP3 DUP2 MSTORE PUSH1 0x10 PUSH1 0x20 MSTORE PUSH1 0x40 SWAP1 KECCAK256 DUP1 SLOAD PUSH2 0x928 SWAP1 PUSH2 0x2E31 JUMP JUMPDEST DUP1 PUSH1 0x1F ADD PUSH1 0x20 DUP1 SWAP2 DIV MUL PUSH1 0x20 ADD PUSH1 0x40 MLOAD SWAP1 DUP2 ADD PUSH1 0x40 MSTORE DUP1 SWAP3 SWAP2 SWAP1 DUP2 DUP2 MSTORE PUSH1 0x20 ADD DUP3 DUP1 SLOAD PUSH2 0x954 SWAP1 PUSH2 0x2E31 JUMP JUMPDEST DUP1 ISZERO PUSH2 0x9A1 JUMPI DUP1 PUSH1 0x1F LT PUSH2 0x976 JUMPI PUSH2 0x100 DUP1 DUP4 SLOAD DIV MUL DUP4 MSTORE SWAP2 PUSH1 0x20 ADD SWAP2 PUSH2 0x9A1 JUMP JUMPDEST DUP3 ADD SWAP2 SWAP1 PUSH1 0x0 MSTORE PUSH1 0x20 PUSH1 0x0 KECCAK256 SWAP1 JUMPDEST DUP2 SLOAD DUP2 MSTORE SWAP1 PUSH1 0x1 ADD SWAP1 PUSH1 0x20 ADD DUP1 DUP4 GT PUSH2 0x984 JUMPI DUP3 SWAP1 SUB PUSH1 0x1F AND DUP3 ADD SWAP2 JUMPDEST POP POP POP POP POP DUP1 PUSH1 0x20 ADD SWAP1 MLOAD DUP2 ADD SWAP1 PUSH2 0x5D1 SWAP2 SWAP1 PUSH2 0x2F2B JUMP JUMPDEST PUSH1 0x40 DUP1 MLOAD DUP1 DUP3 ADD SWAP1 SWAP2 MSTORE PUSH1 0x4 DUP2 MSTORE PUSH4 0x4C494D4F PUSH1 0xE0 SHL PUSH1 0x20 DUP3 ADD MSTORE PUSH4 0x5F5E100 PUSH1 0x60 DUP4 ADD CALLDATALOAD GT ISZERO PUSH2 0x9FD JUMPI PUSH1 0x40 MLOAD PUSH3 0x461BCD PUSH1 0xE5 SHL DUP2 MSTORE PUSH1 0x4 ADD PUSH2 0x626 SWAP2 SWAP1 PUSH2 0x2B63 JUMP JUMPDEST POP PUSH1 0x40 DUP1 MLOAD DUP1 DUP3 ADD SWAP1 SWAP2 MSTORE PUSH1 0x4 DUP2 MSTORE PUSH4 0x4C494D4F PUSH1 0xE0 SHL PUSH1 0x20 DUP3 ADD MSTORE PUSH4 0x1DCD6500 PUSH1 0x80 DUP4 ADD CALLDATALOAD GT ISZERO PUSH2 0xA42 JUMPI PUSH1 0x40 MLOAD PUSH3 0x461BCD PUSH1 0xE5 SHL DUP2 MSTORE PUSH1 0x4 ADD PUSH2 0x626 SWAP2 SWAP1 PUSH2 0x2B63 JUMP JUMPDEST POP PUSH2 0xA6C DUP3 DUP3 PUSH1 0x40 MLOAD PUSH1 0x20 ADD PUSH2 0xA58 SWAP2 SWAP1 PUSH2 0x2FEC JUMP JUMPDEST PUSH1 0x40 MLOAD PUSH1 0x20 DUP2 DUP4 SUB SUB DUP2 MSTORE SWAP1 PUSH1 0x40 MSTORE PUSH2 0x1D02 JUMP JUMPDEST PUSH1 0x0 DUP3 DUP2 MSTORE PUSH1 0x9 PUSH1 0x20 MSTORE PUSH1 0x40 SWAP1 DUP2 SWAP1 KECCAK256 SLOAD SWAP1 MLOAD DUP4 SWAP2 CALLER SWAP2 ORIGIN SWAP2 PUSH32 0x92BC1D5A0A50D53C2C8B67EE363258770588CB71B912DC79C9193E57A3559CEF SWAP2 PUSH2 0xAB2 SWAP2 DUP8 SWAP2 PUSH2 0x2FFA JUMP JUMPDEST PUSH1 0x40 MLOAD DUP1 SWAP2 SUB SWAP1 LOG4 POP POP JUMP JUMPDEST PUSH1 0x0 PUSH2 0xAD0 PUSH1 0x40 DUP4 ADD PUSH1 0x20 DUP5 ADD PUSH2 0x3016 JUMP JUMPDEST PUSH1 0x1 PUSH1 0x1 PUSH1 0xA0 SHL SUB AND EQ ISZERO PUSH1 0x40 MLOAD DUP1 PUSH1 0x40 ADD PUSH1 0x40 MSTORE DUP1 PUSH1 0x2 DUP2 MSTORE PUSH1 0x20 ADD PUSH2 0x20AD PUSH1 0xF1 SHL DUP2 MSTORE POP SWAP1 PUSH2 0xB14 JUMPI PUSH1 0x40 MLOAD PUSH3 0x461BCD PUSH1 0xE5 SHL DUP2 MSTORE PUSH1 0x4 ADD PUSH2 0x626 SWAP2 SWAP1 PUSH2 0x2B63 JUMP JUMPDEST POP PUSH2 0xB3D DUP2 PUSH1 0x40 MLOAD PUSH1 0x20 ADD PUSH2 0xB29 SWAP2 SWAP1 PUSH2 0x305B JUMP JUMPDEST PUSH1 0x40 MLOAD PUSH1 0x20 DUP2 DUP4 SUB SUB DUP2 MSTORE SWAP1 PUSH1 0x40 MSTORE PUSH2 0x1E0E JUMP JUMPDEST PUSH1 0xF SLOAD PUSH1 0x40 MLOAD CALLER SWAP2 ORIGIN SWAP2 PUSH32 0x5893284B3BC8DC03F4A5B1FC07B4FFA5A43C8DB93E0D265DA78879B701C9352C SWAP2 PUSH2 0x7C3 SWAP2 DUP7 SWAP2 SWAP1 PUSH2 0x3069 JUMP JUMPDEST PUSH1 0x40 DUP1 MLOAD DUP1 DUP3 ADD SWAP1 SWAP2 MSTORE PUSH1 0x4 DUP2 MSTORE PUSH4 0x4C494D4F PUSH1 0xE0 SHL PUSH1 0x20 DUP3 ADD MSTORE PUSH4 0x2FAF080 DUP3 CALLDATALOAD GT ISZERO PUSH2 0xBB6 JUMPI PUSH1 0x40 MLOAD PUSH3 0x461BCD PUSH1 0xE5 SHL DUP2 MSTORE PUSH1 0x4 ADD PUSH2 0x626 SWAP2 SWAP1 PUSH2 0x2B63 JUMP JUMPDEST POP PUSH2 0xBE3 DUP3 DUP3 PUSH1 0x40 MLOAD PUSH1 0x20 ADD PUSH2 0xBCF SWAP2 CALLDATALOAD DUP2 MSTORE PUSH1 0x20 ADD SWAP1 JUMP JUMPDEST PUSH1 0x40 MLOAD PUSH1 0x20 DUP2 DUP4 SUB SUB DUP2 MSTORE SWAP1 PUSH1 0x40 MSTORE PUSH2 0x1EE9 JUMP JUMPDEST PUSH1 0x0 DUP3 DUP2 MSTORE PUSH1 0x9 PUSH1 0x20 SWAP1 DUP2 MSTORE PUSH1 0x40 SWAP2 DUP3 SWAP1 KECCAK256 SLOAD DUP3 MLOAD DUP5 CALLDATALOAD DUP2 MSTORE SWAP2 DUP3 ADD MSTORE DUP4 SWAP2 CALLER SWAP2 ORIGIN SWAP2 PUSH32 0xCD7599C34365DA52FCD641B487F51044152E43BF05893C1EF6D2A2259DE7252A SWAP2 ADD PUSH2 0xAB2 JUMP JUMPDEST PUSH1 0x40 DUP1 MLOAD PUSH1 0xE0 DUP2 ADD DUP3 MSTORE PUSH1 0x0 DUP1 DUP3 MSTORE PUSH1 0x20 DUP3 ADD DUP2 SWAP1 MSTORE SWAP2 DUP2 ADD DUP3 SWAP1 MSTORE PUSH1 0x60 DUP2 ADD DUP3 SWAP1 MSTORE PUSH1 0x80 DUP2 ADD DUP3 SWAP1 MSTORE PUSH1 0xA0 DUP2 ADD DUP3 SWAP1 MSTORE PUSH1 0xC0 DUP2 ADD SWAP2 SWAP1 SWAP2 MSTORE PUSH1 0x0 DUP3 DUP2 MSTORE PUSH1 0x8 PUSH1 0x20 MSTORE PUSH1 0x40 SWAP1 KECCAK256 DUP1 SLOAD PUSH2 0xC80 SWAP1 PUSH2 0x2E31 JUMP JUMPDEST ISZERO ISZERO SWAP1 POP PUSH2 0xCC6 JUMPI POP POP PUSH1 0x40 DUP1 MLOAD PUSH1 0xE0 DUP2 ADD DUP3 MSTORE PUSH1 0x0 DUP1 DUP3 MSTORE PUSH1 0x20 DUP3 ADD DUP2 SWAP1 MSTORE SWAP2 DUP2 ADD DUP3 SWAP1 MSTORE PUSH1 0x60 DUP2 ADD DUP3 SWAP1 MSTORE PUSH1 0x80 DUP2 ADD DUP3 SWAP1 MSTORE PUSH1 0xA0 DUP2 ADD DUP3 SWAP1 MSTORE PUSH1 0xC0 DUP2 ADD SWAP2 SWAP1 SWAP2 MSTORE SWAP1 JUMP JUMPDEST PUSH1 0x0 DUP3 DUP2 MSTORE PUSH1 0x8 PUSH1 0x20 MSTORE PUSH1 0x40 SWAP1 KECCAK256 DUP1 SLOAD PUSH2 0xCDF SWAP1 PUSH2 0x2E31 JUMP JUMPDEST DUP1 PUSH1 0x1F ADD PUSH1 0x20 DUP1 SWAP2 DIV MUL PUSH1 0x20 ADD PUSH1 0x40 MLOAD SWAP1 DUP2 ADD PUSH1 0x40 MSTORE DUP1 SWAP3 SWAP2 SWAP1 DUP2 DUP2 MSTORE PUSH1 0x20 ADD DUP3 DUP1 SLOAD PUSH2 0xD0B SWAP1 PUSH2 0x2E31 JUMP JUMPDEST DUP1 ISZERO PUSH2 0xD58 JUMPI DUP1 PUSH1 0x1F LT PUSH2 0xD2D JUMPI PUSH2 0x100 DUP1 DUP4 SLOAD DIV MUL DUP4 MSTORE SWAP2 PUSH1 0x20 ADD SWAP2 PUSH2 0xD58 JUMP JUMPDEST DUP3 ADD SWAP2 SWAP1 PUSH1 0x0 MSTORE PUSH1 0x20 PUSH1 0x0 KECCAK256 SWAP1 JUMPDEST DUP2 SLOAD DUP2 MSTORE SWAP1 PUSH1 0x1 ADD SWAP1 PUSH1 0x20 ADD DUP1 DUP4 GT PUSH2 0xD3B JUMPI DUP3 SWAP1 SUB PUSH1 0x1F AND DUP3 ADD SWAP2 JUMPDEST POP POP POP POP POP DUP1 PUSH1 0x20 ADD SWAP1 MLOAD DUP2 ADD SWAP1 PUSH2 0x5D1 SWAP2 SWAP1 PUSH2 0x2E7F JUMP JUMPDEST PUSH1 0x60 PUSH2 0x5D7 PUSH24 0x4552433230526F6F745661756C74476F7665726E616E6365 PUSH1 0x40 SHL PUSH2 0x1FF4 JUMP JUMPDEST PUSH1 0x40 DUP1 MLOAD PUSH1 0xE0 DUP2 ADD DUP3 MSTORE PUSH1 0x0 DUP1 DUP3 MSTORE PUSH1 0x20 DUP3 ADD DUP2 SWAP1 MSTORE SWAP2 DUP2 ADD DUP3 SWAP1 MSTORE PUSH1 0x60 DUP2 ADD DUP3 SWAP1 MSTORE PUSH1 0x80 DUP2 ADD DUP3 SWAP1 MSTORE PUSH1 0xA0 DUP2 ADD DUP3 SWAP1 MSTORE PUSH1 0xC0 DUP2 ADD SWAP2 SWAP1 SWAP2 MSTORE PUSH1 0x0 DUP3 DUP2 MSTORE PUSH1 0x7 PUSH1 0x20 MSTORE PUSH1 0x40 SWAP1 KECCAK256 DUP1 SLOAD PUSH2 0xDE8 SWAP1 PUSH2 0x2E31 JUMP JUMPDEST ISZERO ISZERO SWAP1 POP PUSH2 0xE2E JUMPI POP POP PUSH1 0x40 DUP1 MLOAD PUSH1 0xE0 DUP2 ADD DUP3 MSTORE PUSH1 0x0 DUP1 DUP3 MSTORE PUSH1 0x20 DUP3 ADD DUP2 SWAP1 MSTORE SWAP2 DUP2 ADD DUP3 SWAP1 MSTORE PUSH1 0x60 DUP2 ADD DUP3 SWAP1 MSTORE PUSH1 0x80 DUP2 ADD DUP3 SWAP1 MSTORE PUSH1 0xA0 DUP2 ADD DUP3 SWAP1 MSTORE PUSH1 0xC0 DUP2 ADD SWAP2 SWAP1 SWAP2 MSTORE SWAP1 JUMP JUMPDEST PUSH1 0x0 DUP3 DUP2 MSTORE PUSH1 0x7 PUSH1 0x20 MSTORE PUSH1 0x40 SWAP1 KECCAK256 DUP1 SLOAD PUSH2 0xCDF SWAP1 PUSH2 0x2E31 JUMP JUMPDEST PUSH1 0x40 DUP1 MLOAD PUSH1 0x20 DUP2 ADD SWAP1 SWAP2 MSTORE PUSH1 0x0 DUP2 MSTORE PUSH1 0x0 DUP3 DUP2 MSTORE PUSH1 0xB PUSH1 0x20 MSTORE PUSH1 0x40 SWAP1 KECCAK256 DUP1 SLOAD PUSH2 0xE6F SWAP1 PUSH2 0x2E31 JUMP JUMPDEST ISZERO ISZERO SWAP1 POP PUSH2 0xE8B JUMPI POP POP PUSH1 0x40 DUP1 MLOAD PUSH1 0x20 DUP2 ADD SWAP1 SWAP2 MSTORE PUSH1 0x0 DUP2 MSTORE SWAP1 JUMP JUMPDEST PUSH1 0x0 DUP3 DUP2 MSTORE PUSH1 0xB PUSH1 0x20 MSTORE PUSH1 0x40 SWAP1 KECCAK256 DUP1 SLOAD PUSH2 0xEA4 SWAP1 PUSH2 0x2E31 JUMP JUMPDEST DUP1 PUSH1 0x1F ADD PUSH1 0x20 DUP1 SWAP2 DIV MUL PUSH1 0x20 ADD PUSH1 0x40 MLOAD SWAP1 DUP2 ADD PUSH1 0x40 MSTORE DUP1 SWAP3 SWAP2 SWAP1 DUP2 DUP2 MSTORE PUSH1 0x20 ADD DUP3 DUP1 SLOAD PUSH2 0xED0 SWAP1 PUSH2 0x2E31 JUMP JUMPDEST DUP1 ISZERO PUSH2 0xF1D JUMPI DUP1 PUSH1 0x1F LT PUSH2 0xEF2 JUMPI PUSH2 0x100 DUP1 DUP4 SLOAD DIV MUL DUP4 MSTORE SWAP2 PUSH1 0x20 ADD SWAP2 PUSH2 0xF1D JUMP JUMPDEST DUP3 ADD SWAP2 SWAP1 PUSH1 0x0 MSTORE PUSH1 0x20 PUSH1 0x0 KECCAK256 SWAP1 JUMPDEST DUP2 SLOAD DUP2 MSTORE SWAP1 PUSH1 0x1 ADD SWAP1 PUSH1 0x20 ADD DUP1 DUP4 GT PUSH2 0xF00 JUMPI DUP3 SWAP1 SUB PUSH1 0x1F AND DUP3 ADD SWAP2 JUMPDEST POP POP POP POP POP DUP1 PUSH1 0x20 ADD SWAP1 MLOAD DUP2 ADD SWAP1 PUSH2 0x5D1 SWAP2 SWAP1 PUSH2 0x3084 JUMP JUMPDEST PUSH2 0xF3D PUSH2 0x2060 JUMP JUMPDEST CALLER PUSH1 0x1 PUSH1 0x1 PUSH1 0xA0 SHL SUB AND ORIGIN PUSH1 0x1 PUSH1 0x1 PUSH1 0xA0 SHL SUB AND PUSH32 0x862320404E037E2174AC01F6E43FC8B06ACDA312B671B182DCBE75B50EBD8552 PUSH1 0xD DUP1 SLOAD PUSH2 0xF7F SWAP1 PUSH2 0x2E31 JUMP JUMPDEST DUP1 PUSH1 0x1F ADD PUSH1 0x20 DUP1 SWAP2 DIV MUL PUSH1 0x20 ADD PUSH1 0x40 MLOAD SWAP1 DUP2 ADD PUSH1 0x40 MSTORE DUP1 SWAP3 SWAP2 SWAP1 DUP2 DUP2 MSTORE PUSH1 0x20 ADD DUP3 DUP1 SLOAD PUSH2 0xFAB SWAP1 PUSH2 0x2E31 JUMP JUMPDEST DUP1 ISZERO PUSH2 0xFF8 JUMPI DUP1 PUSH1 0x1F LT PUSH2 0xFCD JUMPI PUSH2 0x100 DUP1 DUP4 SLOAD DIV MUL DUP4 MSTORE SWAP2 PUSH1 0x20 ADD SWAP2 PUSH2 0xFF8 JUMP JUMPDEST DUP3 ADD SWAP2 SWAP1 PUSH1 0x0 MSTORE PUSH1 0x20 PUSH1 0x0 KECCAK256 SWAP1 JUMPDEST DUP2 SLOAD DUP2 MSTORE SWAP1 PUSH1 0x1 ADD SWAP1 PUSH1 0x20 ADD DUP1 DUP4 GT PUSH2 0xFDB JUMPI DUP3 SWAP1 SUB PUSH1 0x1F AND DUP3 ADD SWAP2 JUMPDEST POP POP POP POP POP DUP1 PUSH1 0x20 ADD SWAP1 MLOAD DUP2 ADD SWAP1 PUSH2 0x1010 SWAP2 SWAP1 PUSH2 0x30A8 JUMP JUMPDEST PUSH1 0x40 DUP1 MLOAD DUP3 MLOAD DUP2 MSTORE PUSH1 0x20 SWAP3 DUP4 ADD MLOAD PUSH1 0x1 PUSH1 0x1 PUSH1 0xA0 SHL SUB AND SWAP3 DUP2 ADD SWAP3 SWAP1 SWAP3 MSTORE ADD JUMPDEST PUSH1 0x40 MLOAD DUP1 SWAP2 SUB SWAP1 LOG3 JUMP JUMPDEST PUSH1 0x60 PUSH2 0x5D7 PUSH5 0x312E302E3 PUSH1 0xDC SHL PUSH2 0x1FF4 JUMP JUMPDEST PUSH2 0x1088 DUP3 DUP3 PUSH1 0x40 MLOAD PUSH1 0x20 ADD PUSH2 0x1074 SWAP2 SWAP1 DUP2 CALLDATALOAD DUP2 MSTORE PUSH1 0x20 SWAP2 DUP3 ADD CALLDATALOAD SWAP2 DUP2 ADD SWAP2 SWAP1 SWAP2 MSTORE PUSH1 0x40 ADD SWAP1 JUMP JUMPDEST PUSH1 0x40 MLOAD PUSH1 0x20 DUP2 DUP4 SUB SUB DUP2 MSTORE SWAP1 PUSH1 0x40 MSTORE PUSH2 0x2114 JUMP JUMPDEST PUSH1 0x40 DUP1 MLOAD DUP3 CALLDATALOAD DUP2 MSTORE PUSH1 0x20 DUP1 DUP5 ADD CALLDATALOAD SWAP1 DUP3 ADD MSTORE DUP4 SWAP2 CALLER SWAP2 ORIGIN SWAP2 PUSH32 0xB53196F4ACC3A02D05123ED8BFE722836DBAFFF5CA4CE33E7E974117CFB7250 SWAP2 ADD PUSH2 0xAB2 JUMP JUMPDEST PUSH1 0x40 DUP1 MLOAD DUP1 DUP3 ADD SWAP1 SWAP2 MSTORE PUSH1 0x0 DUP1 DUP3 MSTORE PUSH1 0x20 DUP3 ADD MSTORE PUSH1 0xE DUP1 SLOAD PUSH2 0x10E9 SWAP1 PUSH2 0x2E31 JUMP JUMPDEST ISZERO ISZERO SWAP1 POP PUSH2 0x1109 JUMPI POP PUSH1 0x40 DUP1 MLOAD DUP1 DUP3 ADD SWAP1 SWAP2 MSTORE PUSH1 0x0 DUP1 DUP3 MSTORE PUSH1 0x20 DUP3 ADD MSTORE SWAP1 JUMP JUMPDEST PUSH1 0xE DUP1 SLOAD PUSH2 0x1116 SWAP1 PUSH2 0x2E31 JUMP JUMPDEST DUP1 PUSH1 0x1F ADD PUSH1 0x20 DUP1 SWAP2 DIV MUL PUSH1 0x20 ADD PUSH1 0x40 MLOAD SWAP1 DUP2 ADD PUSH1 0x40 MSTORE DUP1 SWAP3 SWAP2 SWAP1 DUP2 DUP2 MSTORE PUSH1 0x20 ADD DUP3 DUP1 SLOAD PUSH2 0x1142 SWAP1 PUSH2 0x2E31 JUMP JUMPDEST DUP1 ISZERO PUSH2 0x118F JUMPI DUP1 PUSH1 0x1F LT PUSH2 0x1164 JUMPI PUSH2 0x100 DUP1 DUP4 SLOAD DIV MUL DUP4 MSTORE SWAP2 PUSH1 0x20 ADD SWAP2 PUSH2 0x118F JUMP JUMPDEST DUP3 ADD SWAP2 SWAP1 PUSH1 0x0 MSTORE PUSH1 0x20 PUSH1 0x0 KECCAK256 SWAP1 JUMPDEST DUP2 SLOAD DUP2 MSTORE SWAP1 PUSH1 0x1 ADD SWAP1 PUSH1 0x20 ADD DUP1 DUP4 GT PUSH2 0x1172 JUMPI DUP3 SWAP1 SUB PUSH1 0x1F AND DUP3 ADD SWAP2 JUMPDEST POP POP POP POP POP DUP1 PUSH1 0x20 ADD SWAP1 MLOAD DUP2 ADD SWAP1 PUSH2 0x5D7 SWAP2 SWAP1 PUSH2 0x30A8 JUMP JUMPDEST PUSH2 0x11CF DUP2 PUSH1 0x40 MLOAD PUSH1 0x20 ADD PUSH2 0x11BB SWAP2 SWAP1 PUSH2 0x30E0 JUMP JUMPDEST PUSH1 0x40 MLOAD PUSH1 0x20 DUP2 DUP4 SUB SUB DUP2 MSTORE SWAP1 PUSH1 0x40 MSTORE PUSH2 0x2141 JUMP JUMPDEST PUSH1 0x40 MLOAD CALLER SWAP1 ORIGIN SWAP1 PUSH32 0x87B5B7AFDAFF1296D279BE13A11697ACC1B85AF123290DB06B274BD3823E3C8B SWAP1 PUSH2 0x7C3 SWAP1 DUP6 SWAP1 PUSH2 0x30E0 JUMP JUMPDEST PUSH1 0x40 DUP1 MLOAD DUP1 DUP3 ADD SWAP1 SWAP2 MSTORE PUSH1 0x0 DUP1 DUP3 MSTORE PUSH1 0x20 DUP3 ADD MSTORE PUSH1 0xD DUP1 SLOAD PUSH2 0x1116 SWAP1 PUSH2 0x2E31 JUMP JUMPDEST PUSH2 0x122C PUSH2 0x1B59 JUMP JUMPDEST PUSH1 0x6 SLOAD PUSH1 0x40 DUP1 MLOAD DUP1 DUP3 ADD SWAP1 SWAP2 MSTORE PUSH1 0x4 DUP2 MSTORE PUSH4 0x13955313 PUSH1 0xE2 SHL PUSH1 0x20 DUP3 ADD MSTORE SWAP1 PUSH2 0x1268 JUMPI PUSH1 0x40 MLOAD PUSH3 0x461BCD PUSH1 0xE5 SHL DUP2 MSTORE PUSH1 0x4 ADD PUSH2 0x626 SWAP2 SWAP1 PUSH2 0x2B63 JUMP JUMPDEST POP PUSH1 0x6 SLOAD TIMESTAMP LT ISZERO PUSH1 0x40 MLOAD DUP1 PUSH1 0x40 ADD PUSH1 0x40 MSTORE DUP1 PUSH1 0x2 DUP2 MSTORE PUSH1 0x20 ADD PUSH2 0x5453 PUSH1 0xF0 SHL DUP2 MSTORE POP SWAP1 PUSH2 0x12A8 JUMPI PUSH1 0x40 MLOAD PUSH3 0x461BCD PUSH1 0xE5 SHL DUP2 MSTORE PUSH1 0x4 ADD PUSH2 0x626 SWAP2 SWAP1 PUSH2 0x2B63 JUMP JUMPDEST POP PUSH1 0x3 DUP1 SLOAD PUSH1 0x0 DUP1 SLOAD PUSH1 0x1 PUSH1 0x1 PUSH1 0xA0 SHL SUB DUP1 DUP5 AND PUSH1 0x1 PUSH1 0x1 PUSH1 0xA0 SHL SUB NOT SWAP3 DUP4 AND DUP2 OR DUP5 SSTORE PUSH1 0x4 DUP1 SLOAD PUSH1 0x1 DUP1 SLOAD DUP3 DUP7 AND SWAP1 DUP8 AND DUP2 OR SWAP1 SWAP2 SSTORE PUSH1 0x5 DUP1 SLOAD PUSH1 0x2 DUP1 SLOAD SWAP8 DUP3 AND SWAP8 DUP10 AND DUP9 OR SWAP1 SSTORE PUSH1 0x6 SWAP9 SWAP1 SWAP9 SSTORE SWAP8 DUP7 AND SWAP1 SWAP9 SSTORE DUP5 AND SWAP1 SSTORE SWAP3 SWAP1 SWAP2 AND SWAP1 SWAP3 SSTORE PUSH1 0x40 DUP1 MLOAD SWAP2 DUP3 MSTORE PUSH1 0x20 DUP3 ADD SWAP4 SWAP1 SWAP4 MSTORE SWAP2 DUP3 ADD MSTORE CALLER SWAP1 ORIGIN SWAP1 PUSH32 0xEF3E4BC9725FA684957D7DE03C6DCD01078EE86CF78CEEF25C5F8346DF69CC99 SWAP1 PUSH1 0x60 ADD PUSH2 0x1030 JUMP JUMPDEST PUSH1 0x40 DUP1 MLOAD PUSH1 0x20 DUP2 ADD SWAP1 SWAP2 MSTORE PUSH1 0x0 DUP2 MSTORE PUSH1 0x12 DUP1 SLOAD PUSH2 0x1365 SWAP1 PUSH2 0x2E31 JUMP JUMPDEST ISZERO ISZERO SWAP1 POP PUSH2 0x1380 JUMPI POP PUSH1 0x40 DUP1 MLOAD PUSH1 0x20 DUP2 ADD SWAP1 SWAP2 MSTORE PUSH1 0x0 DUP2 MSTORE SWAP1 JUMP JUMPDEST PUSH1 0x12 DUP1 SLOAD PUSH2 0x138D SWAP1 PUSH2 0x2E31 JUMP JUMPDEST DUP1 PUSH1 0x1F ADD PUSH1 0x20 DUP1 SWAP2 DIV MUL PUSH1 0x20 ADD PUSH1 0x40 MLOAD SWAP1 DUP2 ADD PUSH1 0x40 MSTORE DUP1 SWAP3 SWAP2 SWAP1 DUP2 DUP2 MSTORE PUSH1 0x20 ADD DUP3 DUP1 SLOAD PUSH2 0x13B9 SWAP1 PUSH2 0x2E31 JUMP JUMPDEST DUP1 ISZERO PUSH2 0x1406 JUMPI DUP1 PUSH1 0x1F LT PUSH2 0x13DB JUMPI PUSH2 0x100 DUP1 DUP4 SLOAD DIV MUL DUP4 MSTORE SWAP2 PUSH1 0x20 ADD SWAP2 PUSH2 0x1406 JUMP JUMPDEST DUP3 ADD SWAP2 SWAP1 PUSH1 0x0 MSTORE PUSH1 0x20 PUSH1 0x0 KECCAK256 SWAP1 JUMPDEST DUP2 SLOAD DUP2 MSTORE SWAP1 PUSH1 0x1 ADD SWAP1 PUSH1 0x20 ADD DUP1 DUP4 GT PUSH2 0x13E9 JUMPI DUP3 SWAP1 SUB PUSH1 0x1F AND DUP3 ADD SWAP2 JUMPDEST POP POP POP POP POP DUP1 PUSH1 0x20 ADD SWAP1 MLOAD DUP2 ADD SWAP1 PUSH2 0x5D7 SWAP2 SWAP1 PUSH2 0x30F9 JUMP JUMPDEST PUSH1 0x40 DUP1 MLOAD PUSH1 0x20 DUP2 ADD SWAP1 SWAP2 MSTORE PUSH1 0x0 DUP2 MSTORE PUSH1 0x0 DUP3 DUP2 MSTORE PUSH1 0xA PUSH1 0x20 MSTORE PUSH1 0x40 SWAP1 KECCAK256 DUP1 SLOAD PUSH2 0x1446 SWAP1 PUSH2 0x2E31 JUMP JUMPDEST ISZERO ISZERO SWAP1 POP PUSH2 0x1462 JUMPI POP POP PUSH1 0x40 DUP1 MLOAD PUSH1 0x20 DUP2 ADD SWAP1 SWAP2 MSTORE PUSH1 0x0 DUP2 MSTORE SWAP1 JUMP JUMPDEST PUSH1 0x0 DUP3 DUP2 MSTORE PUSH1 0xA PUSH1 0x20 MSTORE PUSH1 0x40 SWAP1 KECCAK256 DUP1 SLOAD PUSH2 0xEA4 SWAP1 PUSH2 0x2E31 JUMP JUMPDEST PUSH2 0x1484 DUP2 PUSH2 0x2160 JUMP JUMPDEST PUSH1 0x0 DUP2 DUP2 MSTORE PUSH1 0xA PUSH1 0x20 MSTORE PUSH1 0x40 SWAP1 KECCAK256 DUP1 SLOAD DUP3 SWAP2 CALLER SWAP2 ORIGIN SWAP2 PUSH32 0x813FB1CC9255F5A8D21316ECD3E0CC533DA05634409CA6B43F4DB5EE1CC4CDF8 SWAP2 PUSH2 0x14C5 SWAP1 PUSH2 0x2E31 JUMP JUMPDEST DUP1 PUSH1 0x1F ADD PUSH1 0x20 DUP1 SWAP2 DIV MUL PUSH1 0x20 ADD PUSH1 0x40 MLOAD SWAP1 DUP2 ADD PUSH1 0x40 MSTORE DUP1 SWAP3 SWAP2 SWAP1 DUP2 DUP2 MSTORE PUSH1 0x20 ADD DUP3 DUP1 SLOAD PUSH2 0x14F1 SWAP1 PUSH2 0x2E31 JUMP JUMPDEST DUP1 ISZERO PUSH2 0x153E JUMPI DUP1 PUSH1 0x1F LT PUSH2 0x1513 JUMPI PUSH2 0x100 DUP1 DUP4 SLOAD DIV MUL DUP4 MSTORE SWAP2 PUSH1 0x20 ADD SWAP2 PUSH2 0x153E JUMP JUMPDEST DUP3 ADD SWAP2 SWAP1 PUSH1 0x0 MSTORE PUSH1 0x20 PUSH1 0x0 KECCAK256 SWAP1 JUMPDEST DUP2 SLOAD DUP2 MSTORE SWAP1 PUSH1 0x1 ADD SWAP1 PUSH1 0x20 ADD DUP1 DUP4 GT PUSH2 0x1521 JUMPI DUP3 SWAP1 SUB PUSH1 0x1F AND DUP3 ADD SWAP2 JUMPDEST POP POP POP POP POP DUP1 PUSH1 0x20 ADD SWAP1 MLOAD DUP2 ADD SWAP1 PUSH2 0x1556 SWAP2 SWAP1 PUSH2 0x3084 JUMP JUMPDEST PUSH1 0x40 MLOAD SWAP1 MLOAD DUP2 MSTORE PUSH1 0x20 ADD PUSH2 0x8B6 JUMP JUMPDEST PUSH1 0x1 SLOAD PUSH1 0x0 SWAP1 DUP2 SWAP1 DUP2 SWAP1 PUSH1 0x1 PUSH1 0x1 PUSH1 0xA0 SHL SUB AND PUSH2 0x1581 DUP6 PUSH2 0x2250 JUMP JUMPDEST DUP8 MLOAD PUSH1 0x40 DUP1 MLOAD DUP1 DUP3 ADD SWAP1 SWAP2 MSTORE PUSH1 0x4 DUP2 MSTORE PUSH4 0x11535413 PUSH1 0xE2 SHL PUSH1 0x20 DUP3 ADD MSTORE SWAP3 SWAP7 POP SWAP1 SWAP5 POP DUP6 SWAP4 POP PUSH2 0x15C4 JUMPI PUSH1 0x40 MLOAD PUSH3 0x461BCD PUSH1 0xE5 SHL DUP2 MSTORE PUSH1 0x4 ADD PUSH2 0x626 SWAP2 SWAP1 PUSH2 0x2B63 JUMP JUMPDEST POP PUSH1 0x0 JUMPDEST DUP7 MLOAD DUP2 LT ISZERO PUSH2 0x1A91 JUMPI PUSH1 0x0 DUP8 DUP3 DUP2 MLOAD DUP2 LT PUSH2 0x15E5 JUMPI PUSH2 0x15E5 PUSH2 0x3127 JUMP JUMPDEST PUSH1 0x20 MUL PUSH1 0x20 ADD ADD MLOAD SWAP1 POP PUSH1 0x0 DUP2 GT PUSH1 0x40 MLOAD DUP1 PUSH1 0x40 ADD PUSH1 0x40 MSTORE DUP1 PUSH1 0x2 DUP2 MSTORE PUSH1 0x20 ADD PUSH2 0x2B2D PUSH1 0xF1 SHL DUP2 MSTORE POP SWAP1 PUSH2 0x162C JUMPI PUSH1 0x40 MLOAD PUSH3 0x461BCD PUSH1 0xE5 SHL DUP2 MSTORE PUSH1 0x4 ADD PUSH2 0x626 SWAP2 SWAP1 PUSH2 0x2B63 JUMP JUMPDEST POP PUSH1 0x40 MLOAD PUSH4 0x9C94D853 PUSH1 0xE0 SHL DUP2 MSTORE PUSH1 0x4 DUP2 ADD DUP3 SWAP1 MSTORE PUSH1 0x0 SWAP1 PUSH1 0x1 PUSH1 0x1 PUSH1 0xA0 SHL SUB DUP6 AND SWAP1 PUSH4 0x9C94D853 SWAP1 PUSH1 0x24 ADD PUSH1 0x20 PUSH1 0x40 MLOAD DUP1 DUP4 SUB DUP2 DUP7 DUP1 EXTCODESIZE ISZERO DUP1 ISZERO PUSH2 0x1670 JUMPI PUSH1 0x0 DUP1 REVERT JUMPDEST POP GAS STATICCALL ISZERO DUP1 ISZERO PUSH2 0x1684 JUMPI RETURNDATASIZE PUSH1 0x0 DUP1 RETURNDATACOPY RETURNDATASIZE PUSH1 0x0 REVERT JUMPDEST POP POP POP POP PUSH1 0x40 MLOAD RETURNDATASIZE PUSH1 0x1F NOT PUSH1 0x1F DUP3 ADD AND DUP3 ADD DUP1 PUSH1 0x40 MSTORE POP DUP2 ADD SWAP1 PUSH2 0x16A8 SWAP2 SWAP1 PUSH2 0x313D JUMP JUMPDEST PUSH1 0x40 DUP1 MLOAD DUP1 DUP3 ADD SWAP1 SWAP2 MSTORE PUSH1 0x2 DUP2 MSTORE PUSH2 0x20AD PUSH1 0xF1 SHL PUSH1 0x20 DUP3 ADD MSTORE SWAP1 SWAP2 POP PUSH1 0x1 PUSH1 0x1 PUSH1 0xA0 SHL SUB DUP3 AND PUSH2 0x16EB JUMPI PUSH1 0x40 MLOAD PUSH3 0x461BCD PUSH1 0xE5 SHL DUP2 MSTORE PUSH1 0x4 ADD PUSH2 0x626 SWAP2 SWAP1 PUSH2 0x2B63 JUMP JUMPDEST POP PUSH1 0x40 MLOAD PUSH4 0x1FFC9A7 PUSH1 0xE0 SHL DUP2 MSTORE PUSH4 0x3D31D51D PUSH1 0xE1 SHL PUSH1 0x4 DUP3 ADD MSTORE PUSH1 0x1 PUSH1 0x1 PUSH1 0xA0 SHL SUB DUP3 AND SWAP1 PUSH4 0x1FFC9A7 SWAP1 PUSH1 0x24 ADD PUSH1 0x20 PUSH1 0x40 MLOAD DUP1 DUP4 SUB DUP2 DUP7 DUP1 EXTCODESIZE ISZERO DUP1 ISZERO PUSH2 0x1732 JUMPI PUSH1 0x0 DUP1 REVERT JUMPDEST POP GAS STATICCALL ISZERO DUP1 ISZERO PUSH2 0x1746 JUMPI RETURNDATASIZE PUSH1 0x0 DUP1 RETURNDATACOPY RETURNDATASIZE PUSH1 0x0 REVERT JUMPDEST POP POP POP POP PUSH1 0x40 MLOAD RETURNDATASIZE PUSH1 0x1F NOT PUSH1 0x1F DUP3 ADD AND DUP3 ADD DUP1 PUSH1 0x40 MSTORE POP DUP2 ADD SWAP1 PUSH2 0x176A SWAP2 SWAP1 PUSH2 0x315A JUMP JUMPDEST PUSH1 0x40 MLOAD DUP1 PUSH1 0x40 ADD PUSH1 0x40 MSTORE DUP1 PUSH1 0x4 DUP2 MSTORE PUSH1 0x20 ADD PUSH4 0x494E5649 PUSH1 0xE0 SHL DUP2 MSTORE POP SWAP1 PUSH2 0x17A5 JUMPI PUSH1 0x40 MLOAD PUSH3 0x461BCD PUSH1 0xE5 SHL DUP2 MSTORE PUSH1 0x4 ADD PUSH2 0x626 SWAP2 SWAP1 PUSH2 0x2B63 JUMP JUMPDEST POP PUSH1 0x0 DUP2 PUSH1 0x1 PUSH1 0x1 PUSH1 0xA0 SHL SUB AND PUSH4 0x69722233 PUSH1 0x40 MLOAD DUP2 PUSH4 0xFFFFFFFF AND PUSH1 0xE0 SHL DUP2 MSTORE PUSH1 0x4 ADD PUSH1 0x0 PUSH1 0x40 MLOAD DUP1 DUP4 SUB DUP2 DUP7 DUP1 EXTCODESIZE ISZERO DUP1 ISZERO PUSH2 0x17E1 JUMPI PUSH1 0x0 DUP1 REVERT JUMPDEST POP GAS STATICCALL ISZERO DUP1 ISZERO PUSH2 0x17F5 JUMPI RETURNDATASIZE PUSH1 0x0 DUP1 RETURNDATACOPY RETURNDATASIZE PUSH1 0x0 REVERT JUMPDEST POP POP POP POP PUSH1 0x40 MLOAD RETURNDATASIZE PUSH1 0x0 DUP3 RETURNDATACOPY PUSH1 0x1F RETURNDATASIZE SWAP1 DUP2 ADD PUSH1 0x1F NOT AND DUP3 ADD PUSH1 0x40 MSTORE PUSH2 0x181D SWAP2 SWAP1 DUP2 ADD SWAP1 PUSH2 0x3177 JUMP JUMPDEST SWAP1 POP DUP4 PUSH2 0x1920 JUMPI DUP1 MLOAD DUP13 MLOAD EQ PUSH1 0x40 MLOAD DUP1 PUSH1 0x40 ADD PUSH1 0x40 MSTORE DUP1 PUSH1 0x4 DUP2 MSTORE PUSH1 0x20 ADD PUSH4 0x12539593 PUSH1 0xE2 SHL DUP2 MSTORE POP SWAP1 PUSH2 0x1864 JUMPI PUSH1 0x40 MLOAD PUSH3 0x461BCD PUSH1 0xE5 SHL DUP2 MSTORE PUSH1 0x4 ADD PUSH2 0x626 SWAP2 SWAP1 PUSH2 0x2B63 JUMP JUMPDEST POP PUSH1 0x40 MLOAD PUSH4 0x1FFC9A7 PUSH1 0xE0 SHL DUP2 MSTORE PUSH4 0x2A482DE3 PUSH1 0xE2 SHL PUSH1 0x4 DUP3 ADD MSTORE PUSH1 0x1 PUSH1 0x1 PUSH1 0xA0 SHL SUB DUP4 AND SWAP1 PUSH4 0x1FFC9A7 SWAP1 PUSH1 0x24 ADD PUSH1 0x20 PUSH1 0x40 MLOAD DUP1 DUP4 SUB DUP2 DUP7 DUP1 EXTCODESIZE ISZERO DUP1 ISZERO PUSH2 0x18AB JUMPI PUSH1 0x0 DUP1 REVERT JUMPDEST POP GAS STATICCALL ISZERO DUP1 ISZERO PUSH2 0x18BF JUMPI RETURNDATASIZE PUSH1 0x0 DUP1 RETURNDATACOPY RETURNDATASIZE PUSH1 0x0 REVERT JUMPDEST POP POP POP POP PUSH1 0x40 MLOAD RETURNDATASIZE PUSH1 0x1F NOT PUSH1 0x1F DUP3 ADD AND DUP3 ADD DUP1 PUSH1 0x40 MSTORE POP DUP2 ADD SWAP1 PUSH2 0x18E3 SWAP2 SWAP1 PUSH2 0x315A JUMP JUMPDEST PUSH1 0x40 MLOAD DUP1 PUSH1 0x40 ADD PUSH1 0x40 MSTORE DUP1 PUSH1 0x4 DUP2 MSTORE PUSH1 0x20 ADD PUSH4 0x494E5649 PUSH1 0xE0 SHL DUP2 MSTORE POP SWAP1 PUSH2 0x191E JUMPI PUSH1 0x40 MLOAD PUSH3 0x461BCD PUSH1 0xE5 SHL DUP2 MSTORE PUSH1 0x4 ADD PUSH2 0x626 SWAP2 SWAP1 PUSH2 0x2B63 JUMP JUMPDEST POP JUMPDEST PUSH1 0x0 DUP1 JUMPDEST DUP14 MLOAD DUP2 LT DUP1 ISZERO PUSH2 0x1934 JUMPI POP DUP3 MLOAD DUP3 LT JUMPDEST ISZERO PUSH2 0x19A3 JUMPI DUP14 DUP2 DUP2 MLOAD DUP2 LT PUSH2 0x194B JUMPI PUSH2 0x194B PUSH2 0x3127 JUMP JUMPDEST PUSH1 0x20 MUL PUSH1 0x20 ADD ADD MLOAD PUSH1 0x1 PUSH1 0x1 PUSH1 0xA0 SHL SUB AND DUP4 DUP4 DUP2 MLOAD DUP2 LT PUSH2 0x196E JUMPI PUSH2 0x196E PUSH2 0x3127 JUMP JUMPDEST PUSH1 0x20 MUL PUSH1 0x20 ADD ADD MLOAD PUSH1 0x1 PUSH1 0x1 PUSH1 0xA0 SHL SUB AND EQ ISZERO PUSH2 0x1993 JUMPI DUP2 PUSH2 0x198F DUP2 PUSH2 0x3211 JUMP JUMPDEST SWAP3 POP POP JUMPDEST PUSH2 0x199C DUP2 PUSH2 0x3211 JUMP JUMPDEST SWAP1 POP PUSH2 0x1924 JUMP JUMPDEST POP DUP2 MLOAD DUP2 EQ PUSH1 0x40 MLOAD DUP1 PUSH1 0x40 ADD PUSH1 0x40 MSTORE DUP1 PUSH1 0x5 DUP2 MSTORE PUSH1 0x20 ADD PUSH5 0x494E56544F PUSH1 0xD8 SHL DUP2 MSTORE POP SWAP1 PUSH2 0x19E4 JUMPI PUSH1 0x40 MLOAD PUSH3 0x461BCD PUSH1 0xE5 SHL DUP2 MSTORE PUSH1 0x4 ADD PUSH2 0x626 SWAP2 SWAP1 PUSH2 0x2B63 JUMP JUMPDEST POP DUP6 PUSH1 0x1 PUSH1 0x1 PUSH1 0xA0 SHL SUB AND PUSH4 0x23B872DD CALLER DUP10 DUP15 DUP10 DUP2 MLOAD DUP2 LT PUSH2 0x1A08 JUMPI PUSH2 0x1A08 PUSH2 0x3127 JUMP JUMPDEST PUSH1 0x20 SWAP1 DUP2 MUL SWAP2 SWAP1 SWAP2 ADD ADD MLOAD PUSH1 0x40 MLOAD PUSH1 0x1 PUSH1 0x1 PUSH1 0xE0 SHL SUB NOT PUSH1 0xE0 DUP7 SWAP1 SHL AND DUP2 MSTORE PUSH1 0x1 PUSH1 0x1 PUSH1 0xA0 SHL SUB SWAP4 DUP5 AND PUSH1 0x4 DUP3 ADD MSTORE SWAP3 SWAP1 SWAP2 AND PUSH1 0x24 DUP4 ADD MSTORE PUSH1 0x44 DUP3 ADD MSTORE PUSH1 0x64 ADD PUSH1 0x0 PUSH1 0x40 MLOAD DUP1 DUP4 SUB DUP2 PUSH1 0x0 DUP8 DUP1 EXTCODESIZE ISZERO DUP1 ISZERO PUSH2 0x1A62 JUMPI PUSH1 0x0 DUP1 REVERT JUMPDEST POP GAS CALL ISZERO DUP1 ISZERO PUSH2 0x1A76 JUMPI RETURNDATASIZE PUSH1 0x0 DUP1 RETURNDATACOPY RETURNDATASIZE PUSH1 0x0 REVERT JUMPDEST POP POP POP POP POP POP POP POP DUP1 DUP1 PUSH2 0x1A89 SWAP1 PUSH2 0x3211 JUMP JUMPDEST SWAP2 POP POP PUSH2 0x15C8 JUMP JUMPDEST POP PUSH1 0x40 MLOAD PUSH4 0x1A9CAA01 PUSH1 0xE2 SHL DUP2 MSTORE PUSH1 0x1 PUSH1 0x1 PUSH1 0xA0 SHL SUB DUP6 AND SWAP1 PUSH4 0x6A72A804 SWAP1 PUSH2 0x1AE6 SWAP1 DUP7 SWAP1 DUP13 SWAP1 DUP13 SWAP1 DUP13 SWAP1 PUSH32 0x0 SWAP1 PUSH1 0x4 ADD PUSH2 0x322C JUMP JUMPDEST PUSH1 0x0 PUSH1 0x40 MLOAD DUP1 DUP4 SUB DUP2 PUSH1 0x0 DUP8 DUP1 EXTCODESIZE ISZERO DUP1 ISZERO PUSH2 0x1B00 JUMPI PUSH1 0x0 DUP1 REVERT JUMPDEST POP GAS CALL ISZERO DUP1 ISZERO PUSH2 0x1B14 JUMPI RETURNDATASIZE PUSH1 0x0 DUP1 RETURNDATACOPY RETURNDATASIZE PUSH1 0x0 REVERT JUMPDEST POP POP POP POP POP POP SWAP5 POP SWAP5 SWAP3 POP POP POP JUMP JUMPDEST PUSH1 0x0 PUSH4 0x1FFC9A7 PUSH1 0xE0 SHL PUSH1 0x1 PUSH1 0x1 PUSH1 0xE0 SHL SUB NOT DUP4 AND EQ DUP1 PUSH2 0x5D1 JUMPI POP PUSH1 0x1 PUSH1 0x1 PUSH1 0xE0 SHL SUB NOT DUP3 AND PUSH4 0xEFFDA0F5 PUSH1 0xE0 SHL EQ SWAP3 SWAP2 POP POP JUMP JUMPDEST PUSH1 0x0 SLOAD PUSH1 0x40 MLOAD PUSH4 0x935E01B PUSH1 0xE2 SHL DUP2 MSTORE CALLER PUSH1 0x4 DUP3 ADD MSTORE PUSH1 0x1 PUSH1 0x1 PUSH1 0xA0 SHL SUB SWAP1 SWAP2 AND SWAP1 PUSH4 0x24D7806C SWAP1 PUSH1 0x24 ADD PUSH1 0x20 PUSH1 0x40 MLOAD DUP1 DUP4 SUB DUP2 DUP7 DUP1 EXTCODESIZE ISZERO DUP1 ISZERO PUSH2 0x1B9C JUMPI PUSH1 0x0 DUP1 REVERT JUMPDEST POP GAS STATICCALL ISZERO DUP1 ISZERO PUSH2 0x1BB0 JUMPI RETURNDATASIZE PUSH1 0x0 DUP1 RETURNDATACOPY RETURNDATASIZE PUSH1 0x0 REVERT JUMPDEST POP POP POP POP PUSH1 0x40 MLOAD RETURNDATASIZE PUSH1 0x1F NOT PUSH1 0x1F DUP3 ADD AND DUP3 ADD DUP1 PUSH1 0x40 MSTORE POP DUP2 ADD SWAP1 PUSH2 0x1BD4 SWAP2 SWAP1 PUSH2 0x315A JUMP JUMPDEST PUSH1 0x40 MLOAD DUP1 PUSH1 0x40 ADD PUSH1 0x40 MSTORE DUP1 PUSH1 0x3 DUP2 MSTORE PUSH1 0x20 ADD PUSH3 0x232921 PUSH1 0xE9 SHL DUP2 MSTORE POP SWAP1 PUSH2 0x1C0E JUMPI PUSH1 0x40 MLOAD PUSH3 0x461BCD PUSH1 0xE5 SHL DUP2 MSTORE PUSH1 0x4 ADD PUSH2 0x626 SWAP2 SWAP1 PUSH2 0x2B63 JUMP JUMPDEST POP JUMP JUMPDEST PUSH2 0x1C1A DUP2 PUSH2 0x2441 JUMP JUMPDEST PUSH1 0x0 DUP2 DUP2 MSTORE PUSH1 0x9 PUSH1 0x20 SWAP1 DUP2 MSTORE PUSH1 0x40 SWAP2 DUP3 SWAP1 KECCAK256 SLOAD DUP3 MLOAD DUP1 DUP5 ADD SWAP1 SWAP4 MSTORE PUSH1 0x4 DUP4 MSTORE PUSH4 0x13955313 PUSH1 0xE2 SHL SWAP2 DUP4 ADD SWAP2 SWAP1 SWAP2 MSTORE SWAP1 DUP2 PUSH2 0x1C67 JUMPI PUSH1 0x40 MLOAD PUSH3 0x461BCD PUSH1 0xE5 SHL DUP2 MSTORE PUSH1 0x4 ADD PUSH2 0x626 SWAP2 SWAP1 PUSH2 0x2B63 JUMP JUMPDEST POP DUP1 TIMESTAMP LT ISZERO PUSH1 0x40 MLOAD DUP1 PUSH1 0x40 ADD PUSH1 0x40 MSTORE DUP1 PUSH1 0x2 DUP2 MSTORE PUSH1 0x20 ADD PUSH2 0x5453 PUSH1 0xF0 SHL DUP2 MSTORE POP SWAP1 PUSH2 0x1CA5 JUMPI PUSH1 0x40 MLOAD PUSH3 0x461BCD PUSH1 0xE5 SHL DUP2 MSTORE PUSH1 0x4 ADD PUSH2 0x626 SWAP2 SWAP1 PUSH2 0x2B63 JUMP JUMPDEST POP PUSH1 0x0 DUP3 DUP2 MSTORE PUSH1 0x8 PUSH1 0x20 SWAP1 DUP2 MSTORE PUSH1 0x40 DUP1 DUP4 KECCAK256 PUSH1 0x7 SWAP1 SWAP3 MSTORE SWAP1 SWAP2 KECCAK256 DUP2 SLOAD SWAP1 SWAP2 SWAP1 PUSH2 0x1CCD SWAP1 PUSH2 0x2E31 JUMP JUMPDEST PUSH2 0x1CD8 SWAP3 SWAP2 SWAP1 PUSH2 0x27AA JUMP JUMPDEST POP PUSH1 0x0 DUP3 DUP2 MSTORE PUSH1 0x8 PUSH1 0x20 MSTORE PUSH1 0x40 DUP2 KECCAK256 PUSH2 0x1CF0 SWAP2 PUSH2 0x2835 JUMP JUMPDEST POP PUSH1 0x0 SWAP1 DUP2 MSTORE PUSH1 0x9 PUSH1 0x20 MSTORE PUSH1 0x40 DUP2 KECCAK256 SSTORE JUMP JUMPDEST PUSH2 0x1D0B DUP3 PUSH2 0x2441 JUMP JUMPDEST PUSH1 0x0 DUP3 DUP2 MSTORE PUSH1 0x8 PUSH1 0x20 SWAP1 DUP2 MSTORE PUSH1 0x40 SWAP1 SWAP2 KECCAK256 DUP3 MLOAD PUSH2 0x1D2A SWAP3 DUP5 ADD SWAP1 PUSH2 0x286F JUMP JUMPDEST POP PUSH1 0x0 DUP3 DUP2 MSTORE PUSH1 0x7 PUSH1 0x20 MSTORE PUSH1 0x40 DUP2 KECCAK256 DUP1 SLOAD PUSH2 0x1D44 SWAP1 PUSH2 0x2E31 JUMP JUMPDEST ISZERO SWAP1 POP PUSH2 0x1D52 JUMPI PUSH1 0x1 PUSH2 0x1D55 JUMP JUMPDEST PUSH1 0x0 JUMPDEST PUSH1 0xFF AND SWAP1 POP DUP1 PUSH1 0x0 DUP1 ADD PUSH1 0x0 SWAP1 SLOAD SWAP1 PUSH2 0x100 EXP SWAP1 DIV PUSH1 0x1 PUSH1 0x1 PUSH1 0xA0 SHL SUB AND PUSH1 0x1 PUSH1 0x1 PUSH1 0xA0 SHL SUB AND PUSH4 0xBBA32939 PUSH1 0x40 MLOAD DUP2 PUSH4 0xFFFFFFFF AND PUSH1 0xE0 SHL DUP2 MSTORE PUSH1 0x4 ADD PUSH1 0x20 PUSH1 0x40 MLOAD DUP1 DUP4 SUB DUP2 DUP7 DUP1 EXTCODESIZE ISZERO DUP1 ISZERO PUSH2 0x1DAB JUMPI PUSH1 0x0 DUP1 REVERT JUMPDEST POP GAS STATICCALL ISZERO DUP1 ISZERO PUSH2 0x1DBF JUMPI RETURNDATASIZE PUSH1 0x0 DUP1 RETURNDATACOPY RETURNDATASIZE PUSH1 0x0 REVERT JUMPDEST POP POP POP POP PUSH1 0x40 MLOAD RETURNDATASIZE PUSH1 0x1F NOT PUSH1 0x1F DUP3 ADD AND DUP3 ADD DUP1 PUSH1 0x40 MSTORE POP DUP2 ADD SWAP1 PUSH2 0x1DE3 SWAP2 SWAP1 PUSH2 0x2DAD JUMP JUMPDEST PUSH2 0x1DED SWAP2 SWAP1 PUSH2 0x32DB JUMP JUMPDEST PUSH2 0x1DF7 SWAP1 TIMESTAMP PUSH2 0x2DDC JUMP JUMPDEST PUSH1 0x0 SWAP4 DUP5 MSTORE PUSH1 0x9 PUSH1 0x20 MSTORE PUSH1 0x40 SWAP1 SWAP4 KECCAK256 SWAP3 SWAP1 SWAP3 SSTORE POP POP JUMP JUMPDEST PUSH2 0x1E16 PUSH2 0x1B59 JUMP JUMPDEST PUSH1 0x0 PUSH1 0xD DUP1 SLOAD PUSH2 0x1E25 SWAP1 PUSH2 0x2E31 JUMP JUMPDEST ISZERO SWAP1 POP PUSH2 0x1E33 JUMPI PUSH1 0x1 PUSH2 0x1E36 JUMP JUMPDEST PUSH1 0x0 JUMPDEST PUSH1 0xFF AND SWAP1 POP DUP2 PUSH1 0xE SWAP1 DUP1 MLOAD SWAP1 PUSH1 0x20 ADD SWAP1 PUSH2 0x1E51 SWAP3 SWAP2 SWAP1 PUSH2 0x286F JUMP JUMPDEST POP PUSH1 0x0 SLOAD PUSH1 0x40 DUP1 MLOAD PUSH4 0xBBA32939 PUSH1 0xE0 SHL DUP2 MSTORE SWAP1 MLOAD DUP4 SWAP3 PUSH1 0x1 PUSH1 0x1 PUSH1 0xA0 SHL SUB AND SWAP2 PUSH4 0xBBA32939 SWAP2 PUSH1 0x4 DUP1 DUP4 ADD SWAP3 PUSH1 0x20 SWAP3 SWAP2 SWAP1 DUP3 SWAP1 SUB ADD DUP2 DUP7 DUP1 EXTCODESIZE ISZERO DUP1 ISZERO PUSH2 0x1E96 JUMPI PUSH1 0x0 DUP1 REVERT JUMPDEST POP GAS STATICCALL ISZERO DUP1 ISZERO PUSH2 0x1EAA JUMPI RETURNDATASIZE PUSH1 0x0 DUP1 RETURNDATACOPY RETURNDATASIZE PUSH1 0x0 REVERT JUMPDEST POP POP POP POP PUSH1 0x40 MLOAD RETURNDATASIZE PUSH1 0x1F NOT PUSH1 0x1F DUP3 ADD AND DUP3 ADD DUP1 PUSH1 0x40 MSTORE POP DUP2 ADD SWAP1 PUSH2 0x1ECE SWAP2 SWAP1 PUSH2 0x2DAD JUMP JUMPDEST PUSH2 0x1ED8 SWAP2 SWAP1 PUSH2 0x32DB JUMP JUMPDEST PUSH2 0x1EE2 SWAP1 TIMESTAMP PUSH2 0x2DDC JUMP JUMPDEST PUSH1 0xF SSTORE POP POP JUMP JUMPDEST PUSH2 0x1EF1 PUSH2 0x1B59 JUMP JUMPDEST PUSH1 0x0 DUP3 DUP2 MSTORE PUSH1 0xB PUSH1 0x20 SWAP1 DUP2 MSTORE PUSH1 0x40 SWAP1 SWAP2 KECCAK256 DUP3 MLOAD PUSH2 0x1F10 SWAP3 DUP5 ADD SWAP1 PUSH2 0x286F JUMP JUMPDEST POP PUSH1 0x0 DUP3 DUP2 MSTORE PUSH1 0xA PUSH1 0x20 MSTORE PUSH1 0x40 DUP2 KECCAK256 DUP1 SLOAD PUSH2 0x1F2A SWAP1 PUSH2 0x2E31 JUMP JUMPDEST ISZERO SWAP1 POP PUSH2 0x1F38 JUMPI PUSH1 0x1 PUSH2 0x1F3B JUMP JUMPDEST PUSH1 0x0 JUMPDEST PUSH1 0xFF AND SWAP1 POP DUP1 PUSH1 0x0 DUP1 ADD PUSH1 0x0 SWAP1 SLOAD SWAP1 PUSH2 0x100 EXP SWAP1 DIV PUSH1 0x1 PUSH1 0x1 PUSH1 0xA0 SHL SUB AND PUSH1 0x1 PUSH1 0x1 PUSH1 0xA0 SHL SUB AND PUSH4 0xBBA32939 PUSH1 0x40 MLOAD DUP2 PUSH4 0xFFFFFFFF AND PUSH1 0xE0 SHL DUP2 MSTORE PUSH1 0x4 ADD PUSH1 0x20 PUSH1 0x40 MLOAD DUP1 DUP4 SUB DUP2 DUP7 DUP1 EXTCODESIZE ISZERO DUP1 ISZERO PUSH2 0x1F91 JUMPI PUSH1 0x0 DUP1 REVERT JUMPDEST POP GAS STATICCALL ISZERO DUP1 ISZERO PUSH2 0x1FA5 JUMPI RETURNDATASIZE PUSH1 0x0 DUP1 RETURNDATACOPY RETURNDATASIZE PUSH1 0x0 REVERT JUMPDEST POP POP POP POP PUSH1 0x40 MLOAD RETURNDATASIZE PUSH1 0x1F NOT PUSH1 0x1F DUP3 ADD AND DUP3 ADD DUP1 PUSH1 0x40 MSTORE POP DUP2 ADD SWAP1 PUSH2 0x1FC9 SWAP2 SWAP1 PUSH2 0x2DAD JUMP JUMPDEST PUSH2 0x1FD3 SWAP2 SWAP1 PUSH2 0x32DB JUMP JUMPDEST PUSH2 0x1FDD SWAP1 TIMESTAMP PUSH2 0x2DDC JUMP JUMPDEST PUSH1 0x0 SWAP4 DUP5 MSTORE PUSH1 0xC PUSH1 0x20 MSTORE PUSH1 0x40 SWAP1 SWAP4 KECCAK256 SWAP3 SWAP1 SWAP3 SSTORE POP POP JUMP JUMPDEST PUSH1 0x40 DUP1 MLOAD PUSH1 0x20 DUP1 DUP3 MSTORE DUP2 DUP4 ADD SWAP1 SWAP3 MSTORE PUSH1 0x60 SWAP2 PUSH1 0x20 DUP3 ADD DUP2 DUP1 CALLDATASIZE DUP4 CALLDATACOPY ADD SWAP1 POP POP SWAP1 POP PUSH1 0x20 PUSH1 0x0 JUMPDEST PUSH1 0x20 DUP2 LT ISZERO PUSH2 0x2052 JUMPI DUP4 DUP2 PUSH1 0x20 DUP2 LT PUSH2 0x2035 JUMPI PUSH2 0x2035 PUSH2 0x3127 JUMP JUMPDEST BYTE PUSH2 0x2042 JUMPI DUP1 SWAP2 POP PUSH2 0x2052 JUMP JUMPDEST PUSH2 0x204B DUP2 PUSH2 0x3211 JUMP JUMPDEST SWAP1 POP PUSH2 0x201A JUMP JUMPDEST POP DUP2 MSTORE PUSH1 0x20 DUP2 ADD SWAP2 SWAP1 SWAP2 MSTORE SWAP1 JUMP JUMPDEST PUSH2 0x2068 PUSH2 0x1B59 JUMP JUMPDEST PUSH1 0xF SLOAD PUSH1 0x40 DUP1 MLOAD DUP1 DUP3 ADD SWAP1 SWAP2 MSTORE PUSH1 0x4 DUP2 MSTORE PUSH4 0x13955313 PUSH1 0xE2 SHL PUSH1 0x20 DUP3 ADD MSTORE SWAP1 PUSH2 0x20A4 JUMPI PUSH1 0x40 MLOAD PUSH3 0x461BCD PUSH1 0xE5 SHL DUP2 MSTORE PUSH1 0x4 ADD PUSH2 0x626 SWAP2 SWAP1 PUSH2 0x2B63 JUMP JUMPDEST POP PUSH1 0xF SLOAD TIMESTAMP LT ISZERO PUSH1 0x40 MLOAD DUP1 PUSH1 0x40 ADD PUSH1 0x40 MSTORE DUP1 PUSH1 0x2 DUP2 MSTORE PUSH1 0x20 ADD PUSH2 0x5453 PUSH1 0xF0 SHL DUP2 MSTORE POP SWAP1 PUSH2 0x20E4 JUMPI PUSH1 0x40 MLOAD PUSH3 0x461BCD PUSH1 0xE5 SHL DUP2 MSTORE PUSH1 0x4 ADD PUSH2 0x626 SWAP2 SWAP1 PUSH2 0x2B63 JUMP JUMPDEST POP PUSH1 0xE PUSH1 0xD SWAP1 DUP1 SLOAD PUSH2 0x20F5 SWAP1 PUSH2 0x2E31 JUMP JUMPDEST PUSH2 0x2100 SWAP3 SWAP2 SWAP1 PUSH2 0x27AA JUMP JUMPDEST POP PUSH2 0x210D PUSH1 0xE PUSH1 0x0 PUSH2 0x2835 JUMP JUMPDEST PUSH1 0x0 PUSH1 0xF SSTORE JUMP JUMPDEST PUSH2 0x211D DUP3 PUSH2 0x2441 JUMP JUMPDEST PUSH1 0x0 DUP3 DUP2 MSTORE PUSH1 0x10 PUSH1 0x20 SWAP1 DUP2 MSTORE PUSH1 0x40 SWAP1 SWAP2 KECCAK256 DUP3 MLOAD PUSH2 0x213C SWAP3 DUP5 ADD SWAP1 PUSH2 0x286F JUMP JUMPDEST POP POP POP JUMP JUMPDEST PUSH2 0x2149 PUSH2 0x2610 JUMP JUMPDEST DUP1 MLOAD PUSH2 0x215C SWAP1 PUSH1 0x12 SWAP1 PUSH1 0x20 DUP5 ADD SWAP1 PUSH2 0x286F JUMP JUMPDEST POP POP JUMP JUMPDEST PUSH2 0x2168 PUSH2 0x1B59 JUMP JUMPDEST PUSH1 0x0 DUP2 DUP2 MSTORE PUSH1 0xC PUSH1 0x20 SWAP1 DUP2 MSTORE PUSH1 0x40 SWAP2 DUP3 SWAP1 KECCAK256 SLOAD DUP3 MLOAD DUP1 DUP5 ADD SWAP1 SWAP4 MSTORE PUSH1 0x4 DUP4 MSTORE PUSH4 0x13955313 PUSH1 0xE2 SHL SWAP2 DUP4 ADD SWAP2 SWAP1 SWAP2 MSTORE SWAP1 DUP2 PUSH2 0x21B5 JUMPI PUSH1 0x40 MLOAD PUSH3 0x461BCD PUSH1 0xE5 SHL DUP2 MSTORE PUSH1 0x4 ADD PUSH2 0x626 SWAP2 SWAP1 PUSH2 0x2B63 JUMP JUMPDEST POP DUP1 TIMESTAMP LT ISZERO PUSH1 0x40 MLOAD DUP1 PUSH1 0x40 ADD PUSH1 0x40 MSTORE DUP1 PUSH1 0x2 DUP2 MSTORE PUSH1 0x20 ADD PUSH2 0x5453 PUSH1 0xF0 SHL DUP2 MSTORE POP SWAP1 PUSH2 0x21F3 JUMPI PUSH1 0x40 MLOAD PUSH3 0x461BCD PUSH1 0xE5 SHL DUP2 MSTORE PUSH1 0x4 ADD PUSH2 0x626 SWAP2 SWAP1 PUSH2 0x2B63 JUMP JUMPDEST POP PUSH1 0x0 DUP3 DUP2 MSTORE PUSH1 0xB PUSH1 0x20 SWAP1 DUP2 MSTORE PUSH1 0x40 DUP1 DUP4 KECCAK256 PUSH1 0xA SWAP1 SWAP3 MSTORE SWAP1 SWAP2 KECCAK256 DUP2 SLOAD SWAP1 SWAP2 SWAP1 PUSH2 0x221B SWAP1 PUSH2 0x2E31 JUMP JUMPDEST PUSH2 0x2226 SWAP3 SWAP2 SWAP1 PUSH2 0x27AA JUMP JUMPDEST POP PUSH1 0x0 DUP3 DUP2 MSTORE PUSH1 0xB PUSH1 0x20 MSTORE PUSH1 0x40 DUP2 KECCAK256 PUSH2 0x223E SWAP2 PUSH2 0x2835 JUMP JUMPDEST POP PUSH1 0x0 SWAP1 DUP2 MSTORE PUSH1 0xC PUSH1 0x20 MSTORE PUSH1 0x40 DUP2 KECCAK256 SSTORE JUMP JUMPDEST PUSH1 0x0 DUP1 SLOAD PUSH1 0x40 MLOAD PUSH4 0x63E85D2D PUSH1 0xE0 SHL DUP2 MSTORE CALLER PUSH1 0x4 DUP3 ADD MSTORE PUSH1 0x1 PUSH1 0x24 DUP3 ADD MSTORE DUP3 SWAP2 PUSH1 0x1 PUSH1 0x1 PUSH1 0xA0 SHL SUB AND SWAP1 DUP2 SWAP1 PUSH4 0x63E85D2D SWAP1 PUSH1 0x44 ADD PUSH1 0x20 PUSH1 0x40 MLOAD DUP1 DUP4 SUB DUP2 DUP7 DUP1 EXTCODESIZE ISZERO DUP1 ISZERO PUSH2 0x229D JUMPI PUSH1 0x0 DUP1 REVERT JUMPDEST POP GAS STATICCALL ISZERO DUP1 ISZERO PUSH2 0x22B1 JUMPI RETURNDATASIZE PUSH1 0x0 DUP1 RETURNDATACOPY RETURNDATASIZE PUSH1 0x0 REVERT JUMPDEST POP POP POP POP PUSH1 0x40 MLOAD RETURNDATASIZE PUSH1 0x1F NOT PUSH1 0x1F DUP3 ADD AND DUP3 ADD DUP1 PUSH1 0x40 MSTORE POP DUP2 ADD SWAP1 PUSH2 0x22D5 SWAP2 SWAP1 PUSH2 0x315A JUMP JUMPDEST PUSH1 0x40 MLOAD DUP1 PUSH1 0x40 ADD PUSH1 0x40 MSTORE DUP1 PUSH1 0x3 DUP2 MSTORE PUSH1 0x20 ADD PUSH3 0x232921 PUSH1 0xE9 SHL DUP2 MSTORE POP SWAP1 PUSH2 0x230F JUMPI PUSH1 0x40 MLOAD PUSH3 0x461BCD PUSH1 0xE5 SHL DUP2 MSTORE PUSH1 0x4 ADD PUSH2 0x626 SWAP2 SWAP1 PUSH2 0x2B63 JUMP JUMPDEST POP PUSH1 0x1 SLOAD PUSH1 0x40 DUP1 MLOAD PUSH4 0x1112EEE7 PUSH1 0xE3 SHL DUP2 MSTORE SWAP1 MLOAD PUSH1 0x1 PUSH1 0x1 PUSH1 0xA0 SHL SUB SWAP1 SWAP3 AND SWAP2 DUP3 SWAP2 PUSH4 0x88977738 SWAP2 PUSH1 0x4 DUP1 DUP4 ADD SWAP3 PUSH1 0x20 SWAP3 SWAP2 SWAP1 DUP3 SWAP1 SUB ADD DUP2 DUP7 DUP1 EXTCODESIZE ISZERO DUP1 ISZERO PUSH2 0x2356 JUMPI PUSH1 0x0 DUP1 REVERT JUMPDEST POP GAS STATICCALL ISZERO DUP1 ISZERO PUSH2 0x236A JUMPI RETURNDATASIZE PUSH1 0x0 DUP1 RETURNDATACOPY RETURNDATASIZE PUSH1 0x0 REVERT JUMPDEST POP POP POP POP PUSH1 0x40 MLOAD RETURNDATASIZE PUSH1 0x1F NOT PUSH1 0x1F DUP3 ADD AND DUP3 ADD DUP1 PUSH1 0x40 MSTORE POP DUP2 ADD SWAP1 PUSH2 0x238E SWAP2 SWAP1 PUSH2 0x2DAD JUMP JUMPDEST PUSH2 0x2399 SWAP1 PUSH1 0x1 PUSH2 0x2DDC JUMP JUMPDEST PUSH1 0x2 SLOAD SWAP1 SWAP4 POP PUSH2 0x23B2 SWAP1 PUSH1 0x1 PUSH1 0x1 PUSH1 0xA0 SHL SUB AND DUP5 PUSH2 0x270A JUMP JUMPDEST PUSH1 0x40 MLOAD PUSH4 0x5C4FDF9 PUSH1 0xE0 SHL DUP2 MSTORE PUSH1 0x1 PUSH1 0x1 PUSH1 0xA0 SHL SUB DUP1 DUP4 AND PUSH1 0x4 DUP4 ADD MSTORE DUP8 DUP2 AND PUSH1 0x24 DUP4 ADD MSTORE SWAP2 SWAP6 POP SWAP1 DUP3 AND SWAP1 PUSH4 0x5C4FDF9 SWAP1 PUSH1 0x44 ADD PUSH1 0x20 PUSH1 0x40 MLOAD DUP1 DUP4 SUB DUP2 PUSH1 0x0 DUP8 DUP1 EXTCODESIZE ISZERO DUP1 ISZERO PUSH2 0x2401 JUMPI PUSH1 0x0 DUP1 REVERT JUMPDEST POP GAS CALL ISZERO DUP1 ISZERO PUSH2 0x2415 JUMPI RETURNDATASIZE PUSH1 0x0 DUP1 RETURNDATACOPY RETURNDATASIZE PUSH1 0x0 REVERT JUMPDEST POP POP POP POP PUSH1 0x40 MLOAD RETURNDATASIZE PUSH1 0x1F NOT PUSH1 0x1F DUP3 ADD AND DUP3 ADD DUP1 PUSH1 0x40 MSTORE POP DUP2 ADD SWAP1 PUSH2 0x2439 SWAP2 SWAP1 PUSH2 0x2DAD JUMP JUMPDEST POP POP POP SWAP2 POP SWAP2 JUMP JUMPDEST PUSH1 0x0 SLOAD PUSH1 0x40 MLOAD PUSH4 0x935E01B PUSH1 0xE2 SHL DUP2 MSTORE CALLER PUSH1 0x4 DUP3 ADD MSTORE PUSH1 0x1 PUSH1 0x1 PUSH1 0xA0 SHL SUB SWAP1 SWAP2 AND SWAP1 PUSH4 0x24D7806C SWAP1 PUSH1 0x24 ADD PUSH1 0x20 PUSH1 0x40 MLOAD DUP1 DUP4 SUB DUP2 DUP7 DUP1 EXTCODESIZE ISZERO DUP1 ISZERO PUSH2 0x2484 JUMPI PUSH1 0x0 DUP1 REVERT JUMPDEST POP GAS STATICCALL ISZERO DUP1 ISZERO PUSH2 0x2498 JUMPI RETURNDATASIZE PUSH1 0x0 DUP1 RETURNDATACOPY RETURNDATASIZE PUSH1 0x0 REVERT JUMPDEST POP POP POP POP PUSH1 0x40 MLOAD RETURNDATASIZE PUSH1 0x1F NOT PUSH1 0x1F DUP3 ADD AND DUP3 ADD DUP1 PUSH1 0x40 MSTORE POP DUP2 ADD SWAP1 PUSH2 0x24BC SWAP2 SWAP1 PUSH2 0x315A JUMP JUMPDEST DUP1 PUSH2 0x2549 JUMPI POP PUSH1 0x1 SLOAD PUSH1 0x40 MLOAD PUSH4 0x20604BF PUSH1 0xE2 SHL DUP2 MSTORE PUSH1 0x4 DUP2 ADD DUP4 SWAP1 MSTORE CALLER SWAP2 PUSH1 0x1 PUSH1 0x1 PUSH1 0xA0 SHL SUB AND SWAP1 PUSH4 0x81812FC SWAP1 PUSH1 0x24 ADD PUSH1 0x20 PUSH1 0x40 MLOAD DUP1 DUP4 SUB DUP2 DUP7 DUP1 EXTCODESIZE ISZERO DUP1 ISZERO PUSH2 0x2506 JUMPI PUSH1 0x0 DUP1 REVERT JUMPDEST POP GAS STATICCALL ISZERO DUP1 ISZERO PUSH2 0x251A JUMPI RETURNDATASIZE PUSH1 0x0 DUP1 RETURNDATACOPY RETURNDATASIZE PUSH1 0x0 REVERT JUMPDEST POP POP POP POP PUSH1 0x40 MLOAD RETURNDATASIZE PUSH1 0x1F NOT PUSH1 0x1F DUP3 ADD AND DUP3 ADD DUP1 PUSH1 0x40 MSTORE POP DUP2 ADD SWAP1 PUSH2 0x253E SWAP2 SWAP1 PUSH2 0x313D JUMP JUMPDEST PUSH1 0x1 PUSH1 0x1 PUSH1 0xA0 SHL SUB AND EQ JUMPDEST DUP1 PUSH2 0x25D6 JUMPI POP PUSH1 0x1 SLOAD PUSH1 0x40 MLOAD PUSH4 0x31A9108F PUSH1 0xE1 SHL DUP2 MSTORE PUSH1 0x4 DUP2 ADD DUP4 SWAP1 MSTORE CALLER SWAP2 PUSH1 0x1 PUSH1 0x1 PUSH1 0xA0 SHL SUB AND SWAP1 PUSH4 0x6352211E SWAP1 PUSH1 0x24 ADD PUSH1 0x20 PUSH1 0x40 MLOAD DUP1 DUP4 SUB DUP2 DUP7 DUP1 EXTCODESIZE ISZERO DUP1 ISZERO PUSH2 0x2593 JUMPI PUSH1 0x0 DUP1 REVERT JUMPDEST POP GAS STATICCALL ISZERO DUP1 ISZERO PUSH2 0x25A7 JUMPI RETURNDATASIZE PUSH1 0x0 DUP1 RETURNDATACOPY RETURNDATASIZE PUSH1 0x0 REVERT JUMPDEST POP POP POP POP PUSH1 0x40 MLOAD RETURNDATASIZE PUSH1 0x1F NOT PUSH1 0x1F DUP3 ADD AND DUP3 ADD DUP1 PUSH1 0x40 MSTORE POP DUP2 ADD SWAP1 PUSH2 0x25CB SWAP2 SWAP1 PUSH2 0x313D JUMP JUMPDEST PUSH1 0x1 PUSH1 0x1 PUSH1 0xA0 SHL SUB AND EQ JUMPDEST PUSH1 0x40 MLOAD DUP1 PUSH1 0x40 ADD PUSH1 0x40 MSTORE DUP1 PUSH1 0x3 DUP2 MSTORE PUSH1 0x20 ADD PUSH3 0x232921 PUSH1 0xE9 SHL DUP2 MSTORE POP SWAP1 PUSH2 0x215C JUMPI PUSH1 0x40 MLOAD PUSH3 0x461BCD PUSH1 0xE5 SHL DUP2 MSTORE PUSH1 0x4 ADD PUSH2 0x626 SWAP2 SWAP1 PUSH2 0x2B63 JUMP JUMPDEST PUSH1 0x0 SLOAD PUSH1 0x40 MLOAD PUSH4 0x935E01B PUSH1 0xE2 SHL DUP2 MSTORE CALLER PUSH1 0x4 DUP3 ADD MSTORE PUSH1 0x1 PUSH1 0x1 PUSH1 0xA0 SHL SUB SWAP1 SWAP2 AND SWAP1 DUP2 SWAP1 PUSH4 0x24D7806C SWAP1 PUSH1 0x24 ADD PUSH1 0x20 PUSH1 0x40 MLOAD DUP1 DUP4 SUB DUP2 DUP7 DUP1 EXTCODESIZE ISZERO DUP1 ISZERO PUSH2 0x2655 JUMPI PUSH1 0x0 DUP1 REVERT JUMPDEST POP GAS STATICCALL ISZERO DUP1 ISZERO PUSH2 0x2669 JUMPI RETURNDATASIZE PUSH1 0x0 DUP1 RETURNDATACOPY RETURNDATASIZE PUSH1 0x0 REVERT JUMPDEST POP POP POP POP PUSH1 0x40 MLOAD RETURNDATASIZE PUSH1 0x1F NOT PUSH1 0x1F DUP3 ADD AND DUP3 ADD DUP1 PUSH1 0x40 MSTORE POP DUP2 ADD SWAP1 PUSH2 0x268D SWAP2 SWAP1 PUSH2 0x315A JUMP JUMPDEST DUP1 PUSH2 0x25D6 JUMPI POP PUSH1 0x40 MLOAD PUSH4 0x36B87BD7 PUSH1 0xE1 SHL DUP2 MSTORE CALLER PUSH1 0x4 DUP3 ADD MSTORE PUSH1 0x1 PUSH1 0x1 PUSH1 0xA0 SHL SUB DUP3 AND SWAP1 PUSH4 0x6D70F7AE SWAP1 PUSH1 0x24 ADD PUSH1 0x20 PUSH1 0x40 MLOAD DUP1 DUP4 SUB DUP2 DUP7 DUP1 EXTCODESIZE ISZERO DUP1 ISZERO PUSH2 0x26D2 JUMPI PUSH1 0x0 DUP1 REVERT JUMPDEST POP GAS STATICCALL ISZERO DUP1 ISZERO PUSH2 0x26E6 JUMPI RETURNDATASIZE PUSH1 0x0 DUP1 RETURNDATACOPY RETURNDATASIZE PUSH1 0x0 REVERT JUMPDEST POP POP POP POP PUSH1 0x40 MLOAD RETURNDATASIZE PUSH1 0x1F NOT PUSH1 0x1F DUP3 ADD AND DUP3 ADD DUP1 PUSH1 0x40 MSTORE POP DUP2 ADD SWAP1 PUSH2 0x25D6 SWAP2 SWAP1 PUSH2 0x315A JUMP JUMPDEST PUSH1 0x0 PUSH1 0x40 MLOAD PUSH20 0x3D602D80600A3D3981F3363D3D373D3D3D363D73 PUSH1 0x60 SHL DUP2 MSTORE DUP4 PUSH1 0x60 SHL PUSH1 0x14 DUP3 ADD MSTORE PUSH15 0x5AF43D82803E903D91602B57FD5BF3 PUSH1 0x88 SHL PUSH1 0x28 DUP3 ADD MSTORE DUP3 PUSH1 0x37 DUP3 PUSH1 0x0 CREATE2 SWAP2 POP POP PUSH1 0x1 PUSH1 0x1 PUSH1 0xA0 SHL SUB DUP2 AND PUSH2 0x5D1 JUMPI PUSH1 0x40 MLOAD PUSH3 0x461BCD PUSH1 0xE5 SHL DUP2 MSTORE PUSH1 0x20 PUSH1 0x4 DUP3 ADD MSTORE PUSH1 0x17 PUSH1 0x24 DUP3 ADD MSTORE PUSH32 0x455243313136373A2063726561746532206661696C6564000000000000000000 PUSH1 0x44 DUP3 ADD MSTORE PUSH1 0x64 ADD PUSH2 0x626 JUMP JUMPDEST DUP3 DUP1 SLOAD PUSH2 0x27B6 SWAP1 PUSH2 0x2E31 JUMP JUMPDEST SWAP1 PUSH1 0x0 MSTORE PUSH1 0x20 PUSH1 0x0 KECCAK256 SWAP1 PUSH1 0x1F ADD PUSH1 0x20 SWAP1 DIV DUP2 ADD SWAP3 DUP3 PUSH2 0x27D8 JUMPI PUSH1 0x0 DUP6 SSTORE PUSH2 0x2825 JUMP JUMPDEST DUP3 PUSH1 0x1F LT PUSH2 0x27E9 JUMPI DUP1 SLOAD DUP6 SSTORE PUSH2 0x2825 JUMP JUMPDEST DUP3 DUP1 ADD PUSH1 0x1 ADD DUP6 SSTORE DUP3 ISZERO PUSH2 0x2825 JUMPI PUSH1 0x0 MSTORE PUSH1 0x20 PUSH1 0x0 KECCAK256 SWAP2 PUSH1 0x1F ADD PUSH1 0x20 SWAP1 DIV DUP3 ADD JUMPDEST DUP3 DUP2 GT ISZERO PUSH2 0x2825 JUMPI DUP3 SLOAD DUP3 SSTORE SWAP2 PUSH1 0x1 ADD SWAP2 SWAP1 PUSH1 0x1 ADD SWAP1 PUSH2 0x280A JUMP JUMPDEST POP PUSH2 0x2831 SWAP3 SWAP2 POP PUSH2 0x28E3 JUMP JUMPDEST POP SWAP1 JUMP JUMPDEST POP DUP1 SLOAD PUSH2 0x2841 SWAP1 PUSH2 0x2E31 JUMP JUMPDEST PUSH1 0x0 DUP3 SSTORE DUP1 PUSH1 0x1F LT PUSH2 0x2851 JUMPI POP POP JUMP JUMPDEST PUSH1 0x1F ADD PUSH1 0x20 SWAP1 DIV SWAP1 PUSH1 0x0 MSTORE PUSH1 0x20 PUSH1 0x0 KECCAK256 SWAP1 DUP2 ADD SWAP1 PUSH2 0x1C0E SWAP2 SWAP1 PUSH2 0x28E3 JUMP JUMPDEST DUP3 DUP1 SLOAD PUSH2 0x287B SWAP1 PUSH2 0x2E31 JUMP JUMPDEST SWAP1 PUSH1 0x0 MSTORE PUSH1 0x20 PUSH1 0x0 KECCAK256 SWAP1 PUSH1 0x1F ADD PUSH1 0x20 SWAP1 DIV DUP2 ADD SWAP3 DUP3 PUSH2 0x289D JUMPI PUSH1 0x0 DUP6 SSTORE PUSH2 0x2825 JUMP JUMPDEST DUP3 PUSH1 0x1F LT PUSH2 0x28B6 JUMPI DUP1 MLOAD PUSH1 0xFF NOT AND DUP4 DUP1 ADD OR DUP6 SSTORE PUSH2 0x2825 JUMP JUMPDEST DUP3 DUP1 ADD PUSH1 0x1 ADD DUP6 SSTORE DUP3 ISZERO PUSH2 0x2825 JUMPI SWAP2 DUP3 ADD JUMPDEST DUP3 DUP2 GT ISZERO PUSH2 0x2825 JUMPI DUP3 MLOAD DUP3 SSTORE SWAP2 PUSH1 0x20 ADD SWAP2 SWAP1 PUSH1 0x1 ADD SWAP1 PUSH2 0x28C8 JUMP JUMPDEST JUMPDEST DUP1 DUP3 GT ISZERO PUSH2 0x2831 JUMPI PUSH1 0x0 DUP2 SSTORE PUSH1 0x1 ADD PUSH2 0x28E4 JUMP JUMPDEST PUSH1 0x0 PUSH1 0x20 DUP3 DUP5 SUB SLT ISZERO PUSH2 0x290A JUMPI PUSH1 0x0 DUP1 REVERT JUMPDEST DUP2 CALLDATALOAD PUSH1 0x1 PUSH1 0x1 PUSH1 0xE0 SHL SUB NOT DUP2 AND DUP2 EQ PUSH2 0x2922 JUMPI PUSH1 0x0 DUP1 REVERT JUMPDEST SWAP4 SWAP3 POP POP POP JUMP JUMPDEST PUSH4 0x4E487B71 PUSH1 0xE0 SHL PUSH1 0x0 MSTORE PUSH1 0x41 PUSH1 0x4 MSTORE PUSH1 0x24 PUSH1 0x0 REVERT JUMPDEST PUSH1 0x40 DUP1 MLOAD SWAP1 DUP2 ADD PUSH8 0xFFFFFFFFFFFFFFFF DUP2 GT DUP3 DUP3 LT OR ISZERO PUSH2 0x2962 JUMPI PUSH2 0x2962 PUSH2 0x2929 JUMP JUMPDEST PUSH1 0x40 MSTORE SWAP1 JUMP JUMPDEST PUSH1 0x40 MLOAD PUSH1 0x20 DUP2 ADD PUSH8 0xFFFFFFFFFFFFFFFF DUP2 GT DUP3 DUP3 LT OR ISZERO PUSH2 0x2962 JUMPI PUSH2 0x2962 PUSH2 0x2929 JUMP JUMPDEST PUSH1 0x40 MLOAD PUSH1 0x1F DUP3 ADD PUSH1 0x1F NOT AND DUP2 ADD PUSH8 0xFFFFFFFFFFFFFFFF DUP2 GT DUP3 DUP3 LT OR ISZERO PUSH2 0x29B4 JUMPI PUSH2 0x29B4 PUSH2 0x2929 JUMP JUMPDEST PUSH1 0x40 MSTORE SWAP2 SWAP1 POP JUMP JUMPDEST PUSH1 0x1 PUSH1 0x1 PUSH1 0xA0 SHL SUB DUP2 AND DUP2 EQ PUSH2 0x1C0E JUMPI PUSH1 0x0 DUP1 REVERT JUMPDEST PUSH1 0x0 PUSH1 0x60 DUP3 DUP5 SUB SLT ISZERO PUSH2 0x29E3 JUMPI PUSH1 0x0 DUP1 REVERT JUMPDEST PUSH1 0x40 MLOAD PUSH1 0x60 DUP2 ADD DUP2 DUP2 LT PUSH8 0xFFFFFFFFFFFFFFFF DUP3 GT OR ISZERO PUSH2 0x2A06 JUMPI PUSH2 0x2A06 PUSH2 0x2929 JUMP JUMPDEST PUSH1 0x40 MSTORE DUP3 CALLDATALOAD PUSH2 0x2A14 DUP2 PUSH2 0x29BC JUMP JUMPDEST DUP2 MSTORE PUSH1 0x20 DUP4 ADD CALLDATALOAD PUSH2 0x2A24 DUP2 PUSH2 0x29BC JUMP JUMPDEST PUSH1 0x20 DUP3 ADD MSTORE PUSH1 0x40 DUP4 ADD CALLDATALOAD PUSH2 0x2A37 DUP2 PUSH2 0x29BC JUMP JUMPDEST PUSH1 0x40 DUP3 ADD MSTORE SWAP4 SWAP3 POP POP POP JUMP JUMPDEST PUSH1 0x0 PUSH1 0x20 DUP3 DUP5 SUB SLT ISZERO PUSH2 0x2A55 JUMPI PUSH1 0x0 DUP1 REVERT JUMPDEST POP CALLDATALOAD SWAP2 SWAP1 POP JUMP JUMPDEST PUSH1 0x0 DUP1 DUP3 DUP5 SUB PUSH2 0x100 DUP2 SLT ISZERO PUSH2 0x2A71 JUMPI PUSH1 0x0 DUP1 REVERT JUMPDEST DUP4 CALLDATALOAD SWAP3 POP PUSH1 0xE0 PUSH1 0x1F NOT DUP3 ADD SLT ISZERO PUSH2 0x2A87 JUMPI PUSH1 0x0 DUP1 REVERT JUMPDEST POP PUSH1 0x20 DUP4 ADD SWAP1 POP SWAP3 POP SWAP3 SWAP1 POP JUMP JUMPDEST PUSH1 0x0 PUSH1 0x40 DUP3 DUP5 SUB SLT ISZERO PUSH2 0x2AA7 JUMPI PUSH1 0x0 DUP1 REVERT JUMPDEST POP SWAP2 SWAP1 POP JUMP JUMPDEST PUSH1 0x0 PUSH1 0x40 DUP3 DUP5 SUB SLT ISZERO PUSH2 0x2ABF JUMPI PUSH1 0x0 DUP1 REVERT JUMPDEST PUSH2 0x2922 DUP4 DUP4 PUSH2 0x2A95 JUMP JUMPDEST PUSH1 0x0 PUSH1 0x20 DUP3 DUP5 SUB SLT ISZERO PUSH2 0x2AA7 JUMPI PUSH1 0x0 DUP1 REVERT JUMPDEST PUSH1 0x0 DUP1 PUSH1 0x40 DUP4 DUP6 SUB SLT ISZERO PUSH2 0x2AEE JUMPI PUSH1 0x0 DUP1 REVERT JUMPDEST DUP3 CALLDATALOAD SWAP2 POP PUSH2 0x2AFF DUP5 PUSH1 0x20 DUP6 ADD PUSH2 0x2AC9 JUMP JUMPDEST SWAP1 POP SWAP3 POP SWAP3 SWAP1 POP JUMP JUMPDEST DUP2 MLOAD PUSH1 0x1 PUSH1 0x1 PUSH1 0xA0 SHL SUB SWAP1 DUP2 AND DUP3 MSTORE PUSH1 0x20 DUP1 DUP5 ADD MLOAD DUP3 AND SWAP1 DUP4 ADD MSTORE PUSH1 0x40 DUP1 DUP5 ADD MLOAD ISZERO ISZERO SWAP1 DUP4 ADD MSTORE PUSH1 0x60 DUP1 DUP5 ADD MLOAD SWAP1 DUP4 ADD MSTORE PUSH1 0x80 DUP1 DUP5 ADD MLOAD SWAP1 DUP4 ADD MSTORE PUSH1 0xA0 DUP4 DUP2 ADD MLOAD DUP3 AND SWAP1 DUP4 ADD MSTORE PUSH1 0xC0 SWAP3 DUP4 ADD MLOAD AND SWAP2 DUP2 ADD SWAP2 SWAP1 SWAP2 MSTORE PUSH1 0xE0 ADD SWAP1 JUMP JUMPDEST PUSH1 0x0 PUSH1 0x20 DUP1 DUP4 MSTORE DUP4 MLOAD DUP1 DUP3 DUP6 ADD MSTORE PUSH1 0x0 JUMPDEST DUP2 DUP2 LT ISZERO PUSH2 0x2B90 JUMPI DUP6 DUP2 ADD DUP4 ADD MLOAD DUP6 DUP3 ADD PUSH1 0x40 ADD MSTORE DUP3 ADD PUSH2 0x2B74 JUMP JUMPDEST DUP2 DUP2 GT ISZERO PUSH2 0x2BA2 JUMPI PUSH1 0x0 PUSH1 0x40 DUP4 DUP8 ADD ADD MSTORE JUMPDEST POP PUSH1 0x1F ADD PUSH1 0x1F NOT AND SWAP3 SWAP1 SWAP3 ADD PUSH1 0x40 ADD SWAP4 SWAP3 POP POP POP JUMP JUMPDEST PUSH1 0x60 DUP2 ADD PUSH2 0x5D1 DUP3 DUP5 DUP1 MLOAD PUSH1 0x1 PUSH1 0x1 PUSH1 0xA0 SHL SUB SWAP1 DUP2 AND DUP4 MSTORE PUSH1 0x20 DUP1 DUP4 ADD MLOAD DUP3 AND SWAP1 DUP5 ADD MSTORE PUSH1 0x40 SWAP2 DUP3 ADD MLOAD AND SWAP2 ADD MSTORE JUMP JUMPDEST PUSH1 0x0 DUP1 PUSH1 0x60 DUP4 DUP6 SUB SLT ISZERO PUSH2 0x2BFB JUMPI PUSH1 0x0 DUP1 REVERT JUMPDEST DUP3 CALLDATALOAD SWAP2 POP PUSH2 0x2AFF DUP5 PUSH1 0x20 DUP6 ADD PUSH2 0x2A95 JUMP JUMPDEST PUSH1 0x0 PUSH1 0x20 DUP3 DUP5 SUB SLT ISZERO PUSH2 0x2C1E JUMPI PUSH1 0x0 DUP1 REVERT JUMPDEST PUSH2 0x2922 DUP4 DUP4 PUSH2 0x2AC9 JUMP JUMPDEST PUSH1 0x0 PUSH8 0xFFFFFFFFFFFFFFFF DUP3 GT ISZERO PUSH2 0x2C42 JUMPI PUSH2 0x2C42 PUSH2 0x2929 JUMP JUMPDEST POP PUSH1 0x5 SHL PUSH1 0x20 ADD SWAP1 JUMP JUMPDEST DUP1 CALLDATALOAD PUSH2 0x2C57 DUP2 PUSH2 0x29BC JUMP JUMPDEST SWAP2 SWAP1 POP JUMP JUMPDEST PUSH1 0x0 DUP3 PUSH1 0x1F DUP4 ADD SLT PUSH2 0x2C6D JUMPI PUSH1 0x0 DUP1 REVERT JUMPDEST DUP2 CALLDATALOAD PUSH1 0x20 PUSH2 0x2C82 PUSH2 0x2C7D DUP4 PUSH2 0x2C28 JUMP JUMPDEST PUSH2 0x298B JUMP JUMPDEST DUP3 DUP2 MSTORE PUSH1 0x5 SWAP3 SWAP1 SWAP3 SHL DUP5 ADD DUP2 ADD SWAP2 DUP2 DUP2 ADD SWAP1 DUP7 DUP5 GT ISZERO PUSH2 0x2CA1 JUMPI PUSH1 0x0 DUP1 REVERT JUMPDEST DUP3 DUP7 ADD JUMPDEST DUP5 DUP2 LT ISZERO PUSH2 0x2CBC JUMPI DUP1 CALLDATALOAD DUP4 MSTORE SWAP2 DUP4 ADD SWAP2 DUP4 ADD PUSH2 0x2CA5 JUMP JUMPDEST POP SWAP7 SWAP6 POP POP POP POP POP POP JUMP JUMPDEST PUSH1 0x0 DUP1 PUSH1 0x0 DUP1 PUSH1 0x80 DUP6 DUP8 SUB SLT ISZERO PUSH2 0x2CDD JUMPI PUSH1 0x0 DUP1 REVERT JUMPDEST DUP5 CALLDATALOAD PUSH8 0xFFFFFFFFFFFFFFFF DUP1 DUP3 GT ISZERO PUSH2 0x2CF5 JUMPI PUSH1 0x0 DUP1 REVERT JUMPDEST DUP2 DUP8 ADD SWAP2 POP DUP8 PUSH1 0x1F DUP4 ADD SLT PUSH2 0x2D09 JUMPI PUSH1 0x0 DUP1 REVERT JUMPDEST DUP2 CALLDATALOAD PUSH1 0x20 PUSH2 0x2D19 PUSH2 0x2C7D DUP4 PUSH2 0x2C28 JUMP JUMPDEST DUP3 DUP2 MSTORE PUSH1 0x5 SWAP3 SWAP1 SWAP3 SHL DUP5 ADD DUP2 ADD SWAP2 DUP2 DUP2 ADD SWAP1 DUP12 DUP5 GT ISZERO PUSH2 0x2D38 JUMPI PUSH1 0x0 DUP1 REVERT JUMPDEST SWAP5 DUP3 ADD SWAP5 JUMPDEST DUP4 DUP7 LT ISZERO PUSH2 0x2D5F JUMPI DUP6 CALLDATALOAD PUSH2 0x2D50 DUP2 PUSH2 0x29BC JUMP JUMPDEST DUP3 MSTORE SWAP5 DUP3 ADD SWAP5 SWAP1 DUP3 ADD SWAP1 PUSH2 0x2D3D JUMP JUMPDEST SWAP9 POP PUSH2 0x2D6E SWAP1 POP DUP10 DUP3 ADD PUSH2 0x2C4C JUMP JUMPDEST SWAP7 POP POP POP PUSH1 0x40 DUP8 ADD CALLDATALOAD SWAP2 POP DUP1 DUP3 GT ISZERO PUSH2 0x2D86 JUMPI PUSH1 0x0 DUP1 REVERT JUMPDEST POP PUSH2 0x2D93 DUP8 DUP3 DUP9 ADD PUSH2 0x2C5C JUMP JUMPDEST SWAP3 POP POP PUSH2 0x2DA2 PUSH1 0x60 DUP7 ADD PUSH2 0x2C4C JUMP JUMPDEST SWAP1 POP SWAP3 SWAP6 SWAP2 SWAP5 POP SWAP3 POP JUMP JUMPDEST PUSH1 0x0 PUSH1 0x20 DUP3 DUP5 SUB SLT ISZERO PUSH2 0x2DBF JUMPI PUSH1 0x0 DUP1 REVERT JUMPDEST POP MLOAD SWAP2 SWAP1 POP JUMP JUMPDEST PUSH4 0x4E487B71 PUSH1 0xE0 SHL PUSH1 0x0 MSTORE PUSH1 0x11 PUSH1 0x4 MSTORE PUSH1 0x24 PUSH1 0x0 REVERT JUMPDEST PUSH1 0x0 DUP3 NOT DUP3 GT ISZERO PUSH2 0x2DEF JUMPI PUSH2 0x2DEF PUSH2 0x2DC6 JUMP JUMPDEST POP ADD SWAP1 JUMP JUMPDEST PUSH1 0x80 DUP2 ADD PUSH2 0x2E24 DUP3 DUP6 DUP1 MLOAD PUSH1 0x1 PUSH1 0x1 PUSH1 0xA0 SHL SUB SWAP1 DUP2 AND DUP4 MSTORE PUSH1 0x20 DUP1 DUP4 ADD MLOAD DUP3 AND SWAP1 DUP5 ADD MSTORE PUSH1 0x40 SWAP2 DUP3 ADD MLOAD AND SWAP2 ADD MSTORE JUMP JUMPDEST DUP3 PUSH1 0x60 DUP4 ADD MSTORE SWAP4 SWAP3 POP POP POP JUMP JUMPDEST PUSH1 0x1 DUP2 DUP2 SHR SWAP1 DUP3 AND DUP1 PUSH2 0x2E45 JUMPI PUSH1 0x7F DUP3 AND SWAP2 POP JUMPDEST PUSH1 0x20 DUP3 LT DUP2 EQ ISZERO PUSH2 0x2AA7 JUMPI PUSH4 0x4E487B71 PUSH1 0xE0 SHL PUSH1 0x0 MSTORE PUSH1 0x22 PUSH1 0x4 MSTORE PUSH1 0x24 PUSH1 0x0 REVERT JUMPDEST DUP1 MLOAD PUSH2 0x2C57 DUP2 PUSH2 0x29BC JUMP JUMPDEST DUP1 ISZERO ISZERO DUP2 EQ PUSH2 0x1C0E JUMPI PUSH1 0x0 DUP1 REVERT JUMPDEST PUSH1 0x0 PUSH1 0xE0 DUP3 DUP5 SUB SLT ISZERO PUSH2 0x2E91 JUMPI PUSH1 0x0 DUP1 REVERT JUMPDEST PUSH1 0x40 MLOAD PUSH1 0xE0 DUP2 ADD DUP2 DUP2 LT PUSH8 0xFFFFFFFFFFFFFFFF DUP3 GT OR ISZERO PUSH2 0x2EB4 JUMPI PUSH2 0x2EB4 PUSH2 0x2929 JUMP JUMPDEST PUSH1 0x40 MSTORE DUP3 MLOAD PUSH2 0x2EC2 DUP2 PUSH2 0x29BC JUMP JUMPDEST DUP2 MSTORE PUSH1 0x20 DUP4 ADD MLOAD PUSH2 0x2ED2 DUP2 PUSH2 0x29BC JUMP JUMPDEST PUSH1 0x20 DUP3 ADD MSTORE PUSH1 0x40 DUP4 ADD MLOAD PUSH2 0x2EE5 DUP2 PUSH2 0x2E71 JUMP JUMPDEST DUP1 PUSH1 0x40 DUP4 ADD MSTORE POP PUSH1 0x60 DUP4 ADD MLOAD PUSH1 0x60 DUP3 ADD MSTORE PUSH1 0x80 DUP4 ADD MLOAD PUSH1 0x80 DUP3 ADD MSTORE PUSH1 0xA0 DUP4 ADD MLOAD PUSH2 0x2F0E DUP2 PUSH2 0x29BC JUMP JUMPDEST PUSH1 0xA0 DUP3 ADD MSTORE PUSH2 0x2F1F PUSH1 0xC0 DUP5 ADD PUSH2 0x2E66 JUMP JUMPDEST PUSH1 0xC0 DUP3 ADD MSTORE SWAP4 SWAP3 POP POP POP JUMP JUMPDEST PUSH1 0x0 PUSH1 0x40 DUP3 DUP5 SUB SLT ISZERO PUSH2 0x2F3D JUMPI PUSH1 0x0 DUP1 REVERT JUMPDEST PUSH2 0x2F45 PUSH2 0x293F JUMP JUMPDEST DUP3 MLOAD DUP2 MSTORE PUSH1 0x20 DUP4 ADD MLOAD PUSH1 0x20 DUP3 ADD MSTORE DUP1 SWAP2 POP POP SWAP3 SWAP2 POP POP JUMP JUMPDEST DUP1 CALLDATALOAD PUSH2 0x2F68 DUP2 PUSH2 0x29BC JUMP JUMPDEST PUSH1 0x1 PUSH1 0x1 PUSH1 0xA0 SHL SUB SWAP1 DUP2 AND DUP4 MSTORE PUSH1 0x20 DUP3 ADD CALLDATALOAD SWAP1 PUSH2 0x2F84 DUP3 PUSH2 0x29BC JUMP JUMPDEST SWAP1 DUP2 AND PUSH1 0x20 DUP5 ADD MSTORE PUSH1 0x40 DUP3 ADD CALLDATALOAD SWAP1 PUSH2 0x2F9B DUP3 PUSH2 0x2E71 JUMP JUMPDEST DUP2 ISZERO ISZERO PUSH1 0x40 DUP6 ADD MSTORE PUSH1 0x60 DUP4 ADD CALLDATALOAD PUSH1 0x60 DUP6 ADD MSTORE PUSH1 0x80 DUP4 ADD CALLDATALOAD PUSH1 0x80 DUP6 ADD MSTORE PUSH1 0xA0 DUP4 ADD CALLDATALOAD SWAP2 POP PUSH2 0x2FC7 DUP3 PUSH2 0x29BC JUMP JUMPDEST SWAP1 DUP2 AND PUSH1 0xA0 DUP5 ADD MSTORE PUSH1 0xC0 DUP3 ADD CALLDATALOAD SWAP1 PUSH2 0x2FDE DUP3 PUSH2 0x29BC JUMP JUMPDEST DUP1 DUP3 AND PUSH1 0xC0 DUP6 ADD MSTORE POP POP POP POP JUMP JUMPDEST PUSH1 0xE0 DUP2 ADD PUSH2 0x5D1 DUP3 DUP5 PUSH2 0x2F5D JUMP JUMPDEST PUSH2 0x100 DUP2 ADD PUSH2 0x3009 DUP3 DUP6 PUSH2 0x2F5D JUMP JUMPDEST DUP3 PUSH1 0xE0 DUP4 ADD MSTORE SWAP4 SWAP3 POP POP POP JUMP JUMPDEST PUSH1 0x0 PUSH1 0x20 DUP3 DUP5 SUB SLT ISZERO PUSH2 0x3028 JUMPI PUSH1 0x0 DUP1 REVERT JUMPDEST DUP2 CALLDATALOAD PUSH2 0x2922 DUP2 PUSH2 0x29BC JUMP JUMPDEST DUP1 CALLDATALOAD DUP3 MSTORE PUSH1 0x20 DUP2 ADD CALLDATALOAD PUSH2 0x3045 DUP2 PUSH2 0x29BC JUMP JUMPDEST PUSH1 0x1 PUSH1 0x1 PUSH1 0xA0 SHL SUB AND PUSH1 0x20 SWAP3 SWAP1 SWAP3 ADD SWAP2 SWAP1 SWAP2 MSTORE POP JUMP JUMPDEST PUSH1 0x40 DUP2 ADD PUSH2 0x5D1 DUP3 DUP5 PUSH2 0x3033 JUMP JUMPDEST PUSH1 0x60 DUP2 ADD PUSH2 0x3077 DUP3 DUP6 PUSH2 0x3033 JUMP JUMPDEST DUP3 PUSH1 0x40 DUP4 ADD MSTORE SWAP4 SWAP3 POP POP POP JUMP JUMPDEST PUSH1 0x0 PUSH1 0x20 DUP3 DUP5 SUB SLT ISZERO PUSH2 0x3096 JUMPI PUSH1 0x0 DUP1 REVERT JUMPDEST PUSH2 0x309E PUSH2 0x2968 JUMP JUMPDEST SWAP2 MLOAD DUP3 MSTORE POP SWAP2 SWAP1 POP JUMP JUMPDEST PUSH1 0x0 PUSH1 0x40 DUP3 DUP5 SUB SLT ISZERO PUSH2 0x30BA JUMPI PUSH1 0x0 DUP1 REVERT JUMPDEST PUSH2 0x30C2 PUSH2 0x293F JUMP JUMPDEST DUP3 MLOAD DUP2 MSTORE PUSH1 0x20 DUP4 ADD MLOAD PUSH2 0x30D4 DUP2 PUSH2 0x29BC JUMP JUMPDEST PUSH1 0x20 DUP3 ADD MSTORE SWAP4 SWAP3 POP POP POP JUMP JUMPDEST PUSH1 0x20 DUP2 ADD DUP3 CALLDATALOAD PUSH2 0x30EF DUP2 PUSH2 0x2E71 JUMP JUMPDEST ISZERO ISZERO SWAP1 SWAP2 MSTORE SWAP2 SWAP1 POP JUMP JUMPDEST PUSH1 0x0 PUSH1 0x20 DUP3 DUP5 SUB SLT ISZERO PUSH2 0x310B JUMPI PUSH1 0x0 DUP1 REVERT JUMPDEST PUSH2 0x3113 PUSH2 0x2968 JUMP JUMPDEST DUP3 MLOAD PUSH2 0x311E DUP2 PUSH2 0x2E71 JUMP JUMPDEST DUP2 MSTORE SWAP4 SWAP3 POP POP POP JUMP JUMPDEST PUSH4 0x4E487B71 PUSH1 0xE0 SHL PUSH1 0x0 MSTORE PUSH1 0x32 PUSH1 0x4 MSTORE PUSH1 0x24 PUSH1 0x0 REVERT JUMPDEST PUSH1 0x0 PUSH1 0x20 DUP3 DUP5 SUB SLT ISZERO PUSH2 0x314F JUMPI PUSH1 0x0 DUP1 REVERT JUMPDEST DUP2 MLOAD PUSH2 0x2922 DUP2 PUSH2 0x29BC JUMP JUMPDEST PUSH1 0x0 PUSH1 0x20 DUP3 DUP5 SUB SLT ISZERO PUSH2 0x316C JUMPI PUSH1 0x0 DUP1 REVERT JUMPDEST DUP2 MLOAD PUSH2 0x2922 DUP2 PUSH2 0x2E71 JUMP JUMPDEST PUSH1 0x0 PUSH1 0x20 DUP1 DUP4 DUP6 SUB SLT ISZERO PUSH2 0x318A JUMPI PUSH1 0x0 DUP1 REVERT JUMPDEST DUP3 MLOAD PUSH8 0xFFFFFFFFFFFFFFFF DUP2 GT ISZERO PUSH2 0x31A1 JUMPI PUSH1 0x0 DUP1 REVERT JUMPDEST DUP4 ADD PUSH1 0x1F DUP2 ADD DUP6 SGT PUSH2 0x31B2 JUMPI PUSH1 0x0 DUP1 REVERT JUMPDEST DUP1 MLOAD PUSH2 0x31C0 PUSH2 0x2C7D DUP3 PUSH2 0x2C28 JUMP JUMPDEST DUP2 DUP2 MSTORE PUSH1 0x5 SWAP2 SWAP1 SWAP2 SHL DUP3 ADD DUP4 ADD SWAP1 DUP4 DUP2 ADD SWAP1 DUP8 DUP4 GT ISZERO PUSH2 0x31DF JUMPI PUSH1 0x0 DUP1 REVERT JUMPDEST SWAP3 DUP5 ADD SWAP3 JUMPDEST DUP3 DUP5 LT ISZERO PUSH2 0x3206 JUMPI DUP4 MLOAD PUSH2 0x31F7 DUP2 PUSH2 0x29BC JUMP JUMPDEST DUP3 MSTORE SWAP3 DUP5 ADD SWAP3 SWAP1 DUP5 ADD SWAP1 PUSH2 0x31E4 JUMP JUMPDEST SWAP8 SWAP7 POP POP POP POP POP POP POP JUMP JUMPDEST PUSH1 0x0 PUSH1 0x0 NOT DUP3 EQ ISZERO PUSH2 0x3225 JUMPI PUSH2 0x3225 PUSH2 0x2DC6 JUMP JUMPDEST POP PUSH1 0x1 ADD SWAP1 JUMP JUMPDEST PUSH1 0x0 PUSH1 0xA0 DUP3 ADD DUP8 DUP4 MSTORE PUSH1 0x20 PUSH1 0xA0 DUP2 DUP6 ADD MSTORE DUP2 DUP9 MLOAD DUP1 DUP5 MSTORE PUSH1 0xC0 DUP7 ADD SWAP2 POP DUP3 DUP11 ADD SWAP4 POP PUSH1 0x0 JUMPDEST DUP2 DUP2 LT ISZERO PUSH2 0x3276 JUMPI DUP5 MLOAD PUSH1 0x1 PUSH1 0x1 PUSH1 0xA0 SHL SUB AND DUP4 MSTORE SWAP4 DUP4 ADD SWAP4 SWAP2 DUP4 ADD SWAP2 PUSH1 0x1 ADD PUSH2 0x3251 JUMP JUMPDEST POP POP PUSH1 0x1 PUSH1 0x1 PUSH1 0xA0 SHL SUB DUP9 AND PUSH1 0x40 DUP7 ADD MSTORE DUP5 DUP2 SUB PUSH1 0x60 DUP7 ADD MSTORE DUP7 MLOAD DUP1 DUP3 MSTORE SWAP1 DUP3 ADD SWAP3 POP DUP2 DUP8 ADD SWAP1 PUSH1 0x0 JUMPDEST DUP2 DUP2 LT ISZERO PUSH2 0x32BC JUMPI DUP3 MLOAD DUP6 MSTORE SWAP4 DUP4 ADD SWAP4 SWAP2 DUP4 ADD SWAP2 PUSH1 0x1 ADD PUSH2 0x32A0 JUMP JUMPDEST POP POP POP PUSH1 0x1 PUSH1 0x1 PUSH1 0xA0 SHL SUB DUP6 AND PUSH1 0x80 DUP6 ADD MSTORE POP SWAP1 POP SWAP7 SWAP6 POP POP POP POP POP POP JUMP JUMPDEST PUSH1 0x0 DUP2 PUSH1 0x0 NOT DIV DUP4 GT DUP3 ISZERO ISZERO AND ISZERO PUSH2 0x32F5 JUMPI PUSH2 0x32F5 PUSH2 0x2DC6 JUMP JUMPDEST POP MUL SWAP1 JUMP INVALID LOG2 PUSH5 0x6970667358 0x22 SLT KECCAK256 0xB2 0x29 0x4E SWAP1 PUSH23 0xA79EB7F2C98C5E8159B5A6CC9F80736680AFBD2B791E5C 0xD5 0xC5 0xDF PUSH10 0x64736F6C634300080900 CALLER "
		},
		"gasEstimates": {
			"creation": {
				"codeDepositCost": "2620800",
				"executionCost": "infinite",
				"totalCost": "infinite"
			},
			"external": {
				"MAX_MANAGEMENT_FEE()": "307",
				"MAX_PERFORMANCE_FEE()": "306",
				"MAX_PROTOCOL_FEE()": "284",
				"commitDelayedProtocolParams()": "infinite",
				"commitDelayedProtocolPerVaultParams(uint256)": "infinite",
				"commitDelayedStrategyParams(uint256)": "infinite",
				"commitInternalParams()": "infinite",
				"contractName()": "infinite",
				"contractNameBytes()": "244",
				"contractVersion()": "infinite",
				"contractVersionBytes()": "256",
				"createVault(address[],address,uint256[],address)": "infinite",
				"delayedProtocolParams()": "infinite",
				"delayedProtocolParamsTimestamp()": "2380",
				"delayedProtocolPerVaultParams(uint256)": "infinite",
				"delayedProtocolPerVaultParamsTimestamp(uint256)": "2506",
				"delayedStrategyParams(uint256)": "infinite",
				"delayedStrategyParamsTimestamp(uint256)": "2505",
				"helper()": "infinite",
				"internalParams()": "6945",
				"internalParamsTimestamp()": "2382",
				"operatorParams()": "infinite",
				"setOperatorParams((bool))": "infinite",
				"setStrategyParams(uint256,(uint256,uint256))": "infinite",
				"stageDelayedProtocolParams((uint256,address))": "infinite",
				"stageDelayedProtocolPerVaultParams(uint256,(uint256))": "infinite",
				"stageDelayedStrategyParams(uint256,(address,address,bool,uint256,uint256,address,address))": "infinite",
				"stageInternalParams((address,address,address))": "infinite",
				"stagedDelayedProtocolParams()": "infinite",
				"stagedDelayedProtocolPerVaultParams(uint256)": "infinite",
				"stagedDelayedStrategyParams(uint256)": "infinite",
				"stagedInternalParams()": "6967",
				"strategyParams(uint256)": "infinite",
				"supportsInterface(bytes4)": "567"
			},
			"internal": {
				"_contractName()": "infinite",
				"_contractVersion()": "infinite"
			}
		},
		"methodIdentifiers": {
			"MAX_MANAGEMENT_FEE()": "9908840c",
			"MAX_PERFORMANCE_FEE()": "bdca9165",
			"MAX_PROTOCOL_FEE()": "b8ca3b83",
			"commitDelayedProtocolParams()": "98347a5d",
			"commitDelayedProtocolPerVaultParams(uint256)": "ee2d59f4",
			"commitDelayedStrategyParams(uint256)": "0bdedd56",
			"commitInternalParams()": "d4a07d34",
			"contractName()": "75d0c0dc",
			"contractNameBytes()": "0e3e80ac",
			"contractVersion()": "a0a8e460",
			"contractVersionBytes()": "06a46239",
			"createVault(address[],address,uint256[],address)": "f699a607",
			"delayedProtocolParams()": "d34cc380",
			"delayedProtocolParamsTimestamp()": "e4af6e79",
			"delayedProtocolPerVaultParams(uint256)": "dbb1c35f",
			"delayedProtocolPerVaultParamsTimestamp(uint256)": "511ce798",
			"delayedStrategyParams(uint256)": "8860d248",
			"delayedStrategyParamsTimestamp(uint256)": "6707acee",
			"helper()": "63b0e66a",
			"internalParams()": "7ac46fbb",
			"internalParamsTimestamp()": "1c7f4c73",
			"operatorParams()": "db2030aa",
			"setOperatorParams((bool))": "c8e8a766",
			"setStrategyParams(uint256,(uint256,uint256))": "afd2c7e9",
			"stageDelayedProtocolParams((uint256,address))": "3d8c08b9",
			"stageDelayedProtocolPerVaultParams(uint256,(uint256))": "59331d78",
			"stageDelayedStrategyParams(uint256,(address,address,bool,uint256,uint256,address,address))": "221cc263",
			"stageInternalParams((address,address,address))": "09946538",
			"stagedDelayedProtocolParams()": "c2cbdc67",
			"stagedDelayedProtocolPerVaultParams(uint256)": "8e207dda",
			"stagedDelayedStrategyParams(uint256)": "59f3dae7",
			"stagedInternalParams()": "86c6be3e",
			"strategyParams(uint256)": "12466b68",
			"supportsInterface(bytes4)": "01ffc9a7"
		}
	},
	"abi": [
		{
			"inputs": [
				{
					"components": [
						{
							"internalType": "contract IProtocolGovernance",
							"name": "protocolGovernance",
							"type": "address"
						},
						{
							"internalType": "contract IVaultRegistry",
							"name": "registry",
							"type": "address"
						},
						{
							"internalType": "contract IVault",
							"name": "singleton",
							"type": "address"
						}
					],
					"internalType": "struct IVaultGovernance.InternalParams",
					"name": "internalParams_",
					"type": "tuple"
				},
				{
					"components": [
						{
							"internalType": "uint256",
							"name": "managementFeeChargeDelay",
							"type": "uint256"
						},
						{
							"internalType": "contract IOracle",
							"name": "oracle",
							"type": "address"
						}
					],
					"internalType": "struct IERC20RootVaultGovernance.DelayedProtocolParams",
					"name": "delayedProtocolParams_",
					"type": "tuple"
				},
				{
					"internalType": "contract IERC20RootVaultHelper",
					"name": "helper_",
					"type": "address"
				}
			],
			"stateMutability": "nonpayable",
			"type": "constructor"
		},
		{
			"anonymous": false,
			"inputs": [
				{
					"indexed": true,
					"internalType": "address",
					"name": "origin",
					"type": "address"
				},
				{
					"indexed": true,
					"internalType": "address",
					"name": "sender",
					"type": "address"
				},
				{
					"components": [
						{
							"internalType": "uint256",
							"name": "managementFeeChargeDelay",
							"type": "uint256"
						},
						{
							"internalType": "contract IOracle",
							"name": "oracle",
							"type": "address"
						}
					],
					"indexed": false,
					"internalType": "struct IERC20RootVaultGovernance.DelayedProtocolParams",
					"name": "params",
					"type": "tuple"
				}
			],
			"name": "CommitDelayedProtocolParams",
			"type": "event"
		},
		{
			"anonymous": false,
			"inputs": [
				{
					"indexed": true,
					"internalType": "address",
					"name": "origin",
					"type": "address"
				},
				{
					"indexed": true,
					"internalType": "address",
					"name": "sender",
					"type": "address"
				},
				{
					"indexed": true,
					"internalType": "uint256",
					"name": "nft",
					"type": "uint256"
				},
				{
					"components": [
						{
							"internalType": "uint256",
							"name": "protocolFee",
							"type": "uint256"
						}
					],
					"indexed": false,
					"internalType": "struct IERC20RootVaultGovernance.DelayedProtocolPerVaultParams",
					"name": "params",
					"type": "tuple"
				}
			],
			"name": "CommitDelayedProtocolPerVaultParams",
			"type": "event"
		},
		{
			"anonymous": false,
			"inputs": [
				{
					"indexed": true,
					"internalType": "address",
					"name": "origin",
					"type": "address"
				},
				{
					"indexed": true,
					"internalType": "address",
					"name": "sender",
					"type": "address"
				},
				{
					"indexed": true,
					"internalType": "uint256",
					"name": "nft",
					"type": "uint256"
				},
				{
					"components": [
						{
							"internalType": "address",
							"name": "strategyTreasury",
							"type": "address"
						},
						{
							"internalType": "address",
							"name": "strategyPerformanceTreasury",
							"type": "address"
						},
						{
							"internalType": "bool",
							"name": "privateVault",
							"type": "bool"
						},
						{
							"internalType": "uint256",
							"name": "managementFee",
							"type": "uint256"
						},
						{
							"internalType": "uint256",
							"name": "performanceFee",
							"type": "uint256"
						},
						{
							"internalType": "address",
							"name": "depositCallbackAddress",
							"type": "address"
						},
						{
							"internalType": "address",
							"name": "withdrawCallbackAddress",
							"type": "address"
						}
					],
					"indexed": false,
					"internalType": "struct IERC20RootVaultGovernance.DelayedStrategyParams",
					"name": "params",
					"type": "tuple"
				}
			],
			"name": "CommitDelayedStrategyParams",
			"type": "event"
		},
		{
			"anonymous": false,
			"inputs": [
				{
					"indexed": true,
					"internalType": "address",
					"name": "origin",
					"type": "address"
				},
				{
					"indexed": true,
					"internalType": "address",
					"name": "sender",
					"type": "address"
				},
				{
					"components": [
						{
							"internalType": "contract IProtocolGovernance",
							"name": "protocolGovernance",
							"type": "address"
						},
						{
							"internalType": "contract IVaultRegistry",
							"name": "registry",
							"type": "address"
						},
						{
							"internalType": "contract IVault",
							"name": "singleton",
							"type": "address"
						}
					],
					"indexed": false,
					"internalType": "struct IVaultGovernance.InternalParams",
					"name": "params",
					"type": "tuple"
				}
			],
			"name": "CommitedInternalParams",
			"type": "event"
		},
		{
			"anonymous": false,
			"inputs": [
				{
					"indexed": true,
					"internalType": "address",
					"name": "origin",
					"type": "address"
				},
				{
					"indexed": true,
					"internalType": "address",
					"name": "sender",
					"type": "address"
				},
				{
					"indexed": false,
					"internalType": "address[]",
					"name": "vaultTokens",
					"type": "address[]"
				},
				{
					"indexed": false,
					"internalType": "bytes",
					"name": "options",
					"type": "bytes"
				},
				{
					"indexed": false,
					"internalType": "address",
					"name": "owner",
					"type": "address"
				},
				{
					"indexed": false,
					"internalType": "address",
					"name": "vaultAddress",
					"type": "address"
				},
				{
					"indexed": false,
					"internalType": "uint256",
					"name": "vaultNft",
					"type": "uint256"
				}
			],
			"name": "DeployedVault",
			"type": "event"
		},
		{
			"anonymous": false,
			"inputs": [
				{
					"indexed": true,
					"internalType": "address",
					"name": "origin",
					"type": "address"
				},
				{
					"indexed": true,
					"internalType": "address",
					"name": "sender",
					"type": "address"
				},
				{
					"components": [
						{
							"internalType": "bool",
							"name": "disableDeposit",
							"type": "bool"
						}
					],
					"indexed": false,
					"internalType": "struct IERC20RootVaultGovernance.OperatorParams",
					"name": "params",
					"type": "tuple"
				}
			],
			"name": "SetOperatorParams",
			"type": "event"
		},
		{
			"anonymous": false,
			"inputs": [
				{
					"indexed": true,
					"internalType": "address",
					"name": "origin",
					"type": "address"
				},
				{
					"indexed": true,
					"internalType": "address",
					"name": "sender",
					"type": "address"
				},
				{
					"indexed": true,
					"internalType": "uint256",
					"name": "nft",
					"type": "uint256"
				},
				{
					"components": [
						{
							"internalType": "uint256",
							"name": "tokenLimitPerAddress",
							"type": "uint256"
						},
						{
							"internalType": "uint256",
							"name": "tokenLimit",
							"type": "uint256"
						}
					],
					"indexed": false,
					"internalType": "struct IERC20RootVaultGovernance.StrategyParams",
					"name": "params",
					"type": "tuple"
				}
			],
			"name": "SetStrategyParams",
			"type": "event"
		},
		{
			"anonymous": false,
			"inputs": [
				{
					"indexed": true,
					"internalType": "address",
					"name": "origin",
					"type": "address"
				},
				{
					"indexed": true,
					"internalType": "address",
					"name": "sender",
					"type": "address"
				},
				{
					"components": [
						{
							"internalType": "uint256",
							"name": "managementFeeChargeDelay",
							"type": "uint256"
						},
						{
							"internalType": "contract IOracle",
							"name": "oracle",
							"type": "address"
						}
					],
					"indexed": false,
					"internalType": "struct IERC20RootVaultGovernance.DelayedProtocolParams",
					"name": "params",
					"type": "tuple"
				},
				{
					"indexed": false,
					"internalType": "uint256",
					"name": "when",
					"type": "uint256"
				}
			],
			"name": "StageDelayedProtocolParams",
			"type": "event"
		},
		{
			"anonymous": false,
			"inputs": [
				{
					"indexed": true,
					"internalType": "address",
					"name": "origin",
					"type": "address"
				},
				{
					"indexed": true,
					"internalType": "address",
					"name": "sender",
					"type": "address"
				},
				{
					"indexed": true,
					"internalType": "uint256",
					"name": "nft",
					"type": "uint256"
				},
				{
					"components": [
						{
							"internalType": "uint256",
							"name": "protocolFee",
							"type": "uint256"
						}
					],
					"indexed": false,
					"internalType": "struct IERC20RootVaultGovernance.DelayedProtocolPerVaultParams",
					"name": "params",
					"type": "tuple"
				},
				{
					"indexed": false,
					"internalType": "uint256",
					"name": "when",
					"type": "uint256"
				}
			],
			"name": "StageDelayedProtocolPerVaultParams",
			"type": "event"
		},
		{
			"anonymous": false,
			"inputs": [
				{
					"indexed": true,
					"internalType": "address",
					"name": "origin",
					"type": "address"
				},
				{
					"indexed": true,
					"internalType": "address",
					"name": "sender",
					"type": "address"
				},
				{
					"indexed": true,
					"internalType": "uint256",
					"name": "nft",
					"type": "uint256"
				},
				{
					"components": [
						{
							"internalType": "address",
							"name": "strategyTreasury",
							"type": "address"
						},
						{
							"internalType": "address",
							"name": "strategyPerformanceTreasury",
							"type": "address"
						},
						{
							"internalType": "bool",
							"name": "privateVault",
							"type": "bool"
						},
						{
							"internalType": "uint256",
							"name": "managementFee",
							"type": "uint256"
						},
						{
							"internalType": "uint256",
							"name": "performanceFee",
							"type": "uint256"
						},
						{
							"internalType": "address",
							"name": "depositCallbackAddress",
							"type": "address"
						},
						{
							"internalType": "address",
							"name": "withdrawCallbackAddress",
							"type": "address"
						}
					],
					"indexed": false,
					"internalType": "struct IERC20RootVaultGovernance.DelayedStrategyParams",
					"name": "params",
					"type": "tuple"
				},
				{
					"indexed": false,
					"internalType": "uint256",
					"name": "when",
					"type": "uint256"
				}
			],
			"name": "StageDelayedStrategyParams",
			"type": "event"
		},
		{
			"anonymous": false,
			"inputs": [
				{
					"indexed": true,
					"internalType": "address",
					"name": "origin",
					"type": "address"
				},
				{
					"indexed": true,
					"internalType": "address",
					"name": "sender",
					"type": "address"
				},
				{
					"components": [
						{
							"internalType": "contract IProtocolGovernance",
							"name": "protocolGovernance",
							"type": "address"
						},
						{
							"internalType": "contract IVaultRegistry",
							"name": "registry",
							"type": "address"
						},
						{
							"internalType": "contract IVault",
							"name": "singleton",
							"type": "address"
						}
					],
					"indexed": false,
					"internalType": "struct IVaultGovernance.InternalParams",
					"name": "params",
					"type": "tuple"
				},
				{
					"indexed": false,
					"internalType": "uint256",
					"name": "when",
					"type": "uint256"
				}
			],
			"name": "StagedInternalParams",
			"type": "event"
		},
		{
			"inputs": [],
			"name": "MAX_MANAGEMENT_FEE",
			"outputs": [
				{
					"internalType": "uint256",
					"name": "",
					"type": "uint256"
				}
			],
			"stateMutability": "view",
			"type": "function"
		},
		{
			"inputs": [],
			"name": "MAX_PERFORMANCE_FEE",
			"outputs": [
				{
					"internalType": "uint256",
					"name": "",
					"type": "uint256"
				}
			],
			"stateMutability": "view",
			"type": "function"
		},
		{
			"inputs": [],
			"name": "MAX_PROTOCOL_FEE",
			"outputs": [
				{
					"internalType": "uint256",
					"name": "",
					"type": "uint256"
				}
			],
			"stateMutability": "view",
			"type": "function"
		},
		{
			"inputs": [],
			"name": "commitDelayedProtocolParams",
			"outputs": [],
			"stateMutability": "nonpayable",
			"type": "function"
		},
		{
			"inputs": [
				{
					"internalType": "uint256",
					"name": "nft",
					"type": "uint256"
				}
			],
			"name": "commitDelayedProtocolPerVaultParams",
			"outputs": [],
			"stateMutability": "nonpayable",
			"type": "function"
		},
		{
			"inputs": [
				{
					"internalType": "uint256",
					"name": "nft",
					"type": "uint256"
				}
			],
			"name": "commitDelayedStrategyParams",
			"outputs": [],
			"stateMutability": "nonpayable",
			"type": "function"
		},
		{
			"inputs": [],
			"name": "commitInternalParams",
			"outputs": [],
			"stateMutability": "nonpayable",
			"type": "function"
		},
		{
			"inputs": [],
			"name": "contractName",
			"outputs": [
				{
					"internalType": "string",
					"name": "",
					"type": "string"
				}
			],
			"stateMutability": "pure",
			"type": "function"
		},
		{
			"inputs": [],
			"name": "contractNameBytes",
			"outputs": [
				{
					"internalType": "bytes32",
					"name": "",
					"type": "bytes32"
				}
			],
			"stateMutability": "pure",
			"type": "function"
		},
		{
			"inputs": [],
			"name": "contractVersion",
			"outputs": [
				{
					"internalType": "string",
					"name": "",
					"type": "string"
				}
			],
			"stateMutability": "pure",
			"type": "function"
		},
		{
			"inputs": [],
			"name": "contractVersionBytes",
			"outputs": [
				{
					"internalType": "bytes32",
					"name": "",
					"type": "bytes32"
				}
			],
			"stateMutability": "pure",
			"type": "function"
		},
		{
			"inputs": [
				{
					"internalType": "address[]",
					"name": "vaultTokens_",
					"type": "address[]"
				},
				{
					"internalType": "address",
					"name": "strategy_",
					"type": "address"
				},
				{
					"internalType": "uint256[]",
					"name": "subvaultNfts_",
					"type": "uint256[]"
				},
				{
					"internalType": "address",
					"name": "owner_",
					"type": "address"
				}
			],
			"name": "createVault",
			"outputs": [
				{
					"internalType": "contract IERC20RootVault",
					"name": "vault",
					"type": "address"
				},
				{
					"internalType": "uint256",
					"name": "nft",
					"type": "uint256"
				}
			],
			"stateMutability": "nonpayable",
			"type": "function"
		},
		{
			"inputs": [],
			"name": "delayedProtocolParams",
			"outputs": [
				{
					"components": [
						{
							"internalType": "uint256",
							"name": "managementFeeChargeDelay",
							"type": "uint256"
						},
						{
							"internalType": "contract IOracle",
							"name": "oracle",
							"type": "address"
						}
					],
					"internalType": "struct IERC20RootVaultGovernance.DelayedProtocolParams",
					"name": "",
					"type": "tuple"
				}
			],
			"stateMutability": "view",
			"type": "function"
		},
		{
			"inputs": [],
			"name": "delayedProtocolParamsTimestamp",
			"outputs": [
				{
					"internalType": "uint256",
					"name": "",
					"type": "uint256"
				}
			],
			"stateMutability": "view",
			"type": "function"
		},
		{
			"inputs": [
				{
					"internalType": "uint256",
					"name": "nft",
					"type": "uint256"
				}
			],
			"name": "delayedProtocolPerVaultParams",
			"outputs": [
				{
					"components": [
						{
							"internalType": "uint256",
							"name": "protocolFee",
							"type": "uint256"
						}
					],
					"internalType": "struct IERC20RootVaultGovernance.DelayedProtocolPerVaultParams",
					"name": "",
					"type": "tuple"
				}
			],
			"stateMutability": "view",
			"type": "function"
		},
		{
			"inputs": [
				{
					"internalType": "uint256",
					"name": "nft",
					"type": "uint256"
				}
			],
			"name": "delayedProtocolPerVaultParamsTimestamp",
			"outputs": [
				{
					"internalType": "uint256",
					"name": "",
					"type": "uint256"
				}
			],
			"stateMutability": "view",
			"type": "function"
		},
		{
			"inputs": [
				{
					"internalType": "uint256",
					"name": "nft",
					"type": "uint256"
				}
			],
			"name": "delayedStrategyParams",
			"outputs": [
				{
					"components": [
						{
							"internalType": "address",
							"name": "strategyTreasury",
							"type": "address"
						},
						{
							"internalType": "address",
							"name": "strategyPerformanceTreasury",
							"type": "address"
						},
						{
							"internalType": "bool",
							"name": "privateVault",
							"type": "bool"
						},
						{
							"internalType": "uint256",
							"name": "managementFee",
							"type": "uint256"
						},
						{
							"internalType": "uint256",
							"name": "performanceFee",
							"type": "uint256"
						},
						{
							"internalType": "address",
							"name": "depositCallbackAddress",
							"type": "address"
						},
						{
							"internalType": "address",
							"name": "withdrawCallbackAddress",
							"type": "address"
						}
					],
					"internalType": "struct IERC20RootVaultGovernance.DelayedStrategyParams",
					"name": "",
					"type": "tuple"
				}
			],
			"stateMutability": "view",
			"type": "function"
		},
		{
			"inputs": [
				{
					"internalType": "uint256",
					"name": "nft",
					"type": "uint256"
				}
			],
			"name": "delayedStrategyParamsTimestamp",
			"outputs": [
				{
					"internalType": "uint256",
					"name": "",
					"type": "uint256"
				}
			],
			"stateMutability": "view",
			"type": "function"
		},
		{
			"inputs": [],
			"name": "helper",
			"outputs": [
				{
					"internalType": "contract IERC20RootVaultHelper",
					"name": "",
					"type": "address"
				}
			],
			"stateMutability": "view",
			"type": "function"
		},
		{
			"inputs": [],
			"name": "internalParams",
			"outputs": [
				{
					"components": [
						{
							"internalType": "contract IProtocolGovernance",
							"name": "protocolGovernance",
							"type": "address"
						},
						{
							"internalType": "contract IVaultRegistry",
							"name": "registry",
							"type": "address"
						},
						{
							"internalType": "contract IVault",
							"name": "singleton",
							"type": "address"
						}
					],
					"internalType": "struct IVaultGovernance.InternalParams",
					"name": "",
					"type": "tuple"
				}
			],
			"stateMutability": "view",
			"type": "function"
		},
		{
			"inputs": [],
			"name": "internalParamsTimestamp",
			"outputs": [
				{
					"internalType": "uint256",
					"name": "",
					"type": "uint256"
				}
			],
			"stateMutability": "view",
			"type": "function"
		},
		{
			"inputs": [],
			"name": "operatorParams",
			"outputs": [
				{
					"components": [
						{
							"internalType": "bool",
							"name": "disableDeposit",
							"type": "bool"
						}
					],
					"internalType": "struct IERC20RootVaultGovernance.OperatorParams",
					"name": "",
					"type": "tuple"
				}
			],
			"stateMutability": "view",
			"type": "function"
		},
		{
			"inputs": [
				{
					"components": [
						{
							"internalType": "bool",
							"name": "disableDeposit",
							"type": "bool"
						}
					],
					"internalType": "struct IERC20RootVaultGovernance.OperatorParams",
					"name": "params",
					"type": "tuple"
				}
			],
			"name": "setOperatorParams",
			"outputs": [],
			"stateMutability": "nonpayable",
			"type": "function"
		},
		{
			"inputs": [
				{
					"internalType": "uint256",
					"name": "nft",
					"type": "uint256"
				},
				{
					"components": [
						{
							"internalType": "uint256",
							"name": "tokenLimitPerAddress",
							"type": "uint256"
						},
						{
							"internalType": "uint256",
							"name": "tokenLimit",
							"type": "uint256"
						}
					],
					"internalType": "struct IERC20RootVaultGovernance.StrategyParams",
					"name": "params",
					"type": "tuple"
				}
			],
			"name": "setStrategyParams",
			"outputs": [],
			"stateMutability": "nonpayable",
			"type": "function"
		},
		{
			"inputs": [
				{
					"components": [
						{
							"internalType": "uint256",
							"name": "managementFeeChargeDelay",
							"type": "uint256"
						},
						{
							"internalType": "contract IOracle",
							"name": "oracle",
							"type": "address"
						}
					],
					"internalType": "struct IERC20RootVaultGovernance.DelayedProtocolParams",
					"name": "params",
					"type": "tuple"
				}
			],
			"name": "stageDelayedProtocolParams",
			"outputs": [],
			"stateMutability": "nonpayable",
			"type": "function"
		},
		{
			"inputs": [
				{
					"internalType": "uint256",
					"name": "nft",
					"type": "uint256"
				},
				{
					"components": [
						{
							"internalType": "uint256",
							"name": "protocolFee",
							"type": "uint256"
						}
					],
					"internalType": "struct IERC20RootVaultGovernance.DelayedProtocolPerVaultParams",
					"name": "params",
					"type": "tuple"
				}
			],
			"name": "stageDelayedProtocolPerVaultParams",
			"outputs": [],
			"stateMutability": "nonpayable",
			"type": "function"
		},
		{
			"inputs": [
				{
					"internalType": "uint256",
					"name": "nft",
					"type": "uint256"
				},
				{
					"components": [
						{
							"internalType": "address",
							"name": "strategyTreasury",
							"type": "address"
						},
						{
							"internalType": "address",
							"name": "strategyPerformanceTreasury",
							"type": "address"
						},
						{
							"internalType": "bool",
							"name": "privateVault",
							"type": "bool"
						},
						{
							"internalType": "uint256",
							"name": "managementFee",
							"type": "uint256"
						},
						{
							"internalType": "uint256",
							"name": "performanceFee",
							"type": "uint256"
						},
						{
							"internalType": "address",
							"name": "depositCallbackAddress",
							"type": "address"
						},
						{
							"internalType": "address",
							"name": "withdrawCallbackAddress",
							"type": "address"
						}
					],
					"internalType": "struct IERC20RootVaultGovernance.DelayedStrategyParams",
					"name": "params",
					"type": "tuple"
				}
			],
			"name": "stageDelayedStrategyParams",
			"outputs": [],
			"stateMutability": "nonpayable",
			"type": "function"
		},
		{
			"inputs": [
				{
					"components": [
						{
							"internalType": "contract IProtocolGovernance",
							"name": "protocolGovernance",
							"type": "address"
						},
						{
							"internalType": "contract IVaultRegistry",
							"name": "registry",
							"type": "address"
						},
						{
							"internalType": "contract IVault",
							"name": "singleton",
							"type": "address"
						}
					],
					"internalType": "struct IVaultGovernance.InternalParams",
					"name": "newParams",
					"type": "tuple"
				}
			],
			"name": "stageInternalParams",
			"outputs": [],
			"stateMutability": "nonpayable",
			"type": "function"
		},
		{
			"inputs": [],
			"name": "stagedDelayedProtocolParams",
			"outputs": [
				{
					"components": [
						{
							"internalType": "uint256",
							"name": "managementFeeChargeDelay",
							"type": "uint256"
						},
						{
							"internalType": "contract IOracle",
							"name": "oracle",
							"type": "address"
						}
					],
					"internalType": "struct IERC20RootVaultGovernance.DelayedProtocolParams",
					"name": "",
					"type": "tuple"
				}
			],
			"stateMutability": "view",
			"type": "function"
		},
		{
			"inputs": [
				{
					"internalType": "uint256",
					"name": "nft",
					"type": "uint256"
				}
			],
			"name": "stagedDelayedProtocolPerVaultParams",
			"outputs": [
				{
					"components": [
						{
							"internalType": "uint256",
							"name": "protocolFee",
							"type": "uint256"
						}
					],
					"internalType": "struct IERC20RootVaultGovernance.DelayedProtocolPerVaultParams",
					"name": "",
					"type": "tuple"
				}
			],
			"stateMutability": "view",
			"type": "function"
		},
		{
			"inputs": [
				{
					"internalType": "uint256",
					"name": "nft",
					"type": "uint256"
				}
			],
			"name": "stagedDelayedStrategyParams",
			"outputs": [
				{
					"components": [
						{
							"internalType": "address",
							"name": "strategyTreasury",
							"type": "address"
						},
						{
							"internalType": "address",
							"name": "strategyPerformanceTreasury",
							"type": "address"
						},
						{
							"internalType": "bool",
							"name": "privateVault",
							"type": "bool"
						},
						{
							"internalType": "uint256",
							"name": "managementFee",
							"type": "uint256"
						},
						{
							"internalType": "uint256",
							"name": "performanceFee",
							"type": "uint256"
						},
						{
							"internalType": "address",
							"name": "depositCallbackAddress",
							"type": "address"
						},
						{
							"internalType": "address",
							"name": "withdrawCallbackAddress",
							"type": "address"
						}
					],
					"internalType": "struct IERC20RootVaultGovernance.DelayedStrategyParams",
					"name": "",
					"type": "tuple"
				}
			],
			"stateMutability": "view",
			"type": "function"
		},
		{
			"inputs": [],
			"name": "stagedInternalParams",
			"outputs": [
				{
					"components": [
						{
							"internalType": "contract IProtocolGovernance",
							"name": "protocolGovernance",
							"type": "address"
						},
						{
							"internalType": "contract IVaultRegistry",
							"name": "registry",
							"type": "address"
						},
						{
							"internalType": "contract IVault",
							"name": "singleton",
							"type": "address"
						}
					],
					"internalType": "struct IVaultGovernance.InternalParams",
					"name": "",
					"type": "tuple"
				}
			],
			"stateMutability": "view",
			"type": "function"
		},
		{
			"inputs": [
				{
					"internalType": "uint256",
					"name": "nft",
					"type": "uint256"
				}
			],
			"name": "strategyParams",
			"outputs": [
				{
					"components": [
						{
							"internalType": "uint256",
							"name": "tokenLimitPerAddress",
							"type": "uint256"
						},
						{
							"internalType": "uint256",
							"name": "tokenLimit",
							"type": "uint256"
						}
					],
					"internalType": "struct IERC20RootVaultGovernance.StrategyParams",
					"name": "",
					"type": "tuple"
				}
			],
			"stateMutability": "view",
			"type": "function"
		},
		{
			"inputs": [
				{
					"internalType": "bytes4",
					"name": "interfaceId",
					"type": "bytes4"
				}
			],
			"name": "supportsInterface",
			"outputs": [
				{
					"internalType": "bool",
					"name": "",
					"type": "bool"
				}
			],
			"stateMutability": "view",
			"type": "function"
		}
	]
}