{
	"data": {
		"bytecode": {
			"linkReferences": {},
			"object": "60806040523480156200001157600080fd5b506040516200249238038062002492833981016040819052620000349162000344565b815160408051808201909152600281526120ad60f11b602082015283916001600160a01b0316620000835760405162461bcd60e51b81526004016200007a91906200042a565b60405180910390fd5b5060006001600160a01b031681602001516001600160a01b031614156040518060400160405280600281526020016120ad60f11b81525090620000db5760405162461bcd60e51b81526004016200007a91906200042a565b506040808201518151808301909252600282526120ad60f11b60208301526001600160a01b0316620001225760405162461bcd60e51b81526004016200007a91906200042a565b508051600080546001600160a01b03199081166001600160a01b039384161790915560208084015160018054841691851691909117905560409384015160028054909316908416178255845184518086019095529184526120ad60f11b9084015216620001a45760405162461bcd60e51b81526004016200007a91906200042a565b5060006001600160a01b031681602001516001600160a01b031614156040518060400160405280600281526020016120ad60f11b81525090620001fc5760405162461bcd60e51b81526004016200007a91906200042a565b506040805182516001600160a01b039081166020808401919091528085015190911682840152825180830384018152606090920190925280516200024592600d9201906200024e565b505050620004bf565b8280546200025c9062000482565b90600052602060002090601f016020900481019282620002805760008555620002cb565b82601f106200029b57805160ff1916838001178555620002cb565b82800160010185558215620002cb579182015b82811115620002cb578251825591602001919060010190620002ae565b50620002d9929150620002dd565b5090565b5b80821115620002d95760008155600101620002de565b604080519081016001600160401b03811182821017156200032557634e487b7160e01b600052604160045260246000fd5b60405290565b6001600160a01b03811681146200034157600080fd5b50565b60008082840360a08112156200035957600080fd5b60608112156200036857600080fd5b604051606081016001600160401b03811182821017156200039957634e487b7160e01b600052604160045260246000fd5b6040528451620003a9816200032b565b81526020850151620003bb816200032b565b60208201526040850151620003d0816200032b565b604082810191909152909350605f1982011215620003ed57600080fd5b50620003f8620002f4565b606084015162000408816200032b565b815260808401516200041a816200032b565b6020820152919491935090915050565b600060208083528351808285015260005b8181101562000459578581018301518582016040015282016200043b565b818111156200046c576000604083870101525b50601f01601f1916929092016040019392505050565b600181811c908216806200049757607f821691505b60208210811415620004b957634e487b7160e01b600052602260045260246000fd5b50919050565b611fc380620004cf6000396000f3fe608060405234801561001057600080fd5b50600436106101425760003560e01c806375d0c0dc116100b8578063a0a8e4601161007c578063a0a8e46014610364578063b2fe31ad1461036c578063c2cbdc671461037f578063d34cc380146103ae578063d4a07d34146103b6578063e4af6e79146103be57600080fd5b806375d0c0dc146102815780637ac46fbb1461029657806386c6be3e146102f65780638860d2481461034957806398347a5d1461035c57600080fd5b80631c7f4c731161010a5780631c7f4c73146101cc57806325281714146101d4578063511ce798146101e757806359f3dae71461020757806366c153e91461022f5780636707acee1461026157600080fd5b806301ffc9a71461014757806306a462391461016f57806309946538146101875780630bdedd561461019c5780630e3e80ac146101af575b600080fd5b61015a6101553660046118e1565b6103c6565b60405190151581526020015b60405180910390f35b640312e312e360dc1b5b604051908152602001610166565b61019a61019536600461196e565b6103f7565b005b61019a6101aa3660046119e0565b6105e9565b73556e6956335661756c74476f7665726e616e636560601b610179565b600654610179565b61019a6101e23660046119f9565b6106df565b6101796101f53660046119e0565b6000908152600c602052604090205490565b61021a6102153660046119e0565b6107ac565b604051905163ffffffff168152602001610166565b61024261023d366004611a54565b61089a565b604080516001600160a01b039093168352602083019190915201610166565b61017961026f3660046119e0565b60009081526009602052604090205490565b61028961097f565b6040516101669190611b86565b6102e9604080516060810182526000808252602082018190529181019190915250604080516060810182526000546001600160a01b03908116825260015481166020830152600254169181019190915290565b6040516101669190611b99565b6102e9604080516060810182526000808252602082018190529181019190915250604080516060810182526003546001600160a01b03908116825260045481166020830152600554169181019190915290565b61021a6103573660046119e0565b6109a1565b61019a6109fe565b610289610b06565b61019a61037a366004611bc9565b610b19565b610387610c24565b6040805182516001600160a01b039081168252602093840151169281019290925201610166565b610387610d03565b61019a610d24565b600f54610179565b60006103d182610e49565b806103ec575063a2e9c51360e01b6001600160e01b03198316145b92915050565b905090565b6103ff610e7f565b805160408051808201909152600281526120ad60f11b6020820152906001600160a01b031661044a5760405162461bcd60e51b81526004016104419190611b86565b60405180910390fd5b5060006001600160a01b031681602001516001600160a01b031614156040518060400160405280600281526020016120ad60f11b8152509061049f5760405162461bcd60e51b81526004016104419190611b86565b506040808201518151808301909252600282526120ad60f11b60208301526001600160a01b03166104e35760405162461bcd60e51b81526004016104419190611b86565b508051600380546001600160a01b03199081166001600160a01b03938416179091556020808401516004805484169185169190911781556040808601516005805490951690861617909355600054835163bba3293960e01b8152935194169363bba3293993808301939290829003018186803b15801561056257600080fd5b505afa158015610576573d6000803e3d6000fd5b505050506040513d601f19601f8201168201806040525081019061059a9190611be1565b6105a49042611c10565b6006819055604051339132917f0887cab3184f7c02b16978ab31f8acee05979f59fc3da6abe5bf71105ec3179d916105de91869190611c28565b60405180910390a350565b6105f281610f37565b600081815260076020526040902080548291339132917fa363920f84c4a3e8f1fbb02a2f8b5f0d7438886cb05a7d98882af9bd66d164269161063390611c65565b80601f016020809104026020016040519081016040528092919081815260200182805461065f90611c65565b80156106ac5780601f10610681576101008083540402835291602001916106ac565b820191906000526020600020905b81548152906001019060200180831161068f57829003601f168201915b50505050508060200190518101906106c49190611cac565b604051905163ffffffff16815260200160405180910390a450565b60016106ee6020830183611cf8565b63ffffffff1611604051806040016040528060048152602001634c494d5560e01b815250906107305760405162461bcd60e51b81526004016104419190611b86565b5061075a82826040516020016107469190611d15565b604051602081830303815290604052611028565b600082815260096020526040908190205490518391339132917f4cceb02b6b172e9c19155fccc4d799437a0d50ad922ea9f0f41b1cb3a17b12e8916107a0918791611d32565b60405180910390a45050565b604080516020810190915260008152600082815260086020526040902080546107d490611c65565b151590506107f057505060408051602081019091526000815290565b6000828152600860205260409020805461080990611c65565b80601f016020809104026020016040519081016040528092919081815260200182805461083590611c65565b80156108825780601f1061085757610100808354040283529160200191610882565b820191906000526020600020905b81548152906001019060200180831161086557829003601f168201915b50505050508060200190518101906103ec9190611cac565b60008060006108a886611134565b604051631912128b60e01b815291945092508391506001600160a01b03821690631912128b906108e29085908b908a908a90600401611d9b565b600060405180830381600087803b1580156108fc57600080fd5b505af1158015610910573d6000803e3d6000fd5b50506040805162ffffff891660208201523393503292507f8a4513c05d15df8ece912856923273e166e39f5c9c2b43d2b38594023494a0e0918b910160408051601f198184030181529082905261096d92918c9088908a90611dda565b60405180910390a35094509492505050565b60606103f273556e6956335661756c74476f7665726e616e636560601b611325565b604080516020810190915260008152600082815260076020526040902080546109c990611c65565b151590506109e55750506040805160208101909152602a815290565b6000828152600760205260409020805461080990611c65565b610a06611391565b336001600160a01b0316326001600160a01b03167fb57a42e9f64dfc9c6b9e412ea001a45c0e4d3f26c8d160381a418ff92269d052600d8054610a4890611c65565b80601f0160208091040260200160405190810160405280929190818152602001828054610a7490611c65565b8015610ac15780601f10610a9657610100808354040283529160200191610ac1565b820191906000526020600020905b815481529060010190602001808311610aa457829003601f168201915b5050505050806020019051810190610ad99190611e24565b6040805182516001600160a01b0390811682526020938401511692810192909252015b60405180910390a3565b60606103f2640312e312e360dc1b611325565b6000610b286020830183611e83565b6001600160a01b031614156040518060400160405280600281526020016120ad60f11b81525090610b6c5760405162461bcd60e51b81526004016104419190611b86565b506000610b7f6040830160208401611e83565b6001600160a01b031614156040518060400160405280600281526020016120ad60f11b81525090610bc35760405162461bcd60e51b81526004016104419190611b86565b50610bec81604051602001610bd89190611ed5565b604051602081830303815290604052611445565b600f54604051339132917f88e619a5dce560314fdd4895b08c256978617047a99ffc847d45400df1f377a7916105de91869190611ee3565b6040805180820190915260008082526020820152600e8054610c4590611c65565b15159050610c655750604080518082019091526000808252602082015290565b600e8054610c7290611c65565b80601f0160208091040260200160405190810160405280929190818152602001828054610c9e90611c65565b8015610ceb5780601f10610cc057610100808354040283529160200191610ceb565b820191906000526020600020905b815481529060010190602001808311610cce57829003601f168201915b50505050508060200190518101906103f29190611e24565b6040805180820190915260008082526020820152600d8054610c7290611c65565b610d2c610e7f565b6006546040805180820190915260048152631395531360e21b602082015290610d685760405162461bcd60e51b81526004016104419190611b86565b5060065442101560405180604001604052806002815260200161545360f01b81525090610da85760405162461bcd60e51b81526004016104419190611b86565b5060038054600080546001600160a01b038084166001600160a01b03199283168117845560048054600180548286169087168117909155600580546002805497821697891688179055600698909855978616909855841690559290911690925560408051918252602082019390935291820152339032907fef3e4bc9725fa684957d7de03c6dcd01078ee86cf78ceef25c5f8346df69cc9990606001610afc565b60006301ffc9a760e01b6001600160e01b0319831614806103ec57506001600160e01b0319821663effda0f560e01b1492915050565b600054604051630935e01b60e21b81523360048201526001600160a01b03909116906324d7806c9060240160206040518083038186803b158015610ec257600080fd5b505afa158015610ed6573d6000803e3d6000fd5b505050506040513d601f19601f82011682018060405250810190610efa9190611efe565b6040518060400160405280600381526020016223292160e91b81525090610f345760405162461bcd60e51b81526004016104419190611b86565b50565b610f4081611520565b60008181526009602090815260409182902054825180840190935260048352631395531360e21b918301919091529081610f8d5760405162461bcd60e51b81526004016104419190611b86565b508042101560405180604001604052806002815260200161545360f01b81525090610fcb5760405162461bcd60e51b81526004016104419190611b86565b50600082815260086020908152604080832060079092529091208154909190610ff390611c65565b610ffe929190611793565b5060008281526008602052604081206110169161181e565b50600090815260096020526040812055565b61103182611520565b6000828152600860209081526040909120825161105092840190611858565b506000828152600760205260408120805461106a90611c65565b15905061107857600161107b565b60005b60ff169050806000800160009054906101000a90046001600160a01b03166001600160a01b031663bba329396040518163ffffffff1660e01b815260040160206040518083038186803b1580156110d157600080fd5b505afa1580156110e5573d6000803e3d6000fd5b505050506040513d601f19601f820116820180604052508101906111099190611be1565b6111139190611f20565b61111d9042611c10565b600093845260096020526040909320929092555050565b600080546040516363e85d2d60e01b81523360048201526001602482015282916001600160a01b03169081906363e85d2d9060440160206040518083038186803b15801561118157600080fd5b505afa158015611195573d6000803e3d6000fd5b505050506040513d601f19601f820116820180604052508101906111b99190611efe565b6040518060400160405280600381526020016223292160e91b815250906111f35760405162461bcd60e51b81526004016104419190611b86565b5060015460408051631112eee760e31b815290516001600160a01b039092169182916388977738916004808301926020929190829003018186803b15801561123a57600080fd5b505afa15801561124e573d6000803e3d6000fd5b505050506040513d601f19601f820116820180604052508101906112729190611be1565b61127d906001611c10565b600254909350611296906001600160a01b0316846116f3565b6040516305c4fdf960e01b81526001600160a01b0380831660048301528781166024830152919550908216906305c4fdf990604401602060405180830381600087803b1580156112e557600080fd5b505af11580156112f9573d6000803e3d6000fd5b505050506040513d601f19601f8201168201806040525081019061131d9190611be1565b505050915091565b604080516020808252818301909252606091602082018180368337019050509050602060005b60208110156113835783816020811061136657611366611f3f565b1a61137357809150611383565b61137c81611f55565b905061134b565b508152602081019190915290565b611399610e7f565b600f546040805180820190915260048152631395531360e21b6020820152906113d55760405162461bcd60e51b81526004016104419190611b86565b50600f5442101560405180604001604052806002815260200161545360f01b815250906114155760405162461bcd60e51b81526004016104419190611b86565b50600e600d90805461142690611c65565b611431929190611793565b5061143e600e600061181e565b6000600f55565b61144d610e7f565b6000600d805461145c90611c65565b15905061146a57600161146d565b60005b60ff16905081600e9080519060200190611488929190611858565b506000546040805163bba3293960e01b8152905183926001600160a01b03169163bba32939916004808301926020929190829003018186803b1580156114cd57600080fd5b505afa1580156114e1573d6000803e3d6000fd5b505050506040513d601f19601f820116820180604052508101906115059190611be1565b61150f9190611f20565b6115199042611c10565b600f555050565b600054604051630935e01b60e21b81523360048201526001600160a01b03909116906324d7806c9060240160206040518083038186803b15801561156357600080fd5b505afa158015611577573d6000803e3d6000fd5b505050506040513d601f19601f8201168201806040525081019061159b9190611efe565b80611628575060015460405163020604bf60e21b81526004810183905233916001600160a01b03169063081812fc9060240160206040518083038186803b1580156115e557600080fd5b505afa1580156115f9573d6000803e3d6000fd5b505050506040513d601f19601f8201168201806040525081019061161d9190611f70565b6001600160a01b0316145b806116b557506001546040516331a9108f60e11b81526004810183905233916001600160a01b031690636352211e9060240160206040518083038186803b15801561167257600080fd5b505afa158015611686573d6000803e3d6000fd5b505050506040513d601f19601f820116820180604052508101906116aa9190611f70565b6001600160a01b0316145b6040518060400160405280600381526020016223292160e91b815250906116ef5760405162461bcd60e51b81526004016104419190611b86565b5050565b6000604051733d602d80600a3d3981f3363d3d373d3d3d363d7360601b81528360601b60148201526e5af43d82803e903d91602b57fd5bf360881b6028820152826037826000f59150506001600160a01b0381166103ec5760405162461bcd60e51b815260206004820152601760248201527f455243313136373a2063726561746532206661696c65640000000000000000006044820152606401610441565b82805461179f90611c65565b90600052602060002090601f0160209004810192826117c1576000855561180e565b82601f106117d2578054855561180e565b8280016001018555821561180e57600052602060002091601f016020900482015b8281111561180e5782548255916001019190600101906117f3565b5061181a9291506118cc565b5090565b50805461182a90611c65565b6000825580601f1061183a575050565b601f016020900490600052602060002090810190610f3491906118cc565b82805461186490611c65565b90600052602060002090601f016020900481019282611886576000855561180e565b82601f1061189f57805160ff191683800117855561180e565b8280016001018555821561180e579182015b8281111561180e5782518255916020019190600101906118b1565b5b8082111561181a57600081556001016118cd565b6000602082840312156118f357600080fd5b81356001600160e01b03198116811461190b57600080fd5b9392505050565b634e487b7160e01b600052604160045260246000fd5b604051601f8201601f1916810167ffffffffffffffff8111828210171561195157611951611912565b604052919050565b6001600160a01b0381168114610f3457600080fd5b60006060828403121561198057600080fd5b6040516060810181811067ffffffffffffffff821117156119a3576119a3611912565b60405282356119b181611959565b815260208301356119c181611959565b602082015260408301356119d481611959565b60408201529392505050565b6000602082840312156119f257600080fd5b5035919050565b6000808284036040811215611a0d57600080fd5b833592506020601f1982011215611a2357600080fd5b506020830190509250929050565b8035611a3c81611959565b919050565b803562ffffff81168114611a3c57600080fd5b60008060008060808587031215611a6a57600080fd5b843567ffffffffffffffff80821115611a8257600080fd5b818701915087601f830112611a9657600080fd5b8135602082821115611aaa57611aaa611912565b8160051b9250611abb818401611928565b828152928401810192818101908b851115611ad557600080fd5b948201945b84861015611aff5785359350611aef84611959565b8382529482019490820190611ada565b9850611b0e9050898201611a31565b965050505050611b2060408601611a41565b9150611b2e60608601611a31565b905092959194509250565b6000815180845260005b81811015611b5f57602081850181015186830182015201611b43565b81811115611b71576000602083870101525b50601f01601f19169290920160200192915050565b60208152600061190b6020830184611b39565b606081016103ec828480516001600160a01b03908116835260208083015182169084015260409182015116910152565b600060408284031215611bdb57600080fd5b50919050565b600060208284031215611bf357600080fd5b5051919050565b634e487b7160e01b600052601160045260246000fd5b60008219821115611c2357611c23611bfa565b500190565b60808101611c58828580516001600160a01b03908116835260208083015182169084015260409182015116910152565b8260608301529392505050565b600181811c90821680611c7957607f821691505b60208210811415611bdb57634e487b7160e01b600052602260045260246000fd5b63ffffffff81168114610f3457600080fd5b600060208284031215611cbe57600080fd5b6040516020810181811067ffffffffffffffff82111715611ce157611ce1611912565b6040528251611cef81611c9a565b81529392505050565b600060208284031215611d0a57600080fd5b813561190b81611c9a565b602081018235611d2481611c9a565b63ffffffff16909152919050565b604081018335611d4181611c9a565b63ffffffff168252602090910191909152919050565b600081518084526020808501945080840160005b83811015611d905781516001600160a01b031687529582019590820190600101611d6b565b509495945050505050565b848152608060208201526000611db46080830186611d57565b62ffffff949094166040830152506001600160a01b039190911660609091015292915050565b60a081526000611ded60a0830188611d57565b8281036020840152611dff8188611b39565b6001600160a01b03968716604085015294909516606083015250608001529392505050565b600060408284031215611e3657600080fd5b6040516040810181811067ffffffffffffffff82111715611e5957611e59611912565b6040528251611e6781611959565b81526020830151611e7781611959565b60208201529392505050565b600060208284031215611e9557600080fd5b813561190b81611959565b8035611eab81611959565b6001600160a01b039081168352602082013590611ec782611959565b808216602085015250505050565b604081016103ec8284611ea0565b60608101611ef18285611ea0565b8260408301529392505050565b600060208284031215611f1057600080fd5b8151801515811461190b57600080fd5b6000816000190483118215151615611f3a57611f3a611bfa565b500290565b634e487b7160e01b600052603260045260246000fd5b6000600019821415611f6957611f69611bfa565b5060010190565b600060208284031215611f8257600080fd5b815161190b8161195956fea2646970667358221220c401cdfdb6c7319ff085bf05c218c39e58637c949e8770dc1a817d7c936d100b64736f6c63430008090033",
			"opcodes": "PUSH1 0x80 PUSH1 0x40 MSTORE CALLVALUE DUP1 ISZERO PUSH3 0x11 JUMPI PUSH1 0x0 DUP1 REVERT JUMPDEST POP PUSH1 0x40 MLOAD PUSH3 0x2492 CODESIZE SUB DUP1 PUSH3 0x2492 DUP4 CODECOPY DUP2 ADD PUSH1 0x40 DUP2 SWAP1 MSTORE PUSH3 0x34 SWAP2 PUSH3 0x344 JUMP JUMPDEST DUP2 MLOAD PUSH1 0x40 DUP1 MLOAD DUP1 DUP3 ADD SWAP1 SWAP2 MSTORE PUSH1 0x2 DUP2 MSTORE PUSH2 0x20AD PUSH1 0xF1 SHL PUSH1 0x20 DUP3 ADD MSTORE DUP4 SWAP2 PUSH1 0x1 PUSH1 0x1 PUSH1 0xA0 SHL SUB AND PUSH3 0x83 JUMPI PUSH1 0x40 MLOAD PUSH3 0x461BCD PUSH1 0xE5 SHL DUP2 MSTORE PUSH1 0x4 ADD PUSH3 0x7A SWAP2 SWAP1 PUSH3 0x42A JUMP JUMPDEST PUSH1 0x40 MLOAD DUP1 SWAP2 SUB SWAP1 REVERT JUMPDEST POP PUSH1 0x0 PUSH1 0x1 PUSH1 0x1 PUSH1 0xA0 SHL SUB AND DUP2 PUSH1 0x20 ADD MLOAD PUSH1 0x1 PUSH1 0x1 PUSH1 0xA0 SHL SUB AND EQ ISZERO PUSH1 0x40 MLOAD DUP1 PUSH1 0x40 ADD PUSH1 0x40 MSTORE DUP1 PUSH1 0x2 DUP2 MSTORE PUSH1 0x20 ADD PUSH2 0x20AD PUSH1 0xF1 SHL DUP2 MSTORE POP SWAP1 PUSH3 0xDB JUMPI PUSH1 0x40 MLOAD PUSH3 0x461BCD PUSH1 0xE5 SHL DUP2 MSTORE PUSH1 0x4 ADD PUSH3 0x7A SWAP2 SWAP1 PUSH3 0x42A JUMP JUMPDEST POP PUSH1 0x40 DUP1 DUP3 ADD MLOAD DUP2 MLOAD DUP1 DUP4 ADD SWAP1 SWAP3 MSTORE PUSH1 0x2 DUP3 MSTORE PUSH2 0x20AD PUSH1 0xF1 SHL PUSH1 0x20 DUP4 ADD MSTORE PUSH1 0x1 PUSH1 0x1 PUSH1 0xA0 SHL SUB AND PUSH3 0x122 JUMPI PUSH1 0x40 MLOAD PUSH3 0x461BCD PUSH1 0xE5 SHL DUP2 MSTORE PUSH1 0x4 ADD PUSH3 0x7A SWAP2 SWAP1 PUSH3 0x42A JUMP JUMPDEST POP DUP1 MLOAD PUSH1 0x0 DUP1 SLOAD PUSH1 0x1 PUSH1 0x1 PUSH1 0xA0 SHL SUB NOT SWAP1 DUP2 AND PUSH1 0x1 PUSH1 0x1 PUSH1 0xA0 SHL SUB SWAP4 DUP5 AND OR SWAP1 SWAP2 SSTORE PUSH1 0x20 DUP1 DUP5 ADD MLOAD PUSH1 0x1 DUP1 SLOAD DUP5 AND SWAP2 DUP6 AND SWAP2 SWAP1 SWAP2 OR SWAP1 SSTORE PUSH1 0x40 SWAP4 DUP5 ADD MLOAD PUSH1 0x2 DUP1 SLOAD SWAP1 SWAP4 AND SWAP1 DUP5 AND OR DUP3 SSTORE DUP5 MLOAD DUP5 MLOAD DUP1 DUP7 ADD SWAP1 SWAP6 MSTORE SWAP2 DUP5 MSTORE PUSH2 0x20AD PUSH1 0xF1 SHL SWAP1 DUP5 ADD MSTORE AND PUSH3 0x1A4 JUMPI PUSH1 0x40 MLOAD PUSH3 0x461BCD PUSH1 0xE5 SHL DUP2 MSTORE PUSH1 0x4 ADD PUSH3 0x7A SWAP2 SWAP1 PUSH3 0x42A JUMP JUMPDEST POP PUSH1 0x0 PUSH1 0x1 PUSH1 0x1 PUSH1 0xA0 SHL SUB AND DUP2 PUSH1 0x20 ADD MLOAD PUSH1 0x1 PUSH1 0x1 PUSH1 0xA0 SHL SUB AND EQ ISZERO PUSH1 0x40 MLOAD DUP1 PUSH1 0x40 ADD PUSH1 0x40 MSTORE DUP1 PUSH1 0x2 DUP2 MSTORE PUSH1 0x20 ADD PUSH2 0x20AD PUSH1 0xF1 SHL DUP2 MSTORE POP SWAP1 PUSH3 0x1FC JUMPI PUSH1 0x40 MLOAD PUSH3 0x461BCD PUSH1 0xE5 SHL DUP2 MSTORE PUSH1 0x4 ADD PUSH3 0x7A SWAP2 SWAP1 PUSH3 0x42A JUMP JUMPDEST POP PUSH1 0x40 DUP1 MLOAD DUP3 MLOAD PUSH1 0x1 PUSH1 0x1 PUSH1 0xA0 SHL SUB SWAP1 DUP2 AND PUSH1 0x20 DUP1 DUP5 ADD SWAP2 SWAP1 SWAP2 MSTORE DUP1 DUP6 ADD MLOAD SWAP1 SWAP2 AND DUP3 DUP5 ADD MSTORE DUP3 MLOAD DUP1 DUP4 SUB DUP5 ADD DUP2 MSTORE PUSH1 0x60 SWAP1 SWAP3 ADD SWAP1 SWAP3 MSTORE DUP1 MLOAD PUSH3 0x245 SWAP3 PUSH1 0xD SWAP3 ADD SWAP1 PUSH3 0x24E JUMP JUMPDEST POP POP POP PUSH3 0x4BF JUMP JUMPDEST DUP3 DUP1 SLOAD PUSH3 0x25C SWAP1 PUSH3 0x482 JUMP JUMPDEST SWAP1 PUSH1 0x0 MSTORE PUSH1 0x20 PUSH1 0x0 KECCAK256 SWAP1 PUSH1 0x1F ADD PUSH1 0x20 SWAP1 DIV DUP2 ADD SWAP3 DUP3 PUSH3 0x280 JUMPI PUSH1 0x0 DUP6 SSTORE PUSH3 0x2CB JUMP JUMPDEST DUP3 PUSH1 0x1F LT PUSH3 0x29B JUMPI DUP1 MLOAD PUSH1 0xFF NOT AND DUP4 DUP1 ADD OR DUP6 SSTORE PUSH3 0x2CB JUMP JUMPDEST DUP3 DUP1 ADD PUSH1 0x1 ADD DUP6 SSTORE DUP3 ISZERO PUSH3 0x2CB JUMPI SWAP2 DUP3 ADD JUMPDEST DUP3 DUP2 GT ISZERO PUSH3 0x2CB JUMPI DUP3 MLOAD DUP3 SSTORE SWAP2 PUSH1 0x20 ADD SWAP2 SWAP1 PUSH1 0x1 ADD SWAP1 PUSH3 0x2AE JUMP JUMPDEST POP PUSH3 0x2D9 SWAP3 SWAP2 POP PUSH3 0x2DD JUMP JUMPDEST POP SWAP1 JUMP JUMPDEST JUMPDEST DUP1 DUP3 GT ISZERO PUSH3 0x2D9 JUMPI PUSH1 0x0 DUP2 SSTORE PUSH1 0x1 ADD PUSH3 0x2DE JUMP JUMPDEST PUSH1 0x40 DUP1 MLOAD SWAP1 DUP2 ADD PUSH1 0x1 PUSH1 0x1 PUSH1 0x40 SHL SUB DUP2 GT DUP3 DUP3 LT OR ISZERO PUSH3 0x325 JUMPI PUSH4 0x4E487B71 PUSH1 0xE0 SHL PUSH1 0x0 MSTORE PUSH1 0x41 PUSH1 0x4 MSTORE PUSH1 0x24 PUSH1 0x0 REVERT JUMPDEST PUSH1 0x40 MSTORE SWAP1 JUMP JUMPDEST PUSH1 0x1 PUSH1 0x1 PUSH1 0xA0 SHL SUB DUP2 AND DUP2 EQ PUSH3 0x341 JUMPI PUSH1 0x0 DUP1 REVERT JUMPDEST POP JUMP JUMPDEST PUSH1 0x0 DUP1 DUP3 DUP5 SUB PUSH1 0xA0 DUP2 SLT ISZERO PUSH3 0x359 JUMPI PUSH1 0x0 DUP1 REVERT JUMPDEST PUSH1 0x60 DUP2 SLT ISZERO PUSH3 0x368 JUMPI PUSH1 0x0 DUP1 REVERT JUMPDEST PUSH1 0x40 MLOAD PUSH1 0x60 DUP2 ADD PUSH1 0x1 PUSH1 0x1 PUSH1 0x40 SHL SUB DUP2 GT DUP3 DUP3 LT OR ISZERO PUSH3 0x399 JUMPI PUSH4 0x4E487B71 PUSH1 0xE0 SHL PUSH1 0x0 MSTORE PUSH1 0x41 PUSH1 0x4 MSTORE PUSH1 0x24 PUSH1 0x0 REVERT JUMPDEST PUSH1 0x40 MSTORE DUP5 MLOAD PUSH3 0x3A9 DUP2 PUSH3 0x32B JUMP JUMPDEST DUP2 MSTORE PUSH1 0x20 DUP6 ADD MLOAD PUSH3 0x3BB DUP2 PUSH3 0x32B JUMP JUMPDEST PUSH1 0x20 DUP3 ADD MSTORE PUSH1 0x40 DUP6 ADD MLOAD PUSH3 0x3D0 DUP2 PUSH3 0x32B JUMP JUMPDEST PUSH1 0x40 DUP3 DUP2 ADD SWAP2 SWAP1 SWAP2 MSTORE SWAP1 SWAP4 POP PUSH1 0x5F NOT DUP3 ADD SLT ISZERO PUSH3 0x3ED JUMPI PUSH1 0x0 DUP1 REVERT JUMPDEST POP PUSH3 0x3F8 PUSH3 0x2F4 JUMP JUMPDEST PUSH1 0x60 DUP5 ADD MLOAD PUSH3 0x408 DUP2 PUSH3 0x32B JUMP JUMPDEST DUP2 MSTORE PUSH1 0x80 DUP5 ADD MLOAD PUSH3 0x41A DUP2 PUSH3 0x32B JUMP JUMPDEST PUSH1 0x20 DUP3 ADD MSTORE SWAP2 SWAP5 SWAP2 SWAP4 POP SWAP1 SWAP2 POP POP JUMP JUMPDEST PUSH1 0x0 PUSH1 0x20 DUP1 DUP4 MSTORE DUP4 MLOAD DUP1 DUP3 DUP6 ADD MSTORE PUSH1 0x0 JUMPDEST DUP2 DUP2 LT ISZERO PUSH3 0x459 JUMPI DUP6 DUP2 ADD DUP4 ADD MLOAD DUP6 DUP3 ADD PUSH1 0x40 ADD MSTORE DUP3 ADD PUSH3 0x43B JUMP JUMPDEST DUP2 DUP2 GT ISZERO PUSH3 0x46C JUMPI PUSH1 0x0 PUSH1 0x40 DUP4 DUP8 ADD ADD MSTORE JUMPDEST POP PUSH1 0x1F ADD PUSH1 0x1F NOT AND SWAP3 SWAP1 SWAP3 ADD PUSH1 0x40 ADD SWAP4 SWAP3 POP POP POP JUMP JUMPDEST PUSH1 0x1 DUP2 DUP2 SHR SWAP1 DUP3 AND DUP1 PUSH3 0x497 JUMPI PUSH1 0x7F DUP3 AND SWAP2 POP JUMPDEST PUSH1 0x20 DUP3 LT DUP2 EQ ISZERO PUSH3 0x4B9 JUMPI PUSH4 0x4E487B71 PUSH1 0xE0 SHL PUSH1 0x0 MSTORE PUSH1 0x22 PUSH1 0x4 MSTORE PUSH1 0x24 PUSH1 0x0 REVERT JUMPDEST POP SWAP2 SWAP1 POP JUMP JUMPDEST PUSH2 0x1FC3 DUP1 PUSH3 0x4CF PUSH1 0x0 CODECOPY PUSH1 0x0 RETURN INVALID PUSH1 0x80 PUSH1 0x40 MSTORE CALLVALUE DUP1 ISZERO PUSH2 0x10 JUMPI PUSH1 0x0 DUP1 REVERT JUMPDEST POP PUSH1 0x4 CALLDATASIZE LT PUSH2 0x142 JUMPI PUSH1 0x0 CALLDATALOAD PUSH1 0xE0 SHR DUP1 PUSH4 0x75D0C0DC GT PUSH2 0xB8 JUMPI DUP1 PUSH4 0xA0A8E460 GT PUSH2 0x7C JUMPI DUP1 PUSH4 0xA0A8E460 EQ PUSH2 0x364 JUMPI DUP1 PUSH4 0xB2FE31AD EQ PUSH2 0x36C JUMPI DUP1 PUSH4 0xC2CBDC67 EQ PUSH2 0x37F JUMPI DUP1 PUSH4 0xD34CC380 EQ PUSH2 0x3AE JUMPI DUP1 PUSH4 0xD4A07D34 EQ PUSH2 0x3B6 JUMPI DUP1 PUSH4 0xE4AF6E79 EQ PUSH2 0x3BE JUMPI PUSH1 0x0 DUP1 REVERT JUMPDEST DUP1 PUSH4 0x75D0C0DC EQ PUSH2 0x281 JUMPI DUP1 PUSH4 0x7AC46FBB EQ PUSH2 0x296 JUMPI DUP1 PUSH4 0x86C6BE3E EQ PUSH2 0x2F6 JUMPI DUP1 PUSH4 0x8860D248 EQ PUSH2 0x349 JUMPI DUP1 PUSH4 0x98347A5D EQ PUSH2 0x35C JUMPI PUSH1 0x0 DUP1 REVERT JUMPDEST DUP1 PUSH4 0x1C7F4C73 GT PUSH2 0x10A JUMPI DUP1 PUSH4 0x1C7F4C73 EQ PUSH2 0x1CC JUMPI DUP1 PUSH4 0x25281714 EQ PUSH2 0x1D4 JUMPI DUP1 PUSH4 0x511CE798 EQ PUSH2 0x1E7 JUMPI DUP1 PUSH4 0x59F3DAE7 EQ PUSH2 0x207 JUMPI DUP1 PUSH4 0x66C153E9 EQ PUSH2 0x22F JUMPI DUP1 PUSH4 0x6707ACEE EQ PUSH2 0x261 JUMPI PUSH1 0x0 DUP1 REVERT JUMPDEST DUP1 PUSH4 0x1FFC9A7 EQ PUSH2 0x147 JUMPI DUP1 PUSH4 0x6A46239 EQ PUSH2 0x16F JUMPI DUP1 PUSH4 0x9946538 EQ PUSH2 0x187 JUMPI DUP1 PUSH4 0xBDEDD56 EQ PUSH2 0x19C JUMPI DUP1 PUSH4 0xE3E80AC EQ PUSH2 0x1AF JUMPI JUMPDEST PUSH1 0x0 DUP1 REVERT JUMPDEST PUSH2 0x15A PUSH2 0x155 CALLDATASIZE PUSH1 0x4 PUSH2 0x18E1 JUMP JUMPDEST PUSH2 0x3C6 JUMP JUMPDEST PUSH1 0x40 MLOAD SWAP1 ISZERO ISZERO DUP2 MSTORE PUSH1 0x20 ADD JUMPDEST PUSH1 0x40 MLOAD DUP1 SWAP2 SUB SWAP1 RETURN JUMPDEST PUSH5 0x312E312E3 PUSH1 0xDC SHL JUMPDEST PUSH1 0x40 MLOAD SWAP1 DUP2 MSTORE PUSH1 0x20 ADD PUSH2 0x166 JUMP JUMPDEST PUSH2 0x19A PUSH2 0x195 CALLDATASIZE PUSH1 0x4 PUSH2 0x196E JUMP JUMPDEST PUSH2 0x3F7 JUMP JUMPDEST STOP JUMPDEST PUSH2 0x19A PUSH2 0x1AA CALLDATASIZE PUSH1 0x4 PUSH2 0x19E0 JUMP JUMPDEST PUSH2 0x5E9 JUMP JUMPDEST PUSH20 0x556E6956335661756C74476F7665726E616E6365 PUSH1 0x60 SHL PUSH2 0x179 JUMP JUMPDEST PUSH1 0x6 SLOAD PUSH2 0x179 JUMP JUMPDEST PUSH2 0x19A PUSH2 0x1E2 CALLDATASIZE PUSH1 0x4 PUSH2 0x19F9 JUMP JUMPDEST PUSH2 0x6DF JUMP JUMPDEST PUSH2 0x179 PUSH2 0x1F5 CALLDATASIZE PUSH1 0x4 PUSH2 0x19E0 JUMP JUMPDEST PUSH1 0x0 SWAP1 DUP2 MSTORE PUSH1 0xC PUSH1 0x20 MSTORE PUSH1 0x40 SWAP1 KECCAK256 SLOAD SWAP1 JUMP JUMPDEST PUSH2 0x21A PUSH2 0x215 CALLDATASIZE PUSH1 0x4 PUSH2 0x19E0 JUMP JUMPDEST PUSH2 0x7AC JUMP JUMPDEST PUSH1 0x40 MLOAD SWAP1 MLOAD PUSH4 0xFFFFFFFF AND DUP2 MSTORE PUSH1 0x20 ADD PUSH2 0x166 JUMP JUMPDEST PUSH2 0x242 PUSH2 0x23D CALLDATASIZE PUSH1 0x4 PUSH2 0x1A54 JUMP JUMPDEST PUSH2 0x89A JUMP JUMPDEST PUSH1 0x40 DUP1 MLOAD PUSH1 0x1 PUSH1 0x1 PUSH1 0xA0 SHL SUB SWAP1 SWAP4 AND DUP4 MSTORE PUSH1 0x20 DUP4 ADD SWAP2 SWAP1 SWAP2 MSTORE ADD PUSH2 0x166 JUMP JUMPDEST PUSH2 0x179 PUSH2 0x26F CALLDATASIZE PUSH1 0x4 PUSH2 0x19E0 JUMP JUMPDEST PUSH1 0x0 SWAP1 DUP2 MSTORE PUSH1 0x9 PUSH1 0x20 MSTORE PUSH1 0x40 SWAP1 KECCAK256 SLOAD SWAP1 JUMP JUMPDEST PUSH2 0x289 PUSH2 0x97F JUMP JUMPDEST PUSH1 0x40 MLOAD PUSH2 0x166 SWAP2 SWAP1 PUSH2 0x1B86 JUMP JUMPDEST PUSH2 0x2E9 PUSH1 0x40 DUP1 MLOAD PUSH1 0x60 DUP2 ADD DUP3 MSTORE PUSH1 0x0 DUP1 DUP3 MSTORE PUSH1 0x20 DUP3 ADD DUP2 SWAP1 MSTORE SWAP2 DUP2 ADD SWAP2 SWAP1 SWAP2 MSTORE POP PUSH1 0x40 DUP1 MLOAD PUSH1 0x60 DUP2 ADD DUP3 MSTORE PUSH1 0x0 SLOAD PUSH1 0x1 PUSH1 0x1 PUSH1 0xA0 SHL SUB SWAP1 DUP2 AND DUP3 MSTORE PUSH1 0x1 SLOAD DUP2 AND PUSH1 0x20 DUP4 ADD MSTORE PUSH1 0x2 SLOAD AND SWAP2 DUP2 ADD SWAP2 SWAP1 SWAP2 MSTORE SWAP1 JUMP JUMPDEST PUSH1 0x40 MLOAD PUSH2 0x166 SWAP2 SWAP1 PUSH2 0x1B99 JUMP JUMPDEST PUSH2 0x2E9 PUSH1 0x40 DUP1 MLOAD PUSH1 0x60 DUP2 ADD DUP3 MSTORE PUSH1 0x0 DUP1 DUP3 MSTORE PUSH1 0x20 DUP3 ADD DUP2 SWAP1 MSTORE SWAP2 DUP2 ADD SWAP2 SWAP1 SWAP2 MSTORE POP PUSH1 0x40 DUP1 MLOAD PUSH1 0x60 DUP2 ADD DUP3 MSTORE PUSH1 0x3 SLOAD PUSH1 0x1 PUSH1 0x1 PUSH1 0xA0 SHL SUB SWAP1 DUP2 AND DUP3 MSTORE PUSH1 0x4 SLOAD DUP2 AND PUSH1 0x20 DUP4 ADD MSTORE PUSH1 0x5 SLOAD AND SWAP2 DUP2 ADD SWAP2 SWAP1 SWAP2 MSTORE SWAP1 JUMP JUMPDEST PUSH2 0x21A PUSH2 0x357 CALLDATASIZE PUSH1 0x4 PUSH2 0x19E0 JUMP JUMPDEST PUSH2 0x9A1 JUMP JUMPDEST PUSH2 0x19A PUSH2 0x9FE JUMP JUMPDEST PUSH2 0x289 PUSH2 0xB06 JUMP JUMPDEST PUSH2 0x19A PUSH2 0x37A CALLDATASIZE PUSH1 0x4 PUSH2 0x1BC9 JUMP JUMPDEST PUSH2 0xB19 JUMP JUMPDEST PUSH2 0x387 PUSH2 0xC24 JUMP JUMPDEST PUSH1 0x40 DUP1 MLOAD DUP3 MLOAD PUSH1 0x1 PUSH1 0x1 PUSH1 0xA0 SHL SUB SWAP1 DUP2 AND DUP3 MSTORE PUSH1 0x20 SWAP4 DUP5 ADD MLOAD AND SWAP3 DUP2 ADD SWAP3 SWAP1 SWAP3 MSTORE ADD PUSH2 0x166 JUMP JUMPDEST PUSH2 0x387 PUSH2 0xD03 JUMP JUMPDEST PUSH2 0x19A PUSH2 0xD24 JUMP JUMPDEST PUSH1 0xF SLOAD PUSH2 0x179 JUMP JUMPDEST PUSH1 0x0 PUSH2 0x3D1 DUP3 PUSH2 0xE49 JUMP JUMPDEST DUP1 PUSH2 0x3EC JUMPI POP PUSH4 0xA2E9C513 PUSH1 0xE0 SHL PUSH1 0x1 PUSH1 0x1 PUSH1 0xE0 SHL SUB NOT DUP4 AND EQ JUMPDEST SWAP3 SWAP2 POP POP JUMP JUMPDEST SWAP1 POP SWAP1 JUMP JUMPDEST PUSH2 0x3FF PUSH2 0xE7F JUMP JUMPDEST DUP1 MLOAD PUSH1 0x40 DUP1 MLOAD DUP1 DUP3 ADD SWAP1 SWAP2 MSTORE PUSH1 0x2 DUP2 MSTORE PUSH2 0x20AD PUSH1 0xF1 SHL PUSH1 0x20 DUP3 ADD MSTORE SWAP1 PUSH1 0x1 PUSH1 0x1 PUSH1 0xA0 SHL SUB AND PUSH2 0x44A JUMPI PUSH1 0x40 MLOAD PUSH3 0x461BCD PUSH1 0xE5 SHL DUP2 MSTORE PUSH1 0x4 ADD PUSH2 0x441 SWAP2 SWAP1 PUSH2 0x1B86 JUMP JUMPDEST PUSH1 0x40 MLOAD DUP1 SWAP2 SUB SWAP1 REVERT JUMPDEST POP PUSH1 0x0 PUSH1 0x1 PUSH1 0x1 PUSH1 0xA0 SHL SUB AND DUP2 PUSH1 0x20 ADD MLOAD PUSH1 0x1 PUSH1 0x1 PUSH1 0xA0 SHL SUB AND EQ ISZERO PUSH1 0x40 MLOAD DUP1 PUSH1 0x40 ADD PUSH1 0x40 MSTORE DUP1 PUSH1 0x2 DUP2 MSTORE PUSH1 0x20 ADD PUSH2 0x20AD PUSH1 0xF1 SHL DUP2 MSTORE POP SWAP1 PUSH2 0x49F JUMPI PUSH1 0x40 MLOAD PUSH3 0x461BCD PUSH1 0xE5 SHL DUP2 MSTORE PUSH1 0x4 ADD PUSH2 0x441 SWAP2 SWAP1 PUSH2 0x1B86 JUMP JUMPDEST POP PUSH1 0x40 DUP1 DUP3 ADD MLOAD DUP2 MLOAD DUP1 DUP4 ADD SWAP1 SWAP3 MSTORE PUSH1 0x2 DUP3 MSTORE PUSH2 0x20AD PUSH1 0xF1 SHL PUSH1 0x20 DUP4 ADD MSTORE PUSH1 0x1 PUSH1 0x1 PUSH1 0xA0 SHL SUB AND PUSH2 0x4E3 JUMPI PUSH1 0x40 MLOAD PUSH3 0x461BCD PUSH1 0xE5 SHL DUP2 MSTORE PUSH1 0x4 ADD PUSH2 0x441 SWAP2 SWAP1 PUSH2 0x1B86 JUMP JUMPDEST POP DUP1 MLOAD PUSH1 0x3 DUP1 SLOAD PUSH1 0x1 PUSH1 0x1 PUSH1 0xA0 SHL SUB NOT SWAP1 DUP2 AND PUSH1 0x1 PUSH1 0x1 PUSH1 0xA0 SHL SUB SWAP4 DUP5 AND OR SWAP1 SWAP2 SSTORE PUSH1 0x20 DUP1 DUP5 ADD MLOAD PUSH1 0x4 DUP1 SLOAD DUP5 AND SWAP2 DUP6 AND SWAP2 SWAP1 SWAP2 OR DUP2 SSTORE PUSH1 0x40 DUP1 DUP7 ADD MLOAD PUSH1 0x5 DUP1 SLOAD SWAP1 SWAP6 AND SWAP1 DUP7 AND OR SWAP1 SWAP4 SSTORE PUSH1 0x0 SLOAD DUP4 MLOAD PUSH4 0xBBA32939 PUSH1 0xE0 SHL DUP2 MSTORE SWAP4 MLOAD SWAP5 AND SWAP4 PUSH4 0xBBA32939 SWAP4 DUP1 DUP4 ADD SWAP4 SWAP3 SWAP1 DUP3 SWAP1 SUB ADD DUP2 DUP7 DUP1 EXTCODESIZE ISZERO DUP1 ISZERO PUSH2 0x562 JUMPI PUSH1 0x0 DUP1 REVERT JUMPDEST POP GAS STATICCALL ISZERO DUP1 ISZERO PUSH2 0x576 JUMPI RETURNDATASIZE PUSH1 0x0 DUP1 RETURNDATACOPY RETURNDATASIZE PUSH1 0x0 REVERT JUMPDEST POP POP POP POP PUSH1 0x40 MLOAD RETURNDATASIZE PUSH1 0x1F NOT PUSH1 0x1F DUP3 ADD AND DUP3 ADD DUP1 PUSH1 0x40 MSTORE POP DUP2 ADD SWAP1 PUSH2 0x59A SWAP2 SWAP1 PUSH2 0x1BE1 JUMP JUMPDEST PUSH2 0x5A4 SWAP1 TIMESTAMP PUSH2 0x1C10 JUMP JUMPDEST PUSH1 0x6 DUP2 SWAP1 SSTORE PUSH1 0x40 MLOAD CALLER SWAP2 ORIGIN SWAP2 PUSH32 0x887CAB3184F7C02B16978AB31F8ACEE05979F59FC3DA6ABE5BF71105EC3179D SWAP2 PUSH2 0x5DE SWAP2 DUP7 SWAP2 SWAP1 PUSH2 0x1C28 JUMP JUMPDEST PUSH1 0x40 MLOAD DUP1 SWAP2 SUB SWAP1 LOG3 POP JUMP JUMPDEST PUSH2 0x5F2 DUP2 PUSH2 0xF37 JUMP JUMPDEST PUSH1 0x0 DUP2 DUP2 MSTORE PUSH1 0x7 PUSH1 0x20 MSTORE PUSH1 0x40 SWAP1 KECCAK256 DUP1 SLOAD DUP3 SWAP2 CALLER SWAP2 ORIGIN SWAP2 PUSH32 0xA363920F84C4A3E8F1FBB02A2F8B5F0D7438886CB05A7D98882AF9BD66D16426 SWAP2 PUSH2 0x633 SWAP1 PUSH2 0x1C65 JUMP JUMPDEST DUP1 PUSH1 0x1F ADD PUSH1 0x20 DUP1 SWAP2 DIV MUL PUSH1 0x20 ADD PUSH1 0x40 MLOAD SWAP1 DUP2 ADD PUSH1 0x40 MSTORE DUP1 SWAP3 SWAP2 SWAP1 DUP2 DUP2 MSTORE PUSH1 0x20 ADD DUP3 DUP1 SLOAD PUSH2 0x65F SWAP1 PUSH2 0x1C65 JUMP JUMPDEST DUP1 ISZERO PUSH2 0x6AC JUMPI DUP1 PUSH1 0x1F LT PUSH2 0x681 JUMPI PUSH2 0x100 DUP1 DUP4 SLOAD DIV MUL DUP4 MSTORE SWAP2 PUSH1 0x20 ADD SWAP2 PUSH2 0x6AC JUMP JUMPDEST DUP3 ADD SWAP2 SWAP1 PUSH1 0x0 MSTORE PUSH1 0x20 PUSH1 0x0 KECCAK256 SWAP1 JUMPDEST DUP2 SLOAD DUP2 MSTORE SWAP1 PUSH1 0x1 ADD SWAP1 PUSH1 0x20 ADD DUP1 DUP4 GT PUSH2 0x68F JUMPI DUP3 SWAP1 SUB PUSH1 0x1F AND DUP3 ADD SWAP2 JUMPDEST POP POP POP POP POP DUP1 PUSH1 0x20 ADD SWAP1 MLOAD DUP2 ADD SWAP1 PUSH2 0x6C4 SWAP2 SWAP1 PUSH2 0x1CAC JUMP JUMPDEST PUSH1 0x40 MLOAD SWAP1 MLOAD PUSH4 0xFFFFFFFF AND DUP2 MSTORE PUSH1 0x20 ADD PUSH1 0x40 MLOAD DUP1 SWAP2 SUB SWAP1 LOG4 POP JUMP JUMPDEST PUSH1 0x1 PUSH2 0x6EE PUSH1 0x20 DUP4 ADD DUP4 PUSH2 0x1CF8 JUMP JUMPDEST PUSH4 0xFFFFFFFF AND GT PUSH1 0x40 MLOAD DUP1 PUSH1 0x40 ADD PUSH1 0x40 MSTORE DUP1 PUSH1 0x4 DUP2 MSTORE PUSH1 0x20 ADD PUSH4 0x4C494D55 PUSH1 0xE0 SHL DUP2 MSTORE POP SWAP1 PUSH2 0x730 JUMPI PUSH1 0x40 MLOAD PUSH3 0x461BCD PUSH1 0xE5 SHL DUP2 MSTORE PUSH1 0x4 ADD PUSH2 0x441 SWAP2 SWAP1 PUSH2 0x1B86 JUMP JUMPDEST POP PUSH2 0x75A DUP3 DUP3 PUSH1 0x40 MLOAD PUSH1 0x20 ADD PUSH2 0x746 SWAP2 SWAP1 PUSH2 0x1D15 JUMP JUMPDEST PUSH1 0x40 MLOAD PUSH1 0x20 DUP2 DUP4 SUB SUB DUP2 MSTORE SWAP1 PUSH1 0x40 MSTORE PUSH2 0x1028 JUMP JUMPDEST PUSH1 0x0 DUP3 DUP2 MSTORE PUSH1 0x9 PUSH1 0x20 MSTORE PUSH1 0x40 SWAP1 DUP2 SWAP1 KECCAK256 SLOAD SWAP1 MLOAD DUP4 SWAP2 CALLER SWAP2 ORIGIN SWAP2 PUSH32 0x4CCEB02B6B172E9C19155FCCC4D799437A0D50AD922EA9F0F41B1CB3A17B12E8 SWAP2 PUSH2 0x7A0 SWAP2 DUP8 SWAP2 PUSH2 0x1D32 JUMP JUMPDEST PUSH1 0x40 MLOAD DUP1 SWAP2 SUB SWAP1 LOG4 POP POP JUMP JUMPDEST PUSH1 0x40 DUP1 MLOAD PUSH1 0x20 DUP2 ADD SWAP1 SWAP2 MSTORE PUSH1 0x0 DUP2 MSTORE PUSH1 0x0 DUP3 DUP2 MSTORE PUSH1 0x8 PUSH1 0x20 MSTORE PUSH1 0x40 SWAP1 KECCAK256 DUP1 SLOAD PUSH2 0x7D4 SWAP1 PUSH2 0x1C65 JUMP JUMPDEST ISZERO ISZERO SWAP1 POP PUSH2 0x7F0 JUMPI POP POP PUSH1 0x40 DUP1 MLOAD PUSH1 0x20 DUP2 ADD SWAP1 SWAP2 MSTORE PUSH1 0x0 DUP2 MSTORE SWAP1 JUMP JUMPDEST PUSH1 0x0 DUP3 DUP2 MSTORE PUSH1 0x8 PUSH1 0x20 MSTORE PUSH1 0x40 SWAP1 KECCAK256 DUP1 SLOAD PUSH2 0x809 SWAP1 PUSH2 0x1C65 JUMP JUMPDEST DUP1 PUSH1 0x1F ADD PUSH1 0x20 DUP1 SWAP2 DIV MUL PUSH1 0x20 ADD PUSH1 0x40 MLOAD SWAP1 DUP2 ADD PUSH1 0x40 MSTORE DUP1 SWAP3 SWAP2 SWAP1 DUP2 DUP2 MSTORE PUSH1 0x20 ADD DUP3 DUP1 SLOAD PUSH2 0x835 SWAP1 PUSH2 0x1C65 JUMP JUMPDEST DUP1 ISZERO PUSH2 0x882 JUMPI DUP1 PUSH1 0x1F LT PUSH2 0x857 JUMPI PUSH2 0x100 DUP1 DUP4 SLOAD DIV MUL DUP4 MSTORE SWAP2 PUSH1 0x20 ADD SWAP2 PUSH2 0x882 JUMP JUMPDEST DUP3 ADD SWAP2 SWAP1 PUSH1 0x0 MSTORE PUSH1 0x20 PUSH1 0x0 KECCAK256 SWAP1 JUMPDEST DUP2 SLOAD DUP2 MSTORE SWAP1 PUSH1 0x1 ADD SWAP1 PUSH1 0x20 ADD DUP1 DUP4 GT PUSH2 0x865 JUMPI DUP3 SWAP1 SUB PUSH1 0x1F AND DUP3 ADD SWAP2 JUMPDEST POP POP POP POP POP DUP1 PUSH1 0x20 ADD SWAP1 MLOAD DUP2 ADD SWAP1 PUSH2 0x3EC SWAP2 SWAP1 PUSH2 0x1CAC JUMP JUMPDEST PUSH1 0x0 DUP1 PUSH1 0x0 PUSH2 0x8A8 DUP7 PUSH2 0x1134 JUMP JUMPDEST PUSH1 0x40 MLOAD PUSH4 0x1912128B PUSH1 0xE0 SHL DUP2 MSTORE SWAP2 SWAP5 POP SWAP3 POP DUP4 SWAP2 POP PUSH1 0x1 PUSH1 0x1 PUSH1 0xA0 SHL SUB DUP3 AND SWAP1 PUSH4 0x1912128B SWAP1 PUSH2 0x8E2 SWAP1 DUP6 SWAP1 DUP12 SWAP1 DUP11 SWAP1 DUP11 SWAP1 PUSH1 0x4 ADD PUSH2 0x1D9B JUMP JUMPDEST PUSH1 0x0 PUSH1 0x40 MLOAD DUP1 DUP4 SUB DUP2 PUSH1 0x0 DUP8 DUP1 EXTCODESIZE ISZERO DUP1 ISZERO PUSH2 0x8FC JUMPI PUSH1 0x0 DUP1 REVERT JUMPDEST POP GAS CALL ISZERO DUP1 ISZERO PUSH2 0x910 JUMPI RETURNDATASIZE PUSH1 0x0 DUP1 RETURNDATACOPY RETURNDATASIZE PUSH1 0x0 REVERT JUMPDEST POP POP PUSH1 0x40 DUP1 MLOAD PUSH3 0xFFFFFF DUP10 AND PUSH1 0x20 DUP3 ADD MSTORE CALLER SWAP4 POP ORIGIN SWAP3 POP PUSH32 0x8A4513C05D15DF8ECE912856923273E166E39F5C9C2B43D2B38594023494A0E0 SWAP2 DUP12 SWAP2 ADD PUSH1 0x40 DUP1 MLOAD PUSH1 0x1F NOT DUP2 DUP5 SUB ADD DUP2 MSTORE SWAP1 DUP3 SWAP1 MSTORE PUSH2 0x96D SWAP3 SWAP2 DUP13 SWAP1 DUP9 SWAP1 DUP11 SWAP1 PUSH2 0x1DDA JUMP JUMPDEST PUSH1 0x40 MLOAD DUP1 SWAP2 SUB SWAP1 LOG3 POP SWAP5 POP SWAP5 SWAP3 POP POP POP JUMP JUMPDEST PUSH1 0x60 PUSH2 0x3F2 PUSH20 0x556E6956335661756C74476F7665726E616E6365 PUSH1 0x60 SHL PUSH2 0x1325 JUMP JUMPDEST PUSH1 0x40 DUP1 MLOAD PUSH1 0x20 DUP2 ADD SWAP1 SWAP2 MSTORE PUSH1 0x0 DUP2 MSTORE PUSH1 0x0 DUP3 DUP2 MSTORE PUSH1 0x7 PUSH1 0x20 MSTORE PUSH1 0x40 SWAP1 KECCAK256 DUP1 SLOAD PUSH2 0x9C9 SWAP1 PUSH2 0x1C65 JUMP JUMPDEST ISZERO ISZERO SWAP1 POP PUSH2 0x9E5 JUMPI POP POP PUSH1 0x40 DUP1 MLOAD PUSH1 0x20 DUP2 ADD SWAP1 SWAP2 MSTORE PUSH1 0x2A DUP2 MSTORE SWAP1 JUMP JUMPDEST PUSH1 0x0 DUP3 DUP2 MSTORE PUSH1 0x7 PUSH1 0x20 MSTORE PUSH1 0x40 SWAP1 KECCAK256 DUP1 SLOAD PUSH2 0x809 SWAP1 PUSH2 0x1C65 JUMP JUMPDEST PUSH2 0xA06 PUSH2 0x1391 JUMP JUMPDEST CALLER PUSH1 0x1 PUSH1 0x1 PUSH1 0xA0 SHL SUB AND ORIGIN PUSH1 0x1 PUSH1 0x1 PUSH1 0xA0 SHL SUB AND PUSH32 0xB57A42E9F64DFC9C6B9E412EA001A45C0E4D3F26C8D160381A418FF92269D052 PUSH1 0xD DUP1 SLOAD PUSH2 0xA48 SWAP1 PUSH2 0x1C65 JUMP JUMPDEST DUP1 PUSH1 0x1F ADD PUSH1 0x20 DUP1 SWAP2 DIV MUL PUSH1 0x20 ADD PUSH1 0x40 MLOAD SWAP1 DUP2 ADD PUSH1 0x40 MSTORE DUP1 SWAP3 SWAP2 SWAP1 DUP2 DUP2 MSTORE PUSH1 0x20 ADD DUP3 DUP1 SLOAD PUSH2 0xA74 SWAP1 PUSH2 0x1C65 JUMP JUMPDEST DUP1 ISZERO PUSH2 0xAC1 JUMPI DUP1 PUSH1 0x1F LT PUSH2 0xA96 JUMPI PUSH2 0x100 DUP1 DUP4 SLOAD DIV MUL DUP4 MSTORE SWAP2 PUSH1 0x20 ADD SWAP2 PUSH2 0xAC1 JUMP JUMPDEST DUP3 ADD SWAP2 SWAP1 PUSH1 0x0 MSTORE PUSH1 0x20 PUSH1 0x0 KECCAK256 SWAP1 JUMPDEST DUP2 SLOAD DUP2 MSTORE SWAP1 PUSH1 0x1 ADD SWAP1 PUSH1 0x20 ADD DUP1 DUP4 GT PUSH2 0xAA4 JUMPI DUP3 SWAP1 SUB PUSH1 0x1F AND DUP3 ADD SWAP2 JUMPDEST POP POP POP POP POP DUP1 PUSH1 0x20 ADD SWAP1 MLOAD DUP2 ADD SWAP1 PUSH2 0xAD9 SWAP2 SWAP1 PUSH2 0x1E24 JUMP JUMPDEST PUSH1 0x40 DUP1 MLOAD DUP3 MLOAD PUSH1 0x1 PUSH1 0x1 PUSH1 0xA0 SHL SUB SWAP1 DUP2 AND DUP3 MSTORE PUSH1 0x20 SWAP4 DUP5 ADD MLOAD AND SWAP3 DUP2 ADD SWAP3 SWAP1 SWAP3 MSTORE ADD JUMPDEST PUSH1 0x40 MLOAD DUP1 SWAP2 SUB SWAP1 LOG3 JUMP JUMPDEST PUSH1 0x60 PUSH2 0x3F2 PUSH5 0x312E312E3 PUSH1 0xDC SHL PUSH2 0x1325 JUMP JUMPDEST PUSH1 0x0 PUSH2 0xB28 PUSH1 0x20 DUP4 ADD DUP4 PUSH2 0x1E83 JUMP JUMPDEST PUSH1 0x1 PUSH1 0x1 PUSH1 0xA0 SHL SUB AND EQ ISZERO PUSH1 0x40 MLOAD DUP1 PUSH1 0x40 ADD PUSH1 0x40 MSTORE DUP1 PUSH1 0x2 DUP2 MSTORE PUSH1 0x20 ADD PUSH2 0x20AD PUSH1 0xF1 SHL DUP2 MSTORE POP SWAP1 PUSH2 0xB6C JUMPI PUSH1 0x40 MLOAD PUSH3 0x461BCD PUSH1 0xE5 SHL DUP2 MSTORE PUSH1 0x4 ADD PUSH2 0x441 SWAP2 SWAP1 PUSH2 0x1B86 JUMP JUMPDEST POP PUSH1 0x0 PUSH2 0xB7F PUSH1 0x40 DUP4 ADD PUSH1 0x20 DUP5 ADD PUSH2 0x1E83 JUMP JUMPDEST PUSH1 0x1 PUSH1 0x1 PUSH1 0xA0 SHL SUB AND EQ ISZERO PUSH1 0x40 MLOAD DUP1 PUSH1 0x40 ADD PUSH1 0x40 MSTORE DUP1 PUSH1 0x2 DUP2 MSTORE PUSH1 0x20 ADD PUSH2 0x20AD PUSH1 0xF1 SHL DUP2 MSTORE POP SWAP1 PUSH2 0xBC3 JUMPI PUSH1 0x40 MLOAD PUSH3 0x461BCD PUSH1 0xE5 SHL DUP2 MSTORE PUSH1 0x4 ADD PUSH2 0x441 SWAP2 SWAP1 PUSH2 0x1B86 JUMP JUMPDEST POP PUSH2 0xBEC DUP2 PUSH1 0x40 MLOAD PUSH1 0x20 ADD PUSH2 0xBD8 SWAP2 SWAP1 PUSH2 0x1ED5 JUMP JUMPDEST PUSH1 0x40 MLOAD PUSH1 0x20 DUP2 DUP4 SUB SUB DUP2 MSTORE SWAP1 PUSH1 0x40 MSTORE PUSH2 0x1445 JUMP JUMPDEST PUSH1 0xF SLOAD PUSH1 0x40 MLOAD CALLER SWAP2 ORIGIN SWAP2 PUSH32 0x88E619A5DCE560314FDD4895B08C256978617047A99FFC847D45400DF1F377A7 SWAP2 PUSH2 0x5DE SWAP2 DUP7 SWAP2 SWAP1 PUSH2 0x1EE3 JUMP JUMPDEST PUSH1 0x40 DUP1 MLOAD DUP1 DUP3 ADD SWAP1 SWAP2 MSTORE PUSH1 0x0 DUP1 DUP3 MSTORE PUSH1 0x20 DUP3 ADD MSTORE PUSH1 0xE DUP1 SLOAD PUSH2 0xC45 SWAP1 PUSH2 0x1C65 JUMP JUMPDEST ISZERO ISZERO SWAP1 POP PUSH2 0xC65 JUMPI POP PUSH1 0x40 DUP1 MLOAD DUP1 DUP3 ADD SWAP1 SWAP2 MSTORE PUSH1 0x0 DUP1 DUP3 MSTORE PUSH1 0x20 DUP3 ADD MSTORE SWAP1 JUMP JUMPDEST PUSH1 0xE DUP1 SLOAD PUSH2 0xC72 SWAP1 PUSH2 0x1C65 JUMP JUMPDEST DUP1 PUSH1 0x1F ADD PUSH1 0x20 DUP1 SWAP2 DIV MUL PUSH1 0x20 ADD PUSH1 0x40 MLOAD SWAP1 DUP2 ADD PUSH1 0x40 MSTORE DUP1 SWAP3 SWAP2 SWAP1 DUP2 DUP2 MSTORE PUSH1 0x20 ADD DUP3 DUP1 SLOAD PUSH2 0xC9E SWAP1 PUSH2 0x1C65 JUMP JUMPDEST DUP1 ISZERO PUSH2 0xCEB JUMPI DUP1 PUSH1 0x1F LT PUSH2 0xCC0 JUMPI PUSH2 0x100 DUP1 DUP4 SLOAD DIV MUL DUP4 MSTORE SWAP2 PUSH1 0x20 ADD SWAP2 PUSH2 0xCEB JUMP JUMPDEST DUP3 ADD SWAP2 SWAP1 PUSH1 0x0 MSTORE PUSH1 0x20 PUSH1 0x0 KECCAK256 SWAP1 JUMPDEST DUP2 SLOAD DUP2 MSTORE SWAP1 PUSH1 0x1 ADD SWAP1 PUSH1 0x20 ADD DUP1 DUP4 GT PUSH2 0xCCE JUMPI DUP3 SWAP1 SUB PUSH1 0x1F AND DUP3 ADD SWAP2 JUMPDEST POP POP POP POP POP DUP1 PUSH1 0x20 ADD SWAP1 MLOAD DUP2 ADD SWAP1 PUSH2 0x3F2 SWAP2 SWAP1 PUSH2 0x1E24 JUMP JUMPDEST PUSH1 0x40 DUP1 MLOAD DUP1 DUP3 ADD SWAP1 SWAP2 MSTORE PUSH1 0x0 DUP1 DUP3 MSTORE PUSH1 0x20 DUP3 ADD MSTORE PUSH1 0xD DUP1 SLOAD PUSH2 0xC72 SWAP1 PUSH2 0x1C65 JUMP JUMPDEST PUSH2 0xD2C PUSH2 0xE7F JUMP JUMPDEST PUSH1 0x6 SLOAD PUSH1 0x40 DUP1 MLOAD DUP1 DUP3 ADD SWAP1 SWAP2 MSTORE PUSH1 0x4 DUP2 MSTORE PUSH4 0x13955313 PUSH1 0xE2 SHL PUSH1 0x20 DUP3 ADD MSTORE SWAP1 PUSH2 0xD68 JUMPI PUSH1 0x40 MLOAD PUSH3 0x461BCD PUSH1 0xE5 SHL DUP2 MSTORE PUSH1 0x4 ADD PUSH2 0x441 SWAP2 SWAP1 PUSH2 0x1B86 JUMP JUMPDEST POP PUSH1 0x6 SLOAD TIMESTAMP LT ISZERO PUSH1 0x40 MLOAD DUP1 PUSH1 0x40 ADD PUSH1 0x40 MSTORE DUP1 PUSH1 0x2 DUP2 MSTORE PUSH1 0x20 ADD PUSH2 0x5453 PUSH1 0xF0 SHL DUP2 MSTORE POP SWAP1 PUSH2 0xDA8 JUMPI PUSH1 0x40 MLOAD PUSH3 0x461BCD PUSH1 0xE5 SHL DUP2 MSTORE PUSH1 0x4 ADD PUSH2 0x441 SWAP2 SWAP1 PUSH2 0x1B86 JUMP JUMPDEST POP PUSH1 0x3 DUP1 SLOAD PUSH1 0x0 DUP1 SLOAD PUSH1 0x1 PUSH1 0x1 PUSH1 0xA0 SHL SUB DUP1 DUP5 AND PUSH1 0x1 PUSH1 0x1 PUSH1 0xA0 SHL SUB NOT SWAP3 DUP4 AND DUP2 OR DUP5 SSTORE PUSH1 0x4 DUP1 SLOAD PUSH1 0x1 DUP1 SLOAD DUP3 DUP7 AND SWAP1 DUP8 AND DUP2 OR SWAP1 SWAP2 SSTORE PUSH1 0x5 DUP1 SLOAD PUSH1 0x2 DUP1 SLOAD SWAP8 DUP3 AND SWAP8 DUP10 AND DUP9 OR SWAP1 SSTORE PUSH1 0x6 SWAP9 SWAP1 SWAP9 SSTORE SWAP8 DUP7 AND SWAP1 SWAP9 SSTORE DUP5 AND SWAP1 SSTORE SWAP3 SWAP1 SWAP2 AND SWAP1 SWAP3 SSTORE PUSH1 0x40 DUP1 MLOAD SWAP2 DUP3 MSTORE PUSH1 0x20 DUP3 ADD SWAP4 SWAP1 SWAP4 MSTORE SWAP2 DUP3 ADD MSTORE CALLER SWAP1 ORIGIN SWAP1 PUSH32 0xEF3E4BC9725FA684957D7DE03C6DCD01078EE86CF78CEEF25C5F8346DF69CC99 SWAP1 PUSH1 0x60 ADD PUSH2 0xAFC JUMP JUMPDEST PUSH1 0x0 PUSH4 0x1FFC9A7 PUSH1 0xE0 SHL PUSH1 0x1 PUSH1 0x1 PUSH1 0xE0 SHL SUB NOT DUP4 AND EQ DUP1 PUSH2 0x3EC JUMPI POP PUSH1 0x1 PUSH1 0x1 PUSH1 0xE0 SHL SUB NOT DUP3 AND PUSH4 0xEFFDA0F5 PUSH1 0xE0 SHL EQ SWAP3 SWAP2 POP POP JUMP JUMPDEST PUSH1 0x0 SLOAD PUSH1 0x40 MLOAD PUSH4 0x935E01B PUSH1 0xE2 SHL DUP2 MSTORE CALLER PUSH1 0x4 DUP3 ADD MSTORE PUSH1 0x1 PUSH1 0x1 PUSH1 0xA0 SHL SUB SWAP1 SWAP2 AND SWAP1 PUSH4 0x24D7806C SWAP1 PUSH1 0x24 ADD PUSH1 0x20 PUSH1 0x40 MLOAD DUP1 DUP4 SUB DUP2 DUP7 DUP1 EXTCODESIZE ISZERO DUP1 ISZERO PUSH2 0xEC2 JUMPI PUSH1 0x0 DUP1 REVERT JUMPDEST POP GAS STATICCALL ISZERO DUP1 ISZERO PUSH2 0xED6 JUMPI RETURNDATASIZE PUSH1 0x0 DUP1 RETURNDATACOPY RETURNDATASIZE PUSH1 0x0 REVERT JUMPDEST POP POP POP POP PUSH1 0x40 MLOAD RETURNDATASIZE PUSH1 0x1F NOT PUSH1 0x1F DUP3 ADD AND DUP3 ADD DUP1 PUSH1 0x40 MSTORE POP DUP2 ADD SWAP1 PUSH2 0xEFA SWAP2 SWAP1 PUSH2 0x1EFE JUMP JUMPDEST PUSH1 0x40 MLOAD DUP1 PUSH1 0x40 ADD PUSH1 0x40 MSTORE DUP1 PUSH1 0x3 DUP2 MSTORE PUSH1 0x20 ADD PUSH3 0x232921 PUSH1 0xE9 SHL DUP2 MSTORE POP SWAP1 PUSH2 0xF34 JUMPI PUSH1 0x40 MLOAD PUSH3 0x461BCD PUSH1 0xE5 SHL DUP2 MSTORE PUSH1 0x4 ADD PUSH2 0x441 SWAP2 SWAP1 PUSH2 0x1B86 JUMP JUMPDEST POP JUMP JUMPDEST PUSH2 0xF40 DUP2 PUSH2 0x1520 JUMP JUMPDEST PUSH1 0x0 DUP2 DUP2 MSTORE PUSH1 0x9 PUSH1 0x20 SWAP1 DUP2 MSTORE PUSH1 0x40 SWAP2 DUP3 SWAP1 KECCAK256 SLOAD DUP3 MLOAD DUP1 DUP5 ADD SWAP1 SWAP4 MSTORE PUSH1 0x4 DUP4 MSTORE PUSH4 0x13955313 PUSH1 0xE2 SHL SWAP2 DUP4 ADD SWAP2 SWAP1 SWAP2 MSTORE SWAP1 DUP2 PUSH2 0xF8D JUMPI PUSH1 0x40 MLOAD PUSH3 0x461BCD PUSH1 0xE5 SHL DUP2 MSTORE PUSH1 0x4 ADD PUSH2 0x441 SWAP2 SWAP1 PUSH2 0x1B86 JUMP JUMPDEST POP DUP1 TIMESTAMP LT ISZERO PUSH1 0x40 MLOAD DUP1 PUSH1 0x40 ADD PUSH1 0x40 MSTORE DUP1 PUSH1 0x2 DUP2 MSTORE PUSH1 0x20 ADD PUSH2 0x5453 PUSH1 0xF0 SHL DUP2 MSTORE POP SWAP1 PUSH2 0xFCB JUMPI PUSH1 0x40 MLOAD PUSH3 0x461BCD PUSH1 0xE5 SHL DUP2 MSTORE PUSH1 0x4 ADD PUSH2 0x441 SWAP2 SWAP1 PUSH2 0x1B86 JUMP JUMPDEST POP PUSH1 0x0 DUP3 DUP2 MSTORE PUSH1 0x8 PUSH1 0x20 SWAP1 DUP2 MSTORE PUSH1 0x40 DUP1 DUP4 KECCAK256 PUSH1 0x7 SWAP1 SWAP3 MSTORE SWAP1 SWAP2 KECCAK256 DUP2 SLOAD SWAP1 SWAP2 SWAP1 PUSH2 0xFF3 SWAP1 PUSH2 0x1C65 JUMP JUMPDEST PUSH2 0xFFE SWAP3 SWAP2 SWAP1 PUSH2 0x1793 JUMP JUMPDEST POP PUSH1 0x0 DUP3 DUP2 MSTORE PUSH1 0x8 PUSH1 0x20 MSTORE PUSH1 0x40 DUP2 KECCAK256 PUSH2 0x1016 SWAP2 PUSH2 0x181E JUMP JUMPDEST POP PUSH1 0x0 SWAP1 DUP2 MSTORE PUSH1 0x9 PUSH1 0x20 MSTORE PUSH1 0x40 DUP2 KECCAK256 SSTORE JUMP JUMPDEST PUSH2 0x1031 DUP3 PUSH2 0x1520 JUMP JUMPDEST PUSH1 0x0 DUP3 DUP2 MSTORE PUSH1 0x8 PUSH1 0x20 SWAP1 DUP2 MSTORE PUSH1 0x40 SWAP1 SWAP2 KECCAK256 DUP3 MLOAD PUSH2 0x1050 SWAP3 DUP5 ADD SWAP1 PUSH2 0x1858 JUMP JUMPDEST POP PUSH1 0x0 DUP3 DUP2 MSTORE PUSH1 0x7 PUSH1 0x20 MSTORE PUSH1 0x40 DUP2 KECCAK256 DUP1 SLOAD PUSH2 0x106A SWAP1 PUSH2 0x1C65 JUMP JUMPDEST ISZERO SWAP1 POP PUSH2 0x1078 JUMPI PUSH1 0x1 PUSH2 0x107B JUMP JUMPDEST PUSH1 0x0 JUMPDEST PUSH1 0xFF AND SWAP1 POP DUP1 PUSH1 0x0 DUP1 ADD PUSH1 0x0 SWAP1 SLOAD SWAP1 PUSH2 0x100 EXP SWAP1 DIV PUSH1 0x1 PUSH1 0x1 PUSH1 0xA0 SHL SUB AND PUSH1 0x1 PUSH1 0x1 PUSH1 0xA0 SHL SUB AND PUSH4 0xBBA32939 PUSH1 0x40 MLOAD DUP2 PUSH4 0xFFFFFFFF AND PUSH1 0xE0 SHL DUP2 MSTORE PUSH1 0x4 ADD PUSH1 0x20 PUSH1 0x40 MLOAD DUP1 DUP4 SUB DUP2 DUP7 DUP1 EXTCODESIZE ISZERO DUP1 ISZERO PUSH2 0x10D1 JUMPI PUSH1 0x0 DUP1 REVERT JUMPDEST POP GAS STATICCALL ISZERO DUP1 ISZERO PUSH2 0x10E5 JUMPI RETURNDATASIZE PUSH1 0x0 DUP1 RETURNDATACOPY RETURNDATASIZE PUSH1 0x0 REVERT JUMPDEST POP POP POP POP PUSH1 0x40 MLOAD RETURNDATASIZE PUSH1 0x1F NOT PUSH1 0x1F DUP3 ADD AND DUP3 ADD DUP1 PUSH1 0x40 MSTORE POP DUP2 ADD SWAP1 PUSH2 0x1109 SWAP2 SWAP1 PUSH2 0x1BE1 JUMP JUMPDEST PUSH2 0x1113 SWAP2 SWAP1 PUSH2 0x1F20 JUMP JUMPDEST PUSH2 0x111D SWAP1 TIMESTAMP PUSH2 0x1C10 JUMP JUMPDEST PUSH1 0x0 SWAP4 DUP5 MSTORE PUSH1 0x9 PUSH1 0x20 MSTORE PUSH1 0x40 SWAP1 SWAP4 KECCAK256 SWAP3 SWAP1 SWAP3 SSTORE POP POP JUMP JUMPDEST PUSH1 0x0 DUP1 SLOAD PUSH1 0x40 MLOAD PUSH4 0x63E85D2D PUSH1 0xE0 SHL DUP2 MSTORE CALLER PUSH1 0x4 DUP3 ADD MSTORE PUSH1 0x1 PUSH1 0x24 DUP3 ADD MSTORE DUP3 SWAP2 PUSH1 0x1 PUSH1 0x1 PUSH1 0xA0 SHL SUB AND SWAP1 DUP2 SWAP1 PUSH4 0x63E85D2D SWAP1 PUSH1 0x44 ADD PUSH1 0x20 PUSH1 0x40 MLOAD DUP1 DUP4 SUB DUP2 DUP7 DUP1 EXTCODESIZE ISZERO DUP1 ISZERO PUSH2 0x1181 JUMPI PUSH1 0x0 DUP1 REVERT JUMPDEST POP GAS STATICCALL ISZERO DUP1 ISZERO PUSH2 0x1195 JUMPI RETURNDATASIZE PUSH1 0x0 DUP1 RETURNDATACOPY RETURNDATASIZE PUSH1 0x0 REVERT JUMPDEST POP POP POP POP PUSH1 0x40 MLOAD RETURNDATASIZE PUSH1 0x1F NOT PUSH1 0x1F DUP3 ADD AND DUP3 ADD DUP1 PUSH1 0x40 MSTORE POP DUP2 ADD SWAP1 PUSH2 0x11B9 SWAP2 SWAP1 PUSH2 0x1EFE JUMP JUMPDEST PUSH1 0x40 MLOAD DUP1 PUSH1 0x40 ADD PUSH1 0x40 MSTORE DUP1 PUSH1 0x3 DUP2 MSTORE PUSH1 0x20 ADD PUSH3 0x232921 PUSH1 0xE9 SHL DUP2 MSTORE POP SWAP1 PUSH2 0x11F3 JUMPI PUSH1 0x40 MLOAD PUSH3 0x461BCD PUSH1 0xE5 SHL DUP2 MSTORE PUSH1 0x4 ADD PUSH2 0x441 SWAP2 SWAP1 PUSH2 0x1B86 JUMP JUMPDEST POP PUSH1 0x1 SLOAD PUSH1 0x40 DUP1 MLOAD PUSH4 0x1112EEE7 PUSH1 0xE3 SHL DUP2 MSTORE SWAP1 MLOAD PUSH1 0x1 PUSH1 0x1 PUSH1 0xA0 SHL SUB SWAP1 SWAP3 AND SWAP2 DUP3 SWAP2 PUSH4 0x88977738 SWAP2 PUSH1 0x4 DUP1 DUP4 ADD SWAP3 PUSH1 0x20 SWAP3 SWAP2 SWAP1 DUP3 SWAP1 SUB ADD DUP2 DUP7 DUP1 EXTCODESIZE ISZERO DUP1 ISZERO PUSH2 0x123A JUMPI PUSH1 0x0 DUP1 REVERT JUMPDEST POP GAS STATICCALL ISZERO DUP1 ISZERO PUSH2 0x124E JUMPI RETURNDATASIZE PUSH1 0x0 DUP1 RETURNDATACOPY RETURNDATASIZE PUSH1 0x0 REVERT JUMPDEST POP POP POP POP PUSH1 0x40 MLOAD RETURNDATASIZE PUSH1 0x1F NOT PUSH1 0x1F DUP3 ADD AND DUP3 ADD DUP1 PUSH1 0x40 MSTORE POP DUP2 ADD SWAP1 PUSH2 0x1272 SWAP2 SWAP1 PUSH2 0x1BE1 JUMP JUMPDEST PUSH2 0x127D SWAP1 PUSH1 0x1 PUSH2 0x1C10 JUMP JUMPDEST PUSH1 0x2 SLOAD SWAP1 SWAP4 POP PUSH2 0x1296 SWAP1 PUSH1 0x1 PUSH1 0x1 PUSH1 0xA0 SHL SUB AND DUP5 PUSH2 0x16F3 JUMP JUMPDEST PUSH1 0x40 MLOAD PUSH4 0x5C4FDF9 PUSH1 0xE0 SHL DUP2 MSTORE PUSH1 0x1 PUSH1 0x1 PUSH1 0xA0 SHL SUB DUP1 DUP4 AND PUSH1 0x4 DUP4 ADD MSTORE DUP8 DUP2 AND PUSH1 0x24 DUP4 ADD MSTORE SWAP2 SWAP6 POP SWAP1 DUP3 AND SWAP1 PUSH4 0x5C4FDF9 SWAP1 PUSH1 0x44 ADD PUSH1 0x20 PUSH1 0x40 MLOAD DUP1 DUP4 SUB DUP2 PUSH1 0x0 DUP8 DUP1 EXTCODESIZE ISZERO DUP1 ISZERO PUSH2 0x12E5 JUMPI PUSH1 0x0 DUP1 REVERT JUMPDEST POP GAS CALL ISZERO DUP1 ISZERO PUSH2 0x12F9 JUMPI RETURNDATASIZE PUSH1 0x0 DUP1 RETURNDATACOPY RETURNDATASIZE PUSH1 0x0 REVERT JUMPDEST POP POP POP POP PUSH1 0x40 MLOAD RETURNDATASIZE PUSH1 0x1F NOT PUSH1 0x1F DUP3 ADD AND DUP3 ADD DUP1 PUSH1 0x40 MSTORE POP DUP2 ADD SWAP1 PUSH2 0x131D SWAP2 SWAP1 PUSH2 0x1BE1 JUMP JUMPDEST POP POP POP SWAP2 POP SWAP2 JUMP JUMPDEST PUSH1 0x40 DUP1 MLOAD PUSH1 0x20 DUP1 DUP3 MSTORE DUP2 DUP4 ADD SWAP1 SWAP3 MSTORE PUSH1 0x60 SWAP2 PUSH1 0x20 DUP3 ADD DUP2 DUP1 CALLDATASIZE DUP4 CALLDATACOPY ADD SWAP1 POP POP SWAP1 POP PUSH1 0x20 PUSH1 0x0 JUMPDEST PUSH1 0x20 DUP2 LT ISZERO PUSH2 0x1383 JUMPI DUP4 DUP2 PUSH1 0x20 DUP2 LT PUSH2 0x1366 JUMPI PUSH2 0x1366 PUSH2 0x1F3F JUMP JUMPDEST BYTE PUSH2 0x1373 JUMPI DUP1 SWAP2 POP PUSH2 0x1383 JUMP JUMPDEST PUSH2 0x137C DUP2 PUSH2 0x1F55 JUMP JUMPDEST SWAP1 POP PUSH2 0x134B JUMP JUMPDEST POP DUP2 MSTORE PUSH1 0x20 DUP2 ADD SWAP2 SWAP1 SWAP2 MSTORE SWAP1 JUMP JUMPDEST PUSH2 0x1399 PUSH2 0xE7F JUMP JUMPDEST PUSH1 0xF SLOAD PUSH1 0x40 DUP1 MLOAD DUP1 DUP3 ADD SWAP1 SWAP2 MSTORE PUSH1 0x4 DUP2 MSTORE PUSH4 0x13955313 PUSH1 0xE2 SHL PUSH1 0x20 DUP3 ADD MSTORE SWAP1 PUSH2 0x13D5 JUMPI PUSH1 0x40 MLOAD PUSH3 0x461BCD PUSH1 0xE5 SHL DUP2 MSTORE PUSH1 0x4 ADD PUSH2 0x441 SWAP2 SWAP1 PUSH2 0x1B86 JUMP JUMPDEST POP PUSH1 0xF SLOAD TIMESTAMP LT ISZERO PUSH1 0x40 MLOAD DUP1 PUSH1 0x40 ADD PUSH1 0x40 MSTORE DUP1 PUSH1 0x2 DUP2 MSTORE PUSH1 0x20 ADD PUSH2 0x5453 PUSH1 0xF0 SHL DUP2 MSTORE POP SWAP1 PUSH2 0x1415 JUMPI PUSH1 0x40 MLOAD PUSH3 0x461BCD PUSH1 0xE5 SHL DUP2 MSTORE PUSH1 0x4 ADD PUSH2 0x441 SWAP2 SWAP1 PUSH2 0x1B86 JUMP JUMPDEST POP PUSH1 0xE PUSH1 0xD SWAP1 DUP1 SLOAD PUSH2 0x1426 SWAP1 PUSH2 0x1C65 JUMP JUMPDEST PUSH2 0x1431 SWAP3 SWAP2 SWAP1 PUSH2 0x1793 JUMP JUMPDEST POP PUSH2 0x143E PUSH1 0xE PUSH1 0x0 PUSH2 0x181E JUMP JUMPDEST PUSH1 0x0 PUSH1 0xF SSTORE JUMP JUMPDEST PUSH2 0x144D PUSH2 0xE7F JUMP JUMPDEST PUSH1 0x0 PUSH1 0xD DUP1 SLOAD PUSH2 0x145C SWAP1 PUSH2 0x1C65 JUMP JUMPDEST ISZERO SWAP1 POP PUSH2 0x146A JUMPI PUSH1 0x1 PUSH2 0x146D JUMP JUMPDEST PUSH1 0x0 JUMPDEST PUSH1 0xFF AND SWAP1 POP DUP2 PUSH1 0xE SWAP1 DUP1 MLOAD SWAP1 PUSH1 0x20 ADD SWAP1 PUSH2 0x1488 SWAP3 SWAP2 SWAP1 PUSH2 0x1858 JUMP JUMPDEST POP PUSH1 0x0 SLOAD PUSH1 0x40 DUP1 MLOAD PUSH4 0xBBA32939 PUSH1 0xE0 SHL DUP2 MSTORE SWAP1 MLOAD DUP4 SWAP3 PUSH1 0x1 PUSH1 0x1 PUSH1 0xA0 SHL SUB AND SWAP2 PUSH4 0xBBA32939 SWAP2 PUSH1 0x4 DUP1 DUP4 ADD SWAP3 PUSH1 0x20 SWAP3 SWAP2 SWAP1 DUP3 SWAP1 SUB ADD DUP2 DUP7 DUP1 EXTCODESIZE ISZERO DUP1 ISZERO PUSH2 0x14CD JUMPI PUSH1 0x0 DUP1 REVERT JUMPDEST POP GAS STATICCALL ISZERO DUP1 ISZERO PUSH2 0x14E1 JUMPI RETURNDATASIZE PUSH1 0x0 DUP1 RETURNDATACOPY RETURNDATASIZE PUSH1 0x0 REVERT JUMPDEST POP POP POP POP PUSH1 0x40 MLOAD RETURNDATASIZE PUSH1 0x1F NOT PUSH1 0x1F DUP3 ADD AND DUP3 ADD DUP1 PUSH1 0x40 MSTORE POP DUP2 ADD SWAP1 PUSH2 0x1505 SWAP2 SWAP1 PUSH2 0x1BE1 JUMP JUMPDEST PUSH2 0x150F SWAP2 SWAP1 PUSH2 0x1F20 JUMP JUMPDEST PUSH2 0x1519 SWAP1 TIMESTAMP PUSH2 0x1C10 JUMP JUMPDEST PUSH1 0xF SSTORE POP POP JUMP JUMPDEST PUSH1 0x0 SLOAD PUSH1 0x40 MLOAD PUSH4 0x935E01B PUSH1 0xE2 SHL DUP2 MSTORE CALLER PUSH1 0x4 DUP3 ADD MSTORE PUSH1 0x1 PUSH1 0x1 PUSH1 0xA0 SHL SUB SWAP1 SWAP2 AND SWAP1 PUSH4 0x24D7806C SWAP1 PUSH1 0x24 ADD PUSH1 0x20 PUSH1 0x40 MLOAD DUP1 DUP4 SUB DUP2 DUP7 DUP1 EXTCODESIZE ISZERO DUP1 ISZERO PUSH2 0x1563 JUMPI PUSH1 0x0 DUP1 REVERT JUMPDEST POP GAS STATICCALL ISZERO DUP1 ISZERO PUSH2 0x1577 JUMPI RETURNDATASIZE PUSH1 0x0 DUP1 RETURNDATACOPY RETURNDATASIZE PUSH1 0x0 REVERT JUMPDEST POP POP POP POP PUSH1 0x40 MLOAD RETURNDATASIZE PUSH1 0x1F NOT PUSH1 0x1F DUP3 ADD AND DUP3 ADD DUP1 PUSH1 0x40 MSTORE POP DUP2 ADD SWAP1 PUSH2 0x159B SWAP2 SWAP1 PUSH2 0x1EFE JUMP JUMPDEST DUP1 PUSH2 0x1628 JUMPI POP PUSH1 0x1 SLOAD PUSH1 0x40 MLOAD PUSH4 0x20604BF PUSH1 0xE2 SHL DUP2 MSTORE PUSH1 0x4 DUP2 ADD DUP4 SWAP1 MSTORE CALLER SWAP2 PUSH1 0x1 PUSH1 0x1 PUSH1 0xA0 SHL SUB AND SWAP1 PUSH4 0x81812FC SWAP1 PUSH1 0x24 ADD PUSH1 0x20 PUSH1 0x40 MLOAD DUP1 DUP4 SUB DUP2 DUP7 DUP1 EXTCODESIZE ISZERO DUP1 ISZERO PUSH2 0x15E5 JUMPI PUSH1 0x0 DUP1 REVERT JUMPDEST POP GAS STATICCALL ISZERO DUP1 ISZERO PUSH2 0x15F9 JUMPI RETURNDATASIZE PUSH1 0x0 DUP1 RETURNDATACOPY RETURNDATASIZE PUSH1 0x0 REVERT JUMPDEST POP POP POP POP PUSH1 0x40 MLOAD RETURNDATASIZE PUSH1 0x1F NOT PUSH1 0x1F DUP3 ADD AND DUP3 ADD DUP1 PUSH1 0x40 MSTORE POP DUP2 ADD SWAP1 PUSH2 0x161D SWAP2 SWAP1 PUSH2 0x1F70 JUMP JUMPDEST PUSH1 0x1 PUSH1 0x1 PUSH1 0xA0 SHL SUB AND EQ JUMPDEST DUP1 PUSH2 0x16B5 JUMPI POP PUSH1 0x1 SLOAD PUSH1 0x40 MLOAD PUSH4 0x31A9108F PUSH1 0xE1 SHL DUP2 MSTORE PUSH1 0x4 DUP2 ADD DUP4 SWAP1 MSTORE CALLER SWAP2 PUSH1 0x1 PUSH1 0x1 PUSH1 0xA0 SHL SUB AND SWAP1 PUSH4 0x6352211E SWAP1 PUSH1 0x24 ADD PUSH1 0x20 PUSH1 0x40 MLOAD DUP1 DUP4 SUB DUP2 DUP7 DUP1 EXTCODESIZE ISZERO DUP1 ISZERO PUSH2 0x1672 JUMPI PUSH1 0x0 DUP1 REVERT JUMPDEST POP GAS STATICCALL ISZERO DUP1 ISZERO PUSH2 0x1686 JUMPI RETURNDATASIZE PUSH1 0x0 DUP1 RETURNDATACOPY RETURNDATASIZE PUSH1 0x0 REVERT JUMPDEST POP POP POP POP PUSH1 0x40 MLOAD RETURNDATASIZE PUSH1 0x1F NOT PUSH1 0x1F DUP3 ADD AND DUP3 ADD DUP1 PUSH1 0x40 MSTORE POP DUP2 ADD SWAP1 PUSH2 0x16AA SWAP2 SWAP1 PUSH2 0x1F70 JUMP JUMPDEST PUSH1 0x1 PUSH1 0x1 PUSH1 0xA0 SHL SUB AND EQ JUMPDEST PUSH1 0x40 MLOAD DUP1 PUSH1 0x40 ADD PUSH1 0x40 MSTORE DUP1 PUSH1 0x3 DUP2 MSTORE PUSH1 0x20 ADD PUSH3 0x232921 PUSH1 0xE9 SHL DUP2 MSTORE POP SWAP1 PUSH2 0x16EF JUMPI PUSH1 0x40 MLOAD PUSH3 0x461BCD PUSH1 0xE5 SHL DUP2 MSTORE PUSH1 0x4 ADD PUSH2 0x441 SWAP2 SWAP1 PUSH2 0x1B86 JUMP JUMPDEST POP POP JUMP JUMPDEST PUSH1 0x0 PUSH1 0x40 MLOAD PUSH20 0x3D602D80600A3D3981F3363D3D373D3D3D363D73 PUSH1 0x60 SHL DUP2 MSTORE DUP4 PUSH1 0x60 SHL PUSH1 0x14 DUP3 ADD MSTORE PUSH15 0x5AF43D82803E903D91602B57FD5BF3 PUSH1 0x88 SHL PUSH1 0x28 DUP3 ADD MSTORE DUP3 PUSH1 0x37 DUP3 PUSH1 0x0 CREATE2 SWAP2 POP POP PUSH1 0x1 PUSH1 0x1 PUSH1 0xA0 SHL SUB DUP2 AND PUSH2 0x3EC JUMPI PUSH1 0x40 MLOAD PUSH3 0x461BCD PUSH1 0xE5 SHL DUP2 MSTORE PUSH1 0x20 PUSH1 0x4 DUP3 ADD MSTORE PUSH1 0x17 PUSH1 0x24 DUP3 ADD MSTORE PUSH32 0x455243313136373A2063726561746532206661696C6564000000000000000000 PUSH1 0x44 DUP3 ADD MSTORE PUSH1 0x64 ADD PUSH2 0x441 JUMP JUMPDEST DUP3 DUP1 SLOAD PUSH2 0x179F SWAP1 PUSH2 0x1C65 JUMP JUMPDEST SWAP1 PUSH1 0x0 MSTORE PUSH1 0x20 PUSH1 0x0 KECCAK256 SWAP1 PUSH1 0x1F ADD PUSH1 0x20 SWAP1 DIV DUP2 ADD SWAP3 DUP3 PUSH2 0x17C1 JUMPI PUSH1 0x0 DUP6 SSTORE PUSH2 0x180E JUMP JUMPDEST DUP3 PUSH1 0x1F LT PUSH2 0x17D2 JUMPI DUP1 SLOAD DUP6 SSTORE PUSH2 0x180E JUMP JUMPDEST DUP3 DUP1 ADD PUSH1 0x1 ADD DUP6 SSTORE DUP3 ISZERO PUSH2 0x180E JUMPI PUSH1 0x0 MSTORE PUSH1 0x20 PUSH1 0x0 KECCAK256 SWAP2 PUSH1 0x1F ADD PUSH1 0x20 SWAP1 DIV DUP3 ADD JUMPDEST DUP3 DUP2 GT ISZERO PUSH2 0x180E JUMPI DUP3 SLOAD DUP3 SSTORE SWAP2 PUSH1 0x1 ADD SWAP2 SWAP1 PUSH1 0x1 ADD SWAP1 PUSH2 0x17F3 JUMP JUMPDEST POP PUSH2 0x181A SWAP3 SWAP2 POP PUSH2 0x18CC JUMP JUMPDEST POP SWAP1 JUMP JUMPDEST POP DUP1 SLOAD PUSH2 0x182A SWAP1 PUSH2 0x1C65 JUMP JUMPDEST PUSH1 0x0 DUP3 SSTORE DUP1 PUSH1 0x1F LT PUSH2 0x183A JUMPI POP POP JUMP JUMPDEST PUSH1 0x1F ADD PUSH1 0x20 SWAP1 DIV SWAP1 PUSH1 0x0 MSTORE PUSH1 0x20 PUSH1 0x0 KECCAK256 SWAP1 DUP2 ADD SWAP1 PUSH2 0xF34 SWAP2 SWAP1 PUSH2 0x18CC JUMP JUMPDEST DUP3 DUP1 SLOAD PUSH2 0x1864 SWAP1 PUSH2 0x1C65 JUMP JUMPDEST SWAP1 PUSH1 0x0 MSTORE PUSH1 0x20 PUSH1 0x0 KECCAK256 SWAP1 PUSH1 0x1F ADD PUSH1 0x20 SWAP1 DIV DUP2 ADD SWAP3 DUP3 PUSH2 0x1886 JUMPI PUSH1 0x0 DUP6 SSTORE PUSH2 0x180E JUMP JUMPDEST DUP3 PUSH1 0x1F LT PUSH2 0x189F JUMPI DUP1 MLOAD PUSH1 0xFF NOT AND DUP4 DUP1 ADD OR DUP6 SSTORE PUSH2 0x180E JUMP JUMPDEST DUP3 DUP1 ADD PUSH1 0x1 ADD DUP6 SSTORE DUP3 ISZERO PUSH2 0x180E JUMPI SWAP2 DUP3 ADD JUMPDEST DUP3 DUP2 GT ISZERO PUSH2 0x180E JUMPI DUP3 MLOAD DUP3 SSTORE SWAP2 PUSH1 0x20 ADD SWAP2 SWAP1 PUSH1 0x1 ADD SWAP1 PUSH2 0x18B1 JUMP JUMPDEST JUMPDEST DUP1 DUP3 GT ISZERO PUSH2 0x181A JUMPI PUSH1 0x0 DUP2 SSTORE PUSH1 0x1 ADD PUSH2 0x18CD JUMP JUMPDEST PUSH1 0x0 PUSH1 0x20 DUP3 DUP5 SUB SLT ISZERO PUSH2 0x18F3 JUMPI PUSH1 0x0 DUP1 REVERT JUMPDEST DUP2 CALLDATALOAD PUSH1 0x1 PUSH1 0x1 PUSH1 0xE0 SHL SUB NOT DUP2 AND DUP2 EQ PUSH2 0x190B JUMPI PUSH1 0x0 DUP1 REVERT JUMPDEST SWAP4 SWAP3 POP POP POP JUMP JUMPDEST PUSH4 0x4E487B71 PUSH1 0xE0 SHL PUSH1 0x0 MSTORE PUSH1 0x41 PUSH1 0x4 MSTORE PUSH1 0x24 PUSH1 0x0 REVERT JUMPDEST PUSH1 0x40 MLOAD PUSH1 0x1F DUP3 ADD PUSH1 0x1F NOT AND DUP2 ADD PUSH8 0xFFFFFFFFFFFFFFFF DUP2 GT DUP3 DUP3 LT OR ISZERO PUSH2 0x1951 JUMPI PUSH2 0x1951 PUSH2 0x1912 JUMP JUMPDEST PUSH1 0x40 MSTORE SWAP2 SWAP1 POP JUMP JUMPDEST PUSH1 0x1 PUSH1 0x1 PUSH1 0xA0 SHL SUB DUP2 AND DUP2 EQ PUSH2 0xF34 JUMPI PUSH1 0x0 DUP1 REVERT JUMPDEST PUSH1 0x0 PUSH1 0x60 DUP3 DUP5 SUB SLT ISZERO PUSH2 0x1980 JUMPI PUSH1 0x0 DUP1 REVERT JUMPDEST PUSH1 0x40 MLOAD PUSH1 0x60 DUP2 ADD DUP2 DUP2 LT PUSH8 0xFFFFFFFFFFFFFFFF DUP3 GT OR ISZERO PUSH2 0x19A3 JUMPI PUSH2 0x19A3 PUSH2 0x1912 JUMP JUMPDEST PUSH1 0x40 MSTORE DUP3 CALLDATALOAD PUSH2 0x19B1 DUP2 PUSH2 0x1959 JUMP JUMPDEST DUP2 MSTORE PUSH1 0x20 DUP4 ADD CALLDATALOAD PUSH2 0x19C1 DUP2 PUSH2 0x1959 JUMP JUMPDEST PUSH1 0x20 DUP3 ADD MSTORE PUSH1 0x40 DUP4 ADD CALLDATALOAD PUSH2 0x19D4 DUP2 PUSH2 0x1959 JUMP JUMPDEST PUSH1 0x40 DUP3 ADD MSTORE SWAP4 SWAP3 POP POP POP JUMP JUMPDEST PUSH1 0x0 PUSH1 0x20 DUP3 DUP5 SUB SLT ISZERO PUSH2 0x19F2 JUMPI PUSH1 0x0 DUP1 REVERT JUMPDEST POP CALLDATALOAD SWAP2 SWAP1 POP JUMP JUMPDEST PUSH1 0x0 DUP1 DUP3 DUP5 SUB PUSH1 0x40 DUP2 SLT ISZERO PUSH2 0x1A0D JUMPI PUSH1 0x0 DUP1 REVERT JUMPDEST DUP4 CALLDATALOAD SWAP3 POP PUSH1 0x20 PUSH1 0x1F NOT DUP3 ADD SLT ISZERO PUSH2 0x1A23 JUMPI PUSH1 0x0 DUP1 REVERT JUMPDEST POP PUSH1 0x20 DUP4 ADD SWAP1 POP SWAP3 POP SWAP3 SWAP1 POP JUMP JUMPDEST DUP1 CALLDATALOAD PUSH2 0x1A3C DUP2 PUSH2 0x1959 JUMP JUMPDEST SWAP2 SWAP1 POP JUMP JUMPDEST DUP1 CALLDATALOAD PUSH3 0xFFFFFF DUP2 AND DUP2 EQ PUSH2 0x1A3C JUMPI PUSH1 0x0 DUP1 REVERT JUMPDEST PUSH1 0x0 DUP1 PUSH1 0x0 DUP1 PUSH1 0x80 DUP6 DUP8 SUB SLT ISZERO PUSH2 0x1A6A JUMPI PUSH1 0x0 DUP1 REVERT JUMPDEST DUP5 CALLDATALOAD PUSH8 0xFFFFFFFFFFFFFFFF DUP1 DUP3 GT ISZERO PUSH2 0x1A82 JUMPI PUSH1 0x0 DUP1 REVERT JUMPDEST DUP2 DUP8 ADD SWAP2 POP DUP8 PUSH1 0x1F DUP4 ADD SLT PUSH2 0x1A96 JUMPI PUSH1 0x0 DUP1 REVERT JUMPDEST DUP2 CALLDATALOAD PUSH1 0x20 DUP3 DUP3 GT ISZERO PUSH2 0x1AAA JUMPI PUSH2 0x1AAA PUSH2 0x1912 JUMP JUMPDEST DUP2 PUSH1 0x5 SHL SWAP3 POP PUSH2 0x1ABB DUP2 DUP5 ADD PUSH2 0x1928 JUMP JUMPDEST DUP3 DUP2 MSTORE SWAP3 DUP5 ADD DUP2 ADD SWAP3 DUP2 DUP2 ADD SWAP1 DUP12 DUP6 GT ISZERO PUSH2 0x1AD5 JUMPI PUSH1 0x0 DUP1 REVERT JUMPDEST SWAP5 DUP3 ADD SWAP5 JUMPDEST DUP5 DUP7 LT ISZERO PUSH2 0x1AFF JUMPI DUP6 CALLDATALOAD SWAP4 POP PUSH2 0x1AEF DUP5 PUSH2 0x1959 JUMP JUMPDEST DUP4 DUP3 MSTORE SWAP5 DUP3 ADD SWAP5 SWAP1 DUP3 ADD SWAP1 PUSH2 0x1ADA JUMP JUMPDEST SWAP9 POP PUSH2 0x1B0E SWAP1 POP DUP10 DUP3 ADD PUSH2 0x1A31 JUMP JUMPDEST SWAP7 POP POP POP POP POP PUSH2 0x1B20 PUSH1 0x40 DUP7 ADD PUSH2 0x1A41 JUMP JUMPDEST SWAP2 POP PUSH2 0x1B2E PUSH1 0x60 DUP7 ADD PUSH2 0x1A31 JUMP JUMPDEST SWAP1 POP SWAP3 SWAP6 SWAP2 SWAP5 POP SWAP3 POP JUMP JUMPDEST PUSH1 0x0 DUP2 MLOAD DUP1 DUP5 MSTORE PUSH1 0x0 JUMPDEST DUP2 DUP2 LT ISZERO PUSH2 0x1B5F JUMPI PUSH1 0x20 DUP2 DUP6 ADD DUP2 ADD MLOAD DUP7 DUP4 ADD DUP3 ADD MSTORE ADD PUSH2 0x1B43 JUMP JUMPDEST DUP2 DUP2 GT ISZERO PUSH2 0x1B71 JUMPI PUSH1 0x0 PUSH1 0x20 DUP4 DUP8 ADD ADD MSTORE JUMPDEST POP PUSH1 0x1F ADD PUSH1 0x1F NOT AND SWAP3 SWAP1 SWAP3 ADD PUSH1 0x20 ADD SWAP3 SWAP2 POP POP JUMP JUMPDEST PUSH1 0x20 DUP2 MSTORE PUSH1 0x0 PUSH2 0x190B PUSH1 0x20 DUP4 ADD DUP5 PUSH2 0x1B39 JUMP JUMPDEST PUSH1 0x60 DUP2 ADD PUSH2 0x3EC DUP3 DUP5 DUP1 MLOAD PUSH1 0x1 PUSH1 0x1 PUSH1 0xA0 SHL SUB SWAP1 DUP2 AND DUP4 MSTORE PUSH1 0x20 DUP1 DUP4 ADD MLOAD DUP3 AND SWAP1 DUP5 ADD MSTORE PUSH1 0x40 SWAP2 DUP3 ADD MLOAD AND SWAP2 ADD MSTORE JUMP JUMPDEST PUSH1 0x0 PUSH1 0x40 DUP3 DUP5 SUB SLT ISZERO PUSH2 0x1BDB JUMPI PUSH1 0x0 DUP1 REVERT JUMPDEST POP SWAP2 SWAP1 POP JUMP JUMPDEST PUSH1 0x0 PUSH1 0x20 DUP3 DUP5 SUB SLT ISZERO PUSH2 0x1BF3 JUMPI PUSH1 0x0 DUP1 REVERT JUMPDEST POP MLOAD SWAP2 SWAP1 POP JUMP JUMPDEST PUSH4 0x4E487B71 PUSH1 0xE0 SHL PUSH1 0x0 MSTORE PUSH1 0x11 PUSH1 0x4 MSTORE PUSH1 0x24 PUSH1 0x0 REVERT JUMPDEST PUSH1 0x0 DUP3 NOT DUP3 GT ISZERO PUSH2 0x1C23 JUMPI PUSH2 0x1C23 PUSH2 0x1BFA JUMP JUMPDEST POP ADD SWAP1 JUMP JUMPDEST PUSH1 0x80 DUP2 ADD PUSH2 0x1C58 DUP3 DUP6 DUP1 MLOAD PUSH1 0x1 PUSH1 0x1 PUSH1 0xA0 SHL SUB SWAP1 DUP2 AND DUP4 MSTORE PUSH1 0x20 DUP1 DUP4 ADD MLOAD DUP3 AND SWAP1 DUP5 ADD MSTORE PUSH1 0x40 SWAP2 DUP3 ADD MLOAD AND SWAP2 ADD MSTORE JUMP JUMPDEST DUP3 PUSH1 0x60 DUP4 ADD MSTORE SWAP4 SWAP3 POP POP POP JUMP JUMPDEST PUSH1 0x1 DUP2 DUP2 SHR SWAP1 DUP3 AND DUP1 PUSH2 0x1C79 JUMPI PUSH1 0x7F DUP3 AND SWAP2 POP JUMPDEST PUSH1 0x20 DUP3 LT DUP2 EQ ISZERO PUSH2 0x1BDB JUMPI PUSH4 0x4E487B71 PUSH1 0xE0 SHL PUSH1 0x0 MSTORE PUSH1 0x22 PUSH1 0x4 MSTORE PUSH1 0x24 PUSH1 0x0 REVERT JUMPDEST PUSH4 0xFFFFFFFF DUP2 AND DUP2 EQ PUSH2 0xF34 JUMPI PUSH1 0x0 DUP1 REVERT JUMPDEST PUSH1 0x0 PUSH1 0x20 DUP3 DUP5 SUB SLT ISZERO PUSH2 0x1CBE JUMPI PUSH1 0x0 DUP1 REVERT JUMPDEST PUSH1 0x40 MLOAD PUSH1 0x20 DUP2 ADD DUP2 DUP2 LT PUSH8 0xFFFFFFFFFFFFFFFF DUP3 GT OR ISZERO PUSH2 0x1CE1 JUMPI PUSH2 0x1CE1 PUSH2 0x1912 JUMP JUMPDEST PUSH1 0x40 MSTORE DUP3 MLOAD PUSH2 0x1CEF DUP2 PUSH2 0x1C9A JUMP JUMPDEST DUP2 MSTORE SWAP4 SWAP3 POP POP POP JUMP JUMPDEST PUSH1 0x0 PUSH1 0x20 DUP3 DUP5 SUB SLT ISZERO PUSH2 0x1D0A JUMPI PUSH1 0x0 DUP1 REVERT JUMPDEST DUP2 CALLDATALOAD PUSH2 0x190B DUP2 PUSH2 0x1C9A JUMP JUMPDEST PUSH1 0x20 DUP2 ADD DUP3 CALLDATALOAD PUSH2 0x1D24 DUP2 PUSH2 0x1C9A JUMP JUMPDEST PUSH4 0xFFFFFFFF AND SWAP1 SWAP2 MSTORE SWAP2 SWAP1 POP JUMP JUMPDEST PUSH1 0x40 DUP2 ADD DUP4 CALLDATALOAD PUSH2 0x1D41 DUP2 PUSH2 0x1C9A JUMP JUMPDEST PUSH4 0xFFFFFFFF AND DUP3 MSTORE PUSH1 0x20 SWAP1 SWAP2 ADD SWAP2 SWAP1 SWAP2 MSTORE SWAP2 SWAP1 POP JUMP JUMPDEST PUSH1 0x0 DUP2 MLOAD DUP1 DUP5 MSTORE PUSH1 0x20 DUP1 DUP6 ADD SWAP5 POP DUP1 DUP5 ADD PUSH1 0x0 JUMPDEST DUP4 DUP2 LT ISZERO PUSH2 0x1D90 JUMPI DUP2 MLOAD PUSH1 0x1 PUSH1 0x1 PUSH1 0xA0 SHL SUB AND DUP8 MSTORE SWAP6 DUP3 ADD SWAP6 SWAP1 DUP3 ADD SWAP1 PUSH1 0x1 ADD PUSH2 0x1D6B JUMP JUMPDEST POP SWAP5 SWAP6 SWAP5 POP POP POP POP POP JUMP JUMPDEST DUP5 DUP2 MSTORE PUSH1 0x80 PUSH1 0x20 DUP3 ADD MSTORE PUSH1 0x0 PUSH2 0x1DB4 PUSH1 0x80 DUP4 ADD DUP7 PUSH2 0x1D57 JUMP JUMPDEST PUSH3 0xFFFFFF SWAP5 SWAP1 SWAP5 AND PUSH1 0x40 DUP4 ADD MSTORE POP PUSH1 0x1 PUSH1 0x1 PUSH1 0xA0 SHL SUB SWAP2 SWAP1 SWAP2 AND PUSH1 0x60 SWAP1 SWAP2 ADD MSTORE SWAP3 SWAP2 POP POP JUMP JUMPDEST PUSH1 0xA0 DUP2 MSTORE PUSH1 0x0 PUSH2 0x1DED PUSH1 0xA0 DUP4 ADD DUP9 PUSH2 0x1D57 JUMP JUMPDEST DUP3 DUP2 SUB PUSH1 0x20 DUP5 ADD MSTORE PUSH2 0x1DFF DUP2 DUP9 PUSH2 0x1B39 JUMP JUMPDEST PUSH1 0x1 PUSH1 0x1 PUSH1 0xA0 SHL SUB SWAP7 DUP8 AND PUSH1 0x40 DUP6 ADD MSTORE SWAP5 SWAP1 SWAP6 AND PUSH1 0x60 DUP4 ADD MSTORE POP PUSH1 0x80 ADD MSTORE SWAP4 SWAP3 POP POP POP JUMP JUMPDEST PUSH1 0x0 PUSH1 0x40 DUP3 DUP5 SUB SLT ISZERO PUSH2 0x1E36 JUMPI PUSH1 0x0 DUP1 REVERT JUMPDEST PUSH1 0x40 MLOAD PUSH1 0x40 DUP2 ADD DUP2 DUP2 LT PUSH8 0xFFFFFFFFFFFFFFFF DUP3 GT OR ISZERO PUSH2 0x1E59 JUMPI PUSH2 0x1E59 PUSH2 0x1912 JUMP JUMPDEST PUSH1 0x40 MSTORE DUP3 MLOAD PUSH2 0x1E67 DUP2 PUSH2 0x1959 JUMP JUMPDEST DUP2 MSTORE PUSH1 0x20 DUP4 ADD MLOAD PUSH2 0x1E77 DUP2 PUSH2 0x1959 JUMP JUMPDEST PUSH1 0x20 DUP3 ADD MSTORE SWAP4 SWAP3 POP POP POP JUMP JUMPDEST PUSH1 0x0 PUSH1 0x20 DUP3 DUP5 SUB SLT ISZERO PUSH2 0x1E95 JUMPI PUSH1 0x0 DUP1 REVERT JUMPDEST DUP2 CALLDATALOAD PUSH2 0x190B DUP2 PUSH2 0x1959 JUMP JUMPDEST DUP1 CALLDATALOAD PUSH2 0x1EAB DUP2 PUSH2 0x1959 JUMP JUMPDEST PUSH1 0x1 PUSH1 0x1 PUSH1 0xA0 SHL SUB SWAP1 DUP2 AND DUP4 MSTORE PUSH1 0x20 DUP3 ADD CALLDATALOAD SWAP1 PUSH2 0x1EC7 DUP3 PUSH2 0x1959 JUMP JUMPDEST DUP1 DUP3 AND PUSH1 0x20 DUP6 ADD MSTORE POP POP POP POP JUMP JUMPDEST PUSH1 0x40 DUP2 ADD PUSH2 0x3EC DUP3 DUP5 PUSH2 0x1EA0 JUMP JUMPDEST PUSH1 0x60 DUP2 ADD PUSH2 0x1EF1 DUP3 DUP6 PUSH2 0x1EA0 JUMP JUMPDEST DUP3 PUSH1 0x40 DUP4 ADD MSTORE SWAP4 SWAP3 POP POP POP JUMP JUMPDEST PUSH1 0x0 PUSH1 0x20 DUP3 DUP5 SUB SLT ISZERO PUSH2 0x1F10 JUMPI PUSH1 0x0 DUP1 REVERT JUMPDEST DUP2 MLOAD DUP1 ISZERO ISZERO DUP2 EQ PUSH2 0x190B JUMPI PUSH1 0x0 DUP1 REVERT JUMPDEST PUSH1 0x0 DUP2 PUSH1 0x0 NOT DIV DUP4 GT DUP3 ISZERO ISZERO AND ISZERO PUSH2 0x1F3A JUMPI PUSH2 0x1F3A PUSH2 0x1BFA JUMP JUMPDEST POP MUL SWAP1 JUMP JUMPDEST PUSH4 0x4E487B71 PUSH1 0xE0 SHL PUSH1 0x0 MSTORE PUSH1 0x32 PUSH1 0x4 MSTORE PUSH1 0x24 PUSH1 0x0 REVERT JUMPDEST PUSH1 0x0 PUSH1 0x0 NOT DUP3 EQ ISZERO PUSH2 0x1F69 JUMPI PUSH2 0x1F69 PUSH2 0x1BFA JUMP JUMPDEST POP PUSH1 0x1 ADD SWAP1 JUMP JUMPDEST PUSH1 0x0 PUSH1 0x20 DUP3 DUP5 SUB SLT ISZERO PUSH2 0x1F82 JUMPI PUSH1 0x0 DUP1 REVERT JUMPDEST DUP2 MLOAD PUSH2 0x190B DUP2 PUSH2 0x1959 JUMP INVALID LOG2 PUSH5 0x6970667358 0x22 SLT KECCAK256 0xC4 ADD 0xCD REVERT 0xB6 0xC7 BALANCE SWAP16 CREATE DUP6 0xBF SDIV 0xC2 XOR 0xC3 SWAP15 PC PUSH4 0x7C949E87 PUSH17 0xDC1A817D7C936D100B64736F6C63430008 MULMOD STOP CALLER "
		},
		"gasEstimates": {
			"creation": {
				"codeDepositCost": "1626200",
				"executionCost": "infinite",
				"totalCost": "infinite"
			},
			"external": {
				"commitDelayedProtocolParams()": "infinite",
				"commitDelayedStrategyParams(uint256)": "infinite",
				"commitInternalParams()": "infinite",
				"contractName()": "infinite",
				"contractNameBytes()": "310",
				"contractVersion()": "infinite",
				"contractVersionBytes()": "233",
				"createVault(address[],address,uint24,address)": "infinite",
				"delayedProtocolParams()": "infinite",
				"delayedProtocolParamsTimestamp()": "2424",
				"delayedProtocolPerVaultParamsTimestamp(uint256)": "2505",
				"delayedStrategyParams(uint256)": "infinite",
				"delayedStrategyParamsTimestamp(uint256)": "2571",
				"internalParams()": "6879",
				"internalParamsTimestamp()": "2315",
				"stageDelayedProtocolParams((address,address))": "infinite",
				"stageDelayedStrategyParams(uint256,(uint32))": "infinite",
				"stageInternalParams((address,address,address))": "infinite",
				"stagedDelayedProtocolParams()": "infinite",
				"stagedDelayedStrategyParams(uint256)": "infinite",
				"stagedInternalParams()": "6901",
				"supportsInterface(bytes4)": "544"
			},
			"internal": {
				"_contractName()": "infinite",
				"_contractVersion()": "infinite"
			}
		},
		"methodIdentifiers": {
			"commitDelayedProtocolParams()": "98347a5d",
			"commitDelayedStrategyParams(uint256)": "0bdedd56",
			"commitInternalParams()": "d4a07d34",
			"contractName()": "75d0c0dc",
			"contractNameBytes()": "0e3e80ac",
			"contractVersion()": "a0a8e460",
			"contractVersionBytes()": "06a46239",
			"createVault(address[],address,uint24,address)": "66c153e9",
			"delayedProtocolParams()": "d34cc380",
			"delayedProtocolParamsTimestamp()": "e4af6e79",
			"delayedProtocolPerVaultParamsTimestamp(uint256)": "511ce798",
			"delayedStrategyParams(uint256)": "8860d248",
			"delayedStrategyParamsTimestamp(uint256)": "6707acee",
			"internalParams()": "7ac46fbb",
			"internalParamsTimestamp()": "1c7f4c73",
			"stageDelayedProtocolParams((address,address))": "b2fe31ad",
			"stageDelayedStrategyParams(uint256,(uint32))": "25281714",
			"stageInternalParams((address,address,address))": "09946538",
			"stagedDelayedProtocolParams()": "c2cbdc67",
			"stagedDelayedStrategyParams(uint256)": "59f3dae7",
			"stagedInternalParams()": "86c6be3e",
			"supportsInterface(bytes4)": "01ffc9a7"
		}
	},
	"abi": [
		{
			"inputs": [
				{
					"components": [
						{
							"internalType": "contract IProtocolGovernance",
							"name": "protocolGovernance",
							"type": "address"
						},
						{
							"internalType": "contract IVaultRegistry",
							"name": "registry",
							"type": "address"
						},
						{
							"internalType": "contract IVault",
							"name": "singleton",
							"type": "address"
						}
					],
					"internalType": "struct IVaultGovernance.InternalParams",
					"name": "internalParams_",
					"type": "tuple"
				},
				{
					"components": [
						{
							"internalType": "contract INonfungiblePositionManager",
							"name": "positionManager",
							"type": "address"
						},
						{
							"internalType": "contract IOracle",
							"name": "oracle",
							"type": "address"
						}
					],
					"internalType": "struct IUniV3VaultGovernance.DelayedProtocolParams",
					"name": "delayedProtocolParams_",
					"type": "tuple"
				}
			],
			"stateMutability": "nonpayable",
			"type": "constructor"
		},
		{
			"anonymous": false,
			"inputs": [
				{
					"indexed": true,
					"internalType": "address",
					"name": "origin",
					"type": "address"
				},
				{
					"indexed": true,
					"internalType": "address",
					"name": "sender",
					"type": "address"
				},
				{
					"components": [
						{
							"internalType": "contract INonfungiblePositionManager",
							"name": "positionManager",
							"type": "address"
						},
						{
							"internalType": "contract IOracle",
							"name": "oracle",
							"type": "address"
						}
					],
					"indexed": false,
					"internalType": "struct IUniV3VaultGovernance.DelayedProtocolParams",
					"name": "params",
					"type": "tuple"
				}
			],
			"name": "CommitDelayedProtocolParams",
			"type": "event"
		},
		{
			"anonymous": false,
			"inputs": [
				{
					"indexed": true,
					"internalType": "address",
					"name": "origin",
					"type": "address"
				},
				{
					"indexed": true,
					"internalType": "address",
					"name": "sender",
					"type": "address"
				},
				{
					"indexed": true,
					"internalType": "uint256",
					"name": "nft",
					"type": "uint256"
				},
				{
					"components": [
						{
							"internalType": "uint32",
							"name": "safetyIndicesSet",
							"type": "uint32"
						}
					],
					"indexed": false,
					"internalType": "struct IUniV3VaultGovernance.DelayedStrategyParams",
					"name": "params",
					"type": "tuple"
				}
			],
			"name": "CommitDelayedStrategyParams",
			"type": "event"
		},
		{
			"anonymous": false,
			"inputs": [
				{
					"indexed": true,
					"internalType": "address",
					"name": "origin",
					"type": "address"
				},
				{
					"indexed": true,
					"internalType": "address",
					"name": "sender",
					"type": "address"
				},
				{
					"components": [
						{
							"internalType": "contract IProtocolGovernance",
							"name": "protocolGovernance",
							"type": "address"
						},
						{
							"internalType": "contract IVaultRegistry",
							"name": "registry",
							"type": "address"
						},
						{
							"internalType": "contract IVault",
							"name": "singleton",
							"type": "address"
						}
					],
					"indexed": false,
					"internalType": "struct IVaultGovernance.InternalParams",
					"name": "params",
					"type": "tuple"
				}
			],
			"name": "CommitedInternalParams",
			"type": "event"
		},
		{
			"anonymous": false,
			"inputs": [
				{
					"indexed": true,
					"internalType": "address",
					"name": "origin",
					"type": "address"
				},
				{
					"indexed": true,
					"internalType": "address",
					"name": "sender",
					"type": "address"
				},
				{
					"indexed": false,
					"internalType": "address[]",
					"name": "vaultTokens",
					"type": "address[]"
				},
				{
					"indexed": false,
					"internalType": "bytes",
					"name": "options",
					"type": "bytes"
				},
				{
					"indexed": false,
					"internalType": "address",
					"name": "owner",
					"type": "address"
				},
				{
					"indexed": false,
					"internalType": "address",
					"name": "vaultAddress",
					"type": "address"
				},
				{
					"indexed": false,
					"internalType": "uint256",
					"name": "vaultNft",
					"type": "uint256"
				}
			],
			"name": "DeployedVault",
			"type": "event"
		},
		{
			"anonymous": false,
			"inputs": [
				{
					"indexed": true,
					"internalType": "address",
					"name": "origin",
					"type": "address"
				},
				{
					"indexed": true,
					"internalType": "address",
					"name": "sender",
					"type": "address"
				},
				{
					"components": [
						{
							"internalType": "contract INonfungiblePositionManager",
							"name": "positionManager",
							"type": "address"
						},
						{
							"internalType": "contract IOracle",
							"name": "oracle",
							"type": "address"
						}
					],
					"indexed": false,
					"internalType": "struct IUniV3VaultGovernance.DelayedProtocolParams",
					"name": "params",
					"type": "tuple"
				},
				{
					"indexed": false,
					"internalType": "uint256",
					"name": "when",
					"type": "uint256"
				}
			],
			"name": "StageDelayedProtocolParams",
			"type": "event"
		},
		{
			"anonymous": false,
			"inputs": [
				{
					"indexed": true,
					"internalType": "address",
					"name": "origin",
					"type": "address"
				},
				{
					"indexed": true,
					"internalType": "address",
					"name": "sender",
					"type": "address"
				},
				{
					"indexed": true,
					"internalType": "uint256",
					"name": "nft",
					"type": "uint256"
				},
				{
					"components": [
						{
							"internalType": "uint32",
							"name": "safetyIndicesSet",
							"type": "uint32"
						}
					],
					"indexed": false,
					"internalType": "struct IUniV3VaultGovernance.DelayedStrategyParams",
					"name": "params",
					"type": "tuple"
				},
				{
					"indexed": false,
					"internalType": "uint256",
					"name": "when",
					"type": "uint256"
				}
			],
			"name": "StageDelayedStrategyParams",
			"type": "event"
		},
		{
			"anonymous": false,
			"inputs": [
				{
					"indexed": true,
					"internalType": "address",
					"name": "origin",
					"type": "address"
				},
				{
					"indexed": true,
					"internalType": "address",
					"name": "sender",
					"type": "address"
				},
				{
					"components": [
						{
							"internalType": "contract IProtocolGovernance",
							"name": "protocolGovernance",
							"type": "address"
						},
						{
							"internalType": "contract IVaultRegistry",
							"name": "registry",
							"type": "address"
						},
						{
							"internalType": "contract IVault",
							"name": "singleton",
							"type": "address"
						}
					],
					"indexed": false,
					"internalType": "struct IVaultGovernance.InternalParams",
					"name": "params",
					"type": "tuple"
				},
				{
					"indexed": false,
					"internalType": "uint256",
					"name": "when",
					"type": "uint256"
				}
			],
			"name": "StagedInternalParams",
			"type": "event"
		},
		{
			"inputs": [],
			"name": "commitDelayedProtocolParams",
			"outputs": [],
			"stateMutability": "nonpayable",
			"type": "function"
		},
		{
			"inputs": [
				{
					"internalType": "uint256",
					"name": "nft",
					"type": "uint256"
				}
			],
			"name": "commitDelayedStrategyParams",
			"outputs": [],
			"stateMutability": "nonpayable",
			"type": "function"
		},
		{
			"inputs": [],
			"name": "commitInternalParams",
			"outputs": [],
			"stateMutability": "nonpayable",
			"type": "function"
		},
		{
			"inputs": [],
			"name": "contractName",
			"outputs": [
				{
					"internalType": "string",
					"name": "",
					"type": "string"
				}
			],
			"stateMutability": "pure",
			"type": "function"
		},
		{
			"inputs": [],
			"name": "contractNameBytes",
			"outputs": [
				{
					"internalType": "bytes32",
					"name": "",
					"type": "bytes32"
				}
			],
			"stateMutability": "pure",
			"type": "function"
		},
		{
			"inputs": [],
			"name": "contractVersion",
			"outputs": [
				{
					"internalType": "string",
					"name": "",
					"type": "string"
				}
			],
			"stateMutability": "pure",
			"type": "function"
		},
		{
			"inputs": [],
			"name": "contractVersionBytes",
			"outputs": [
				{
					"internalType": "bytes32",
					"name": "",
					"type": "bytes32"
				}
			],
			"stateMutability": "pure",
			"type": "function"
		},
		{
			"inputs": [
				{
					"internalType": "address[]",
					"name": "vaultTokens_",
					"type": "address[]"
				},
				{
					"internalType": "address",
					"name": "owner_",
					"type": "address"
				},
				{
					"internalType": "uint24",
					"name": "fee_",
					"type": "uint24"
				},
				{
					"internalType": "address",
					"name": "uniV3Helper_",
					"type": "address"
				}
			],
			"name": "createVault",
			"outputs": [
				{
					"internalType": "contract IUniV3Vault",
					"name": "vault",
					"type": "address"
				},
				{
					"internalType": "uint256",
					"name": "nft",
					"type": "uint256"
				}
			],
			"stateMutability": "nonpayable",
			"type": "function"
		},
		{
			"inputs": [],
			"name": "delayedProtocolParams",
			"outputs": [
				{
					"components": [
						{
							"internalType": "contract INonfungiblePositionManager",
							"name": "positionManager",
							"type": "address"
						},
						{
							"internalType": "contract IOracle",
							"name": "oracle",
							"type": "address"
						}
					],
					"internalType": "struct IUniV3VaultGovernance.DelayedProtocolParams",
					"name": "",
					"type": "tuple"
				}
			],
			"stateMutability": "view",
			"type": "function"
		},
		{
			"inputs": [],
			"name": "delayedProtocolParamsTimestamp",
			"outputs": [
				{
					"internalType": "uint256",
					"name": "",
					"type": "uint256"
				}
			],
			"stateMutability": "view",
			"type": "function"
		},
		{
			"inputs": [
				{
					"internalType": "uint256",
					"name": "nft",
					"type": "uint256"
				}
			],
			"name": "delayedProtocolPerVaultParamsTimestamp",
			"outputs": [
				{
					"internalType": "uint256",
					"name": "",
					"type": "uint256"
				}
			],
			"stateMutability": "view",
			"type": "function"
		},
		{
			"inputs": [
				{
					"internalType": "uint256",
					"name": "nft",
					"type": "uint256"
				}
			],
			"name": "delayedStrategyParams",
			"outputs": [
				{
					"components": [
						{
							"internalType": "uint32",
							"name": "safetyIndicesSet",
							"type": "uint32"
						}
					],
					"internalType": "struct IUniV3VaultGovernance.DelayedStrategyParams",
					"name": "",
					"type": "tuple"
				}
			],
			"stateMutability": "view",
			"type": "function"
		},
		{
			"inputs": [
				{
					"internalType": "uint256",
					"name": "nft",
					"type": "uint256"
				}
			],
			"name": "delayedStrategyParamsTimestamp",
			"outputs": [
				{
					"internalType": "uint256",
					"name": "",
					"type": "uint256"
				}
			],
			"stateMutability": "view",
			"type": "function"
		},
		{
			"inputs": [],
			"name": "internalParams",
			"outputs": [
				{
					"components": [
						{
							"internalType": "contract IProtocolGovernance",
							"name": "protocolGovernance",
							"type": "address"
						},
						{
							"internalType": "contract IVaultRegistry",
							"name": "registry",
							"type": "address"
						},
						{
							"internalType": "contract IVault",
							"name": "singleton",
							"type": "address"
						}
					],
					"internalType": "struct IVaultGovernance.InternalParams",
					"name": "",
					"type": "tuple"
				}
			],
			"stateMutability": "view",
			"type": "function"
		},
		{
			"inputs": [],
			"name": "internalParamsTimestamp",
			"outputs": [
				{
					"internalType": "uint256",
					"name": "",
					"type": "uint256"
				}
			],
			"stateMutability": "view",
			"type": "function"
		},
		{
			"inputs": [
				{
					"components": [
						{
							"internalType": "contract INonfungiblePositionManager",
							"name": "positionManager",
							"type": "address"
						},
						{
							"internalType": "contract IOracle",
							"name": "oracle",
							"type": "address"
						}
					],
					"internalType": "struct IUniV3VaultGovernance.DelayedProtocolParams",
					"name": "params",
					"type": "tuple"
				}
			],
			"name": "stageDelayedProtocolParams",
			"outputs": [],
			"stateMutability": "nonpayable",
			"type": "function"
		},
		{
			"inputs": [
				{
					"internalType": "uint256",
					"name": "nft",
					"type": "uint256"
				},
				{
					"components": [
						{
							"internalType": "uint32",
							"name": "safetyIndicesSet",
							"type": "uint32"
						}
					],
					"internalType": "struct IUniV3VaultGovernance.DelayedStrategyParams",
					"name": "params",
					"type": "tuple"
				}
			],
			"name": "stageDelayedStrategyParams",
			"outputs": [],
			"stateMutability": "nonpayable",
			"type": "function"
		},
		{
			"inputs": [
				{
					"components": [
						{
							"internalType": "contract IProtocolGovernance",
							"name": "protocolGovernance",
							"type": "address"
						},
						{
							"internalType": "contract IVaultRegistry",
							"name": "registry",
							"type": "address"
						},
						{
							"internalType": "contract IVault",
							"name": "singleton",
							"type": "address"
						}
					],
					"internalType": "struct IVaultGovernance.InternalParams",
					"name": "newParams",
					"type": "tuple"
				}
			],
			"name": "stageInternalParams",
			"outputs": [],
			"stateMutability": "nonpayable",
			"type": "function"
		},
		{
			"inputs": [],
			"name": "stagedDelayedProtocolParams",
			"outputs": [
				{
					"components": [
						{
							"internalType": "contract INonfungiblePositionManager",
							"name": "positionManager",
							"type": "address"
						},
						{
							"internalType": "contract IOracle",
							"name": "oracle",
							"type": "address"
						}
					],
					"internalType": "struct IUniV3VaultGovernance.DelayedProtocolParams",
					"name": "",
					"type": "tuple"
				}
			],
			"stateMutability": "view",
			"type": "function"
		},
		{
			"inputs": [
				{
					"internalType": "uint256",
					"name": "nft",
					"type": "uint256"
				}
			],
			"name": "stagedDelayedStrategyParams",
			"outputs": [
				{
					"components": [
						{
							"internalType": "uint32",
							"name": "safetyIndicesSet",
							"type": "uint32"
						}
					],
					"internalType": "struct IUniV3VaultGovernance.DelayedStrategyParams",
					"name": "",
					"type": "tuple"
				}
			],
			"stateMutability": "view",
			"type": "function"
		},
		{
			"inputs": [],
			"name": "stagedInternalParams",
			"outputs": [
				{
					"components": [
						{
							"internalType": "contract IProtocolGovernance",
							"name": "protocolGovernance",
							"type": "address"
						},
						{
							"internalType": "contract IVaultRegistry",
							"name": "registry",
							"type": "address"
						},
						{
							"internalType": "contract IVault",
							"name": "singleton",
							"type": "address"
						}
					],
					"internalType": "struct IVaultGovernance.InternalParams",
					"name": "",
					"type": "tuple"
				}
			],
			"stateMutability": "view",
			"type": "function"
		},
		{
			"inputs": [
				{
					"internalType": "bytes4",
					"name": "interfaceId",
					"type": "bytes4"
				}
			],
			"name": "supportsInterface",
			"outputs": [
				{
					"internalType": "bool",
					"name": "",
					"type": "bool"
				}
			],
			"stateMutability": "view",
			"type": "function"
		}
	]
}